:100000000C948B130C94CB130C94CB130C94CB1338
:100010000C94CB130C94CB130C94CB130C94CB13E8
:100020000C94CB130C94C8B20C94C8B20C94C8B204
:100030000C94CB130C94CB130C94CB130C94CB13C8
:100040000C94CB130C94C65D0C94CB130C94CB1373
:100050000C94CB130C94E3C50C94CB130C9468B99B
:100060000C94CB130C941B560C9411560C94CB137C
:100070000C94CB130C94CB130C94CB130C94CB1388
:100080000C94EA1B0C94CB130C94CB130C94CB1351
:100090000C94CB130C94CB130C94CB130C94CB1368
:1000A0000C94CB130C94CB130C94BD1B0C94CB135E
:1000B0000C94CB130C94CB130C94CB130C94CB1348
:1000C0000C94CB130C94CB130C94CB130C94CB1338
:1000D0000C94CB130C94CB130C94CB130C94CB1328
:1000E0000C94CB13084AD73B3BCE016E84BCBFFDBA
:1000F000C12F3D6C74319ABD56833DDA3D00C77FF8
:1001000011BED9E4BB4C3E916BAAAABE0000008090
:100110003F05A84CCDB2D44EB93836A9020C50B91F
:10012000918688083CA6AAAA2ABE000000803F004B
:100130004E414E494E495459494E46CDCCCC3D0ACC
:10014000D7233C17B7D13877CC2B329595E6241FAF
:10015000B14F0A000020410000C84200401C462068
:10016000BCBE4CCA1B0E5AAEC59D74434F4D4D5577
:100170004E49434154494F4E0044525952554E0046
:100180004552524F525300494E464F004543484F47
:10019000005072696E7465722073746F707065645C
:1001A0002064756520746F206572726F72732E20E3
:1001B00046697820746865206572726F7220616E7E
:1001C0006420757365204D39393920746F2072654C
:1001D00073746172742E202854656D706572617439
:1001E0007572652069732072657365742E2053657E
:1001F000742069742061667465722072657374611D
:100200007274696E67290A004E6F20436865636BDC
:1002100073756D2077697468206C696E65206E75E2
:100220006D6265722C204C617374204C696E653A66
:100230002000636865636B73756D206D69736D6114
:100240007463682C204C617374204C696E653A208D
:10025000004C696E65204E756D6265722069732071
:100260006E6F74204C617374204C696E65204E75FE
:100270006D6265722B312C204C617374204C696E59
:10028000653A20004D3131300053657269616C2050
:10029000737461747573206D69736D617463680A3A
:1002A00000746F6F206D75636820696E6163746997
:1002B00076652074696D65202D2063757272656E98
:1002C0007420636F6D6D616E643A20002121204BB4
:1002D000494C4C206361757365642062792000622B
:1002E0007573793A2070617573656420666F72204A
:1002F000696E7075740A00627573793A2070617561
:1003000073656420666F7220757365720A0062758A
:1003100073793A2070726F63657373696E670A0050
:100320006563686F3A004572726F723A004F4646D5
:10033000004F4E0066616C73650074727565004213
:10034000696C696E656172204C6576656C696E6773
:1003500020477269643A0A002F323536006D6178A1
:10036000002F3331002F3331002F3331006D61788E
:10037000002F3331002F3331002F333100303D2E29
:1003800033323500313D2E3138006D6178002F3326
:1003900031002F3331002F333100303D2E333235D1
:1003A00000313D2E3138006D6178002F3331002F40
:1003B0003331002F333100303D2E33323500313DA3
:1003C0002E3138006D6178002F3331002F3331002A
:1003D0002F333100092042616420726573706F6EA3
:1003E00073652100092042616420726573706F6E2D
:1003F00073652100092042616420726573706F6E1D
:1004000073652100092042616420726573706F6E0C
:1004100073652100092042616420726573706F6EFC
:10042000736521004C4F570048494748004F4B0027
:100430004572726F723A20416C6C200020636F6EBF
:100440006E656374696F6E2E2E2E20005465737472
:10045000696E6720004C4F570048494748004F4B92
:10046000004572726F723A20416C6C200020636FFD
:100470006E6E656374696F6E2E2E2E200054657348
:1004800074696E6720004C4F570048494748004F39
:100490004B004572726F723A20416C6C20002063F1
:1004A0006F6E6E656374696F6E2E2E2E200054651C
:1004B0007374696E6720004C4F57004849474800E5
:1004C0004F4B004572726F723A20416C6C200020D5
:1004D000636F6E6E656374696F6E2E2E2E200054EE
:1004E000657374696E6720004C4F57004849474850
:1004F000004F4B004572726F723A20416C6C2000C5
:1005000020636F6E6E656374696F6E2E2E2E2000F1
:1005100054657374696E672000426564204C65768B
:10052000656C696E6720004661696C656420746F54
:1005300020656E61626C6520426564204C6576655D
:100540006C696E670A00496E76616C6964206D653E
:1005500073682E0A002E0A002F0050726F62696EB7
:1005600067206D65736820706F696E7420002028A5
:1005700044525952554E2900473239204175746F03
:1005800020426564204C6576656C696E67003F208B
:10059000284C2C522C462C4229206F7574206F66F3
:1005A00020626F756E64732E0A003F2856296572AB
:1005B000626F7365206C6576656C20696D706C6127
:1005C000757369626C652028302D34292E0A00422B
:1005D0006164205A2076616C75650A004E6F206256
:1005E000696C696E65617220677269640A002044F3
:1005F0000020204D32303020540020204D32303049
:10060000205300202844697361626C6564293A00B4
:1006100046696C616D656E742073657474696E678C
:10062000730020204D3230312058004D6178204138
:100630006363656C65726174696F6E2028756E699D
:1006400074732F7332290020204D3230332058002C
:100650004D617820666565647261746573202875E4
:100660006E6974732F73290020520020204D3230A0
:1006700034205000416363656C65726174696F6E0C
:100680002028756E6974732F7332292028503C70AE
:1006900072696E742D616363656C3E20523C7265B5
:1006A00074726163742D616363656C3E20543C74A5
:1006B000726176656C2D616363656C3E2900204A2A
:1006C0000020540020530020204D323035204200BD
:1006D000416476616E6365642028423C6D696E5F9B
:1006E0007365676D656E745F74696D655F75733E84
:1006F00020533C6D696E5F66656564726174653E2A
:1007000020543C6D696E5F74726176656C5F6665DE
:100710006564726174653E204A3C6A756E635F640D
:1007200065763E290020204D32313700546F6F6CC2
:100730002D6368616E67696E670020204D32313825
:10074000205400486F74656E64206F66667365742C
:10075000730020440020490020204D3330312050C8
:1007600000486F74656E64205049440020440020A6
:10077000204D353933205920460020440020204D9B
:100780003539332058204600496E707574205368FF
:100790006170696E67004452565F5354415455531B
:1007A000090050574D5F5343414C45090050574D88
:1007B000434F4E460900434F4F4C434F4E460900AE
:1007C00043484F50434F4E46090054484947480953
:1007D000090054434F4F4C5448525309005450574A
:1007E0004D5448525309005453544550090900547C
:1007F000504F574552444F574E0900494F494E09F3
:100800000900475354415409090049484F4C445F7B
:100810004952554E090047434F4E46090900090009
:100820004472697665722072656769737465727364
:100830003A0A007332767362090073327673610983
:10084000003132304309003134334309003135304F
:100850004309003135374309006F7409006F747024
:100860007709007332676109007332676209006FAC
:100870006C6109006F6C620900737473740900661F
:1008800073616374697665007374616C6C6775611C
:1008900072640073675F726573756C7400445256BE
:1008A00053544154555300755374657020636F75EC
:1008B0006E74005374616C6C677561726420746847
:1008C000727300202D7374617274090068797374F7
:1008D0006572657369730A202D656E640900626C28
:1008E000616E6B2074696D65006F66662074696D5A
:1008F000650070776D2067726164206175746F00A8
:1009000070776D206F6666736574206175746F0013
:1009100070776D207363616C65206175746F007012
:10092000776D207363616C652073756D004F542083
:100930007072657761726E005B6D6D2F735D09007B
:1009400050574D207468726573682E007473746517
:10095000700900696E7465727009006D737465705A
:10096000730900737465616C746843686F70007616
:1009700073656E7365090050574D207363616C6534
:100980000043532061637475616C00476C6F626152
:100990006C207363616C657200486F6C64206375D2
:1009A0007272656E740052756E2063757272656E38
:1009B00074004D41582063757272656E7400524D1B
:1009C000532063757272656E74005365742063758D
:1009D0007272656E7400456E61626C6564090041F7
:1009E00064647265737309000900737072656164F1
:1009F0004379636C6500737465616C746843686FF8
:100A0000700020647269766572206D6F64653A09C2
:100A1000007370726561644379636C65007374651B
:100A2000616C746843686F700020647269766572E7
:100A3000206D6F64653A0900737072656164437973
:100A4000636C6500737465616C746843686F7000F3
:100A500020647269766572206D6F64653A0900736F
:100A600070726561644379636C6500737465616C71
:100A7000746843686F700020647269766572206DD7
:100A80006F64653A09007370726561644379636CE1
:100A90006500737465616C746843686F70002064EE
:100AA0007269766572206D6F64653A0900202E6860
:100AB000737472743A2000202E68656E643A2000C8
:100AC0002063686F70706572202E746F66663A20BE
:100AD00000202E68737472743A2000202E68656EB0
:100AE000643A20002063686F70706572202E746F06
:100AF00066663A2000202E68737472743A200020D3
:100B00002E68656E643A20002063686F70706572AD
:100B1000202E746F66663A2000202E6873747274FB
:100B20003A2000202E68656E643A20002063686FCA
:100B300070706572202E746F66663A2000202E68F1
:100B4000737472743A2000202E68656E643A200037
:100B50002063686F70706572202E746F66663A202D
:100B6000003F53206F7574206F662072616E676559
:100B70002028312E2E38290A003F50206F7574200E
:100B80006F662072616E676520282D332E2E3132FC
:100B9000290A003F4F206F7574206F662072616EC6
:100BA00067652028312E2E3135290A003B20002090
:100BB000496E76616C6964206578747275646572DB
:100BC000200047322F4733206261642070617261D8
:100BD0006D65746572730A0047323800205A3A20F6
:100BE0000020593A200042656420583A20004D65A3
:100BF000736820706F696E74206F7574206F662043
:100C000072616E67650A002569730025696D20258C
:100C10006973002569682025696D202569730025A1
:100C20006964202569682025696D20256973002580
:100C3000697920256964202569682025696D20254A
:100C40006973005072696E742074696D653A200092
:100C50006F6B006F6666008C018701800179016B04
:100C60000144454255473A004D31313220536875B1
:100C700074646F776E004D3131332053002F2F0095
:100C80003F4A206F7574206F662072616E67652021
:100C900028302E303120746F20302E33290A002066
:100CA000204D61783A2000200020204D696E3A20C6
:100CB00000203B200020204D323131205300536F63
:100CC000667420656E6473746F70730046523A00E8
:100CD00020466C6F773A20003A20002053657276E8
:100CE0006F2000206F7574206F662072616E6765DB
:100CF0000A00536572766F200050726F6265204F54
:100D00006666736574205A0050726F6265204F6684
:100D100066736574205A00496E76616C696420655B
:100D2000787472756465720A0064697300656E0098
:100D300043290A0061626C656420286D696E207425
:100D4000656D702000436F6C642065787472756403
:100D500065732061726520004D34323120696E6305
:100D60006F727265637420706172616D6574657213
:100D70002075736167650A004D65736820706F693F
:100D80006E74206F7574206F662072616E67650ADD
:100D900000546F6F206661722066726F6D207265FD
:100DA000666572656E636520706F696E740A0045D2
:100DB0004550524F4D204F4B0A00206F722030207B
:100DC000746F2064697361626C650A003F467265E6
:100DD0007175656E637920284629206D75737420BE
:100DE00062652067726561746572207468616E2047
:100DF000003F5A657461202844292076616C75652E
:100E0000206F7574206F662072616E6765202830D0
:100E10002D31290A00290A0020746F20003F5A2032
:100E20006F7574206F662072616E676520280029D7
:100E30000A0020746F20003F59206F7574206F6680
:100E40002072616E676520282D00290A0020746FCA
:100E500020003F58206F7574206F662072616E67A6
:100E60006520282D002E0A002028302D3130290041
:100E70002076616C7565206F7574206F66207261D5
:100E80006E676500416476616E6365204B3D0020AE
:100E90006472697665722063757272656E743A2049
:100EA00000206472697665722063757272656E7473
:100EB0003A200020647269766572206375727265EB
:100EC0006E743A20002064726976657220637572D0
:100ED00072656E743A2000206472697665722063D0
:100EE000757272656E743A20006F6B0020204D326F
:100EF0003036205800486F6D65206F6666736574E4
:100F0000004361703A00434F4E4649475F45585091
:100F10004F5254004D4541545041434B00434F4FB5
:100F20004C45525F54454D50455241545552450031
:100F30004348414D4245525F54454D5045524154FE
:100F400055524500424142595354455050494E472D
:100F50000041524353004D4F54494F4E5F4D4F4453
:100F6000455300544845524D414C5F50524F5445F3
:100F70004354494F4E00455854454E4445445F4DF7
:100F8000323000435553544F4D5F4649524D5741FF
:100F900052455F55504C4F4144004C464E5F5752AE
:100FA000495445004C4F4E475F46494C454E414DD4
:100FB00045004155544F5245504F52545F53445F82
:100FC0005354415455530053445F575249544500BC
:100FD00052455045415400534443415244005052FD
:100FE0004F4D50545F535550504F525400484F533B
:100FF000545F414354494F4E5F434F4D4D414E4422
:101000005300454D455247454E43595F5041525359
:10101000455200434153455F4C494748545F425253
:10102000494748544E45535300544F47474C455F3A
:101030004C494748545300534F4654574152455F1B
:10104000504F574552004255494C445F504552431A
:10105000454E54004C4556454C494E475F4441541B
:1010600041005A5F50524F42450052554E4F555421
:10107000004155544F4C4556454C005052494E5432
:101080005F4A4F420050524F47524553530041551B
:10109000544F5245504F52545F54454D50004155A6
:1010A000544F5245504F52545F504F5300564F4C7F
:1010B000554D455452494300454550524F4D00420D
:1010C000494E4152595F46494C455F5452414E5337
:1010D0004645520053455249414C5F584F4E5F5868
:1010E0004F4646004649524D574152455F4E414D8D
:1010F000453A4D61726C696E20322E312E322028B5
:1011000041707220313520323032332031323A345E
:10111000383A30392920534F555243455F434F44A5
:10112000455F55524C3A6769746875622E636F6DFE
:101130002F4D61726C696E4669726D776172652FB1
:101140004D61726C696E2050524F544F434F4C5F4B
:1011500056455253494F4E3A312E30204D41434867
:10116000494E455F545950453A4A756C6961205063
:10117000726F204475616C203234562041424C20FD
:101180007769746820544D4335313630206F6E20B6
:10119000535049206D6F64652028582659292061D5
:1011A0006E6420544D4332323039206F6E205A2005
:1011B000262045206F6E204D4B532047656E4C20F6
:1011C00056322E31204D61726C696E20322E312ED6
:1011D000322045585452554445525F434F554E5462
:1011E0003A3220555549443A636564653261326646
:1011F0002D343161322D343734382D396231322D6E
:1012000063353563363266333637666600203B0019
:1012100020204D3835312058005A2D50726F6265AC
:10122000204F66667365740020573A0020573A00D5
:10123000206661696C656421204261642068656193
:101240007465722069640A00504944204175746FC6
:1012500074756E650023646566696E652044454655
:1012600041554C545F004B6420004B6920004B708B
:1012700020002066696E697368656421205075746A
:1012800020746865206C617374204B702C204B694E
:1012900020616E64204B6420636F6E7374616E74A2
:1012A000732066726F6D2062656C6F7720696E7453
:1012B0006F20436F6E66696775726174696F6E2E19
:1012C000680A00504944204175746F74756E65005A
:1012D000206661696C6564212074696D656F757441
:1012E0000A00504944204175746F74756E65002082
:1012F0006661696C6564212054656D706572617406
:1013000075726520746F6F20686967680A005049BC
:1013100044204175746F74756E6500204B643A20EB
:1013200000204B693A2000204B703A200020436C8B
:10133000617373696320504944200A002054753A50
:101340002000204B753A2000206D61783A20002063
:101350006D696E3A200020643A2000206269617352
:101360003A20002073746172740A0050494420418D
:1013700075746F74756E6500206661696C656421B3
:101380002054656D706572617475726520746F6F3D
:1013900020686967680A00504944204175746F7479
:1013A000756E65006F70656E00545249474745522F
:1013B0004544003A20007A5F70726F6265007A5F80
:1013C0006D617800795F6D617800785F6D696E009E
:1013D0005265706F7274696E6720656E6473746FA6
:1013E00070207374617475730A000000B943008043
:1013F000C5430000C84300000000000000000000DA
:10140000000020746F6F206C6F6E672065787472B7
:101410007573696F6E2070726576656E7465640AA7
:101420000020636F6C6420657874727573696F6EE9
:101430002070726576656E7465640A00000020C2D3
:101440000080C5430000C8435761726E696E673AF9
:1014500020486F6D696E672042756D702044697613
:1014600069736F72203C20310A000202040000B947
:10147000430080C5430000C8430000A0400000A016
:10148000400000004000000001000000010000805A
:1014900000555555000000400033333300AAAA2AF6
:1014A000004992240000002000C7711C009999197E
:1014B00000D1451700555515003BB11300244912C2
:1014C0000011111100000010000F0F0F00E3380E83
:1014D0000043790D00CCCC0C00C3300C00E8A20B0B
:1014E0000064210B00AAAA0A00703D0A009DD809D9
:1014F00000427B090092240900DCD3080088880898
:10150000001042080000000800F0C10700878707AC
:101510000075500700711C07003EEB0600A1BC06D9
:10152000006990060066660600703E0600611806B7
:101530000017F4050074D105005BB00500B29005FA
:1015400000627205005555050078390500B81E0582
:1015500000050505004EEC040087D40400A1BD047D
:101560000090A7040049920400C17D0400EE6904C4
:1015700000C7560400444404005C320400082104FF
:101580000041100400000004003FF00300F8E003F5
:101590000026D20300C3C30300CCB503003AA8035E
:1015A000000A9B0300388E0300C08103009F75036F
:1015B00000D0690300505E03001D5303003448034C
:1015C00000913D03003333030016290300381F0345
:1015D0000097150300300C0300030303000BFA020D
:1015E0000049F10200BAE802005CE002002DD802D6
:1015F000002DD0020059C80200B0C0020031B9026B
:1016000000DAB10200AAAA0200A0A30200BC9C0258
:1016100000FA9502005C8F0200DF880200828202DD
:1016200000457C02002776020027700200436A0210
:10163000007C640200D05E02003F590200C85302E1
:1016400000FFFDFCFAF8F6F4F2F0EEECEAE9E7E56B
:10165000E3E1E0DEDCDAD9D7D5D4D2D0CFCDCBCA26
:10166000C8C7C5C3C2C0BFBDBCBAB9B7B6B4B3B2B0
:10167000B0AFADACAAA9A8A6A5A4A2A1A09E9D9C0E
:101680009A99989795949392908F8E8D8B8A89884A
:10169000878684838281807F7E7D7B7A7978777666
:1016A0007574737271706F6E6D6C6B6A6968676662
:1016B0006564636261605F5E5D5C5B5A5958585750
:1016C00056555453525150504F4E4D4C4B4A4A4927
:1016D00048474646454443424241403F3E3E3D3CEA
:1016E0003B3B3A393838373635353433323231309E
:1016F000302F2E2E2D2C2B2B2A2929282727262543
:101700002524232322212120201F1E1E1D1C1C1BDB
:101710001B1A191918181716161515141313121267
:101720001111100F0F0E0E0D0D0C0C0B0A0A0909EA
:101730000808070706060505040403030202010062
:1017400000DB0FC93F45BCDA3F8FB30240FCF027F6
:101750004056946140FE4B9B4084A5D840E023183E
:1017600041346A5641E859974164DBD5416E2717E9
:1017700042B4B75542CE1A9742C8AED542B5885A40
:1017800043D40684BFA65FA7BF7443E0BF10B11A5D
:10179000C01C2C58C0E8F697C0B849D6C04E4E17AA
:1017A000C124D355C1802497C1A0B5D5C1121A1741
:1017B000C244AE55C2781797C26CACD5C267885A7E
:1017C000C320746F6F206C6F6E67206578747275BC
:1017D00073696F6E2070726576656E7465640A0059
:1017E00020636F6C6420657874727573696F6E2006
:1017F00070726576656E7465640A00290A0020625D
:10180000797465733B206372632000536574746957
:101810006E67732053746F726564202800454550CD
:10182000524F4D20496E697469616C697A65640A2A
:101830000048617264636F64656420446566617525
:101840006C742053657474696E6773204C6F6164A7
:1018500065640020286D6D2900203B204C6576656D
:101860006C696E67200020204D34323020530041D7
:1018700075746F20426564204C6576656C696E678F
:101880000020204D393036002054312045002054AE
:1018900030204500537465707065722064726976FB
:1018A00065722063757272656E740020204D353646
:1018B0003920533100543120450054302045002058
:1018C0005800447269766572207374657070696E31
:1018D00067206D6F64650020204D393030204B004B
:1018E0004C696E65617220416476616E63650020AB
:1018F0004A002020473239205720490020204D310E
:1019000034392043203B20556E69747320696E2062
:1019100043656C736975730A0054656D7065726117
:101920007475726520556E697473002020473231DA
:10193000203B004C696E65617220556E69747300BE
:10194000454550524F4D206461746173697A65203A
:101950006572726F722E0A00290A0020627974651E
:10196000733B2063726320002073746F7265642080
:1019700073657474696E67732072657472696576D5
:101980006564202800202863616C63756C61746550
:101990006429210A0020213D2000454550524F4D29
:1019A00020435243206D69736D61746368202D205C
:1019B0002873746F7265642920002053697A653A30
:1019C0002000496E6465783A20000000484300001A
:1019D00048430000A041000034420000C84200001B
:1019E000C842F0F7FB4300000C43DC050000DC05B7
:1019F00000003200000010270000204D61726C6969
:101A00006E3D563837290A00454550524F4D2076D5
:101A1000657273696F6E206D69736D6174636820A0
:101A200028454550524F4D3D0024F404D9201BC495
:101A30000C5C0E9804C4095F0265077101F405F996
:101A400000FB04B30048048700C103690058035534
:101A50000003034500BE023A008402310053022A0B
:101A6000002902250004022000E4011C00C801191D
:101A700000AF0117009801140084011300710110D8
:101A8000006101100051010E0043010D0036010BF1
:101A9000002B010B0020010B00150109000C0109AE
:101AA0000003010800FB000800F3000800EB00073A
:101AB00000E4000600DE000600D8000600D20006A2
:101AC00000CC000500C7000500C2000500BD0004F1
:101AD00000B9000400B5000400B1000400AD00042A
:101AE00000A9000400A5000300A20003009F000459
:101AF000009B000300980003009500020093000380
:101B000000900003008D0002008B0003008800029B
:101B1000008600020084000300810002007F0002B2
:101B2000007D0002007B00020079000200770001C6
:101B300000760002007400020072000100710002D1
:101B4000006F0002006D0001006C0002006A0001DD
:101B500000690002006700010066000100650001E5
:101B600000640002006200010061000100600001E9
:101B7000005F0002005D0001005C0001005B0001ED
:101B8000005A0001005900010058000100570001EF
:101B900000560001005500010054000100530000F0
:101BA00000530001005200010051000100500001EB
:101BB000004F0001004E0000004E0001004D0001EA
:101BC000004C0001004B0000004B0001004A0001E6
:101BD00000490001004800000048000100470001E2
:101BE00000460000004600010045000000450001DD
:101BF00000440001004300000043000100420000D7
:101C000000420001004100000041000100400001CD
:101C1000003F0000003F0001003E0000003E0001C8
:101C2000003D0000003D0001003C0000003C0000C1
:101C3000003C0001003B0000003B0001003A0000B6
:101C4000003A0001003900000039000100380000AE
:101C500000380000003800010037000000370001A4
:101C6000003600000036000000360001003500009C
:101C70000035000000350001003400000034000091
:101C80000034000100330000003300000033000185
:101C9000003200000032000000320001003100007C
:101CA0000031000000310001003000000030000071
:101CB00000300001002F0000002F0000002F000066
:101CC000002F0001002E0000002E0000002E000159
:101CD000002D0000002D0000002D0000002D00014F
:101CE000002C0000002C0000002C0000002C000143
:101CF000002B0000002B0000002B0000002B000137
:101D0000002A0000002A0000002A0000002A00012A
:101D1000002900000029000000290000002900001F
:101D20000029000100280000002800000028000011
:101D30000028000000280001002700000027000004
:101D400000270000002700000027000100260000F7
:101D500000260000002600000026000000260001EA
:101D600000250000002500000025000000250000DF
:101D700000250000002500010024000000240000D0
:101D800000240000002400000024000100230000C3
:101D900000230000002300000023000000230000B7
:101DA00000230000002300010022000000220000A8
:101DB000002200000022000000220000002200019A
:101DC000002100000021000000210000002100008F
:101DD000002100000021000000210001002000007F
:101DE0000020000000200000002000000020000073
:101DF000002000000020000000200001001F000063
:101E0000001F0000001F0000001F0000001F000056
:101E1000001F0000001F0001001E0000001E000047
:101E2000001E0000001E00000024F4D43050C38EB9
:101E300020C2A24017828B7011127A910D816CD949
:101E40000AA861E108C7586607615143061E4B5D49
:101E500005C145A7041A411104093D9803713931A0
:101E6000034036DB0265339102D4305402802E1DCC
:101E700002632CEE01752AC501B028A0011027814C
:101E8000018F2564012B244B01E0223401AC211F7A
:101E9000018D200D01801FFC00841EED00971DDFC9
:101EA00000B81CD200E61BC600201BBC00641AB29E
:101EB00000B219A8000A19A0006A189900D1179158
:101EC0000040178B00B516840031167E00B31579DB
:101ED000003A157300C7146F0058146A00EE1366B9
:101EE000008813630025135E00C7125B006C125755
:101EF0000015125400C111510070114F0021114BF7
:101F000000D61049008D10470046104400021042D0
:101F100000C00F4000800F3E00420F3C00060F3B08
:101F200000CB0E3800930E37005C0E3500270E34C0
:101F300000F30D3200C10D3100900D3000600D2E08
:101F400000320D2D00050D2C00D90C2B00AE0C29F4
:101F500000850C29005C0C2700350C27000E0C2690
:101F600000E80B2400C40B2400A00B23007D0B23EE
:101F7000005A0B2100390B2100180B2000F80A1F12
:101F800000D90A1E00BB0A1E009D0A1D00800A1D02
:101F900000630A1C00470A1B002C0A1B00110A1AC6
:101FA00000F7091A00DD091900C4091900AB091965
:101FB00000920917007B091800630917004C0916E5
:101FC0000036091600200916000A091500F5081543
:101FD00000E0081400CC081400B8081400A4081489
:101FE00000900813007D0812006B081300580812B7
:101FF00000460812003408110023081100120811CD
:102000000001081100F0071000E0071000D00710D1
:1020100000C0071000B0070F00A107100091070EC5
:102020000083070F0074070F0065070E0057070EA7
:102030000049070E003B070D002E070E0020070D7C
:102040000013070D0006070D00F9060C00ED060D44
:1020500000E0060C00D4060C00C8060C00BC060C00
:1020600000B0060C00A4060B0099060C008D060BB0
:102070000082060B0077060B006C060B0061060A57
:102080000057060B004C060A0042060A0038060AF2
:10209000002E060A0024060A001A060A0010060985
:1020A0000007060A00FD050900F4050900EB050913
:1020B00000E2050900D9050900D0050900C7050996
:1020C00000BE050900B5050800AD050800A5050915
:1020D000009C050800940508008C0508008405088C
:1020E000007C050800740508006C050700650508FC
:1020F000005D050700560508004E05070047050767
:10210000004005080038050700310507002A0507CB
:1021100000230507001C050600160507000F05072C
:10212000000805060002050700FB040600F5040789
:1021300000EE040600E8040600E2040700DB0406E3
:1021400000D5040600CF040600C9040600C3040637
:1021500000BD040600B7040600B1040500AC040687
:1021600000A6040600A00405009B040600950405D3
:1021700000900406008A040500850405008004061A
:10218000007A04050075040500700405006B040561
:102190000066040500610405005C040500570405A1
:1021A00000520405004D04050048040500430405E1
:1021B000003E0404003A0405003504050030040420
:1021C000002C04050027040400230405001E040459
:1021D000001A04040016040500110404000D040490
:1021E00000090405000404040000040400FC0304C6
:1021F00000F8030400F4030400F0030400EC0304FB
:1022000000E8030400E4030400E0030400DC03042A
:1022100000D8030400D4030400D0030400CC03045A
:1022200000C8030300C5030300423A0020436F7552
:102230006E7420413A004500626564002C20737979
:102240007374656D2073746F7070656421204865C8
:10225000617465725F49443A20004572723A204DBC
:10226000415854454D50004D415854454D502074EF
:1022700072696767657265640048656174696E6755
:10228000204661696C65640048656174696E672009
:102290006661696C6564001000600350012C019058
:1022A000012201D001180110020E0170020401E0A8
:1022B00002FA006003F0000004E600B004DC00A0B5
:1022C00005D200B006C8000008BE00A009B4008016
:1022D0000BAA00D00DA00090109600C0138C0070C7
:1022E000178200901B780010206E00C0246400E06C
:1022F0002D500080353C00A03A2800A03D1400007D
:102300003F0000A03FECFF4572723A204D494E5409
:10231000454D50004D494E54454D502074726967EB
:10232000676572656400202F002040002042403A1B
:102330000020403A00496E76616C696420657874CB
:1023400072756465720A0041637469766520457828
:102350007472756465723A20001000C90210012C75
:10236000014001220170011801B0010E01F00104C9
:10237000015002FA00B002F0003003E600D003DCA6
:10238000009004D2007005C800A006BE000008B48A
:1023900000B009AA00D00BA000600E960060118C5E
:1023A000000015820020197800C01D6E00A0226474
:1023B00000B0275A00902C500000314600E0343C19
:1023C0000010383200903A2800603C1E00A03D14F6
:1023D00000803E0A00203F00002020506C616E6E9D
:1023E000657242756666657242797465733A20005B
:1023F0002046726565204D656D6F72793A20002028
:10240000436F6D70696C65643A204170722031359C
:1024100020323032330A00204C61737420557064CE
:10242000617465643A20323032322D31322D3137C9
:10243000207C20417574686F723A2028467261636F
:102440006B74616C20576F726B732C2064656661CE
:10245000756C7420636F6E666967290A004D61723E
:102460006C696E20322E312E320A0020536F667452
:10247000776172652052657365740A002057617434
:102480006368646F672052657365740A0020427246
:102490006F776E206F75742052657365740A002023
:1024A00045787465726E616C2052657365740A00BC
:1024B000506F77657255700A0073746172740A0008
:1024C00020503A00205A3A0020593A0020583A0049
:1024D000656E6473746F7073206869743A200000CD
:1024E000002100240027002A002D003000330001C5
:1024F000010000040107010A0100000A0B02090C97
:102500000D0E080703040100000000000000000099
:1025100000000000000000000000000000000000BB
:102520000000000000121110000000000000000078
:10253000000000000000000000000000000000009B
:102540000020002300260029002C002F003200006C
:1025500001000003010601090100002200250028F6
:10256000002B002E0031003400020100000501089C
:10257000010B010505050507050808080802020208
:10258000020A0A080804040404010101010101010E
:10259000010303030303030303040707070C0C0CE5
:1025A0000C0C0C0C0C0202020206060606060606BD
:1025B000060B0B0B0B0B0B0B0B010210202008085A
:1025C0001020401020408002010201080402010195
:1025D000020408102040808040201008040201807E
:1025E00004020180402010080402010804020101D5
:1025F0000204081020408001020408102040805787
:102600001D00001F1400005C0C0000F9060000BA59
:10261000030000EE010000FB0000007E0000004807
:102620006F6D696E67204661696C656400FF01012A
:1026300050726F62696E67204661696C65640A005A
:10264000205A3A200020593A200042656420583A26
:102650002000307800220A00556E6B6E6F776E2076
:10266000636F6D6D616E643A202200204500205A30
:102670000020590020204D393220580053746570D5
:10268000732070657220756E6974004572726F7286
:102690002077726974696E6720746F2045455052C7
:1026A0004F4D210A00544845524D414C2052554E41
:1026B0004157415900546865726D616C2052756EC6
:1026C0006177617900486F6D6520257325732573E7
:1026D0002046697273740020453A00205A3A00205F
:1026E000593A00583A006F6B0A00526573656E6480
:1026F0003A20005072696E7465722068616C74656E
:10270000642E206B696C6C28292063616C6C656495
:10271000210A000062CB11241FBECFEFD1E2DEBF41
:10272000CDBF00E00CBF84B78093941514BE0FB6E4
:10273000F894A89580916000886180936000109261
:1027400060000FBE13E0A0E0B2E0ECE5FFEB01E0BB
:102750000BBF02C007900D92A43FB107D9F725E146
:10276000A4EFB3E001C01D92A439B207E1F713E171
:10277000CBE8D3E100E006C021970109802FFE01DC
:102780000E9454DCCA38D10780E00807A9F70E94EC
:102790009BCC0C94ACDF0C94000020915604833049
:1027A00021F425FD0CC024FD0CC030E0A90102C0BD
:1027B000559547958A95E2F7CA018170089581E0A1
:1027C000089580E008958091720484FD0BC080918B
:1027D000740487FD07C090917504937081E019F42B
:1027E00080E0089581E00895FC01DB0112962D91AF
:1027F0003D914C91149722833383448315968C9199
:102800001597858316962D913D914C9118972683A7
:102810003783408719964D915D916D917C911C97FE
:1028200041875287638774871D964D915D916D91A5
:102830007C915097458756876787708B81EB93E033
:102840009183808351968D919C915297928B818B2D
:1028500053964D915D916D917C915697438B548B1E
:10286000658B768B57968C915797878B58968D9161
:102870009C915997918F808F5A968D919C915B97DF
:10288000938F828F5C968D919C915D97958F848FAD
:102890005E964D915D916D917C919197468F578F8A
:1028A00060A371A392964D915D916D917C919597E6
:1028B00042A353A364A375A396964D915D916D9128
:1028C0007C91999746A357A360A771A79A968D917B
:1028D0009C919B9793A782A79C968D919C919D9785
:1028E00095A784A79E968D919C919F9797A786A761
:1028F000D0968D919C91D19791AB80ABD2968C91D3
:1029000082AB0895682F880F770B880B990B0C9476
:10291000E7AC8091520490915304009731F04AE063
:1029200050E070E060E00C942AD560E070E0CB01EC
:102930000895EFDF97FD0AC0ECDF6F3F7105810559
:10294000910509F02CF4E5DF862F089580E00895C5
:102950008FEF08958091520490915304892B39F0A0
:10296000E8DF91E0811101C090E0892F089591E0A6
:10297000FCCFAF92BF92CF92DF92EF92FF920F9374
:102980001F93CF935C016B018A018C5F9B4F7C018D
:10299000DC01CC91C7FF3DC0FB0111821082CF5FEB
:1029A000D701CC93CC300CF053C08CE08A9DF00161
:1029B0008B9DF00D1124CF018C0F911DC7FD9A95B1
:1029C000209153142817190609F00CF441C0F601A0
:1029D00020813181FC01EE0FFF1FE80FF91FE55F39
:1029E000FB4E81819281820F931FD80111969C9397
:1029F0008E93808187FF3DC061E08F77CF911F91DB
:102A00000F91FF90EF90DF90CF90BF90AF900C941C
:102A100044B38CE08A9DF0018B9DF00D1124CF0111
:102A20008C0F911DC7FD9A952091531428171906F4
:102A300009F00CF4B4CFFC01EE0FFF1FE80FF91FF3
:102A4000E55FFB4E808160E08F770E9444B3A7CFA3
:102A5000F6018081918104968034FCE99F0710F48F
:102A600080E49CE9D80111969C938E938FEFF70137
:102A70008083CF911F910F91FF90EF90DF90CF90C7
:102A8000BF90AF90089590E080E00895BC0190E081
:102A900080E00C947DAC8091FC0A882319F080E0E2
:102AA0000E94209080E0089534DFCB0108950F93B9
:102AB0001F93CF938091520490915304009709F192
:102AC000FC018F01C1912C2F2F7DA1F0C53431F075
:102AD000C53621F0C83511F0C83799F7F8011082D2
:102AE00070E060E00E94D5D3F801C083CF911F91C0
:102AF0000F91089570E060E0CF911F910F910C94B9
:102B0000D5D360E070E0CB01F1CF2FEB280F2A3155
:102B100008F047C0E22FF0E08091720490917304B6
:102B2000A0917404B091750404C0B695A7959795CB
:102B300087952A95D2F780FD02C081700895E85AE2
:102B4000FB4FE081EE2341F18091FE0A9091FF0A54
:102B5000E80FF92FF11D808190ED980F9A3030F039
:102B60008E3251F4818180538A3098F4F09353046B
:102B7000E093520481E008958D3211F08B3249F4D4
:102B8000818190ED980F9A3088F38E3211F4828112
:102B9000EACFF0E0E0E0EACF109253041092520442
:102BA000E9CF80E00895B1DF882341F081E02091F2
:102BB000520430915304232B09F480E00895CF92FE
:102BC000DF92EF92FF926A017B01EDDF882329F00B
:102BD000FF90EF90DF90CF906ACFC701B601FF90D2
:102BE000EF90DF90CF9008954F925F926F927F9217
:102BF000AF92BF92CF92DF92EF92FF920F931F930B
:102C0000CF9388EAA82E82E0B82E9CE4E92E99E0C2
:102C1000F92E04E712E02AE5C22E21E1D22EC0E00F
:102C2000F50181915F01BFDF882309F476C03FDFA2
:102C30002B013C018C2FB1DD882309F464C0F8011D
:102C40002081318142815381C301B2010E94B5DCF0
:102C5000F7016083718382839383CF5FF4E0EF0E8B
:102C6000F11C0C5F1F4F84E0C80ED11CC330C1F6AD
:102C700085E499DF882309F45BC019DF6B017C01CF
:102C800083E08BDD882371F02091800230918102F6
:102C90004091820250918302C701B6010E94B5DCC7
:102CA0006B017C01C0925809D0925909E0925A09EF
:102CB000F0925B0940E050E0BA0186E480DF20E05A
:102CC00030E0A9010E94DBDE18167CF4F0DE20E083
:102CD00030E040E752E40E9491DD60935A02709325
:102CE0005B0280935C0290935D02CF911F910F91E4
:102CF000FF90EF90DF90CF90BF90AF907F906F905C
:102D00005F904F900895F601208131814281538177
:102D1000C301B2010E94B4DC9BCFF8018081918194
:102D2000A281B381F70180839183A283B38395CF7E
:102D30008091800290918102A0918202B0918302E1
:102D40008093580990935909A0935A09B0935B094D
:102D5000B1CFCF93DF93EB0126DF882319F0DF910A
:102D6000CF91A2CECE01DF91CF910895CF93C62F00
:102D70001ADF882311F0CF91DCCD8C2FCF910895ED
:102D8000CF93DF93C82FD62F0EDF882319F0DF9162
:102D9000CF91E0CD8C2FB9DE811101C08D2FDF9155
:102DA000CF9108954F925F926F927F928F929F92F0
:102DB000AF92BF92CF92DF92EF92FF920F931F9349
:102DC000CF93DF93EC012091AE043091AF0440919A
:102DD000B0045091B104688179818A819B810E94FD
:102DE000B4DC6B017C012091B2043091B3044091BA
:102DF000B4045091B5046C817D818E819F810E94C5
:102E0000B4DC4B015C01A701960160914104709113
:102E1000420480914304909144040E94EAD788239D
:102E200009F450C0C0924104D0924204E09243049D
:102E3000F09244042091390430913A0440913B04CB
:102E400050913C04C701B6010E944FD82B013C01B0
:102E50000E942ADE6B017C0120E030E0A9010E9483
:102E6000EAD787FD70C020E030E040E050E4C701C1
:102E7000B6010E94DBDE18162CF4C12CD12CE12CFB
:102E8000A0E4FA2EA7019601C301B2010E94B4DCAE
:102E9000609331047093320480933304909334042C
:102EA000C701B6010E94F9DD60932F04062E000CC5
:102EB000770B6F5F7F4F6330710514F063E070E054
:102EC00060932D04D0912B04C0912F04A50194018F
:102ED00060914504709146048091470490914804A4
:102EE0000E94EAD7811133C0DC1381C02091130402
:102EF00030911404409115045091160460913104EE
:102F00007091320480913304909134040E944FD820
:102F100020911704309118044091190450911A041B
:102F20000E94B5DCDF91CF911F910F91FF90EF9040
:102F3000DF90CF90BF90AF909F908F907F906F90D9
:102F40005F904F900895C12CD12C76019BCF809239
:102F5000450490924604A0924704B0924804209100
:102F60003D0430913E0440913F0450914004C5011E
:102F7000B4010E944FD84B015C010E942ADE6B0114
:102F80007C0120E030E0A9010E94EAD787FDF4C06F
:102F900020E030E040E050E4C701B6010E94DBDEF3
:102FA00018162CF4C12CD12CE12CF0E4FF2EA70133
:102FB0009601C501B4010E94B4DC6093350470939E
:102FC00036048093370490933804C701B6010E94F9
:102FD000F9DD60933004062E000C770B6F5F7F4F96
:102FE0006330710514F063E070E060932E0400918B
:102FF0003004DC1305C080912C04801709F471C0E3
:1030000080912F049091300490932C0480932B0492
:10301000002E000C110B24E0C202C0011124FC019F
:10302000E00FF11FEE0FFF1FEE0FFF1FE453FB4FEA
:1030300020813181428153812093270430932804D9
:103040004093290450932A04C0912E040C2E000CA6
:10305000DD0BFC01EC0FFD1FEE0FFF1FEE0FFF1F3E
:10306000E453FB4F60817181828193810E94B4DCC3
:103070006093230470932404809325049093260482
:1030800080912D0424E08202C0011124FC01E00F94
:10309000F11FEE0FFF1FEE0FFF1FE453FB4F2081C8
:1030A00031814281538120931F0430932004409347
:1030B000210450932204C80FD91FCC0FDD1FCC0F61
:1030C000DD1FC453DB4F688179818A819B810E9417
:1030D000B4DC60931B0470931C0480931D049093D4
:1030E0001E048090350490903604A0903704B09070
:1030F00038042091230430912404409125045091F8
:103100002604C501B4010E944FD8209127043091B4
:1031100028044091290450912A040E94B5DC6B01D7
:103120007C01C0921704D0921804E0921904F09226
:103130001A0420911B0430911C0440911D045091ED
:103140001E04C501B4010E944FD820911F04309184
:10315000200440912104509122040E94B5DCA70173
:1031600096010E94B4DC609313047093140480935E
:10317000150490931604BACEC12CD12C760117CF2A
:10318000CF93C82F882379F020E030E0A901609127
:10319000B7047091B8048091B9049091BA040E9468
:1031A000EAD7882361F18091B6048C1741F10E941F
:1031B000A86384E792E00E9469648091B60491E07C
:1031C00089278093B6048823B9F084E792E0EADD8A
:1031D0009B01AC0160917C0270917D0280917E0226
:1031E00090917F020E94B4DC60937C0270937D0218
:1031F00080937E0290937F02CF910C94B37FCF9106
:103200000895E1E4F4E080EF9FEFA9E7B4EC848354
:103210009583A683B78380839183A283B383EBE2F4
:10322000F4E08DE98183808308958F929F92AF921D
:10323000BF92CF92DF92EF92FF92FC0198E0A7EB52
:10324000B4E001900D929A95E1F788E0FB01AEEAB7
:10325000B4E001900D928A95E1F7C090B704D09048
:10326000B804E090B904F090BA0420E030E0A9017D
:10327000C701B6010E94EAD78823E1F1A7019601B0
:1032800060E070E080E89FE30E9491DD6B017C01CB
:103290008090BB049090BC04A090BD04B090BE048C
:1032A00020E030E0A901C501B4010E94EAD78823DB
:1032B00029F1A501940160E070E080E89FE30E949D
:1032C00091DDC0923904D0923A04E0923B04F0922E
:1032D0003C0460933D0470933E0480933F049093BC
:1032E0004004FF90EF90DF90CF90BF90AF909F9001
:1032F0008F900895C12CD12C7601CACF60E070E088
:10330000CB01DFCF1092B2041092B3041092B40438
:103310001092B5041092AE041092AF041092B00453
:103320001092B1041092BB041092BC041092BD0420
:103330001092BE041092B7041092B8041092B9040F
:103340001092BA04ECECF4E080E090E0A0ECBFE76F
:1033500080839183A283B38384839583A683B78379
:1033600080879187A287B38784879587A687B78749
:10337000709625E0EC30F20759F70895CF92DF926E
:10338000EF92FF926B017C0183E3C816D104E10444
:10339000F10470F082E3C81AD108E108F10862E391
:1033A00070E080E090E00E9449B60E9425C8ECCF12
:1033B000C701B6010E9449B6FF90EF90DF90CF9011
:1033C0000C9425C881E00895DC01EC918E2F90E0EB
:1033D000FC01EE0FFF1FE80FF91FE55FFB4E808138
:1033E0008F7780830895CF93DF93EC01E62F660FEC
:1033F000FF0BE750FB4DE491E250E13108F0B0C023
:10340000F0E08827E95FF54E8F4F0C9454DC181AD2
:10341000B01AB01AB01AB01A421A241A661A641AEC
:10342000441A8A1A881A681AB01AAE1AAC1A8C1A78
:1034300082E1EAE8F2E0DE0101900D928A95E1F77F
:10344000CE01DF91CF91089581E020EB30E0398308
:10345000288321EB30E03B832A831D821C8223EBEF
:1034600030E03F832E8324EB30E0398728871B86AA
:103470001A861D861C8692E09E878F8781E0888B46
:10348000198ADECF80E0E1CF81E08F5F20E930E074
:103490003983288321E930E03B832A8322E930E025
:1034A0003D832C8328E930E03F832E832AE930E0F6
:1034B000398728872CE930E03B872A8726E930E0E6
:1034C0003D872C8793E0D8CF80E0DFCF80E0DECF50
:1034D00081E08F5F20EA30E03983288321EA30E001
:1034E0003B832A8322EA30E03D832C8328EA30E0C4
:1034F0003F832E832AEA30E0398728872CEA30E0A0
:103500003B872A8726EA30E03D872C8794E0B4CFBA
:1035100080E0DFCF80E0DECF81E08F5F20E231E02E
:103520003983288321E231E03B832A8322E231E0A0
:103530003D832C8328E231E03F832E832AE231E071
:10354000398728872CE231E03B872A8726E231E061
:103550003D872C8795E090CF80E0DFCF80E0DECF05
:1035600082E1FE0111928A95E9F76ACF009719F07E
:10357000019789F008951092900082E08093910065
:103580001092950010929400C19A8091710082600F
:103590008093710008951092A00082E08093A100B2
:1035A0001092A5001092A40089BB80937200089528
:1035B0007F928F929F92AF92BF92CF92DF92EF92C3
:1035C000FF920F931F93CF93DF93EC016B018881E0
:1035D000883108F0C4C090E0FC01EE0FFF1FE80F37
:1035E000F91FE55FFB4E808161E08F770E948AB40E
:1035F00019821A8288812CE0622F0E9421DC829F2E
:10360000B001112430E020E0AB01420F531FFA015A
:10361000EE0FFF1FE40FF51FE55FFB4E908197FD56
:1036200007C02F5F3F4F2C30310571F790E09EDFD0
:103630007880E72CF12C8701000F111FF801EE0DA7
:10364000FF1DE55FFB4E80818068808377FC87C02B
:1036500080E2C81682E0D8060CF03FC08A8128E5D7
:1036600032E0281B310987FD3395220F331F220FCB
:10367000331F032E000C440B550B898178E8872EED
:10368000912C881A910887FD9394880C991C880CBA
:10369000991C092C000CAA08BB0860E070E0CB0163
:1036A000D7FC0AC0B601653B710514F064EB70E00D
:1036B000072E000C880B990B281939094A095B0958
:1036C0000E94B5DB24EB30E040E050E00E94E6DBF6
:1036D000820E931EA41EB51E640187E18715D8F0E3
:1036E000298188E890E0821B910927FD9395880F36
:1036F000991F880F991FC816D9060CF502972FB786
:10370000F8940E0D1F1DF801E55FFB4E880F991F01
:10371000928381832FBF60ED77E080E090E02EDE22
:10372000CE01DF91CF911F910F91FF90EF90DF902D
:10373000CF90BF90AF909F908F907F9045CE2A8181
:1037400088E592E0821B910927FD9395880F991FC8
:10375000880F991FC816D9068CF6C601CFCFDF9106
:10376000CF911F910F91FF90EF90DF90CF90BF907E
:10377000AF909F908F907F9008951F920F920FB6F9
:103780000F9211240BB60F922F933F934F935F9399
:103790006F937F938F939F93AF93BF93EF93FF9319
:1037A00048EA50E064EA70E081E090E0E2D8FF91FE
:1037B000EF91BF91AF919F918F917F916F915F91A9
:1037C0004F913F912F910F900BBE0F900FBE0F9016
:1037D0001F9018951F920F920FB60F9211240BB6DF
:1037E0000F922F933F934F935F936F937F938F939A
:1037F0009F93AF93BF93EF93FF9348E950E064E941
:1038000070E090E080E0B5D8FF91EF91BF91AF916B
:103810009F918F917F916F915F914F913F912F91E8
:103820000F900BBE0F900FBE0F901F9018959091A8
:10383000C00095FFFCCF8093C600089585E4F7DFB4
:1038400081E3F5CF85E4F3CF8AE5F1CF89E5EFCFCA
:1038500088E5EDCFFC01693071F06B3081F06830A4
:10386000A1F4858996892789A22FAF70BC018A2F80
:1038700090E00C9402AF808D918D228DF5CF66A1E2
:1038800077A191A580A59170F4CF89E0D0CFEF9278
:10389000FF920F931F93CF93DF93CDB7DEB7E397DC
:1038A0000FB6F894DEBF0FBECDBF182FE42EF22E58
:1038B000662301F18F3008F07FC0E82F880FFF0BDF
:1038C0008827EA59F34E8F4F0C9454DC751C991CD1
:1038D0009F1CAD1CB61CB81CBB1CC01CDC1CDC1C1B
:1038E000C71CDC1CCC1CD51CD71C89E0A0DFB0DFBA
:1038F00089E09DDFEE2009F469C01F3008F0C8C0E0
:10390000E12F012E000CFF0B8827E657F34E8F4F57
:103910000C9454DCE11C051D0B1D191D221D241DDA
:10392000271D2C1D481D481D331D481D381D411DD8
:10393000431D60E086E793E10E9423B40BC08091B1
:1039400078139091791320917A13A22FAF70BC0154
:103950008A2F90E00E9402AFCBCF86E793E10E94CE
:10396000D3B9682F70E090E080E0F4CF64E0E2CF5C
:1039700060917B13F7CF86E793E10E94BCB9EACF51
:1039800080917C1390917D1320917E13DECF86E78A
:1039900093E10E94DFC0DECF6091B3137091B41346
:1039A0008091B5139091B613D5CF61E7C3CF86E769
:1039B00093E10E94FEA9CECF612F86E793E14ADF13
:1039C00097CF89E034DF42DF89E031DFFF2009F45F
:1039D00069C01F3008F0C7C0E12F012E000CFF0B9B
:1039E0008827EA50F34E8F4F0C9454DC4D1D711D07
:1039F000781D841D8D1D931D961D9B1DB31DB31D2C
:103A0000A21DB31DA71DA91DAE1D60E085E093E1B9
:103A10000E9423B40BC0809107139091081320914A
:103A20000913A22FAF70BC018A2F90E00E9402AF51
:103A3000CBCF85E093E10E94D3B9682F70E090E08E
:103A400080E0F4CF64E0E2CF60910A13F7CF85E025
:103A500093E10E94BCB9EACF80910B1390910C13B3
:103A600020910D13DECF85E093E10E94DFC0DECF11
:103A700060914213709143138091441390914513C8
:103A8000D5CF61E7C3CF85E093E10E94FEA9CECFF9
:103A9000612F85E093E1DEDE97CF89E0C8DED4DEDA
:103AA00089E0C5DE002309F4D7C01F3008F0C6C086
:103AB000E12F012E000CFF0B8827EE59F24E8F4F9D
:103AC0000C9454DCBC1DDC1DE31DEF1DF81DFE1D18
:103AD000011E061E1E1E1E1E0D1E1E1E121E141E62
:103AE000191E89EC92E10E947CBC0E9402AFD8CFE3
:103AF0008091CB129091CC122091CD12A22FAF7059
:103B0000BC018A2F90E0F1CF89EC92E10E94D3B9F9
:103B1000682F70E090E080E0E8CF66E089EC92E109
:103B20000E94E3B7E2CF6091CE12F3CF89EC92E12D
:103B30000E94BCB9DACF8091CF129091D01220911F
:103B4000D112DCCF89EC92E10E9416BDCECF60E7A6
:103B5000E5CF89EC92E10E9436BBC7CF89EC92E1B8
:103B60000E94F6A9C2CF69EC72E1CE0101960E94D3
:103B7000F41389E05CDE94CF89E059DE63DE89E0EE
:103B800056DE1F3008F0B9C0E12F110FFF0B882758
:103B9000E353F24E8F4F0C9454DC271E3B1E421E03
:103BA0004E1E571E5D1E601E651E7D1E7D1E6C1EF8
:103BB0007D1E711E731E781E8DE892E10E947CBCF2
:103BC0000E9402AFDCCF80918F12909190122091D1
:103BD0009112A22FAF70BC018A2F90E0F1CF8DE837
:103BE00092E10E94D3B9682F70E090E080E0E8CFC6
:103BF00066E08DE892E10E94E3B7E2CF6091921215
:103C0000F3CF8DE892E10E94BCB9DACF8091931294
:103C10009091941220919512DCCF8DE892E10E9450
:103C200016BDCECF60E7E5CF8DE892E10E9436BBAE
:103C3000C7CF8DE892E10E94F6A9C2CF6DE872E18C
:103C4000CE0101960E94F41389E0F1DD98CF89E05E
:103C5000EEDDF4DD89E0EBDD8AE0E9DDE3960FB629
:103C6000F894DEBF0FBECDBFDF91CF911F910F91B2
:103C7000FF90EF90089581E592E10E947CBC0E9444
:103C800002AFE8CF809153129091541220915512B7
:103C9000A22FAF70BC018A2F90E0F1CF81E592E1B5
:103CA0000E94D3B9682F70E090E080E0E8CF66E032
:103CB00081E592E10E94E3B7E2CF60915612F3CF23
:103CC00081E592E10E94BCB9DACF809157129091C0
:103CD000581220915912DCCF81E592E10E9416BD65
:103CE000CECF60E7E5CF81E592E10E9436BBC7CF3A
:103CF00081E592E10E94F6A9C2CF61E572E1CE01B1
:103D000001960E94F41389E092DDA4CFDC016B30B0
:103D100051F4ED91FC910280F381E02D61E419955D
:103D2000CB010C944615E7EFE60FEB3050F50E2E65
:103D3000000CFF0B8827E056F14E8F4F0C9454DC9B
:103D4000EE1EC11EC11EC11EAB1EB71EC21ECD1E61
:103D5000C11EE31ED81EED91FC9111970084F185E0
:103D6000E02DCD01199573FF0CC08AE260CDED9175
:103D7000FC9111970084F185E02DCD01199572FD1C
:103D8000F4CF0895ED91FC9111970084F185E02D19
:103D9000CD01199571FFF5CFE8CFED91FC91119709
:103DA0000084F185E02DCD01199570FFEACFDDCFBC
:103DB000ED91FC9111970084F185E02DCD011995CD
:103DC00064FFDFCFD2CFED91FC9111970084F18594
:103DD000E02DCD01199565FFD4CFC7CFCD010E944D
:103DE000B7BC9FCF693049F11CF4683031F00895B9
:103DF0006A30C9F06B3061F00895DC01ED91FC91FF
:103E00000084F185E02D199590FF16C08AE20FCD50
:103E1000DC01ED91FC910084F185E02D1995CB0139
:103E200093700C944615DC01ED91FC910084F185B2
:103E3000E02D199577FDEACF08950E940DBD0C94F1
:103E40001FC1CF93DF93EC01FE018491219688235B
:103E500011F0EDDCF9CFDF91CF9108950F931F930F
:103E6000CF938C01C62F81E09FE0EBDFC801E9DF33
:103E70008AE3DDDC80E38C0FDADC8AE0CF911F91EE
:103E80000F91D5CCCF93C62FDCDF8C2FCF910C9424
:103E90008214CF93C62FD5DF8C2FCF910C941FC1E6
:103EA000F8DF8AE0C4CCDF92EF92FF920F931F936A
:103EB000CF93DF9361E87FEF8FE40E94A916082F6C
:103EC000813869F18FEF800F8F3048F183E99BE0F3
:103ED000B8DFD1E061E87FEF80E50E94A916C82F26
:103EE000813841F083E08C0F803120F089E79BE03E
:103EF000A8DFD1E061E87FEF83E50E94A916813851
:103F000081F09FEF980F983060F081E69BE0DF91A1
:103F1000CF911F910F91FF90EF90DF9092CFD0E063
:103F2000D9CFD1112DC1013809F404E0C13809F409
:103F3000C2E0D82F813809F4D1E088EAE82E82E087
:103F4000F82E10E091E0802F8F70D82EF70181912C
:103F50007F01815440917204509173046091740404
:103F60007091750404C076956795579547958A9525
:103F7000D2F740FF19C0123009F4ADC0133009F474
:103F8000C6C0602F113009F499C086E793E10E9402
:103F9000E3BD6C2F86E793E10E941DBA6D2F86E783
:103FA00093E10E940CBA90E01F5F143079F69923D8
:103FB00009F4E6C04DDC86E793E10E9405C1682F55
:103FC00080EC9AE066DF86E793E10E9414BA682FDE
:103FD00087EB9AE057DF86E793E10E9403BA682FE8
:103FE0008DEA9AE05DDF32DC85E093E10E9405C155
:103FF000682F84EE9AE04DDF85E093E10E9414BAC9
:10400000682F8BED9AE03EDF85E093E10E9403BAD2
:10401000682F81ED9AE044DF17DC89EC92E10E9481
:104020003CBD682F88E09BE034DF89EC92E10E9480
:1040300014BA682F8FEF9AE025DF89EC92E10E9495
:1040400003BA682F85EF9AE02BDFFCDB8DE892E165
:104050000E943CBD682F8CE29BE01BDF8DE892E163
:104060000E9414BA682F83E29BE00CDF8DE892E196
:104070000E9403BA682F89E19BE012DFDFDB81E554
:1040800092E10E943CBD682F80E59BE002DF81E564
:1040900092E10E9414BA682F87E49BE0F3DE81E589
:1040A00092E10E9403BA682F8DE39BE0DF91CF91EC
:1040B0001F910F91FF90EF90DF90F2CE85E093E19A
:1040C0000E94E3BD6C2F85E093E10E941DBA6D2F25
:1040D00085E093E166CF9091EB12907F9D299093BC
:1040E000EB122091EB123091EC124091ED125091B5
:1040F000EE126CE689EC92E10E94E3B66C2F89EC3B
:1041000092E10E941DBA6D2F89EC92E14ACF909105
:10411000AF12907F9D299093AF122091AF123091F2
:10412000B0124091B1125091B2126CE68DE892E15A
:104130000E94E3B66C2F8DE892E10E941DBA6D2FAC
:104140008DE892E10E940CBA90917312907F9D29A4
:1041500090937312209173123091741240917512E2
:10416000509176126CE681E592E10E94E3B66C2FE5
:1041700081E592E10E941DBA6D2F81E592E111CF98
:10418000DF91CF911F910F91FF90EF90DF900895F5
:10419000CF92DF92EF92FF920F931F93CF93DF9313
:1041A000C82F142FD22F662309F419C289E03FDBF0
:1041B000CD3008F010C2EC2F0C2E000CFF0B88271E
:1041C000EB51FF4D8F4F0C9454DCF22021215121F3
:1041D0008021AC21D82104223022EB22EB22EB22D9
:1041E000EB225C2235DB112309F41AC289E01FDBC4
:1041F0002DDBDD2309F435C289E019DB25DB002343
:1042000009F452C289E013DB1DDB89E010DBCD30FD
:1042100008F09DC2EC2F0C2E000CFF0B8827EC5EE3
:10422000FE4D8F4F0C9454DC53235E2367236E2383
:10423000732378237D238223A723A723A723A723E0
:10424000872386E793E10E94FEA997FD02C08AE2D8
:10425000EEDA112309F4E4C189E0E9DA85E093E1BB
:104260000E94FEA997FD02C08AE2E1DADD2309F48B
:10427000F8C189E0DCDA89EC92E10E94ACBC8111E2
:1042800002C08AE2D4DA002309F40EC289E0CFDA50
:104290008DE892E10E94ACBC8111B7CF8AE2C7DA07
:1042A000B4CF86E793E10E94FEA996FF02C08AE29E
:1042B000BEDA112309F4B4C189E0B9DA85E093E1EB
:1042C0000E94FEA996FF02C08AE2B1DADD2309F45A
:1042D000C8C189E0ACDA89EC92E10E94C1BC8823B4
:1042E00011F08AE2A4DA002309F4DEC189E09FDA42
:1042F0008DE892E10E94C1BC882309F486CFCECF1D
:1043000086E793E10E94FEA995FF02C08AE28FDA58
:10431000112309F485C189E08ADA85E093E10E94DE
:10432000FEA995FF02C08AE282DADD2309F499C171
:1043300089E07DDA89EC92E10E94CCBC882311F0FF
:104340008AE275DA002309F4AFC189E070DA8DE8FA
:1043500092E10E94CCBCD0CF86E793E10E94FEA9F7
:1043600094FF02C08AE263DA112309F459C189E09B
:104370005EDA85E093E10E94FEA994FF02C08AE222
:1043800056DADD2309F46DC189E051DA89EC92E156
:104390000E94D7BC882311F08AE249DA002309F48D
:1043A00083C189E044DA8DE892E10E94D7BCA4CFB2
:1043B00086E793E10E94FEA993FF02C08AE237DA02
:1043C000112309F42DC189E032DA85E093E10E94DE
:1043D000FEA993FF02C08AE22ADADD2309F441C173
:1043E00089E025DA89EC92E10E94E2BC882311F091
:1043F0008AE21DDA002309F457C189E018DA8DE852
:1044000092E10E94E2BC78CF86E793E10E9402BD70
:10441000882311F08AE20BDA112309F401C189E043
:1044200006DA85E093E10E9402BD882311F08AE25A
:10443000FED9DD2309F415C189E0F9D989EC92E1AF
:104440000E94F8BC882311F08AE2F1D9002309F414
:104450002BC189E0ECD98DE892E10E94F8BC4CCFE9
:1044600086E793E10E94FEA991FF02C08AE2DFD9AC
:10447000112309F4D5C089E0DAD985E093E10E94DF
:10448000FEA991FF02C08AE2D2D9DD2309F4E9C076
:1044900089E0CDD989EC92E10E94EDBC882311F02E
:1044A0008AE2C5D9002309F4FFC089E0C0D98DE8AC
:1044B00092E10E94EDBC20CF86E793E10E94FEA925
:1044C0006B017C0189E0B3D9C3D989E0B0D9C701B8
:1044D000B6010E9402AF81E0C81AD108E108F108D4
:1044E0008EEFC8168FEFD806E806F80618F084EDB0
:1044F00093E0A7DC8AE09BD9112309F491C089E0FD
:1045000096D985E093E10E94FEA96B017C0189E0C8
:104510008ED99CD989E08BD9C701B6010E9402AF20
:1045200081E0C81AD108E108F1088EEFC8168FEFB4
:10453000D806E806F80618F084EE93E082DC8AE0FC
:1045400076D9DD2309F48DC089E071D989EC92E137
:104550000E94F6A96B017C0189E069D975D989E0CF
:1045600066D9C701B6010E9402AF81E0C81AD1081E
:10457000E108F1088EEFC8168FEFD806E806F806B6
:1045800018F084EF93E05DDC8AE051D9002309F450
:104590008BC089E04CD98DE892E10E94F6A96B01AD
:1045A0007C0189E044D94ED989E041D9C701B601DF
:1045B0000E9402AF81E0C81AD108E108F1088EEF2D
:1045C000C8168FEFD806E806F80618F084E094E0E5
:1045D00038DC8AE064CE6C2F86E793E103DC11239C
:1045E000F9F089E024D9CD30B8F4EC2F0C2E000C72
:1045F000FF0B8827E150FD4D8F4F0C9454DCF820C1
:104600002E215E218D21B921E52111223D220C238D
:104610000C230C230C2381226C2F85E093E1E2DB39
:10462000DD23F9F089E003D9CD30B8F4EC2F0C2E5E
:10463000000CFF0B8827E05EFC4D8F4F0C9454DC80
:10464000FE203B216B219A21C621F2211E224A2203
:104650002D232D232D232D23A6226C2F89EC92E1CF
:1046600055DB002309F189E0E2D8CD30B8F4EC2F16
:104670000C2E000CFF0B8827EF5BFC4D8F4F0C942A
:1046800054DC042148217821A721D321FF212B22AA
:1046900057224E234E234E234E23CB226C2F8DE8E0
:1046A00092E134DBB2CDCAD88AE0DF91CF911F917D
:1046B0000F91FF90EF90DF90CF90B9C881E592E124
:1046C0000E94ACBC8111F0CF8AE2B1D8EDCF81E578
:1046D00092E10E94C1BC882339F3F6CF81E592E1D3
:1046E0000E94CCBCF8CF81E592E10E94D7BCF3CF09
:1046F00081E592E10E94E2BCEECF81E592E10E9469
:10470000F8BCE9CF81E592E10E94EDBCE4CF81E500
:1047100092E10E94F6A96B017C0189E088D88ED8CD
:1047200089E085D8C701B6010E9402AF81E0C81AAE
:10473000D108E108F1088EEFC8168FEFD806E80619
:10474000F80618F084E194E07CDB8AE0BECF6C2FA1
:1047500081E592E1DBDAA8CFAF92BF92CF92DF92F0
:10476000EF92FF920F931F93CF93DF93EC018FE3B0
:1047700093E067DB209711F4CCECD4E010E007E085
:10478000015019F080E253D8FBCF812F0E941FC146
:104790001F5F1430A1F78AE04AD810E080E247D8C2
:1047A000812F0E941FC15E0104E080E240D8F50124
:1047B000C080D180E280F380A7019601C701B601D5
:1047C0000E9461DF882321F180E231D88DE32FD868
:1047D0008DE32DD88DE32BD88DE329D88DE327D811
:1047E0000150F0E1AF0EB11C0111DFCF8AE01FD8FC
:1047F0001F5F2496143091F68AE0DF91CF911F91CC
:104800000F91FF90EF90DF90CF90BF90AF900FC8C7
:1048100020E030E0A901C701B6010E94DBDE87FD80
:1048200002C08BE204D843E0C701B6010E94FAC27D
:10483000D7CF811103C084E393E003CB8AE393E0F5
:10484000FCCF613039F06B3141F4DC01D6968C91AC
:104850000C941FC1FC0182A9FBCF6D3069F12CF4CF
:104860006B3091F06C30A1F00895603171F16D31D1
:10487000B9F16E30D9F5DC01ED91FC910280F38144
:10488000E02D62E71995E4CF0E9436BB862FE0CF7A
:104890000E9436BB682F792F71707695762F662728
:1048A00077956795660F672F661F770B072E000CAD
:1048B000880B990B0C94E7ACDC01ED91FC91028024
:1048C000F381E02D62E71995E1CFDC01ED91FC91D8
:1048D0000084F185E02D199596FB882780F9A9CFF2
:1048E0000E9416BD94FB882780F9F9CF08956031A6
:1048F00011F12CF4683011F16A3031F008956B3108
:1049000069F06D3141F10895DC01ED91FC91028077
:10491000F381E02D61E719950C947DACFC0190A525
:10492000990F9595292F220F330B822F80789F772F
:10493000892B0C9482140E9484BC7BCFDC01DC9612
:104940008C9190E0009711F480E091E00E94461570
:1049500088E593E076CA0E94DFC094FB882780F93F
:10496000ECCF0F931F93CF93DF93182FD42FC22F29
:10497000662309F458C389E00E94171C1D3108F012
:104980004EC3E12F012E000CFF0B8827E553FB4D92
:104990008F4F0C9454DCE8240F282F2556258125B1
:1049A000AA25052638260F286A260F280F280F2843
:1049B0000F280F2813280F28A026C9260F280F28F4
:1049C00018270F283E2769279227BD270F28E6279B
:1049D0000E94281CDD2309F45FC389E00E94171C94
:1049E0000E94261CCC2309F4ACC389E00E94171C4A
:1049F0000E94241C002309F4E1C389E00E94171CD3
:104A00000E94221C89E00E94171C1D3108F061C41D
:104A1000E12F012E000CFF0B8827EE5EFA4D8F4F21
:104A20000C9454DCDC286929E528EB28F228F728C7
:104A30000A29142969291C296929692969296929E7
:104A400069292529692931293629692969294729A7
:104A500069294C29532958295F296929642986E73E
:104A600093E10E9409C1E5DEDD2309F415C389E065
:104A70000E94171C85E093E10E9409C1DADECC2375
:104A800009F45FC389E00E94171C89EC92E10E943F
:104A900040BDCFDE002309F491C389E00E94171CBA
:104AA0008DE892E10E9440BDC4DEACCF8091E4135A
:104AB0009091E5130E944615DD2309F4EDC289E0CB
:104AC0000E94171C80917313909174130E944615D5
:104AD000CC2309F436C389E00E94171C809102138D
:104AE000909103130E944615002309F467C389E0DF
:104AF0000E94171C8091C6129091C7120E94461501
:104B000081CF86E793E10E943EBB0E944615DD23DC
:104B100009F4C2C289E00E94171C85E093E10E945B
:104B20003EBB0E944615CC2309F40BC389E00E94CA
:104B3000171C89EC92E10E943CBA0E9446150023A2
:104B400009F43CC389E00E94171C8DE892E10E94A1
:104B50003CBAD4CF86E793E10E943EBBBC0190E013
:104B600080E00E94EED721EE3AE744EB5FE30E943B
:104B70004FD840E00E94FAC2DD2309F48DC289E0DB
:104B80000E94171C85E093E10E943EBBBC0190E0AF
:104B900080E00E94EED721EE3AE744EB5FE30E940B
:104BA0004FD840E00E94FAC2CC2309F4CAC289E07F
:104BB0000E94171C89EC92E10E943CBABC0190E073
:104BC00080E00E94EED721EE3AE744EB5FE30E94DB
:104BD0004FD840E00E94FAC2002309F4EFC289E0F6
:104BE0000E94171C8DE892E10E943CBABC0190E043
:104BF00080E00E94EED721EE3AE744EB5FE30E94AB
:104C00004FD840E00E94FAC2FDCE809179138F7197
:104C10000E941FC189E693E014D9DD2309F43CC248
:104C200089E00E94171C809108138F710E941FC198
:104C300089E793E006D9CC2309F483C289E00E9476
:104C4000171C8091CC128F710E941FC186E993E0DE
:104C5000F8D8002309F4B2C289E00E94171C8091A1
:104C600090128F710E941FC183EB93E0EAD8CACEE5
:104C7000809178138F710E941FC185E693E0E1D87F
:104C8000DD2309F409C289E00E94171C80910713F3
:104C90008F710E941FC185E793E0D3D8CC2309F41C
:104CA00050C289E00E94171C8091CB128F710E9424
:104CB0001FC182E993E0C5D8002309F47FC289E0CF
:104CC0000E94171C80918F128F710E941FC18FEA62
:104CD00093E0CCCF86E793E10E940DBD0E941FC1F7
:104CE00081E693E0AED8DD2309F4D6C189E00E94C5
:104CF000171C85E093E10E940DBD0E941FC181E752
:104D000093E09FD8CC2309F41CC289E00E94171CB1
:104D100089EC92E10E94B7BC0E9446158EE893E0B0
:104D200090D8002309F44AC289E00E94171C8DE83C
:104D300092E10E94B7BC0E9446158BEA93E096CFA1
:104D400086E793E10E94EEB90E944615DD2309F43F
:104D5000A3C189E00E94171C85E093E10E94EEB98F
:104D60000E944615CC2309F4ECC189E00E94171C6F
:104D700089EC92E10E94EEB90E944615002309F4E5
:104D80001DC289E00E94171C8DE892E10E94EEB9D5
:104D9000B5CE86E793E10E94BCB96F3F2FEF720753
:104DA0002FE08207910509F43FC00E947DACDD230E
:104DB00009F472C189E00E94171C85E093E10E940A
:104DC000BCB96F3F2FEF72072FE08207910509F4FE
:104DD0005AC10E947DACCC2309F4B3C189E00E9482
:104DE000171C89EC92E10E94BCB96F3F2FEF72074C
:104DF0002FE08207910509F49BC10E947DAC00233E
:104E000009F4DCC189E00E94171C8DE892E10E9440
:104E1000BCB96F3F2FEF72072FE08207910509F4AD
:104E2000C3C10E947DACEECD8DE593E00AD8BFCF23
:104E300086E793E10E9402BDFCDCDD2309F42CC16E
:104E400089E00E94171C85E093E10E9402BDF1DC1D
:104E5000CC2309F476C189E00E94171C89EC92E109
:104E60000E94F8BCE6DC002309F4A8C189E00E9496
:104E7000171C8DE892E10E94F8BC16CE86E793E1FC
:104E80000E9405C10E941FC1DD2309F405C189E00C
:104E90000E94171C85E093E10E9405C10E941FC17A
:104EA000CC2309F44EC189E00E94171C89EC92E1E1
:104EB0000E943CBD0E941FC1002309F47FC189E00C
:104EC0000E94171C8DE892E10E943CBD0E941FC108
:104ED00099CD86E793E10E94DDB90E941FC1DD23D1
:104EE00009F4DAC089E00E94171C85E093E10E9472
:104EF000DDB90E941FC1CC2309F423C189E00E94BF
:104F0000171C89EC92E10E94DDB90E941FC10023A9
:104F100009F454C189E00E94171C8DE892E10E94B7
:104F2000DDB9D4CF86E793E10E9414BA0E948214BF
:104F3000DD2309F4B1C089E00E94171C85E093E1EC
:104F40000E9414BA0E948214CC2309F4FAC089E0AA
:104F50000E94171C89EC92E10E9414BA0E948214EC
:104F6000002309F42BC189E00E94171C8DE892E10F
:104F70000E9414BA0E94821445CD86E793E10E94F4
:104F800003BA0E941FC1DD2309F486C089E00E9494
:104F9000171C85E093E10E9403BA0E941FC1CC2335
:104FA00009F4CFC089E00E94171C89EC92E10E94AD
:104FB00003BA0E941FC1002309F400C189E00E94C6
:104FC000171C8DE892E10E9403BA80CF86E793E137
:104FD0000E94B2B90E944615DD2309F45DC089E044
:104FE0000E94171C85E093E10E94B2B90E94461509
:104FF000CC2309F4A6C089E00E94171C89EC92E139
:105000000E94B2B90E944615002309F4D7C089E076
:105010000E94171C8DE892E10E94B2B96FCD612FFA
:1050200086E793E164DCDD2309F436C089E00E9461
:10503000171C1D3108F02CC0E12F012E000CFF0BB6
:105040008827EA5DF74D8F4F0C9454DCF0244828F4
:105050003A2562258D25C22513264626482879261D
:10506000482848284828482848284C284828AC265A
:10507000DD2648284828232748284A2775279E27C1
:10508000C9274828F2278DE693E00E94211FA3CE6E
:10509000612F85E093E12BDCCC2309F452C089E039
:1050A0000E94171C1D3108F048C0E12F012E000C92
:1050B000FF0B8827E15AF74D8F4F0C9454DCF824EE
:1050C0009D2845256E259925DA25212654269D28DB
:1050D00088269D289D289D289D289D287C289D28E0
:1050E000B826F1269D289D282E279D285627812702
:1050F000AA27D5279D28FE2789EC92E10E9422BD90
:10510000811113C08DE793E00E94211F002309F451
:1051100055C089E00E94171C8DE892E10E9422BDD3
:1051200081113FC08AE993E0A1CD84E893E0ECCF00
:105130008AE893E00E94211F62CE612F89EC92E100
:1051400080DB002309F43AC089E00E94171C1D315E
:1051500008F02DC0E12F012E000CFF0B8827EC5426
:10516000F74D8F4F0C9454DC0025D72850257A2515
:10517000A525F2252F266226D7289726D728D728B7
:10518000D728D728D7288C28D728C4260527D7285A
:10519000D7283927D72862278D27B627E127D72890
:1051A0000A2881EA93E062CD87EA93E05FCD612F20
:1051B0008DE892E146DB26CC0E941E1C8AE0DF913E
:1051C000CF911F910F910C94171C81E592E10E94E1
:1051D00040BD2FDBF3CF80918A1290918B120E94F9
:1051E0004615ECCF81E592E10E943CBAF8CF81E50B
:1051F00092E10E943CBABC0190E080E00E94EED7B0
:1052000021EE3AE744EB5FE30E944FD840E00E9472
:10521000FAC2D4CF809154128F710E941FC180EDC9
:1052200093E00E94211FCACF809153128F710E9478
:105230001FC18CEC93E0F5CF81E592E10E94B7BCF1
:105240000E94461588EC93E0ECCF81E592E10E9444
:1052500022BD811103C087EB93E0E3CF8EEB93E097
:10526000E0CF81E592E10E94EEB9B9CF81E592E10C
:105270000E94BCB96F3F2FEF72072FE082079105A4
:1052800019F00E947DAC9ACF84EC93E0CACF81E5FF
:1052900092E10E94F8BC9DCF81E592E10E943CBD65
:1052A0000E941FC18BCF81E592E10E94DDB9F8CF4A
:1052B00081E592E10E9414BA0E9482147FCF81E5B9
:1052C00092E10E9403BAECCF81E592E10E94B2B96B
:1052D00086CF612F81E592E1B4DA70CF811107C0EA
:1052E0008DE293E00E94211F8AE00C94171C81E359
:1052F00093E0F8CF86E293E00C94211F80E293E0E4
:105300000C94211F811101C0F9CF0895CF9384E53A
:105310000E94D315C091F90A8823C1F00E94991404
:10532000C82F82309CF0EADF8DE40E94171C809128
:105330007804909179040E9446156C2F8FEA9BE0C7
:105340000E94421F8AE00E94171CCFEF8C2FCF9142
:1053500008950F931F93CF93811115C0C42F8B0114
:10536000CDDF8CEA9BE00E94211FC8010E94211F13
:10537000CC2349F08AE30E94171C8AE0CF911F9149
:105380000F910C94171CCF911F910F9108952F929C
:105390003F924F925F926F927F928F929F92AF92C5
:1053A000BF92CF92DF92EF92FF920F931F93CF9312
:1053B000DF93CDB7DEB769970FB6F894DEBF0FBEA7
:1053C000CDBF83E50E94851589833090B60488237C
:1053D00019F00E94AA14382E8091740290917502DF
:1053E000A0917602B09177028C8B9D8BAE8BBF8B98
:1053F0008091780290917902A0917A02B0917B021B
:10540000888B998BAA8BBB8B80917C0290917D02BB
:10541000A0917E02B0917F028C879D87AE87BF8767
:105420009981992329F0311003C080E00E94C018AF
:105430008091720490917304A0917404B0917504EA
:1054400025E1B695A795979587952A95D1F74C01B3
:105450005D01E1E08E229924AA24BB2420E030E003
:10546000A9016091B7047091B8048091B90490913A
:10547000BA040E94EAD7882309F4C3C083E40E94D7
:105480008515882309F4A3C00E9457152B013C0100
:105490008CEC94E09D838C839A838983B4E0BB83F6
:1054A000188E10E008ECE2ECE9871E82212CF8EC63
:1054B000FF8322E4288789819A819B878A8794E0E9
:1054C000998FAA85BB85CD90DD90ED90FD90BB872F
:1054D000AA872E81322D4F815885C701B6010E94BF
:1054E000EAD787FF04C0CE822D2CEF82F886288D64
:1054F000312F402F5985C701B6010E94DBDE1816F7
:1055000024F4C88E1D2D0E2DF986B98DB150B98F9A
:10551000B111D7CFEB81E150EB8389819A8140961D
:105520009A838983E111C7CF288D312F402F598568
:105530006E81722D8F8198850E94B5DC20E030E06D
:1055400040E05FE30E944FD8A30192010E94B5DCC6
:105550002B013C012DEB37E346E855EB0E94DBDEE7
:1055600087FD0AC02DEB37E346E855E3C301B201DE
:105570000E94EAD718165CF580E00E94C01814E07B
:10558000AC81BD81BA83A98304E0E981FA8161918C
:10559000719181919191FA83E9837F01F4E0EF1A8F
:1055A000F108A30192010E94B4DCD7016D937D93B1
:1055B0008D939C931397015041F71150EC81FD811D
:1055C0007096FD83EC831111DBCF0E9401198928AD
:1055D0008A288B2891F020E030E0A9016091B7047F
:1055E0007091B8048091B9049091BA040E94EAD7EE
:1055F000882319F090E080E0AFD8832D0E94C01876
:105600000BC0311004C089288A288B28B1F376DEBC
:1056100086E495E00E94211F332049F08091B60472
:10562000811105C067DE87E295E00E94211F66DEDA
:1056300089E195E00E94211F8091B6044FDE2C89FC
:105640003D894E895F8960917402709175028091E5
:105650007602909177020E94EAD7811120C02889B2
:1056600039894A895B8960917802709179028091C9
:105670007A0290917B020E94EAD7811110C020919A
:105680007C0230917D0240917E0250917F026C85B8
:105690007D858E859F850E94EAD78823D1F0699603
:1056A0000FB6F894DEBF0FBECDBFDF91CF911F9133
:1056B0000F91FF90EF90DF90CF90BF90AF909F90B1
:1056C0008F907F906F905F904F903F902F900C94B1
:1056D000ED9169960FB6F894DEBF0FBECDBFDF9196
:1056E000CF911F910F91FF90EF90DF90CF90BF90DF
:1056F000AF909F908F907F906F905F904F903F9072
:105700002F900895CF92DF92EF92FF926A017B0172
:105710000E94211F42E0C701B601FF90EF90DF9089
:10572000CF900C94FAC2FF920F931F93CF93DF9305
:10573000082FF62E41E061E677E00BDEC1E0D9E00C
:1057400010E0F11619F08FEFF8122AC0802FDADD81
:105750004B855C856D857E8588E597E0D3DF2CEAF7
:1057600035EC47E25EE36F85788989899A890E94E2
:1057700091DDAB01BC0185E597E0C4DF2CEA35EC97
:1057800047E25EE36B897C898D899E890E944FD8B0
:10579000AB01BC0182E597E0B5DF8AE00E94171CEF
:1057A0006796113031F4DF91CF911F910F91FF90E7
:1057B000089511E0C6CFCF93DF93C82F63E477E05D
:1057C0000E94B8AE8C2F9EDD61E08AE397E00E94D4
:1057D000491FC4E3D9E04C855D856E857F858FEBDD
:1057E00098E190DF488959896A897B8981E796E247
:1057F00089DF8EE696E20E94211F6C897D898E8961
:105800009F8943E00E94FAC28AE0DF91CF910C9415
:10581000171C78DF8AE00C94171CCF93DF9365EF99
:105820007EE00E94B8AEC1E6D9E0488159816A8124
:105830007B818CEE9EE066DF4C815D816E817F8195
:1058400081E796E25FDF488559856A857B858EE62C
:1058500096E2DF91CF91DDCF0F931F93CF93DF932C
:10586000C82F68E877E00E94B8AE09EF13E1F801AD
:1058700040815181628173818DE797E043DFF801B8
:1058800044815581668177818AE797E0C2DF8C2F5A
:1058900039DDC7EED3E1488159816A817B818FE68A
:1058A00097E030DF4C815D816E817F818CE697E0EF
:1058B000DF91CF911F910F91ACCF6CE277E00E9406
:1058C000B8AE85E297E00E94211F409130095091C7
:1058D000310960913209709133098EE696E299CFD1
:1058E000CF93DF93C82F811111C040E060E176E0D3
:1058F00080E02FDD8091CB04811104C083E096E02D
:105900000E94211F8AE00E94171CF8DCD091CB0472
:105910008AEF95E00E94211F6D2F70E090E080E0FB
:105920000E94E7AC8AE00E94171C8C2FEBDC60E041
:1059300081EF95E00E94421F4091C3045091C4043E
:105940006091C5047091C6048EEE95E062DF8C2FE5
:10595000D9DC61E081EF95E00E94421F4091C704CD
:105960005091C8046091C9047091CA048EEE95E00C
:10597000DF91CF914ECF60ED76E00E94B8AE60919E
:10598000100B7091110B8091120B9091130B0E94D0
:10599000EED7AB01BC0187EC96E0B4DE4091400B42
:1059A0005091410B6091420B7091430B84EC96E057
:1059B000A9DE4091440B5091450B6091460B7091CC
:1059C000470B81EC96E09EDE40910C0550910D0551
:1059D00060910E0570910F058EEB96E01ACFCF9374
:1059E000DF9364E776E00E94B8AEC0E0DBE04CA94C
:1059F0005DA96EA97FA98BE696E084DE48AD59AD1E
:105A00006AAD7BAD88E696E07DDE4CAD5DAD6EADFA
:105A10007FAD81EC96E0DF91CF91FBCECF93DF930A
:105A200060E576E00E94B8AEC0E0DBE04CA15DA18D
:105A30006EA17FA187E496E065DE48A559A56AA519
:105A40007BA581E796E25EDE4CA55DA56EA57FA5F0
:105A50008EE696E257DE48A959A96AA97BA98BE68A
:105A600096E2DF91CF91D5CECF93DF936BE276E0D4
:105A70000E94B8AEC0E0DBE0688179818A819B81B9
:105A80000E94EED7AB01BC0182E296E03BDE6C8166
:105A90007D818E819F810E94EED7AB01BC0181E7A1
:105AA00096E230DE688579858A859B850E94EED7EF
:105AB000AB01BC018EE696E225DE6C857D858E8588
:105AC0009F850E94EED7AB01BC018BE696E2DF9189
:105AD000CF919FCECF93DF93EB010E94211FBE0198
