:100000000C941C130C945C130C945C130C945C13F4
:100010000C945C130C945C130C945C130C945C13A4
:100020000C945C130C94919F0C94919F0C94919F51
:100030000C945C130C945C130C945C130C945C1384
:100040000C945C130C94E1200C945C130C945C13E2
:100050000C945C130C94F8AB0C945C130C9406A4F5
:100060000C945C130C9457950C944D950C945C1364
:100070000C945C130C945C130C945C130C945C1344
:100080000C940C330C945C130C945C130C945C1364
:100090000C945C130C945C130C945C130C945C1324
:1000A0000C945C130C945C130C94DE320C945C1373
:1000B0000C945C130C945C130C945C130C945C1304
:1000C0000C945C130C945C130C945C130C945C13F4
:1000D0000C945C130C945C130C945C130C945C13E4
:1000E0000C945C13084AD73B3BCE016E84BCBFFD29
:1000F000C12F3D6C74319ABD56833DDA3D00C77FF8
:1001000011BED9E4BB4C3E916BAAAABE0000008090
:100110003F05A84CCDB2D44EB93836A9020C50B91F
:10012000918688083CA6AAAA2ABE000000803F004B
:100130004E414E494E495459494E46CDCCCC3D0ACC
:10014000D7233C17B7D13877CC2B329595E6241FAF
:10015000B14F0A000020410000C84200401C462068
:10016000BCBE4CCA1B0E5AAEC59D74434F4D4D5577
:100170004E49434154494F4E0044525952554E0046
:100180004552524F525300494E464F004543484F47
:10019000005072696E7465722073746F707065645C
:1001A0002064756520746F206572726F72732E20E3
:1001B00046697820746865206572726F7220616E7E
:1001C0006420757365204D39393920746F2072654C
:1001D00073746172742E202854656D706572617439
:1001E0007572652069732072657365742E2053657E
:1001F000742069742061667465722072657374611D
:100200007274696E67290A004E6F20436865636BDC
:1002100073756D2077697468206C696E65206E75E2
:100220006D6265722C204C617374204C696E653A66
:100230002000636865636B73756D206D69736D6114
:100240007463682C204C617374204C696E653A208D
:10025000004C696E65204E756D6265722069732071
:100260006E6F74204C617374204C696E65204E75FE
:100270006D6265722B312C204C617374204C696E59
:10028000653A20004D3131300053657269616C2050
:10029000737461747573206D69736D617463680A3A
:1002A000002121204B494C4C20636175736564200B
:1002B000627920746F6F206D75636820696E616369
:1002C000746976652074696D65202D20637572727E
:1002D000656E7420636F6D6D616E643A2000486FC7
:1002E00074656E642049646C652054696D656F7532
:1002F000740A00627573793A2070617573656420C1
:10030000666F7220696E7075740A00627573793A4F
:100310002070617573656420666F722075736572F5
:100320000A00627573793A2070726F63657373693E
:100330006E670A006563686F3A004572726F723AC1
:10034000004F4646004F4E0066616C736500747244
:1003500075650042696C696E656172204C657665F1
:100360006C696E6720477269643A0A00303D2E332B
:10037000323500313D2E3138006D6178002F333138
:10038000002F3331002F333100303D2E3332350012
:10039000313D2E3138006D6178002F3331002F331D
:1003A00031002F333100303D2E33323500313D2EB8
:1003B0003138006D6178002F3331002F3331002F39
:1003C000333100303D2E33323500313D2E3138008F
:1003D0006D6178002F3331002F3331002F3331001E
:1003E000303D2E33323500313D2E3138006D61788D
:1003F000002F3331002F3331002F333100092042D9
:10040000616420726573706F6E736521000920420C
:10041000616420726573706F6E73652100092042FC
:10042000616420726573706F6E73652100092042EC
:10043000616420726573706F6E73652100092042DC
:10044000616420726573706F6E736521004C4F5745
:100450000048494748004F4B004572726F723A207E
:10046000416C6C200020636F6E6E656374696F6E03
:100470002E2E2E200054657374696E6720004C4F39
:10048000570048494748004F4B004572726F723A17
:1004900020416C6C200020636F6E6E656374696F21
:1004A0006E2E2E2E200054657374696E6720004CEA
:1004B0004F570048494748004F4B004572726F72D2
:1004C0003A20416C6C200020636F6E6E6563746926
:1004D0006F6E2E2E2E200054657374696E67200097
:1004E0004C4F570048494748004F4B004572726FC8
:1004F000723A20416C6C200020636F6E6E656374ED
:10050000696F6E2E2E2E200054657374696E6720FD
:10051000004C4F570048494748004F4B0045727206
:100520006F723A20416C6C200020636F6E6E6563C1
:1005300074696F6E2E2E2E200054657374696E6779
:1005400020002E0A002F0050726F62696E67206DC6
:1005500065736820706F696E7420002028445259BA
:1005600052554E2900473239204175746F2042653B
:1005700064204C6576656C696E67003F20284C2CC2
:10058000522C462C4229206F7574206F6620626FB2
:10059000756E64732E0A003F2856296572626F7368
:1005A00065206C6576656C20696D706C617573692A
:1005B000626C652028302D34292E0A0042616420A7
:1005C0005A2076616C75650A004E6F2062696C690D
:1005D0006E65617220677269640A00204400202001
:1005E0004D32303020540020204D32303020530026
:1005F000202844697361626C6564293A0046696C1D
:10060000616D656E742073657474696E6773002024
:10061000204D3230312058004D61782041636365B0
:100620006C65726174696F6E2028756E6974732FC2
:100630007332290020204D3230332058004D61782C
:10064000206665656472617465732028756E6974CF
:10065000732F73290020520020204D323034205057
:1006600000416363656C65726174696F6E20287503
:100670006E6974732F7332292028503C7072696E32
:10068000742D616363656C3E20523C7265747261C7
:1006900063742D616363656C3E20543C74726176B3
:1006A000656C2D616363656C3E2900204A0020540F
:1006B0000020530020204D32303520420041647626
:1006C000616E6365642028423C6D696E5F73656787
:1006D0006D656E745F74696D655F75733E20533C24
:1006E0006D696E5F66656564726174653E20543C39
:1006F0006D696E5F74726176656C5F666565647264
:100700006174653E204A3C6A756E635F6465763E3F
:10071000290020204D32313700546F6F6C2D6368F3
:10072000616E67696E670020204D323138205400B9
:10073000486F74656E64206F66667365747300201D
:10074000440020490020204D333031205000486FB4
:1007500074656E6420504944004452565F535441BE
:10076000545553090050574D5F5343414C450900C0
:1007700050574D434F4E460900434F4F4C434F4E49
:1007800046090043484F50434F4E460900544849DC
:10079000474809090054434F4F4C544852530900ED
:1007A0005450574D5448525309005453544550091E
:1007B000090054504F574552444F574E0900494F76
:1007C000494E090900475354415409090049484F0B
:1007D0004C445F4952554E090047434F4E46090964
:1007E00000090044726976657220726567697374E6
:1007F0006572733A0A007332767362090073327657
:100800007361090031323043090031343343090048
:100810003135304309003135374309006F74090021
:100820006F74707709007332676109007332676211
:1008300009006F6C6109006F6C6209007374737456
:10084000090073675F726573756C74004452565388
:10085000544154555300755374657020636F756E21
:1008600074005374616C6C67756172642074687293
:100870007300202D73746172740900687973746554
:1008800072657369730A202D656E640900626C617C
:100890006E6B2074696D65006F66662074696D65A6
:1008A0000070776D2067726164206175746F0070ED
:1008B000776D206F6666736574206175746F007064
:1008C000776D207363616C65206175746F0070775C
:1008D0006D207363616C652073756D004F542070DB
:1008E00072657761726E005B6D6D2F735D090050EC
:1008F000574D207468726573682E00747374657048
:100900000900696E7465727009006D7374657073A7
:100910000900737465616C746843686F7000767366
:10092000656E7365090050574D207363616C6500F7
:1009300043532061637475616C00486F6C6420637D
:10094000757272656E740052756E20637572726591
:100950006E74004D41582063757272656E7400525A
:100960004D532063757272656E7400536574206315
:10097000757272656E7400456E61626C6564090023
:100980004164647265737309000900737072656174
:10099000644379636C6500737465616C7468436863
:1009A0006F700020647269766572206D6F64653ABD
:1009B00009007370726561644379636C65007374D8
:1009C00065616C746843686F700020647269766555
:1009D00072206D6F64653A090073707265616443DB
:1009E00079636C6500737465616C746843686F70DB
:1009F0000020647269766572206D6F64653A090043
:100A00007370726561644379636C650073746561CA
:100A10006C746843686F7000206472697665722038
:100A20006D6F64653A090073707265616443796340
:100A30006C6500737465616C746843686F70002046
:100A4000647269766572206D6F64653A0900202EC4
:100A500068737472743A2000202E68656E643A20C0
:100A6000002063686F70706572202E746F66663A3E
:100A70002000202E68737472743A2000202E68655E
:100A80006E643A20002063686F70706572202E7467
:100A90006F66663A2000202E68737472743A2000E4
:100AA000202E68656E643A20002063686F70706560
:100AB00072202E746F66663A2000202E687374725E
:100AC000743A2000202E68656E643A200020636826
:100AD0006F70706572202E746F66663A2000202E4B
:100AE00068737472743A2000202E68656E643A2030
:100AF000002063686F70706572202E746F66663AAE
:100B000020003F53206F7574206F662072616E67FE
:100B1000652028312E2E38290A003F50206F757429
:100B2000206F662072616E676520282D332E2E316E
:100B300032290A003F4F206F7574206F6620726162
:100B40006E67652028312E2E3135290A003B2000A2
:100B500020496E76616C696420657874727564658D
:100B600072200047322F4733206261642070617227
:100B7000616D65746572730A0047323800205A3A15
:100B8000200020593A200042656420583A20004D48
:100B900065736820706F696E74206F7574206F665E
:100BA0002072616E67650A002569730025696D20F2
:100BB000256973002569682025696D202569730002
:100BC000256964202569682025696D2025697300E1
:100BD00025697920256964202569682025696D20AB
:100BE000256973005072696E742074696D653A20CE
:100BF000006F6B006F6666008C01870180017901D0
:100C00006B0144454255473A004D3131322053681B
:100C10007574646F776E004D3131332053002F2F80
:100C2000003F4A206F7574206F662072616E6765A1
:100C30002028302E303120746F20302E33290A00C6
:100C400020204D61783A2000200020204D696E3A26
:100C50002000203B200020204D3231312053005312
:100C60006F667420656E6473746F70730046523AD9
:100C70000020466C6F773A20003A200020536572BE
:100C8000766F2000206F7574206F662072616E672A
:100C9000650A00536572766F200050726F6265209E
:100CA0004F6666736574205A0050726F6265204FFC
:100CB0006666736574205A00496E76616C696420BB
:100CC00065787472756465720A0064697300656E94
:100CD0000043290A0061626C656420286D696E20FA
:100CE00074656D702000436F6C6420657874727554
:100CF000646573206172652000426564204C6576EE
:100D0000656C696E6720004661696C656420746F6C
:100D100020656E61626C6520426564204C65766575
:100D20006C696E670A00496E76616C6964206D6556
:100D300073682E0A004D34323120696E636F72720F
:100D400065637420706172616D657465722075737E
:100D50006167650A004D65736820706F696E742065
:100D60006F7574206F662072616E67650A00546F3C
:100D70006F206661722066726F6D207265666572A3
:100D8000656E636520706F696E740A004545505248
:100D90004F4D204F4B0A00290A0020746F20003F5E
:100DA0005A206F7574206F662072616E6765202807
:100DB00000290A0020746F20003F59206F757420AD
:100DC0006F662072616E676520282D00290A002059
:100DD000746F20003F58206F7574206F6620726119
:100DE0006E676520282D0020647269766572206325
:100DF000757272656E743A2000206472697665724D
:100E00002063757272656E743A2000206472697690
:100E100065722063757272656E743A200020647288
:100E2000697665722063757272656E743A2000206F
:100E30006472697665722063757272656E743A20A9
:100E4000006F6B0020204D323036205800486F6D07
:100E500065206F6666736574004361703A00434FA6
:100E60004E4649475F4558504F5254004D454154F6
:100E70005041434B00434F4F4C45525F54454D50FA
:100E800045524154555245004348414D4245525FF9
:100E900054454D50455241545552450042414259E6
:100EA0005354455050494E470041524353004D4F13
:100EB00054494F4E5F4D4F44455300544845524DA1
:100EC000414C5F50524F54454354494F4E00455892
:100ED00054454E4445445F4D323000435553544FC2
:100EE0004D5F4649524D574152455F55504C4F4119
:100EF00044004C464E5F5752495445004C4F4E47B4
:100F00005F46494C454E414D45004155544F524571
:100F1000504F52545F53445F535441545553005300
:100F2000445F57524954450052455045415400537F
:100F300044434152440050524F4D50545F5355501A
:100F4000504F525400484F53545F414354494F4E01
:100F50005F434F4D4D414E445300454D455247452B
:100F60004E43595F50415253455200434153455FF0
:100F70004C494748545F4252494748544E455353A1
:100F800000544F47474C455F4C4947485453005322
:100F90004F4654574152455F504F574552004255B6
:100FA000494C445F50455243454E54004C455645CC
:100FB0004C494E475F44415441005A5F50524F42A2
:100FC000450052554E4F5554004155544F4C4556CF
:100FD000454C005052494E545F4A4F420050524FC8
:100FE0004752455353004155544F5245504F525468
:100FF0005F54454D50004155544F5245504F525447
:101000005F504F5300564F4C554D45545249430085
:10101000454550524F4D0042494E4152595F464955
:101020004C455F5452414E53464552005345524938
:10103000414C5F584F4E5F584F4646004649524D0F
:10104000574152455F4E414D453A4D61726C696E54
:10105000206275676669782D322E302E78202853ED
:10106000657020323420323032322031363A31331A
:101070003A33302920534F555243455F434F44453F
:101080005F55524C3A6769746875622E636F6D2FB5
:101090004D61726C696E4669726D776172652F4D34
:1010A00061726C696E2050524F544F434F4C5F56E3
:1010B000455253494F4E3A312E30204D4143484915
:1010C0004E455F545950453A4A756C6961205072DB
:1010D0006F204475616C203234562041424C207799
:1010E00069746820544D4332323039206F6E205578
:1010F000415254206D6F6465206F6E204D4B53201C
:1011000047656E4C2056322E312045585452554476
:1011100045525F434F554E543A3220555549443A53
:1011200063656465326132662D343161322D343746
:1011300034382D396231322D6335356336326633BA
:10114000363766660A00203B0020204D38353120B6
:1011500058005A2D50726F6265204F666673657431
:101160000020573A0020573A0023646566696E658F
:101170002044454641554C545F004B6420004B6968
:1011800020004B702000504944204175746F7475E5
:101190006E652066696E6973686564212050757498
:1011A00020746865206C617374204B702C204B692F
:1011B00020616E64204B6420636F6E7374616E7483
:1011C000732066726F6D2062656C6F7720696E7434
:1011D0006F20436F6E66696775726174696F6E2EFA
:1011E000680A00504944204175746F74756E65201B
:1011F0006661696C6564212074696D656F75740A38
:1012000000504944204175746F74756E65206661A5
:10121000696C6564212054656D70657261747572C6
:101220006520746F6F20686967680A00204B643A14
:101230002000204B693A2000204B703A20002043C8
:101240006C617373696320504944200A002054750F
:101250003A2000204B753A2000206D61783A20003A
:10126000206D696E3A200020643A20002062696196
:10127000733A2000504944204175746F74756E654F
:101280002073746172740A00504944204175746F70
:1012900074756E65206661696C6564212054656DA6
:1012A000706572617475726520746F6F206869670C
:1012B000680A00504944204175746F74756E65204A
:1012C0006661696C656421204261642068656174AF
:1012D00065722069640A006F70656E005452494758
:1012E0004745524544003A20007A5F70726F62654C
:1012F000007A5F6D617800795F6D617800785F6D6D
:10130000696E005265706F7274696E6720656E64F5
:1013100073746F70207374617475730A000000B980
:10132000430080C5430000C84300000000000000E7
:10133000000000000020746F6F206C6F6E672065E6
:101340007874727573696F6E2070726576656E74ED
:1013500065640A0020636F6C64206578747275732D
:10136000696F6E2070726576656E7465640A000040
:1013700000A0C00080C5430000C8435761726E6979
:101380006E673A20486F6D696E672042756D7020F8
:1013900044697669736F72203C20310A00020204AE
:1013A0000000B9430080C5430000C8430000A040CE
:1013B0000000A0400000004000000001000000010B
:1013C00000008000555555000000400033333300C5
:1013D000AAAA2A004992240000002000C7711C001C
:1013E00099991900D1451700555515003BB11300C7
:1013F0002449120011111100000010000F0F0F00FE
:10140000E3380E0043790D00CCCC0C00C3300C0047
:10141000E8A20B0064210B00AAAA0A00703D0A0092
:101420009DD80900427B090092240900DCD3080002
:10143000888808001042080000000800F0C107007A
:101440008787070075500700711C07003EEB0600F8
:10145000A1BC06006990060066660600703E0600A4
:101460006118060017F4050074D105005BB0050093
:10147000B2900500627205005555050078390500E7
:10148000B81E0500050505004EEC040087D40400D5
:10149000A1BD040090A7040049920400C17D04008E
:1014A000EE690400C7560400444404005C320400A2
:1014B0000821040041100400000004003FF0030074
:1014C000F8E0030026D20300C3C30300CCB5030039
:1014D0003AA803000A9B0300388E0300C081030072
:1014E0009F750300D0690300505E03001D53030085
:1014F00034480300913D03003333030016290300F1
:10150000381F030097150300300C0300030303008A
:101510000BFA020049F10200BAE802005CE00200A6
:101520002DD802002DD0020059C80200B0C0020020
:1015300031B90200DAB10200AAAA0200A0A3020097
:10154000BC9C0200FA9502005C8F0200DF8802005A
:1015500082820200457C020027760200277002008A
:10156000436A02007C640200D05E02003F59020020
:10157000C8530200FFFDFCFAF8F6F4F2F0EEECEAD4
:10158000E9E7E5E3E1E0DEDCDAD9D7D5D4D2D0CFA4
:10159000CDCBCAC8C7C5C3C2C0BFBDBCBAB9B7B638
:1015A000B4B3B2B0AFADACAAA9A8A6A5A4A2A1A09D
:1015B0009E9D9C9A99989795949392908F8E8D8BDF
:1015C0008A8988878684838281807F7E7D7B7A7901
:1015D0007877767574737271706F6E6D6C6B6A6903
:1015E0006867666564636261605F5E5D5C5B5A59F3
:1015F00058585756555453525150504F4E4D4C4BCE
:101600004A4A4948474646454443424241403F3E94
:101610003E3D3C3B3B3A393838373635353433324A
:10162000323130302F2E2E2D2C2B2B2A29292827F2
:101630002726252524232322212120201F1E1E1D8D
:101640001C1C1B1B1A19191818171616151514131C
:101650001312121111100F0F0E0E0D0D0C0C0B0AA0
:101660000A0909080807070606050504040303021A
:1016700002010000DB0FC93F45BCDA3F8FB30240D7
:10168000FCF0274056946140FE4B9B4084A5D84017
:10169000E0231841346A5641E859974164DBD5414B
:1016A0006E271742B4B75542CE1A9742C8AED542FC
:1016B000B5885A43D40684BFA65FA7BF7443E0BF72
:1016C00010B11AC01C2C58C0E8F697C0B849D6C053
:1016D0004E4E17C124D355C1802497C1A0B5D5C1A2
:1016E000121A17C244AE55C2781797C26CACD5C255
:1016F00067885AC320746F6F206C6F6E672065789F
:1017000074727573696F6E2070726576656E74653C
:10171000640A0020636F6C64206578747275736965
:101720006F6E2070726576656E7465640A00290AB2
:10173000002062797465733B2063726320005365F7
:101740007474696E67732053746F72656420280027
:10175000454550524F4D20496E697469616C697AF4
:1017600065640A0048617264636F6465642044655F
:101770006661756C742053657474696E6773204C70
:101780006F616465640020286D6D2900203B204C4A
:101790006576656C696E67200020204D34323020FC
:1017A00053004175746F20426564204C6576656C0A
:1017B000696E670020204D393036002054312045B5
:1017C00000205430204500537465707065722064A9
:1017D00072697665722063757272656E740020207E
:1017E0004D353639205331005431204500543020D6
:1017F00045002058004472697665722073746570E4
:1018000070696E67206D6F646500204A0020204774
:101810003239205720490020204D313439204320CF
:101820003B20556E69747320696E2043656C736943
:1018300075730A0054656D70657261747572652008
:10184000556E697473002020473231203B004C698B
:101850006E65617220556E69747300454550524F34
:101860004D206461746173697A65206572726F726C
:101870002E0A00290A002062797465733B20637286
:101880006320002073746F726564207365747469DB
:101890006E677320726574726965766564202800CE
:1018A000202863616C63756C6174656429210A008A
:1018B00020213D2000454550524F4D2043524320AA
:1018C0006D69736D61746368202D202873746F7265
:1018D00065642920002053697A653A2000496E64C6
:1018E00065783A200000004843000048430000A00B
:1018F00041000034420000C8420000C842F0F7FB3B
:101900004300000C43DC050000DC05000032000051
:101910000010270000204D61726C696E3D5638360C
:10192000290A00454550524F4D2076657273696F04
:101930006E206D69736D617463682028454550524F
:101940004F4D3D0024F4D43050C38E20C2A2401726
:10195000828B7011127A910D816CD90AA861E1080D
:10196000C7586607615143061E4B5D05C145A70474
:101970001A411104093D9803713931034036DB02E5
:1019800065339102D4305402802E1D02632CEE0187
:10199000752AC501B028A001102781018F25640197
:1019A0002B244B01E0223401AC211F018D200D01BD
:1019B000801FFC00841EED00971DDF00B81CD200C4
:1019C000E61BC600201BBC00641AB200B219A800B6
:1019D0000A19A0006A189900D117910040178B00CE
:1019E000B516840031167E00B31579003A157300E0
:1019F000C7146F0058146A00EE1366008813630062
:101A000025135E00C7125B006C12570015125400BC
:101A1000C111510070114F0021114B00D610490027
:101A20008D1047004610440002104200C00F4000D5
:101A3000800F3E00420F3C00060F3B00CB0E3800EB
:101A4000930E37005C0E3500270E3400F30D320084
:101A5000C10D3100900D3000600D2E00320D2D00B3
:101A6000050D2C00D90C2B00AE0C2900850C29008B
:101A70005C0C2700350C27000E0C2600E80B240018
:101A8000C40B2400A00B23007D0B23005A0B210064
:101A9000390B2100180B2000F80A1F00D90A1E007C
:101AA000BB0A1E009D0A1D00800A1D00630A1C005F
:101AB000470A1B002C0A1B00110A1A00F7091A001A
:101AC000DD091900C4091900AB09190092091700B2
:101AD0007B091800630917004C0916003609160027
:101AE000200916000A091500F5081500E008140081
:101AF000CC081400B8081400A408140090081300BF
:101B00007D0812006B0813005808120046081200E6
:101B100034081100230811001208110001081100F7
:101B2000F0071000E0071000D0071000C0071000F9
:101B3000B0070F00A107100091070E0083070F00E8
:101B400074070F0065070E0057070E0049070E00C7
:101B50003B070D002E070E0020070D0013070D0098
:101B600006070D00F9060C00ED060D00E0060C005E
:101B7000D4060C00C8060C00BC060C00B0060C0015
:101B8000A4060B0099060C008D060B0082060B00C4
:101B900077060B006C060B0061060A0057060B0067
:101BA0004C060A0042060A0038060A002E060A0001
:101BB00024060A001A060A001006090007060A0091
:101BC000FD050900F4050900EB050900E20509001F
:101BD000D9050900D0050900C7050900BE0509009F
:101BE000B5050800AD050800A50509009C0508001D
:101BF000940508008C050800840508007C05080091
:101C0000740508006C050700650508005D05070000
:101C1000560508004E050700470507004005080067
:101C200038050700310507002A05070023050700CE
:101C30001C050600160507000F050700080506002D
:101C400002050700FB040600F5040700EE04060089
:101C5000E8040600E2040700DB040600D5040600E1
:101C6000CF040600C9040600C3040600BD04060034
:101C7000B7040600B1040500AC040600A604060083
:101C8000A00405009B0406009504050090040600CE
:101C90008A04050085040500800406007A04050016
:101CA00075040500700405006B040500660405005A
:101CB000610405005C04050057040500520405009A
:101CC0004D04050048040500430405003E040400DB
:101CD0003A04050035040500300404002C04050016
:101CE00027040400230405001E0404001A04040051
:101CF00016040500110404000D0404000904050085
:101D00000404040000040400FC030400F8030400BD
:101D1000F4030400F0030400EC030400E8030400EF
:101D2000E4030400E0030400DC030400D80304001F
:101D3000D4030400D0030400CC030400C803030050
:101D4000C503030024F404D9201BC40C5C0E9804C2
:101D5000C4095F0265077101F405F900FB04B300D3
:101D600048048700C1036900580355000303450078
:101D7000BE023A008402310053022A0029022500E3
:101D800004022000E4011C00C8011900AF01170083
:101D9000980114008401130071011000610110000A
:101DA00051010E0043010D0036010B002B010B0009
:101DB00020010B00150109000C01090003010800B6
:101DC000FB000800F3000800EB000700E400060039
:101DD000DE000600D8000600D2000600CC00050098
:101DE000C7000500C2000500BD000400B9000400E2
:101DF000B5000400B1000400AD000400A900040017
:101E0000A5000300A20003009F0004009B00030044
:101E10009800030095000200930003009000030067
:101E20008D0002008B000300880002008600020083
:101E300084000300810002007F0002007D00020098
:101E40007B000200790002007700010076000200AA
:101E50007400020072000100710002006F000200B5
:101E60006D0001006C0002006A00010069000200C0
:101E700067000100660001006500010064000200C7
:101E80006200010061000100600001005F000200CB
:101E90005D0001005C0001005B0001005A000100D0
:101EA00059000100580001005700010056000100D0
:101EB00055000100540001005300000053000100D0
:101EC0005200010051000100500001004F000100CC
:101ED0004E0000004E0001004D0001004C000100CA
:101EE0004B0000004B0001004A00010049000100C6
:101EF00048000000480001004700010046000000C3
:101F000046000100450000004500010044000100BA
:101F100043000000430001004200000042000100B5
:101F20004100000041000100400001003F000000AE
:101F30003F0001003E0000003E0001003D000000A7
:101F40003D0001003C0000003C0000003C0001009E
:101F50003B0000003B0001003A0000003A00010095
:101F6000390000003900010038000000380000008E
:101F70003800010037000000370001003600000083
:101F8000360000003600010035000000350000007A
:101F9000350001003400000034000000340001006E
:101FA0003300000033000000330001003200000065
:101FB000320000003200010031000000310000005A
:101FC000310001003000000030000000300001004E
:101FD0002F0000002F0000002F0000002F00010044
:101FE0002E0000002E0000002E0001002D00000039
:101FF0002D0000002D0000002D0001002C0000002D
:102000002C0000002C0000002C0001002B00000020
:102010002B0000002B0000002B0001002A00000014
:102020002A0000002A0000002A0001002900000008
:1020300029000000290000002900000029000100FB
:1020400028000000280000002800000028000000F0
:1020500028000100270000002700000027000000E2
:1020600027000000270001002600000026000000D5
:1020700026000000260000002600010025000000C8
:1020800025000000250000002500000025000000BC
:1020900025000100240000002400000024000000AE
:1020A00024000000240001002300000023000000A1
:1020B0002300000023000000230000002300000094
:1020C0002300010022000000220000002200000086
:1020D0002200000022000000220001002100000078
:1020E000210000002100000021000000210000006C
:1020F000210000002100010020000000200000005D
:10210000200000002000000020000000200000004F
:1021100020000000200001001F0000001F00000040
:102120001F0000001F0000001F0000001F00000033
:102130001F0001001E0000001E0000001E00000025
:102140001E00000039300000332500008719000010
:10215000B00F0000DB080000BD04000074020000A6
:102160003F010000423A0020436F756E7420413AEF
:10217000004500626564002C2073797374656D20DE
:1021800073746F7070656421204865617465725F57
:1021900049443A200048656174696E672046616968
:1021A0006C65640048656174696E67206661696C7E
:1021B0006564001000600350012C0190012201D0E1
:1021C00001180110020E0170020401E002FA006021
:1021D00003F0000004E600B004DC00A005D200B06B
:1021E00006C8000008BE00A009B400800BAA00D0F9
:1021F0000DA00090109600C0138C00701782009004
:102200001B780010206E00C0246400E02D50008078
:10221000353C00A03A2800A03D1400003F0000A07B
:102220003FECFF4572723A204D415854454D5000E5
:102230004D415854454D5020747269676765726509
:1022400064004572723A204D494E54454D50004D40
:10225000494E54454D5020747269676765726564D4
:1022600000202F002040002042403A0020403A0049
:10227000496E76616C696420657874727564657204
:102280000A004163746976652045787472756465E7
:10229000723A20001000C90210012C0140012201F5
:1022A00070011801B0010E01F00104015002FA00A2
:1022B000B002F0003003E600D003DC009004D2004E
:1022C0007005C800A006BE000008B400B009AA004E
:1022D000D00BA000600E960060118C0000158200EB
:1022E00020197800C01D6E00A0226400B0275A009B
:1022F000902C500000314600E0343C001038320091
:10230000903A2800603C1E00A03D1400803E0A0068
:10231000203F00002020506C616E6E657242756631
:1023200066657242797465733A200020467265656D
:10233000204D656D6F72793A200020436F6D706992
:102340006C65643A2053657020323420323032326A
:102350000A00204C61737420557064617465643A9E
:1023600020323032322D30332D3134207C204175F3
:1023700074686F723A2028467261636B74616C20D6
:10238000576F726B732C2064656661756C74206383
:102390006F6E666967290A004D61726C696E206212
:1023A00075676669782D322E302E780A0020536FBB
:1023B0006674776172652052657365740A002057F0
:1023C00061746368646F672052657365740A0020E6
:1023D00042726F776E206F75742052657365740A50
:1023E000002045787465726E616C20526573657467
:1023F0000A00506F77657255700A007374617274C9
:102400000A0020503A00205A3A0020593A00205839
:102410003A00656E6473746F7073206869743A2053
:102420000000002100240027002A002D0030003386
:102430000001010000040107010A0100000A0B026B
:10244000090C0D0E08070304010000000000000045
:10245000000000000000000000000000000000007C
:102460000000000000000012111000000000000039
:10247000000000000000000000000000000000005C
:1024800000000020002300260029002C002F00322D
:1024900000000100000301060109010000220025DF
:1024A0000028002B002E003100340002010000053E
:1024B0000108010B010505050507050808080802C4
:1024C0000202020A0A0808040404040101010101CD
:1024D0000101010303030303030303040707070CBC
:1024E0000C0C0C0C0C0C0C02020202060606060672
:1024F0000606060B0B0B0B0B0B0B0B01021020201F
:102500000808102040102040800201020108040247
:1025100001010204081020408080402010080402BD
:102520000180040201804020100804020108040216
:10253000010102040810204080010204081020401C
:1025400080486F6D696E67204661696C656400FF45
:10255000010150726F62696E67204661696C656443
:102560000A00205A3A200020593A2000426564208F
:10257000583A2000307800220A00556E6B6E6F7753
:102580006E20636F6D6D616E643A202200204500FD
:10259000205A0020590020204D3932205800537411
:1025A0006570732070657220756E69740045727273
:1025B0006F722077726974696E6720746F20454569
:1025C00050524F4D210A00544845524D414C205223
:1025D000554E4157415900546865726D616C2052E7
:1025E000756E6177617900486F6D6520257325737D
:1025F00025732046697273740020453A00205A3AC8
:102600000020593A00583A006F6B0A005265736512
:102610006E643A20005072696E7465722068616C55
:102620007465642E206B696C6C28292063616C6C66
:102630006564210A000014B511241FBECFEFD1E25A
:10264000DEBFCDBF00E00CBF84B78093271114BE5E
:102650000FB6F894A895809160008861809360001F
:10266000109260000FBE13E0A0E0B2E0ECEAF4E9E3
:1026700001E00BBF02C007900D92AC3DB107D9F746
:1026800021E1ACEDB3E001C01D92A732B207E1F742
:1026900013E1CCE1D3E100E006C021970109802FCE
:1026A000FE010E940CC7CB31D10780E00807A9F7D3
:1026B0000E9416B70C9454CA0C940000EF92FF923B
:1026C0000F931F93E092E903F092EA030093EB0368
:1026D0001093EC036093ED037093EE038093EF038C
:1026E0009FEFFF27621B730B840B30F4809570956E
:1026F0006195790B890B99279093E803A6E06A9F6F
:102700000092DC03512DEE277A9F500DE11D8A9F28
:10271000E00D5093DD03E093DE03AFE06A9F00928B
:10272000E003512DEE277A9F500DE11D8A9FE00DA9
:102730005093E103E093E203AAE06A9F0092E4036E
:10274000512DEE277A9F500DE11D8A9FE00D509389
:10275000E503E093E6031F910F91FF90EF9008953A
:1027600093E0980F21E030E002C0220F331F9A95CA
:10277000E2F7209530959091290B29232093290B7E
:10278000882321F0813021F081E00895129AFCCF56
:10279000479AFACF21E030E0082E02C0220F331F03
:1027A0000A94E2F7209530959091290B29232093E4
:1027B000290B813051F0823069F05F9A80914A0D87
:1027C0008E7F80934A0D81E008958A9A80914A0D08
:1027D0008D7FF7CF809108018095817080930601ED
:1027E00080914A0D8B7FEDCF9F92AF92BF92CF9297
:1027F000DF92EF92FF920F931F93CF93DF9300D05E
:102800001F921F92CDB7DEB7E4E7F5E10027BB27A3
:10281000462F572FA82FAA2341F4A52F542FB85F76
:10282000AA2319F4A52F5527B85FA03138F4529583
:10283000A295452F4F70507FA42BBC5FA03428F485
:10284000550FAA1F550FAA1FBE5FA03818F4550FC9
:10285000AA1FB395550FAA1FEA0FF01F449151E02C
:10286000AA27B85079F1C0F0B0FF02C0440F551F3D
:10287000B1FF04C0440F551F440F551FB2FF06C0DF
:1028800052954295142F1F70407F512BB3FF1AC0F1
:10289000A52F542F442716C0B195B0FF02C05595FF
:1028A0004795B1FF04C05595479555954795B2FF9B
:1028B00005C05295407F4295452B5F70B3FF02C023
:1028C000452F5527DD24CC24BB24B2E0649FD018CB
:1028D000C108B00AB00B749FC018B108B00B849F38
:1028E000B018B109659FC018B108B00B759FB0183A
:1028F000B109859FB0196A9FB018B1097A9FB019C4
:102900004D9DA12C99243327992722275D9DA00C4A
:10291000911C301F901F201FAD9D900C311D901FEA
:10292000201F4C9DA00C911C301F901F201F5C9DF0
:10293000900C311D901F201FAC9D300D911D201F4C
:102940004B9D900C311D901F201F5B9D300D911DE4
:10295000201FAB9D900D211D4B9F300D911D201F01
:102960005B9F900D211DAB9F200DB1E0BB24CC24BB
:10297000DD24639FD018C108B00AB00B739FC01844
:10298000B108B00B839FB018B109699FC018B10896
:10299000B00B799FB018B109899FB019629FB01828
:1029A000B109729FB019D61AC70AB80A20F0B1E06F
:1029B0003B0F901F201F1124792F632F90E0822F4F
:1029C0000F900F900F900F900F90DF91CF911F916C
:1029D0000F91FF90EF90DF90CF90BF90AF909F90BE
:1029E0000895AF92BF92CF92DF92EF92FF920F9332
:1029F0001F93CF93DF93CEE4DDE002EB14E08EE58E
:102A0000A82E8DE0B82EC12CD12C7601C3946991EB
:102A10007991899199910E94ACC2288939894A8912
:102A20005B890E940DC30E94A6C8F801619371934F
:102A3000819391938F01C616D706E806F90610F424
:102A40006B017C01AC16BD0611F76FEF7FEFCB0178
:102A5000A70196010E9482C62093C2043093C3044A
:102A60004093C4045093C504DF91CF911F910F91FF
:102A7000FF90EF90DF90CF90BF90AF9008957F923E
:102A80008F929F92AF92BF92CF92DF92EF92FF927E
:102A90000F931F93CF93DF9370906B0ACAE9D4E032
:102AA00096E2C92E92E0D92E2AE2E22E22E0F22E00
:102AB00003E61AE0772009F45EC0F8018080918077
:102AC000A280B38020E030E0A901C501B4010E94DA
:102AD000A8C2882309F44FC020E030E040E05FE363
:102AE000C501B4010E940DC39B01AC010E940DC33E
:102AF0002BED3FE049E450E40E940DC39B01AC0183
:102B000060E070E080E89FE30E9439C84B015C01FF
:102B100089929992A992B992F601619171916F018E
:102B2000072E000C880B990B0E94AEC22AE037EDED
:102B300043E25CE30E940DC3A50194010E940DC312
:102B4000F70161937193819391937F010C5F1F4F04
:102B5000F4E0C23ADF0709F0ADCFDF91CF911F91CA
:102B60000F91FF90EF90DF90CF90BF90AF909F902C
:102B70008F907F900895812C912C80E8A82E8FE370
:102B8000B82EC6CF8091181090911910891B8F70A4
:102B900019F490E080E0089590911510992351F078
:102BA000833030F48FEF890F19F080931510F1CF37
:102BB000109215108091191028E5829FC0011124F0
:102BC00089529B4FFC01208120FDE3CF20911910F9
:102BD0002F5F2F702093161030911910209117102D
:102BE000321304C020911610209317100895FC0191
:102BF0007081472F50E0062E02C0559547950A94E4
:102C0000E2F740FF14C040917D0B50E0062E02C059
:102C1000559547950A94E2F740FF09C021E030E05E
:102C200001C0220F6A95EAF7209527232083089593
:102C3000CF93DF9324E0829FC0011124EC01C8569A
:102C4000D24FFC01EF54F44F82579B4FDC012D9182
:102C50003D914D915C9160817181828193810E944F
:102C60005DC7688379838A839B83DF91CF910895C1
:102C700080918A0490918B04A0918C04B0918D0472
:102C80008093540290935502A0935602B09357023A
:102C90008091880490918904909325028093240266
:102CA00008958091540290915502A0915602B091DE
:102CB000570280938A0490938B04A0938C04B09362
:102CC0008D04809124029091250290938904809331
:102CD000880484E690E0909325028093240208956E
:102CE000CF93DF9390917B0491111BC0C09122027E
:102CF000D0912302219797E1899FF0011124E15B94
:102D0000F44F20E030E040E05FE36481758186812C
:102D100097810E945DC70E94A1C821E06C177D07C2
:102D20000CF020E0822FDF91CF91089590E080E0B9
:102D3000089520914404833021F425FD0CC024FD26
:102D40000CC030E0A90102C0559547958A95E2F77D
:102D5000CA018170089581E0089580E0089580910E
:102D6000600484FD0BC08091620487FD07C09091D0
:102D70006304937081E019F480E0089581E0089580
:102D80002FEB280F2A3108F047C0E22FF0E08091A6
:102D9000600490916104A0916204B091630404C046
:102DA000B695A795979587952A95D2F780FD02C08D
:102DB00081700895EA5BFB4FE081EE2341F1809141
:102DC0004C0D90914D0DE80FF92FF11D808190ED84
:102DD000980F9A3030F08E3251F4818180538A30CE
:102DE00098F4F0934104E093400481E008958D321B
:102DF00011F08B3249F4818190ED980F9A3088F36D
:102E00008E3211F48281EACFF0E0E0E0EACF109256
:102E1000410410924004E9CF80E00895B1DF882397
:102E200041F081E02091400430914104232B09F4CA
:102E300080E00895FC01DB0112962D913D914C91AB
:102E4000149722833383448315968C911597858339
:102E500016962D913D914C91189726833783408784
:102E600019964D915D916D917C911C974187528788
:102E7000638774871D964D915D916D917C915097FC
:102E8000458756876787708B87EB93E091838083B4
:102E900051968D919C915297928B818B53964D9127
:102EA0005D916D917C915697438B548B658B768B9E
:102EB00057968C915797878B58968D919C915997DF
:102EC000918F808F5A968D919C915B97938F828F73
:102ED0005C968D919C915D97958F848F5E964D91B8
:102EE0005D916D917C919197468F578F60A371A3EF
:102EF00092964D915D916D917C91959742A353A3CC
:102F000064A375A396964D915D916D917C9199976F
:102F100046A357A360A771A79A968D919C919B9702
:102F200093A782A79C968D919C919D9795A784A726
:102F30009E968D919C919F9797A786A7D0968D91ED
:102F40009C91D19791AB80ABD2968C9182AB089536
:102F50008F929F92AF92BF92CF92DF92EF92FF92A9
:102F6000C090B40AD090B50AE090B60AF090B70AC3
:102F700020E030E0A901C701B6010E94A8C2882361
:102F8000E1F1A701960160E070E080E89FE30E9414
:102F900039C86B017C018090B80A9090B90AA09062
:102FA000BA0AB090BB0A20E030E0A901C501B40123
:102FB0000E94A8C2882329F1A501940160E070E075
:102FC00080E89FE30E9439C8C0922F04D092300459
:102FD000E0923104F092320460933304709334042D
:102FE0008093350490933604FF90EF90DF90CF905C
:102FF000BF90AF909F908F900895C12CD12C7601F7
:10300000CACF60E070E0CB01DFCF2F923F924F92AA
:103010005F926F927F928F929F92AF92BF92CF9268
:10302000DF92EF92FF920F931F93CF93DF93CDB771
:10303000DEB72E970FB6F894DEBF0FBECDBF8A83E2
:10304000162F4983822E262F30E03A872987E4E025
:103050008E9FC00111249C878B87FC01E20FF31F18
:10306000EE0FFF1FEE0FFF1FE459F54F60817181D6
:10307000828193819B01AC010E9409CA882309F4D3
:103080002EC19A81E9819E0F882D810F24E0929FA5
:10309000F0011124A985BA85AE0FBF1FAA0FBB1F6F
:1030A000AA0FBB1FA459B54FAC901196BC901197B5
:1030B0001296CC9012971396DC903981930F24E0EE
:1030C000929FA0011124A985BA85A40FB51FAA0F4C
:1030D000BB1FAA0FBB1FA459B54FEC901196FC90D3
:1030E000119712960C91129713961C91282F30E08D
:1030F000AB85BC85A20FB31FAA0FBB1FAA0FBB1FB6
:10310000A459B54F9C9011967C90119712966C9093
:10311000129713965C90880D90E0AB85BC85A80F44
:10312000B91FAA0FBB1FAA0FBB1FA459B54F8C9084
:1031300011964C90119712963C90129713962C90E2
:10314000E20FF31FEE0FFF1FEE0FFF1FE459F54FC5
:103150003081398321812A8332813B8323812C83EF
:10316000FA01E80FF91FEE0FFF1FEE0FFF1FE459E2
:10317000F54F30813D8381818E8392819F832381AE
:1031800028879701A801B701C8010E9409CA8823AE
:1031900021F0E12CF12C00E010E09501A601B50131
:1031A000C6010E9409CA882311F057016801282D21
:1031B000342D432D522D682D742D832D922D0E9478
:1031C00009CA882321F0812C412C312C212C292D56
:1031D000372D462D552D692D772D862D952D0E9445
:1031E00009CA882321F0982C742C632C522C2D8131
:1031F0003E814F8158856D817E818F8198850E94A7
:1032000009CA882321F01D821E821F821886298107
:103210003A814B815C8169817A818B819C810E949A
:1032200009CA882341F03D8139838E818A839F8139
:103230009B83E885EC832B853C8589859A85280FBF
:10324000391F220F331F220F331F2459354F3A875E
:1032500029879501A601B501C6010E945DC79701A6
:10326000A8010E945CC76B017C01292D372D462DDA
:10327000552D692D772D862D952D0E945DC7282D02
:10328000342D432D522D0E945CC79B01AC01C70118
:10329000B6010E945DC76B017C0129813A814B8197
:1032A0005C8169817A818B819C810E945DC72D81BF
:1032B0003E814F8158850E945CC79B01AC01C701CC
:1032C000B6010E945DC720E030E040E450E40E9477
:1032D00039C8E985FA8560837183828393832E964A
:1032E0000FB6F894DEBF0FBECDBFDF91CF911F9117
:1032F0000F91FF90EF90DF90CF90BF90AF909F9095
:103300008F907F906F905F904F903F902F90089597
:10331000882319F0813021F0089580E00C942EB4B8
:1033200047988091290B80618093290B08954091E3
:10333000C00A21E042276CE070E00C94699B409148
:10334000C00A21E0422761E070E00C94699B409143
:10335000C00A21E0422761E070E00C94699B409133
:10336000C00A21E0422768E070E00C94699B40911C
:10337000C00A21E042276CE070E00C94699B409108
:10338000C00A21E0422764E070E00C94699B41E0B0
:1033900061E070E00C94699B4091C00A21E04227F3
:1033A0000C94699BBC0190E080E00C94B4996CE0B3
:1033B00070E00C94B6A161E070E00C94B6A161E0FD
:1033C00070E00C94B6A16CE070E00C94B6A164E0DF
:1033D00070E00C94B6A10F931F93CF93DF9302E696
:1033E0001DE0C7ECD4E0F801219131914191519158
:1033F0008F0160E070E080E89FE30E9439C8699324
:10340000799389939993F4E0C73DDF0761F70E94B0
:10341000459BDF91CF911F910F91E3CA2F923F926D
:103420004F925F926F927F928F929F92AF92BF92D4
:10343000CF92DF92EF92FF920F931F93CF93DF9380
:10344000CDB7DEB76C970FB6F894DEBF0FBECDBF19
:103450008C015B015A834983FC01E95BFF4F2081AA
:1034600031814281538129873A874B875C87CA0122
:10347000B9010E94ACC26B017C01D5012D913D9137
:103480004D915C910E940DC30E9423C82B013C0109
:10349000E981FA812081318142815381C701B601DE
:1034A0000E940DC30E9423C84B015C01C301B201FD
:1034B0000E94A6C8698B7A8B8B8B9C8B68377105B1
:1034C0008105910540F428E730E040E050E0298B89
:1034D0003A8B4B8B5C8BC501B4010E94A6C86D87EB
:1034E0007E878F87988B683771058105910540F439
:1034F00048E750E060E070E04D875E876F87788B2B
:10350000F801ED5AFF4F4080518062807380C30103
:10351000B2010E94AEC269837A838B839C836989DE
:103520007A898B899C890E94ACC26D8B7E8B8F8B34
:10353000988F20E030E0A90169817A818B819C819C
:103540000E94A8C2882309F4E1C1A7019601C7011E
:10355000B6010E940DC34B015C012D893E894F8944
:10356000588DCA01B9010E940DC39B01AC01C50170
:10357000B4010E945CC74B015C0129813A814B81F7
:103580005C81CA01B9010E945DC79B01AC01C50104
:10359000B4010E9439C80E9423C80E94A6C86D8346
:1035A0007E838F83988766277727CB0164197509F7
:1035B000860997090E94AEC24B015C016D857E852C
:1035C0008F8598890E94ACC22B013C0120E030E03D
:1035D000A901C501B4010E94A8C2882309F49AC1B7
:1035E000A3019201C301B2010E940DC3698F7A8FBA
:1035F0008B8F9C8FA7019601C701B6010E940DC356
:103600009B01AC01698D7A8D8B8D9C8D0E945CC76E
:103610006B017C01A5019401C501B4010E945DC745
:103620009B01AC01C701B6010E9439C80E94D2C8F3
:10363000D80195968D909D90AD90BC90989775010E
:1036400064012D813E814F815885C21AD30AE40A54
:10365000F50A0E94A6C8C61AD70AE80AF90AF7FEB0
:103660008EC02D893E894F89588DCA01B9010E94AB
:103670000DC36B017C0129813A814B815C81CA01B8
:10368000B9010E945DC769877A878B879C8720E094
:1036900030E0A90169817A818B819C810E94A8C256
:1036A000882309F43BC1C501B4010E94ACC229853D
:1036B0003A854B855C850E940DC3A70196010E9447
:1036C0005CC76D837E838F839887A3019201C301BA
:1036D000B2010E940DC39B01AC016D817E818F817F
:1036E00098850E945DC72B013C0120E030E040E856
:1036F00050E469817A818B819C810E940DC39B017A
:10370000AC01C301B2010E9439C80E9423C82B0139
:103710003C0120E030E0A9010E9483C918161CF08A
:10372000412C512C3201C301B2010E94A6C86D8305
:103730007E838F83988786169706A806B90620F49D
:103740008D829E82AF82B8866D817E818F819885C1
:103750000E94ACC229853A854B855C850E940DC3C9
:10376000A70196010E945DC70E94C8C90E94A6C811
:1037700069877A878B879C87C12CD12C76016985D4
:103780007A858B859C8529893A894B895C89621B5E
:10379000730B840B950B0E94ACC229813A814B813B
:1037A0005C810E9439C820E034E244EF59E40E9471
:1037B0000DC30E94A6C84B015C0169857A858B8583
:1037C0009C852D853E854F855889621B730B840B24
:1037D000950B0E94ACC229813A814B815C810E9489
:1037E00039C820E034E244EF59E40E940DC30E943E
:1037F000A6C82B013C013FE683169104A104B10445
:1038000008F090C0F401EE0FFF1FEE0FFF1FE85409
:10381000FC4E85919591A591B4918983292E3A2EDC
:10382000BD8B4FE6441651046104710408F083C057
:10383000F201EE0FFF1FEE0FFF1FE854FC4E459103
:103840005591659174919A01CB014D815E816F8193
:103850007885D8019A964D935D936D937C939D974F
:103860004C0D5D1D6E1D7F1DF80146A757A760AB6F
:1038700071ABE55BFF4F49895A896B897C8940832D
:10388000518362837383D6968D929D92AD92BC9242
:10389000D997F80142AE53AE64AE75AEFE9649813B
:1038A0004083218232825D89538334962083318321
:1038B0008283938369857A858B859C85D2966D9367
:1038C0007D938D939C93D5973D962D853E854F8511
:1038D000588920833183428353836C960FB6F894C2
:1038E000DEBF0FBECDBFDF91CF911F910F91FF9033
:1038F000EF90DF90CF90BF90AF909F908F907F9090
:103900006F905F904F903F902F90089560E070E02F
:10391000CB0141CE60E070E0CB0188CE60E070E08A
:10392000CB01F3CEC501B4010E94F4136983272EA5
:10393000382E9D8B76CFC301B2010E94F4139B01F8
:1039400084CF4F925F926F927F928F929F92AF92AD
:10395000BF92CF92DF92EF92FF920F931F93CF937C
:10396000DF93EC012091AC0A3091AD0A4091AE0A90
:103970005091AF0A688179818A819B810E945CC7DE
:103980006B017C012091B00A3091B10A4091B20ADA
:103990005091B30A6C817D818E819F810E945CC7AA
:1039A0004B015C01A7019601609103027091040232
:1039B00080910502909106020E94A8C2882309F412
:1039C00050C0C0920302D0920402E0920502F0922D
:1039D000060220912F04309130044091310450911F
:1039E0003204C701B6010E940DC32B013C010E94A5
:1039F000D2C86B017C0120E030E0A9010E94A8C27E
:103A000087FD70C020E030E040E050E4C701B6011F
:103A10000E9483C918162CF4C12CD12CE12CA0E4EF
:103A2000FA2EA7019601C301B2010E945CC7609300
:103A30002704709328048093290490932A04C701D3
:103A4000B6010E94A1C860932504062E000C770BD6
:103A50006F5F7F4F6330710514F063E070E0609337
:103A60002304D0910102C0912504A5019401609125
:103A70000702709108028091090290910A020E9447
:103A8000A8C2811133C0DC1381C020910B04309196
:103A90000C0440910D0450910E0460912704709124
:103AA00028048091290490912A040E940DC320913A
:103AB0000F043091100440911104509112040E949F
:103AC0005DC7DF91CF911F910F91FF90EF90DF9035
:103AD000CF90BF90AF909F908F907F906F905F90AE
:103AE0004F900895C12CD12C76019BCF8092070274
:103AF00090920802A0920902B0920A022091330427
:103B0000309134044091350450913604C501B4011C
:103B10000E940DC34B015C010E94D2C86B017C0165
:103B200020E030E0A9010E94A8C287FDF4C020E097
:103B300030E040E050E4C701B6010E9483C9181686
:103B40002CF4C12CD12CE12CF0E4FF2EA70196011E
:103B5000C501B4010E945CC760932B0470932C04D0
:103B600080932D0490932E04C701B6010E94A1C832
:103B700060932604062E000C770B6F5F7F4F633037
:103B8000710514F063E070E0609324040091260452
:103B9000DC1305C080910202801709F471C0809186
:103BA0002504909126049093020280930102002E36
:103BB000000C110B24E0C202C0011124FC01E00F33
:103BC000F11FEE0FFF1FEE0FFF1FE459F54F20818D
:103BD00031814281538120931F043093200440930C
:103BE000210450932204C09124040C2E000CDD0B00
:103BF000FC01EC0FFD1FEE0FFF1FEE0FFF1FE4593E
:103C0000F54F60817181828193810E945CC76093CE
:103C10001B0470931C0480931D0490931E048091D8
:103C2000230424E08202C0011124FC01E00FF11FF3
:103C3000EE0FFF1FEE0FFF1FE459F54F208131817A
:103C40004281538120931704309318044093190440
:103C500050931A04C80FD91FCC0FDD1FCC0FDD1FE6
:103C6000C459D54F688179818A819B810E945CC744
:103C700060931304709314048093150490931604B6
:103C800080902B0490902C04A0902D04B0902E04D2
:103C900020911B0430911C0440911D0450911E047E
:103CA000C501B4010E940DC320911F04309120046E
:103CB00040912104509122040E945DC76B017C0158
:103CC000C0920F04D0921004E0921104F0921204FA
:103CD000209113043091140440911504509116045E
:103CE000C501B4010E940DC320911704309118043E
:103CF0004091190450911A040E945DC7A7019601D2
:103D00000E945CC760930B0470930C0480930D04B5
:103D100090930E04BACEC12CD12C760117CFCF933D
:103D2000DF9320917E0B222371F0EC010ADE9B01D0
:103D3000AC01688579858A859B850E945CC7688708
:103D400079878A879B87DF91CF9108950F931F937F
:103D500080917904813019F50E9475A20091710457
:103D6000109172042091730430917404601B710BE4
:103D7000820B930B28EE33E040E050E00E9482C6B5
:103D800060916D0470916E0480916F049091700445
:103D9000620F731F841F951F1F910F9108956091EB
:103DA0007504709176048091770490917804D6CF51
:103DB0008091400490914104009731F04AE050E036
:103DC00070E060E00C94E8BF60E070E0CB01089523
:103DD000EFDF97FD0AC0ECDF6F3F710581059105AC
:103DE00009F02CF4E5DF862F089580E008958FEF29
:103DF0000895CF93C62F12D8882311F0CF91E8CF22
:103E00008C2FCF9108958091400490914104892B8B
:103E100039F0DEDF91E0811101C090E0892F089533
:103E200091E0FCCFCF93DF93C82FD62F0E940E17BF
:103E3000882319F0DF91CF91E6CF8C2F0E94C01616
:103E4000811101C08D2FDF91CF910895B1DFCB019A
:103E50000895CF93DF93EB010E940E17882319F08A
:103E6000DF91CF91F3CFCE01DF91CF9108950F93E2
:103E70001F93CF9380914004909141040097E9F003
:103E8000FC018F01C1912C2F2F7D81F0C53411F0E1
:103E9000C536B9F7F801108270E060E00E9493BE69
:103EA000F801C083CF911F910F91089570E060E0F9
:103EB000CF911F910F910C9493BE60E070E0CB0105
:103EC000F1CFCF92DF92EF92FF926A017B010E94C5
:103ED0000E17882329F0FF90EF90DF90CF90C7CF87
:103EE000C701B601FF90EF90DF90CF9008958F92B9
:103EF0009F92AF92BF92CF92DF92EF92FF920F9379
:103F00001F93CF938BE9E82E8BE0F82E0EE612E09C
:103F100098E9C92E9DE0D92EC0E088E58C0F0E945B
:103F20000E17882309F477C0A2DF4B015C018C2FA8
:103F30000E949916882309F464C0F8012081318118
:103F400042815381C501B4010E945DC7F7016083BE
:103F5000718382839383CF5FF4E0EF0EF11C0C5FDB
:103F60001F4F84E0C80ED11CC330B9F685E40E940F
:103F70000E17882309F45AC07ADF6B017C0183E0B5
:103F80000E949916882371F020917A0230917B0269
:103F900040917C0250917D02C701B6010E945DC72D
:103FA0006B017C01C092A70BD092A80BE092A90BE9
:103FB000F092AA0B40E050E0BA0186E482DF20E0F4
:103FC00030E0A9010E9483C918167CF450DF20E07C
:103FD00030E040E752E40E9439C860935402709385
:103FE00055028093560290935702CF911F910F91E3
:103FF000FF90EF90DF90CF90BF90AF909F908F9009
:104000000895F6012081318142815381C501B401B7
:104010000E945CC79BCFF80180819181A281B3810E
:10402000F70180839183A283B38395CF80917A0235
:1040300090917B02A0917C02B0917D028093A70BAE
:104040009093A80BA093A90BB093AA0BB3CFCF92D8
:10405000DF92EF92FF920F931F93CF93DF936B0149
:104060007A01EC01CC50DC4F28813CE0389F800184
:10407000399F100D112427FF24C0FB0111821082EB
:1040800088818F5F888388819801280F311D87FD83
:104090003A95C90120910310F6012817190629F055
:1040A00024F088818C300CF43CC08081918104968E
:1040B00080349C4908F475C0F60180819181049692
:1040C00072C088819801280F311D87FD3A95C9017A
:1040D000209103102817190699F294F28881A801FB
:1040E000480F511D87FD5A95FA01EE0FFF1FE40F8F
:1040F000F51FE554F04F808187FFC2CF8881F8011A
:10410000E80FF11D87FDFA95CF01EE0FFF1FE80FB5
:10411000F91FE554F04F808160E08F770E940DA079
:10412000AFCF808191812881A801420F511D27FDC9
:104130005A959A01FA01EE0FFF1FE20FF31FE554A3
:10414000F04F21813281820F931FF7019183808389
:1041500088819801280F311D87FD3A95F901EE0FEE
:10416000FF1FE20FF31FE554F04F808187FF20C04F
:104170008881080F111D87FD1A95F801EE0FFF1FAA
:10418000E00FF11FE554F04F808161E08F77DF9100
:10419000CF911F910F91FF90EF90DF90CF900C94F3
:1041A0000DA080E49CE9F701918380838FEF8883E1
:1041B000DF91CF911F910F91FF90EF90DF90CF9003
:1041C00008950F930FB70F9300916E000F930D7F1B
:1041D00000936E0000916F000D7F00936F000F93AE
:1041E0000BB70F930CB70F921F922F933F934F93E0
:1041F0005F936F937F938F939F93AF93BF93EF934F
:10420000FF93112440D4FF91EF91BF91AF919F9103
:104210008F917F916F915F914F913F912F911F905F
:104220000F900CBF0F910BBF0F910260F894009399
:104230006F000F9100936E000F910FBF0F911895B3
:1042400000008091AE0B80FF27C0899A8FEF80938A
:10425000C20A8091AE0B81FF22C08F9A8FEF8093AC
:10426000C30A8091AE0B82FF1DC080910B01809527
:104270008270809309018FEF8093C40A8091C60AEF
:104280009091AE0B93FF17C0811113C016988FEF5A
:104290008093C50A00000895899881E0D8CF8F984F
:1042A00081E0DDCF80910B0182708093090181E074
:1042B000E3CF439AECCF811103C0169A81E0E8CF97
:1042C0004398FCCF80E00E94B01381E00C94B013BF
:1042D00080E00E94CA1381E00E94CA1382E00E941B
:1042E000CA13F0CF813079F0823079F05F9821E005
:1042F00030E001C0220F8A95EAF78091290B822BCA
:104300008093290B08958A98F2CF909108019170BB
:1043100090930601ECCFCF93DF9320917E0B222365
:1043200071F0EC010EDB9B01AC01688579858A8513
:104330009B850E945DC7688779878A879B87DF9105
:10434000CF91089590916F0081E091FD02C080E0CF
:10435000089590916F009D7F90936F000895EFE610
:10436000F0E080818260808308958F929F92AF9267
:10437000BF92CF92DF92EF92FF920F931F93CF9352
:10438000DF93182F84E0189FE0011124123008F009
:1043900046C0D8DF082FD6DF8090190B90901A0BFB
:1043A000A0901B0BB0901C0B8111D9DFCBDFC0900C
:1043B0001D0BD0901E0BE0901F0BF090200B811175
:1043C000CEDF0111CCDF113019F5C501B4016C1934
:1043D0007D098E099F090E94AEC220E030E040E0D6
:1043E0005FE30E940DC3C953DB4F288139814A81A5
:1043F0005B810E940DC3DF91CF911F910F91FF90C0
:10440000EF90DF90CF90BF90AF909F908F900895E6
:10441000C701B601680D791D8A1D9B1DDCCF92DF97
:10442000FE01E75EF44FC080D180E280F38081110D
:1044300096DFC701B6010E94AEC2D5CFCF92DF9200
:10444000EF92FF92CF93DF93C82F7CDF94E0C99F58
:10445000E0011124FE01E35FF44FC080D180E280CF
:10446000F38081117CDFC953DB4FC701B6010E9485
:10447000AEC2288139814A815B810E940DC3DF91E0
:10448000CF91FF90EF90DF90CF900895CF93DF937F
:10449000CDB7DEB72C970FB6F894DEBF0FBECDBFF9
:1044A0000E948F9A4FDF9CE0E9E1FBE0DE0111966C
:1044B00001900D929A95E1F7811151DFCE0101969D
:1044C0000E943CB42C960FB6F894DEBF0FBECDBF51
:1044D000DF91CF910895CF93DF931F92CDB7DEB7D1
:1044E000898360E0CE0101960E94F71561E0CE015C
:1044F00001960E94F71562E0CE0101960E94F71521
:1045000089810F90DF91CF9108958F929F92AF9202
:10451000BF92CF92DF92EF92FF92CF93DF932091E1
:104520003A02222309F48EC0EC0180917D0BE82E23
:1045300080FF2CC080903C0290903D02A0903E02F3
:10454000B0903F02288139814A815B81C501B40165
:104550000E9483C9181624F488829982AA82BB8299
:104560008090480290904902A0904A02B0904B027D
:10457000288139814A815B81C501B4010E94A8C2AA
:1045800087FF04C088829982AA82BB82E1FE2CC088
:104590008090400290904102A0904202B09043026D
:1045A0002C813D814E815F81C501B4010E9483C988
:1045B000181624F48C829D82AE82BF8280904C02B9
:1045C00090904D02A0904E02B0904F022C813D8100
:1045D0004E815F81C501B4010E94A8C287FF04C05B
:1045E0008C829D82AE82BF82E2FE2CC0C0904402CB
:1045F000D0904502E0904602F09047022885398528
:104600004A855B85C701B6010E9483C9181624F448
:10461000C886D986EA86FB86C0905002D0905102A7
:10462000E0905202F0905302288539854A855B85D7
:10463000C701B6010E94A8C287FF04C0C886D986F8
:10464000EA86FB86DF91CF91FF90EF90DF90CF90CD
:10465000BF90AF909F908F900895CF92DF92EF928E
:10466000FF920F931F93CF93DF93E82FF0E0EF01BA
:10467000CC0FDD1FCC0FDD1F461739F0823009F05B
:1046800049C0C12CD12C760117C08230D1F3A09142
:10469000480D8A2F90E0DC01AA0FBB1FA80FB91F9D
:1046A000AE0FBF1FAA0FBB1FAA0FBB1FAD57B44F42
:1046B000CD90DD90ED90FC908F01000F111F000F49
:1046C000111FF801E75DFC4E2591359145915491FC
:1046D000C65CDD4FC701B6010E945DC76A837B835C
:1046E0008C839D83F801E35EFC4E259135914591C5
:1046F0005491C701B6010E945DC76E877F87888B82
:10470000998BDF91CF911F910F91FF90EF90DF90E8
:10471000CF90089550E0DA01AA0FBB1FA40FB51F78
:10472000AE0FBF1FAA0FBB1FAA0FBB1FAD57B44FC1
:10473000862F90E0BC01660F771F680F791FE60F88
:10474000F71FEE0FFF1FEE0FFF1FED57F44F2081F5
:104750003181428153816D917D918D919C910E9417
:104760005CC76B017C01C65CDD4FAC019B016A81BB
:104770007B818C819D810E945DC76A837B838C8352
:104780009D83A70196016E857F8588899989B3CF1E
:104790004F925F926F927F928F929F92AF92BF9251
:1047A000CF92DF92EF92FF92CF9340906E025090A3
:1047B0006F0260907002709071028090720290900F
:1047C0007302A0907402B0907502C0907602D090EF
:1047D0007702E0907802F09079020E94F1140E9432
:1047E0003F15C0E08C2F0E94181640E060E08C2F2F
:1047F00034DFCF5FC330B1F70E94A8170E94EB19D6
:10480000A301920160916E0270916F02809170021B
:10481000909171020E94A8C281111CC0A50194014F
:10482000609172027091730280917402909175028E
:104830000E94A8C281110EC02091760230917702A9
:104840004091780250917902C701B6010E94A8C236
:10485000882371F0CF91FF90EF90DF90CF90BF90C1
:10486000AF909F908F907F906F905F904F900ECE03
:10487000CF91FF90EF90DF90CF90BF90AF909F903F
:104880008F907F906F905F904F9008958F929F923E
:10489000AF92BF92CF92DF92EF92FF921F93CF938E
:1048A000DF93CDB7DEB760970FB6F894DEBF0FBECB
:1048B000CDBF182F80E059DD4B015C0180927C0454
:1048C00090927D04A0927E04B0927F0481E04DDD41
:1048D0006B017C01C0928004D0928104E09282043A
:1048E000F092830482E041DD609384047093850438
:1048F00080938604909387041D861E861F86188ADF
:1049000089829A82AB82BC82CD82DE82EF82F88677
:1049100069877A878B879C8783E027DD6D877E8711
:104920008F87988BCE010196FAD91E3FD9F480E18A
:10493000FE013196AEE6B2E001900D928A95E1F764
:1049400060960FB6F894DEBF0FBECDBFDF91CF915A
:104950001F91FF90EF90DF90CF90BF90AF909F900E
:104960008F90089584E0189FF0011124DF01A2596F
:10497000BD4F81E090E08C0F9D1FE80FF91F408133
:104980005181628173814D935D936D937C931397F5
:10499000D7CF0C94459B8091AD0B811105C08091C0
:1049A000AF0B882309F46EC080917A04659B5AC0CE
:1049B000816080937A049091030180917A0490FF42
:1049C00053C0826080937A0480917A04639B4EC0C6
:1049D000886080937A0480917A044A9B49C08460FD
:1049E00080937A048091FD0A80FF10C08091AE0B05
:1049F00085FF0CC080917A0480FF08C08091490D2A
:104A000081608093490D80E00E9470B48091FD0A1E
:104A100081FF10C08091AE0B86FD0CC080917A049E
:104A200081FF08C08091490D82608093490D81E02B
:104A30000E9470B48091FD0A82FF24C08091AE0B69
:104A400082FF18C08091AF0B8823E1F080917A0437
:104A500083FF18C08091490D88608093490D82E0E2
:104A60000C9470B48E7FA5CF8D7FACCF877FB1CFF4
:104A70008B7FB6CF80917A0482FF04C08091490D6C
:104A80008460EBCF08952F923F924F925F926F9286
:104A90007F928F929F92AF92BF92CF92DF92EF92CE
:104AA000FF920F931F93CF93DF93CDB7DEB762973B
:104AB0000FB6F894DEBF0FBECDBF8FEF9FEF909380
:104AC0008900809388002AE0298B312C212C78944E
:104AD0008091060B9091070BA091080BB091090BE8
:104AE000892B8A2B8B2B09F0D7C180910C0B882343
:104AF000D1F080910A0B90910B0B10920C0B892B2B
:104B000091F010920B0B10920A0B1092FD0A9091EB
:104B1000181080911910981731F0809119108F5F3B
:104B20008F708093191080910A0B90910B0B892B39
:104B300009F4B2C14091020B5091030B6091040B38
:104B40007091050B8091FE0A9091FF0AA091000BD5
:104B5000B091010B0091F40A10E030E020E0841BDA
:104B6000950BA60BB70B081719072A073B0710F47C
:104B7000D901C8018A8B840F951FA61FB71F809388
:104B8000020B9093030BA093040BB093050BE1E091
:104B9000C090CB0AD090CC0AE090CD0AF090CE0A1B
:104BA0008091DB0A9091DC0AA091DD0AB091DE0AC7
:104BB000C80ED91EEA1EFB1EC092DB0AD092DC0A88
:104BC000E092DD0AF092DE0AF7FC33C04091C20A9F
:104BD000042E000C550B660B770B8091190B9091EE
:104BE0001A0BA0911B0BB0911C0B840F951FA61FD5
:104BF000B71F8093190B90931A0BA0931B0BB093C4
:104C00001C0B8091C70A9091C80AA091C90AB09163
:104C1000CA0AB701A601481B590B6A0B7B0BDB01C3
:104C2000CA018093DB0A9093DC0AA093DD0AB0935B
:104C3000DE0A0091CF0A1091D00A2091D10A30915A
:104C4000D20A8091DF0A9091E00AA091E10AB09126
:104C5000E20A080F191F2A1F3B1F0093DF0A109357
:104C6000E00A2093E10A3093E20A37FD33C0409115
:104C7000C30A042E000C550B660B770B80911D0B9D
:104C800090911E0BA0911F0BB091200B840F951FCC
:104C9000A61FB71F80931D0B90931E0BA0931F0B95
:104CA000B093200B8091C70A9091C80AA091C90ABD
:104CB000B091CA0A28013901481A590A6A0A7B0ABE
:104CC000D301C2018093DF0A9093E00AA093E10A26
:104CD000B093E20A4091D30A5091D40A6091D50A68
:104CE0007091D60A8091E30A9091E40AA091E50AB6
:104CF000B091E60A480F591F6A1F7B1F4093E30AD1
:104D00005093E40A6093E50A7093E60A77FD33C096
:104D10008090C40A082C000C9908AA08BB0880914E
:104D2000210B9091220BA091230BB091240B880DA5
:104D3000991DAA1DBB1D8093210B9093220BA0935C
:104D4000230BB093240B8091C70A9091C80AA091BD
:104D5000C90AB091CA0A3A014B01681A790A8A0A4B
:104D60009B0AD401C3018093E30A9093E40AA093C1
:104D7000E50AB093E60A8090D70A9090D80AA090EE
:104D8000D90AB090DA0A8091E70A9091E80AA091D6
:104D9000E90AB091EA0A880D991DAA1DBB1D8093EE
:104DA000E70A9093E80AA093E90AB093EA0AB7FDEC
:104DB00033C04090C50A042C000C550866087708DB
:104DC0008090250B9090260BA090270BB090280B7D
:104DD000840C951CA61CB71C8092250B9092260B68
:104DE000A092270BB092280B8090C70A9090C80A17
:104DF000A090C90AB090CA0A2C013D014818590870
:104E00006A087B08530142018092E70A9092E80AFF
:104E1000A092E90AB092EA0AE11104C0E09184008C
:104E2000F0918500F7FE889A37FF8E9A77FD06C0CD
:104E3000E0910B01E095E870E0930901B7FD05C032
:104E4000E091C60AE11199C0149AE0918400F091B2
:104E50008500E0918400F0918500F7FE889837FF87
:104E60008E9877FD05C020910B01287020930901D1
:104E7000B7FD05C08091C60A811181C014985A8877
:104E8000552021F080918400909185002A8921503D
:104E90002A8BE0E021117CCE8091060B9091070BCC
:104EA000A091080BB091090B892B8A2B8B2B09F051
:104EB000B3C6E0910A0BF0910B0B309709F420C7B1
:104EC0008091020B9091030BA091040BB091050B04
:104ED0004091FE0A5091FF0A6091000B7091010B06
:104EE00084179507A607B70708F44BC010920B0B61
:104EF00010920A0B1092FD0A9091181080911910CF
:104F0000981709F4FDC6809119108F5F8F708093F8
:104F1000191000EDC02E07E0D02EE12CF12C80916D
:104F20000A0B90910B0B892B09F06EC60E94C215DB
:104F300090930B0B80930A0B892B09F465C6E091C3
:104F40000A0BF0910B0B808183FF00C5CF014596C2
:104F50000E94B7B410920B0B10920A0B1092FD0A2C
:104F60009091181080911910981701F380911910E1
:104F70008F5F8F7080931910D9CF419A66CF419877
:104F80007ECF4091F90A5091FA0A6091FB0A709124
:104F9000FC0A481759076A077B0708F40AC24091C0
:104FA000F50A5091F60A6091F70A7091F80A86A9FD
:104FB00097A9A0ADB1AD481759076A077B0708F05C
:104FC000D2C1411551056105710509F068C0809095
:104FD000ED039090EE03A090EF03B090F00384E413
:104FE00091E2A1E0FC0105911591259134910815FC
:104FF00019052A053B0568F4B694A79497948794FD
:10500000AA0F049610E6612E11E2712E6816790639
:1050100049F7A093F40A20E282169104A104B10496
:1050200028F4A0E28A2E912CA12CB12C30E2831A14
:105030009108A108B108811488E09806A104B10480
:1050400008F496C1A4E09A9EC00111248C5B924E94
:10505000FC01329625913491B82DEE27B39F800143
:10506000B29F010D1E1F06940E1F1E1F112430E05B
:1050700020E0FC01C590D490F12CE12CC01AD10A9B
:10508000E20AF30A4C0D5D1D6E1D7F1D4093F50A6B
:105090005093F60A6093F70A7093F80A40CF00E045
:1050A0001981942F852E862FBB81AC81FD81EE81E5
:1050B0003F8128854A80E091E903E99FA12DFF27E0
:1050C0003091EA03399FA00DF11D1090EB03199E5A
:1050D000F00DE89DA00DF11D389DF00DE89FF00D3D
:1050E0004A2EBF2F4A9EE12D332722274F9EE00DE7
:1050F000311D201FBA9FE00D311D201FBF9F300DB5
:10510000211D432EB22F4A9E112D332722274F9E59
:10511000100D311D201FBA9F100D311D201FBF9F84
:10512000300D211D432EB22FEE279091ED0380907C
:10513000EE038091EF030090E803002A09F483C096
:105140003091E403349DE119900B800A800B20918B
:10515000E503249DE0199109800A800B1091E60374
:10516000149D90198108800B3B9FE0199109800ADA
:10517000800B2B9F90198108800B1B9F8018810941
:105180004A9E112D332722274F9E100D311D201FBF
:10519000BA9F100D311D201FBF9F300D211D432EC2
:1051A000B22F3091E003349DE10D901F801E801FCF
:1051B0002091E103249DE00D911D801E801F109120
:1051C000E203149D900D811C801F3B9FE00D911DFB
:1051D000801E801F2B9F900D811C801F1B9F800CA9
:1051E000811D4A9E112D332722274F9E100D311D00
:1051F000201FBA9F100D311D201FBF9F300D211D94
:10520000432EB22F3091DC03349DE119900B800ABC
:10521000800B2091DD03249DE0199109800A800B09
:105220001091DE03149D90198108800B3B9FE019BB
:105230009109800A800B2B9F90198108800B1B9F7E
:105240008018810982C03091E403349DE10D901FE4
:10525000801E801F2091E503249DE00D911D801E7E
:10526000801F1091E603149D900D811C801F3B9FB1
:10527000E00D911D801E801F2B9F900D811C801FB3
:105280001B9F800C811D4A9E112D332722274F9E84
:10529000100D311D201FBA9F100D311D201FBF9F03
:1052A000300D211D432EB22F3091E003349DE119C2
:1052B000900B800A800B2091E103249DE019910955
:1052C000800A800B1091E203149D90198108800BD5
:1052D0003B9FE0199109800A800B2B9F9019810850
:1052E000800B1B9F801881094A9E112D332722278E
:1052F0004F9E100D311D201FBA9F100D311D201F14
:10530000BF9F300D211D432EB22F3091DC03349D01
:10531000E10D901F801E801F2091DD03249DE00D74
:10532000911D801E801F1091DE03149D900D811C25
:10533000801F3B9FE00D911D801E801F2B9F900DB5
:10534000811C801F1B9F800C811D11244A821983A0
:10535000BB83AC83FD83EE833F832887982C892E03
:10536000B12CA82E3CCE82A893A8A4A8B5A837CE6D
:10537000D501C401B695A795979587958C7F8C5BD1
:10538000964EFC01C590D490FC0132962591349143
:10539000F82DF770F29FC001F39F900D1124F3E0F8
:1053A00096958795FA95E1F7C81AD90AF12CE12C60
:1053B00069CE4091F00A5091F10A6091F20A709121
:1053C000F30A481759076A077B0708F02BC2809039
:1053D000EB0A9090EC0AA090ED0AB090EE0A809152
:1053E000EF0A81117CC0DF01AE5BBF4FED90FD90F5
:1053F0000D911C9113971D962D913D914D915C91AE
:1054000062A973A984A995A90E945E1344244394B8
:105410004092EF0AE0910A0BF0910B0B42A953A9BD
:1054200064A975A984E491E2A1E0FC0105911591BC
:1054300025913491041715072607370768F47695E8
:10544000679557954795AA0F049630E6632E31E28B
:10545000732E6816790649F7A093F40A4032510575
:105460006105710520F440E250E060E070E04052D8
:10547000510961097109411528E05207610571055B
:1054800008F4B0C134E0539FC00111248C5B924EEC
:10549000FC01329625913491AA27439FF001429F47
:1054A000E10DFA1F0694EA1FFA1F1124AF0170E004
:1054B00060E0FC01C590D490F12CE12CC41AD50A0F
:1054C000E60AF70A8C0C9D1CAE1CBF1C8092EB0AEE
:1054D0009092EC0AA092ED0AB092EE0A20CD82AD35
:1054E00093ADA4ADB5AD88169906AA06BB0608F023
:1054F00072C181149104A104B10449F44091ED03F7
:105500005091EE036091EF037091F0038BCFA0E018
:10551000F985982D492D8A2DEA857B856C85BD8579
:105520005E853F8528895091E903599F612DBB27EE
:105530003091EA03399F600DB11D1090EB03199E65
:10554000B00D549F600DB11D349FB00D589FB00D2C
:10555000E62F7B2FE69F512D33272227EB9F500DFF
:10556000311D2A1F769F500D311D2A1F7B9F300D44
:10557000211DE32F722FE69FF12D33272227EB9F6A
:10558000F00D311D2A1F769FF00D311D2A1F7B9FC4
:10559000300D211DE32F722F55279091ED0340917F
:1055A000EE038091EF030090E8030A2A09F483C018
:1055B0003091E4033E9F51199A0B4A0B8A0B2091BC
:1055C000E5032E9F501991094A0B8A0BF091E603CF
:1055D000FE9F901941098A0B379F501991094A0B78
:1055E0008A0B279F901941098A0BF79F401981095F
:1055F000E69FF12D33272227EB9FF00D311D2A1F47
:10560000769FF00D311D2A1F7B9F300D211DE32F4A
:10561000722F3091E0033E9F510D9A1F4A1F8A1F3F
:105620002091E1032E9F500D911D4A1F8A1FF0917A
:10563000E203FE9F900D411D8A1F379F500D911D63
:105640004A1F8A1F279F900D411D8A1FF79F400DFB
:10565000811DE69FF12D33272227EB9FF00D311D91
:105660002A1F769FF00D311D2A1F7B9F300D211DB3
:10567000E32F722F3091DC033E9F51199A0B4A0B96
:105680008A0B2091DD032E9F501991094A0B8A0B3A
:10569000F091DE03FE9F901941098A0B379F501944
:1056A00091094A0B8A0B279F901941098A0BF79F92
:1056B0004019810982C03091E4033E9F510D9A1F29
:1056C0004A1F8A1F2091E5032E9F500D911D4A1FEE
:1056D0008A1FF091E603FE9F900D411D8A1F379FA0
:1056E000500D911D4A1F8A1F279F900D411D8A1F33
:1056F000F79F400D811DE69FF12D33272227EB9F59
:10570000F00D311D2A1F769FF00D311D2A1F7B9F42
:10571000300D211DE32F722F3091E0033E9F511970
:105720009A0B4A0B8A0B2091E1032E9F5019910985
:105730004A0B8A0BF091E203FE9F901941098A0BF4
:10574000379F501991094A0B8A0B279F90194109DD
:105750008A0BF79F40198109E69FF12D33272227F5
:10576000EB9FF00D311D2A1F769FF00D311D2A1F72
:105770007B9F300D211DE32F722F3091DC033E9F64
:10578000510D9A1F4A1F8A1F2091DD032E9F500D35
:10579000911D4A1F8A1FF091DE03FE9F900D411D4F
:1057A0008A1F379F500D911D4A1F8A1F279F900DFA
:1057B000411D8A1FF79F400D811D1124F987EA873B
:1057C0007B876C87BD875E873F87288B542F492F47
:1057D00070E0682F27CEE15BFF4F408151816281ED
:1057E000738120CEDB01CA01B695A7959795879561
:1057F0008C7F8C5B964EFC01C590D490FC01329658
:10580000259134914770429FC001439F900D112410
:1058100003E0969587950A95E1F7C81AD90AF12C05
:10582000E12C50CE8091330290913402A091350248
:10583000B0913602B7FF5FC0E95BFF4FC080D180F7
:10584000E280F38084E491E221E0FC0145915591EE
:10585000659174914C155D056E057F0558F4F694BD
:10586000E794D794C794220F049640E651E2481774
:10587000590759F72093F40A50E2C516D104E10400
:10588000F10428F4F0E2CF2ED12CE12CF12C60E2CF
:10589000C61AD108E108F108C11478E0D706E1047E
:1058A000F10408F431C0A4E0DA9EC00111248C5B3D
:1058B000924EFC01329625913491BC2D6627B39F00
:1058C000A001B29F410D561F0694461F561F11247A
:1058D00070E060E0FC0185919491B0E0A0E0841B51
:1058E000950BA60BB70B8093330290933402A093D1
:1058F0003502B0933602C0903302D0903402E0906B
:105900003502F09036020BCBD701C601B695A795AC
:10591000979587958C7F8C5B964EFC0125913491F1
:10592000FC01329645915491FC2DF770F49FC00113
:10593000F59F900D1124E3E096958795EA95E1F7A0
:10594000281B390BC901B0E0A0E0CDCF45895689AD
:105950006789708DC18CD28CE38CF48CDF01AA5BDB
:10596000BF4F4C904A8A81E04C155D056E057F055E
:1059700009F0A2C180E0411551056105710551F0A2
:10598000242D2170942D9695917081E0291380E04B
:10599000291392C1058D168D278D30A10115110592
:1059A0002105310509F084608093FD0A1092EB0A0D
:1059B0001092EC0A1092ED0A1092EE0A1092F50A7B
:1059C0001092F60A1092F70A1092F80A85A196A191
:1059D000A7A1B0A58093FE0A9093FF0AA093000BA5
:1059E000B093010B882499245401881A990AAA0AB1
:1059F000BB0A8092DB0A9092DC0AA092DD0AB09288
:105A0000DE0A8092DF0A9092E00AA092E10AB09248
:105A1000E20A8092E30A9092E40AA092E50AB09228
:105A2000E60A81A092A0A3A0B4A0880C991CAA1C8D
:105A3000BB1C440F551F661F771F4093CB0A509322
:105A4000CC0A6093CD0A7093CE0ACC0CDD1CEE1C00
:105A5000FF1CC092CF0AD092D00AE092D10AF092F5
:105A6000D20A000F111F221F331F0093D30A109375
:105A7000D40A2093D50A3093D60A8092D70A9092FE
:105A8000D80AA092D90AB092DA0A880F991FAA1FE1
:105A9000BB1F8093C70A9093C80AA093C90AB0930A
:105AA000CA0A1092020B1092030B1092040B109270
:105AB000050B82A593A5A4A5B5A58093F90A90939B
:105AC000FA0AA093FB0AB093FC0A86A597A5A0A9A1
:105AD000B1A98093F00A9093F10AA093F20AB093CF
