:100000000C9414130C9454130C9454130C94541314
:100010000C9454130C9454130C9454130C945413C4
:100020000C9454130C94B09D0C94B09D0C94B09D02
:100030000C9454130C9454130C9454130C945413A4
:100040000C9454130C942C1F0C9454130C945413B0
:100050000C9454130C9417AA0C9454130C9425A2CA
:100060000C9454130C94D9920C94CF920C94541376
:100070000C9454130C9454130C9454130C94541364
:100080000C9418300C9454130C9454130C94541373
:100090000C9454130C9454130C9454130C94541344
:1000A0000C9454130C9454130C94EA2F0C94541382
:1000B0000C9454130C9454130C9454130C94541324
:1000C0000C9454130C9454130C9454130C94541314
:1000D0000C9454130C9454130C9454130C94541304
:1000E0000C945413084AD73B3BCE016E84BCBFFD31
:1000F000C12F3D6C74319ABD56833DDA3D00C77FF8
:1001000011BED9E4BB4C3E916BAAAABE0000008090
:100110003F05A84CCDB2D44EB93836A9020C50B91F
:10012000918688083CA6AAAA2ABE000000803F004B
:100130004E414E494E495459494E46CDCCCC3D0ACC
:10014000D7233C17B7D13877CC2B329595E6241FAF
:10015000B14F0A000020410000C84200401C462068
:10016000BCBE4CCA1B0E5AAEC59D74434F4D4D5577
:100170004E49434154494F4E0044525952554E0046
:100180004552524F525300494E464F004543484F47
:10019000005072696E7465722073746F707065645C
:1001A0002064756520746F206572726F72732E20E3
:1001B00046697820746865206572726F7220616E7E
:1001C0006420757365204D39393920746F2072654C
:1001D00073746172742E202854656D706572617439
:1001E0007572652069732072657365742E2053657E
:1001F000742069742061667465722072657374611D
:100200007274696E67290A004E6F20436865636BDC
:1002100073756D2077697468206C696E65206E75E2
:100220006D6265722C204C617374204C696E653A66
:100230002000636865636B73756D206D69736D6114
:100240007463682C204C617374204C696E653A208D
:10025000004C696E65204E756D6265722069732071
:100260006E6F74204C617374204C696E65204E75FE
:100270006D6265722B312C204C617374204C696E59
:10028000653A20004D3131300053657269616C2050
:10029000737461747573206D69736D617463680A3A
:1002A00000746F6F206D75636820696E6163746997
:1002B00076652074696D65202D2063757272656E98
:1002C0007420636F6D6D616E643A20002121204BB4
:1002D000494C4C206361757365642062792000622B
:1002E0007573793A2070617573656420666F72204A
:1002F000696E7075740A00627573793A2070617561
:1003000073656420666F7220757365720A0062758A
:1003100073793A2070726F63657373696E670A0050
:100320006563686F3A004572726F723A004F4646D5
:10033000004F4E0066616C73650074727565004213
:10034000696C696E656172204C6576656C696E6773
:1003500020477269643A0A00303D2E33323500314D
:100360003D2E3138006D6178002F3331002F33314D
:10037000002F333100303D2E33323500313D2E31E8
:1003800038006D6178002F3331002F3331002F3367
:100390003100303D2E33323500313D2E3138006D85
:1003A0006178002F3331002F3331002F333100308B
:1003B0003D2E33323500313D2E3138006D617800ED
:1003C0002F3331002F3331002F333100303D2E33A6
:1003D000323500313D2E3138006D6178002F3331D8
:1003E000002F3331002F3331000920426164207225
:1003F0006573706F6E73652100092042616420721D
:100400006573706F6E73652100092042616420720C
:100410006573706F6E7365210009204261642072FC
:100420006573706F6E7365210009204261642072EC
:100430006573706F6E736521004C4F5700484947D4
:1004400048004F4B004572726F723A20416C6C202D
:100450000020636F6E6E656374696F6E2E2E2E20A2
:100460000054657374696E6720004C4F570048490B
:100470004748004F4B004572726F723A20416C6CD6
:10048000200020636F6E6E656374696F6E2E2E2E72
:10049000200054657374696E6720004C4F57004804
:1004A000494748004F4B004572726F723A20416CC9
:1004B0006C200020636F6E6E656374696F6E2E2E04
:1004C0002E200054657374696E6720004C4F5700EE
:1004D00048494748004F4B004572726F723A2041BD
:1004E0006C6C200020636F6E6E656374696F6E2E96
:1004F0002E2E200054657374696E6720004C4F5790
:100500000048494748004F4B004572726F723A20CD
:10051000416C6C200020636F6E6E656374696F6E52
:100520002E2E2E200054657374696E6720002E0AEB
:10053000002F0050726F62696E67206D65736820CE
:10054000706F696E742000202844525952554E290C
:1005500000473239204175746F20426564204C6534
:1005600076656C696E67003F20284C2C522C462C17
:100570004229206F7574206F6620626F756E6473F8
:100580002E0A003F2856296572626F7365206C65DC
:1005900076656C20696D706C61757369626C65203D
:1005A00028302D34292E0A00426164205A207661B9
:1005B0006C75650A004E6F2062696C696E656172C8
:1005C00020677269640A0020440020204D323030D8
:1005D00020540020204D3230302053002028446920
:1005E0007361626C6564293A0046696C616D656E81
:1005F000742073657474696E67730020204D323007
:10060000312058004D617820416363656C657261EB
:1006100074696F6E2028756E6974732F73322900A8
:1006200020204D3230332058004D617820666565BA
:100630006472617465732028756E6974732F7329F1
:100640000020520020204D3230342050004163639E
:10065000656C65726174696F6E2028756E6974735C
:100660002F7332292028503C7072696E742D61639B
:1006700063656C3E20523C726574726163742D61D7
:100680006363656C3E20543C74726176656C2D61C9
:100690006363656C3E2900204A002054002053000B
:1006A00020204D323035204200416476616E636512
:1006B000642028423C6D696E5F7365676D656E747A
:1006C0005F74696D655F75733E20533C6D696E5F45
:1006D00066656564726174653E20543C6D696E5F49
:1006E00074726176656C5F66656564726174653E9F
:1006F000204A3C6A756E635F6465763E290020205F
:100700004D32313700546F6F6C2D6368616E6769CD
:100710006E670020204D323138205400486F7465D8
:100720006E64206F66667365747300204400204910
:100730000020204D333031205000486F74656E64C6
:1007400020504944004452565F5354415455530974
:100750000050574D5F5343414C45090050574D439E
:100760004F4E460900434F4F4C434F4E46090043FE
:10077000484F50434F4E46090054484947480909DD
:100780000054434F4F4C5448525309005450574D56
:1007900054485253090054535445500909005450C9
:1007A0004F574552444F574E0900494F494E09098A
:1007B00000475354415409090049484F4C445F498C
:1007C00052554E090047434F4E460909000900445F
:1007D0007269766572207265676973746572733ABF
:1007E0000A0073327673620900733276736109000E
:1007F000313230430900313433430900313530435D
:1008000009003135374309006F7409006F74707740
:1008100009007332676109007332676209006F6C07
:100820006109006F6C620900737473740900736767
:100830005F726573756C740044525653544154553D
:100840005300755374657020636F756E7400537434
:10085000616C6C6775617264207468727300202D1E
:100860007374617274090068797374657265736971
:10087000730A202D656E640900626C616E6B2074D2
:10088000696D65006F66662074696D650070776DCF
:100890002067726164206175746F0070776D206FDE
:1008A0006666736574206175746F0070776D207370
:1008B00063616C65206175746F0070776D20736380
:1008C000616C652073756D004F542070726577619F
:1008D000726E005B6D6D2F735D090050574D207473
:1008E00068726573682E0074737465700900696EB0
:1008F0007465727009006D737465707309007374A8
:1009000065616C746843686F70007673656E7365BB
:10091000090050574D207363616C6500435320619B
:10092000637475616C00486F6C64206375727265E6
:100930006E740052756E2063757272656E74004D30
:1009400041582063757272656E7400524D53206376
:10095000757272656E74005365742063757272658A
:100960006E7400456E61626C656409004164647276
:10097000657373090009007370726561644379637C
:100980006C6500737465616C746843686F700020F7
:10099000647269766572206D6F64653A09007370E0
:1009A000726561644379636C6500737465616C742E
:1009B0006843686F700020647269766572206D6F9D
:1009C00064653A09007370726561644379636C65AC
:1009D00000737465616C746843686F7000206472A2
:1009E00069766572206D6F64653A0900737072658F
:1009F00061644379636C6500737465616C7468430A
:100A0000686F700020647269766572206D6F64652E
:100A10003A09007370726561644379636C650073B1
:100A20007465616C746843686F70002064726976E5
:100A30006572206D6F64653A0900202E68737472C8
:100A4000743A2000202E68656E643A2000206368A6
:100A50006F70706572202E746F66663A2000202ECB
:100A600068737472743A2000202E68656E643A20B0
:100A7000002063686F70706572202E746F66663A2E
:100A80002000202E68737472743A2000202E68654E
:100A90006E643A20002063686F70706572202E7457
:100AA0006F66663A2000202E68737472743A2000D4
:100AB000202E68656E643A20002063686F70706550
:100AC00072202E746F66663A2000202E687374724E
:100AD000743A2000202E68656E643A200020636816
:100AE0006F70706572202E746F66663A20003F53F7
:100AF000206F7574206F662072616E6765202831E3
:100B00002E2E38290A003F50206F7574206F662002
:100B100072616E676520282D332E2E3132290A002E
:100B20003F4F206F7574206F662072616E6765207D
:100B300028312E2E3135290A003B200020496E76BF
:100B4000616C696420657874727564657220004711
:100B5000322F47332062616420706172616D657469
:100B60006572730A0047323800205A3A2000205933
:100B70003A200042656420583A20004D6573682091
:100B8000706F696E74206F7574206F662072616E6D
:100B900067650A002569730025696D202569730062
:100BA0002569682025696D20256973002569642001
:100BB0002569682025696D202569730025697920DC
:100BC000256964202569682025696D2025697300E1
:100BD0005072696E742074696D653A20006F6B0005
:100BE0006F6666008C018701800179016B014445C5
:100BF0004255473A004D3131322053687574646F65
:100C0000776E004D3131332053002F2F003F4A20A3
:100C10006F7574206F662072616E67652028302EB4
:100C2000303120746F20302E33290A0020204D618E
:100C3000783A2000200020204D696E3A2000203BA9
:100C4000200020204D323131205300536F66742034
:100C5000656E6473746F70730046523A0020466C80
:100C60006F773A20003A200020536572766F20009B
:100C7000206F7574206F662072616E67650A00537D
:100C80006572766F200050726F6265204F666673E2
:100C90006574205A0050726F6265204F66667365F6
:100CA00074205A00496E76616C69642065787472AC
:100CB000756465720A0064697300656E0043290AF1
:100CC0000061626C656420286D696E2074656D70CA
:100CD0002000436F6C6420657874727564657320BE
:100CE0006172652000426564204C6576656C696EB2
:100CF0006720004661696C656420746F20656E61D1
:100D0000626C6520426564204C6576656C696E672F
:100D10000A00496E76616C6964206D6573682E0AFD
:100D2000004D34323120696E636F727265637420D6
:100D3000706172616D657465722075736167650AB3
:100D4000004D65736820706F696E74206F75742034
:100D50006F662072616E67650A00546F6F2066616E
:100D6000722066726F6D207265666572656E63656E
:100D700020706F696E740A00454550524F4D204FE8
:100D80004B0A00290A0020746F20003F5A206F751B
:100D900074206F662072616E6765202800290A0042
:100DA00020746F20003F59206F7574206F66207289
:100DB000616E676520282D00290A0020746F2000CD
:100DC0003F58206F7574206F662072616E676520D2
:100DD000282D0020647269766572206375727265D1
:100DE0006E743A20002064726976657220637572B1
:100DF00072656E743A2000206472697665722063B1
:100E0000757272656E743A2000206472697665723C
:100E10002063757272656E743A2000206472697680
:100E200065722063757272656E743A20006F6B0094
:100E300020204D323036205800486F6D65206F6697
:100E400066736574004361703A00434F4E464947EC
:100E50005F4558504F5254004D4541545041434B0B
:100E600000434F4F4C45525F54454D5045524154FD
:100E7000555245004348414D4245525F54454D50FF
:100E800045524154555245004241425953544550F0
:100E900050494E470041524353004D4F54494F4E25
:100EA0005F4D4F44455300544845524D414C5F50AF
:100EB000524F54454354494F4E00455854454E44B3
:100EC00045445F4D323000435553544F4D5F4649C2
:100ED000524D574152455F55504C4F4144004C468E
:100EE0004E5F5752495445004C4F4E475F46494C60
:100EF000454E414D45004155544F5245504F525477
:100F00005F53445F5354415455530053445F575209
:100F100049544500524550454154005344434152C1
:100F2000440050524F4D50545F535550504F5254FF
:100F300000484F53545F414354494F4E5F434F4D18
:100F40004D414E445300454D455247454E43595F30
:100F500050415253455200434153455F4C49474825
:100F6000545F4252494748544E45535300544F47EB
:100F7000474C455F4C494748545300534F465457DC
:100F80004152455F504F574552004255494C445FCE
:100F900050455243454E54004C4556454C494E47EA
:100FA0005F44415441005A5F50524F4245005255F0
:100FB0004E4F5554004155544F4C4556454C0050EA
:100FC00052494E545F4A4F420050524F4752455388
:100FD00053004155544F5245504F52545F54454D64
:100FE00050004155544F5245504F52545F504F534B
:100FF00000564F4C554D45545249430045455052BB
:101000004F4D0042494E4152595F46494C455F544D
:1010100052414E534645520053455249414C5F5848
:101020004F4E5F584F4646004649524D5741524534
:101030005F4E414D453A4D61726C696E20322E31E2
:101040002E3220284170722031302032303233204D
:1010500031343A34383A31382920534F55524345C8
:101060005F434F44455F55524C3A676974687562F7
:101070002E636F6D2F4D61726C696E4669726D776C
:101080006172652F4D61726C696E2050524F544FE2
:10109000434F4C5F56455253494F4E3A312E302004
:1010A0004D414348494E455F545950453A4A756C45
:1010B00069612050726F204475616C203234562073
:1010C00041424C207769746820544D4332323039A4
:1010D000206F6E2055415254206D6F6465206F6EF5
:1010E000204D4B532047656E4C2056322E31204DFB
:1010F00061726C696E20322E312E32204558545266
:10110000554445525F434F554E543A322055554948
:10111000443A63656465326132662D343161322D43
:10112000343734382D396231322D633535633632F8
:1011300066333637666600203B0020204D38353157
:101140002058005A2D50726F6265204F6666736595
:10115000740020573A0020573A00206661696C6598
:10116000642120426164206865617465722069644D
:101170000A00504944204175746F74756E650023F0
:10118000646566696E652044454641554C545F0070
:101190004B6420004B6920004B7020002066696E74
:1011A0006973686564212050757420746865206CCB
:1011B000617374204B702C204B6920616E64204B4E
:1011C0006420636F6E7374616E74732066726F6DEA
:1011D0002062656C6F7720696E746F20436F6E6656
:1011E000696775726174696F6E2E680A00504944B0
:1011F000204175746F74756E6500206661696C6559
:1012000064212074696D656F75740A00504944202B
:101210004175746F74756E6500206661696C6564F4
:10122000212054656D706572617475726520746FEC
:101230006F20686967680A00504944204175746FDF
:1012400074756E6500204B643A2000204B693A208B
:1012500000204B703A200020436C61737369632057
:10126000504944200A002054753A2000204B753A1A
:101270002000206D61783A2000206D696E3A2000D0
:1012800020643A200020626961733A200020737460
:101290006172740A00504944204175746F74756E10
:1012A0006500206661696C6564212054656D706518
:1012B00072617475726520746F6F20686967680A5F
:1012C00000504944204175746F74756E65006F70ED
:1012D000656E00545249474745524544003A200044
:1012E0007A5F70726F6265007A5F6D617800795F16
:1012F0006D617800785F6D696E005265706F727411
:10130000696E6720656E6473746F702073746174A6
:1013100075730A000000B9430080C5430000C8434C
:1013200000000000000000000000000020746F6F4B
:10133000206C6F6E6720657874727573696F6E20AC
:1013400070726576656E7465640A0020636F6C6404
:1013500020657874727573696F6E2070726576653A
:101360006E7465640A00000020C20080C54300005E
:10137000C8435761726E696E673A20486F6D696E37
:10138000672042756D702044697669736F72203CE6
:1013900020310A000202040000B9430080C5430066
:1013A00000C8430000A0400000A040000000400032
:1013B00000000100000001000080005555550000AC
:1013C00000400033333300AAAA2A004992240000C7
:1013D000002000C7711C0099991900D145170055CC
:1013E0005515003BB11300244912001111110000E2
:1013F0000010000F0F0F00E3380E0043790D00CCF2
:10140000CC0C00C3300C00E8A20B0064210B00AA36
:10141000AA0A00703D0A009DD80900427B0900928B
:10142000240900DCD3080088880800104208000066
:10143000000800F0C107008787070075500700719A
:101440001C07003EEB0600A1BC0600699006006682
:10145000660600703E06006118060017F405007469
:10146000D105005BB00500B2900500627205005521
:1014700055050078390500B81E0500050505004E24
:10148000EC040087D40400A1BD040090A704004927
:10149000920400C17D0400EE690400C756040044B4
:1014A0004404005C320400082104004110040000E0
:1014B0000004003FF00300F8E0030026D20300C35D
:1014C000C30300CCB503003AA803000A9B0300380D
:1014D0008E0300C08103009F750300D06903005094
:1014E0005E03001D53030034480300913D030033A5
:1014F00033030016290300381F030097150300303B
:101500000C0300030303000BFA020049F10200BAC6
:10151000E802005CE002002DD802002DD002005944
:10152000C80200B0C0020031B90200DAB10200AA5C
:10153000AA0200A0A30200BC9C0200FA9502005C73
:101540008F0200DF88020082820200457C020027B1
:1015500076020027700200436A02007C640200D019
:101560005E02003F590200C8530200FFFDFCFAF87A
:10157000F6F4F2F0EEECEAE9E7E5E3E1E0DEDCDAEE
:10158000D9D7D5D4D2D0CFCDCBCAC8C7C5C3C2C096
:10159000BFBDBCBAB9B7B6B4B3B2B0AFADACAAA90F
:1015A000A8A6A5A4A2A1A09E9D9C9A99989795945F
:1015B0009392908F8E8D8B8A89888786848382818F
:1015C000807F7E7D7B7A797877767574737271709F
:1015D0006F6E6D6C6B6A6968676665646362616093
:1015E0005F5E5D5C5B5A595858575655545352517B
:1015F00050504F4E4D4C4B4A4A4948474646454449
:1016000043424241403F3E3E3D3C3B3B3A39383805
:1016100037363535343332323130302F2E2E2D2CB3
:101620002B2B2A2929282727262525242323222155
:101630002120201F1E1E1D1C1C1B1B1A19191818E7
:10164000171616151514131312121111100F0F0E71
:101650000E0D0D0C0C0B0A0A0909080807070606EF
:101660000505040403030202010000DB0FC93F4526
:10167000BCDA3F8FB30240FCF0274056946140FE35
:101680004B9B4084A5D840E0231841346A5641E87A
:1016900059974164DBD5416E271742B4B75542CE06
:1016A0001A9742C8AED542B5885A43D40684BFA61D
:1016B0005FA7BF7443E0BF10B11AC01C2C58C0E82C
:1016C000F697C0B849D6C04E4E17C124D355C18035
:1016D0002497C1A0B5D5C1121A17C244AE55C2781D
:1016E0001797C26CACD5C267885AC320746F6F203D
:1016F0006C6F6E6720657874727573696F6E207099
:10170000726576656E7465640A0020636F6C642090
:10171000657874727573696F6E2070726576656E28
:101720007465640A00290A002062797465733B209D
:10173000637263200053657474696E677320537419
:101740006F726564202800454550524F4D20496E08
:10175000697469616C697A65640A004861726463DE
:101760006F6465642044656661756C7420536574AC
:1017700074696E6773204C6F616465640020286D26
:101780006D2900203B204C6576656C696E672000F2
:1017900020204D3432302053004175746F20426553
:1017A00064204C6576656C696E670020204D393089
:1017B0003600205431204500205430204500537419
:1017C00065707065722064726976657220637572E7
:1017D00072656E740020204D353639205331005427
:1017E000312045005430204500205800447269766D
:1017F0006572207374657070696E67206D6F6465C3
:1018000000204A002020473239205720490020205C
:101810004D3134392043203B20556E697473206963
:101820006E2043656C736975730A0054656D70654D
:1018300072617475726520556E697473002020475B
:101840003231203B004C696E65617220556E6974BF
:101850007300454550524F4D206461746173697A3D
:1018600065206572726F722E0A00290A0020627963
:101870007465733B2063726320002073746F72651C
:10188000642073657474696E67732072657472691D
:1018900065766564202800202863616C63756C613F
:1018A00074656429210A0020213D200045455052DD
:1018B0004F4D20435243206D69736D6174636820FE
:1018C0002D202873746F7265642920002053697A73
:1018D000653A2000496E6465783A2000000048436C
:1018E000000048430000A041000034420000C8420C
:1018F0000000C842F0F7FB4300000C43DC05000089
:10190000DC0500003200000010270000204D61724D
:101910006C696E3D563837290A00454550524F4D87
:101920002076657273696F6E206D69736D61746383
:10193000682028454550524F4D3D00423A00204313
:101940006F756E7420413A004500626564002C207A
:1019500073797374656D2073746F70706564212082
:101960004865617465725F49443A20004572723A75
:10197000204D415854454D50004D415854454D500F
:10198000207472696767657265640048656174698F
:101990006E67204661696C65640048656174696EB4
:1019A00067206661696C6564001000600350012C5B
:1019B0000190012201D001180110020E01700204F1
:1019C00001E002FA006003F0000004E600B004DC6D
:1019D00000A005D200B006C8000008BE00A009B4EF
:1019E00000800BAA00D00DA00090109600C0138CB0
:1019F0000070178200901B780010206E00C02464D5
:101A000000E02D500080353C00A03A2800A03D1495
:101A100000003F0000A03FECFF4572723A204D49A4
:101A20004E54454D50004D494E54454D5020747212
:101A30006967676572656400202F002040002042BE
:101A4000403A0020403A00496E76616C6964206536
:101A5000787472756465720A0041637469766520F2
:101A600045787472756465723A20001000C90210DE
:101A7000012C014001220170011801B0010E01F09A
:101A80000104015002FA00B002F0003003E600D079
:101A900003DC009004D2007005C800A006BE000060
:101AA00008B400B009AA00D00BA000600E96006038
:101AB000118C000015820020197800C01D6E00A056
:101AC000226400B0275A00902C500000314600E0FC
:101AD000343C0010383200903A2800603C1E00A0D0
:101AE0003D1400803E0A00203F00002020506C6121
:101AF0006E6E657242756666657242797465733A98
:101B000020002046726565204D656D6F72793A2020
:101B10000020436F6D70696C65643A2041707220DB
:101B2000313020323032330A00204C61737420553A
:101B30007064617465643A20323032322D31322D56
:101B40003137207C20417574686F723A20284672C4
:101B500061636B74616C20576F726B732C206465CA
:101B60006661756C7420636F6E666967290A004D43
:101B700061726C696E20322E312E320A0020536F52
:101B80006674776172652052657365740A00205728
:101B900061746368646F672052657365740A00201E
:101BA00042726F776E206F75742052657365740A88
:101BB000002045787465726E616C2052657365749F
:101BC0000A00506F77657255700A00737461727401
:101BD0000A0020503A00205A3A0020593A00205872
:101BE0003A00656E6473746F7073206869743A208C
:101BF0000000002100240027002A002D00300033BF
:101C00000001010000040107010A0100000A0B02A3
:101C1000090C0D0E0807030401000000000000007D
:101C200000000000000000000000000000000000B4
:101C30000000000000000012111000000000000071
:101C40000000000000000000000000000000000094
:101C500000000020002300260029002C002F003265
:101C60000000010000030106010901000022002517
:101C70000028002B002E0031003400020100000576
:101C80000108010B010505050507050808080802FC
:101C90000202020A0A080804040404010101010105
:101CA0000101010303030303030303040707070CF4
:101CB0000C0C0C0C0C0C0C020202020606060606AA
:101CC0000606060B0B0B0B0B0B0B0B010210202057
:101CD0000808102040102040800201020108040280
:101CE00001010204081020408080402010080402F6
:101CF000018004020180402010080402010804024F
:101D00000101020408102040800102040810204054
:101D10008024F404D9201BC40C5C0E9804C4095F11
:101D20000265077101F405F900FB04B3004804875C
:101D300000C10369005803550003034500BE023A81
:101D4000008402310053022A0029022500040220E7
:101D500000E4011C00C8011900AF0117009801142C
:101D60000084011300710110006101100051010E87
:101D70000043010D0036010B002B010B0020010B6D
:101D800000150109000C01090003010800FB00080F
:101D900000F3000800EB000700E4000600DE000688
:101DA00000D8000600D2000600CC000500C70005E0
:101DB00000C2000500BD000400B9000400B5000425
:101DC00000B1000400AD000400A9000400A5000358
:101DD00000A20003009F0004009B00030098000382
:101DE000009500020093000300900003008D0002A4
:101DF000008B0003008800020086000200840003BC
:101E000000810002007F0002007D0002007B0002D2
:101E100000790002007700010076000200740002E1
:101E20000072000100710002006F0002006D0001ED
:101E3000006C0002006A00010069000200670001F6
:101E400000660001006500010064000200620001FC
:101E50000061000100600001005F0002005D000100
:101E6000005C0001005B0001005A00010059000104
:101E70000058000100570001005600010055000104
:101E80000054000100530000005300010052000103
:101E90000051000100500001004F0001004E000001
:101EA000004E0001004D0001004C0001004B0000FD
:101EB000004B0001004A00010049000100480000F9
:101EC00000480001004700010046000000460001F4
:101ED00000450000004500010044000100430000EF
:101EE00000430001004200000042000100410000E8
:101EF0000041000100400001003F0000003F0001E0
:101F0000003E0000003E0001003D0000003D0001D9
:101F1000003C0000003C0000003C0001003B0000D1
:101F2000003B0001003A0000003A000100390000C7
:101F300000390001003800000038000000380001BE
:101F400000370000003700010036000000360000B6
:101F500000360001003500000035000000350001AA
:101F600000340000003400000034000100330000A1
:101F70000033000000330001003200000032000096
:101F8000003200010031000000310000003100018A
:101F9000003000000030000000300001002F000081
:101FA000002F0000002F0000002F0001002E000075
:101FB000002E0000002E0001002D0000002D00006A
:101FC000002D0000002D0001002C0000002C00005E
:101FD000002C0000002C0001002B0000002B000052
:101FE000002B0000002B0001002A0000002A000046
:101FF000002A0000002A000100290000002900003A
:10200000002900000029000000290001002800002C
:10201000002800000028000000280000002800011F
:102020000027000000270000002700000027000014
:102030000027000100260000002600000026000006
:1020400000260000002600010025000000250000F9
:1020500000250000002500000025000000250001EB
:1020600000240000002400000024000000240000E0
:1020700000240001002300000023000000230000D2
:1020800000230000002300000023000000230001C3
:1020900000220000002200000022000000220000B8
:1020A00000220000002200010021000000210000A9
:1020B000002100000021000000210000002100009C
:1020C000002100010020000000200000002000008E
:1020D0000020000000200000002000000020000080
:1020E00000200001001F0000001F0000001F000072
:1020F000001F0000001F0000001F0000001F000163
:10210000001E0000001E0000001E0000001E000057
:102110000024F4D43050C38E20C2A24017828B70AA
:1021200011127A910D816CD90AA861E108C758662D
:1021300007615143061E4B5D05C145A7041A4111B5
:1021400004093D9803713931034036DB0265339150
:1021500002D4305402802E1D02632CEE01752AC574
:1021600001B028A001102781018F2564012B244B89
:1021700001E0223401AC211F018D200D01801FFCE4
:1021800000841EED00971DDF00B81CD200E61BC6C0
:1021900000201BBC00641AB200B219A8000A19A0E2
:1021A000006A189900D117910040178B00B516846A
:1021B0000031167E00B31579003A157300C7146F0D
:1021C0000058146A00EE1366008813630025135E3E
:1021D00000C7125B006C12570015125400C1115158
:1021E0000070114F0021114B00D61049008D10478F
:1021F000004610440002104200C00F4000800F3E15
:1022000000420F3C00060F3B00CB0E3800930E3708
:10221000005C0E3500270E3400F30D3200C10D3185
:1022200000900D3000600D2E00320D2D00050D2C9C
:1022300000D90C2B00AE0C2900850C29005C0C2762
:1022400000350C27000E0C2600E80B2400C40B24DC
:1022500000A00B23007D0B23005A0B2100390B211A
:1022600000180B2000F80A1F00D90A1E00BB0A1E26
:10227000009D0A1D00800A1D00630A1C00470A1BFE
:10228000002C0A1B00110A1A00F7091A00DD0919AF
:1022900000C4091900AB091900920917007B09183D
:1022A00000630917004C09160036091600200916AC
:1022B000000A091500F5081500E0081400CC081400
:1022C00000B8081400A4081400900813007D081238
:1022D000006B081300580812004608120034081159
:1022E00000230811001208110001081100F0071066
:1022F00000E0071000D0071000C0071000B0070F63
:1023000000A107100091070E0083070F0074070F4C
:102310000065070E0057070E0049070E003B070D2A
:10232000002E070E0020070D0013070D0006070DF5
:1023300000F9060C00ED060D00E0060C00D4060CBA
:1023400000C8060C00BC060C00B0060C00A4060B6E
:102350000099060C008D060B0082060B0077060B19
:10236000006C060B0061060A0057060B004C060ABB
:102370000042060A0038060A002E060A0024060A51
:10238000001A060A001006090007060A00FD0509E2
:1023900000F4050900EB050900E2050900D905096B
:1023A00000D0050900C7050900BE050900B50508EC
:1023B00000AD050800A50509009C05080094050866
:1023C000008C050800840508007C050800740508D9
:1023D000006C050700650508005D05070056050847
:1023E000004E0507004705070040050800380507AF
:1023F00000310507002A050700230507001C050614
:1024000000160507000F050700080506000205076E
:1024100000FB040600F5040700EE040600E80406CD
:1024200000E2040700DB040600D5040600CF040622
:1024300000C9040600C3040600BD040600B7040674
:1024400000B1040500AC040600A6040600A00405C3
:10245000009B04060095040500900406008A04050C
:102460000085040500800406007A04050075040553
:1024700000700405006B0405006604050061040596
:10248000005C04050057040500520405004D0405D6
:102490000048040500430405003E0404003A040516
:1024A0000035040500300404002C04050027040452
:1024B00000230405001E0404001A04040016040589
:1024C00000110404000D04040009040500040404C0
:1024D0000000040400FC030400F8030400F40304F7
:1024E00000F0030400EC030400E8030400E4030428
:1024F00000E0030400DC030400D8030400D4030458
:1025000000D0030400CC030400C8030300C5030388
:102510000056290000691B0000601000001209002D
:1025200000CC0400007802000040010000A100007F
:1025300000486F6D696E67204661696C656400FFD5
:10254000010150726F62696E67204661696C656453
:102550000A00205A3A200020593A2000426564209F
:10256000583A2000307800220A00556E6B6E6F7763
:102570006E20636F6D6D616E643A2022002045000D
:10258000205A0020590020204D3932205800537421
:102590006570732070657220756E69740045727283
:1025A0006F722077726974696E6720746F20454579
:1025B00050524F4D210A00544845524D414C205233
:1025C000554E4157415900546865726D616C2052F7
:1025D000756E6177617900486F6D6520257325738D
:1025E00025732046697273740020453A00205A3AD8
:1025F0000020593A00583A006F6B0A005265736523
:102600006E643A20005072696E7465722068616C65
:102610007465642E206B696C6C28292063616C6C76
:102620006564210A0000BCB211241FBECFEFD1E2C5
:10263000DEBFCDBF00E00CBF84B780931F1114BE76
:102640000FB6F894A895809160008861809360002F
:10265000109260000FBE13E0A0E0B2E0E4EFFEE8ED
:1026600001E00BBF02C007900D92A63CB107D9F75D
:1026700021E1A6ECB3E001C01D92AF31B207E1F752
:1026800013E1C4E1D3E100E006C021970109802FE6
:10269000FE010E9430C4C331D10780E00807A9F7CA
:1026A0000E94BEB40C9478C70C940000EF92FF9285
:1026B0000F931F93E092D303F092D4030093D503BA
:1026C0001093D6036093D7037093D8038093D903F4
:1026D0009FEFFF27621B730B840B30F4809570957E
:1026E0006195790B890B99279093D203A6E06A9F95
:1026F0000092C603512DEE277A9F500DE11D8A9F4F
:10270000E00D5093C703E093C803AFE06A9F0092C7
:10271000CA03512DEE277A9F500DE11D8A9FE00DCF
:102720005093CB03E093CC03AAE06A9F0092CE03C0
:10273000512DEE277A9F500DE11D8A9FE00D509399
:10274000CF03E093D0031F910F91FF90EF90089576
:1027500093E0980F21E030E002C0220F331F9A95DA
:10276000E2F72095309590919505292320939505C2
:10277000882321F0813021F081E00895129AFCCF66
:10278000479AFACF21E030E0082E02C0220F331F13
:102790000A94E2F72095309590919505292320938E
:1027A0009505813061F020F0823071F081E008956C
:1027B0005F9A8091B5078E7F8093B507F7CF8A9A8D
:1027C0008091B5078D7FF8CF809108018095817049
:1027D000809306018091B5078B7FEECF9F92AF92D9
:1027E000BF92CF92DF92EF92FF920F931F93CF93FE
:1027F000DF9300D01F921F92CDB7DEB7EBE6F5E175
:102800000027BB27462F572FA82FAA2341F4A52F17
:10281000542FB85FAA2319F4A52F5527B85FA0310C
:1028200038F45295A295452F4F70507FA42BBC5F72
:10283000A03428F4550FAA1F550FAA1FBE5FA03859
:1028400018F4550FAA1FB395550FAA1FEA0FF01FD2
:10285000449151E0AA27B85079F1C0F0B0FF02C00E
:10286000440F551FB1FF04C0440F551F440F551F9F
:10287000B2FF06C052954295142F1F70407F512B16
:10288000B3FF1AC0A52F542F442716C0B195B0FF2F
:1028900002C055954795B1FF04C05595479555958C
:1028A0004795B2FF05C05295407F4295452B5F701A
:1028B000B3FF02C0452F5527DD24CC24BB24B2E052
:1028C000649FD018C108B00AB00B749FC018B1083B
:1028D000B00B849FB018B109659FC018B108B00B48
:1028E000759FB018B109859FB0196A9FB018B109DA
:1028F0007A9FB0194D9DA12C99243327992722271F
:102900005D9DA00C911C301F901F201FAD9D900C51
:10291000311D901F201F4C9DA00C911C301F901F3B
:10292000201F5C9D900C311D901F201FAC9D300D11
:10293000911D201F4B9D900C311D901F201F5B9DF2
:10294000300D911D201FAB9D900D211D4B9F300D13
:10295000911D201F5B9F900D211DAB9F200DB1E0AD
:10296000BB24CC24DD24639FD018C108B00AB00B6F
:10297000739FC018B108B00B839FB018B109699F4D
:10298000C018B108B00B799FB018B109899FB01970
:10299000629FB018B109729FB019D61AC70AB80A57
:1029A00020F0B1E03B0F901F201F1124792F632FDF
:1029B00090E0822F0F900F900F900F900F90DF916B
:1029C000CF911F910F91FF90EF90DF90CF90BF902C
:1029D000AF909F900895AF92BF92CF92DF92EF9207
:1029E000FF920F931F93CF93DF93CAEBD7E00EE9CB
:1029F00014E08AECA82E87E0B82EC12CD12C7601E9
:102A0000C39469917991899199910E94D0BF288945
:102A100039894A895B890E9431C00E94CAC5F80180
:102A200061937193819391938F01C616D706E8063F
:102A3000F90610F46B017C01AC16BD0611F76FEFBF
:102A40007FEFCB01A70196010E94A6C32093AE049D
:102A50003093AF044093B0045093B104DF91CF9111
:102A60001F910F91FF90EF90DF90CF90BF90AF90AC
:102A700008957F928F929F92AF92BF92CF92DF92F2
:102A8000EF92FF920F931F93CF93DF937090E80420
:102A9000C6E8D4E09CE1C92E92E0D92E20E2E22ED5
:102AA00022E0F22E00EE14E0772009F45EC0F80177
:102AB00080809180A280B38020E030E0A901C50130
:102AC000B4010E94CCBF882309F44FC020E030E05D
:102AD00040E05FE3C501B4010E9431C09B01AC013D
:102AE0000E9431C02BED3FE049E450E40E9431C028
:102AF0009B01AC0160E070E080E89FE30E945DC54F
:102B00004B015C0189929992A992B992F601619167
:102B100071916F01072E000C880B990B0E94D2BF98
:102B20002AE037ED43E25CE30E9431C0A501940145
:102B30000E9431C0F70161937193819391937F015A
:102B40000C5F1F4FF4E0CE38DF0709F0ADCFDF9107
:102B5000CF911F910F91FF90EF90DF90CF90BF909A
:102B6000AF909F908F907F900895812C912C80E85A
:102B7000A82E8FE3B82EC6CF809104109091051037
:102B8000891B8F7019F490E080E0089590910110F6
:102B9000992351F0833030F48FEF890F19F080932F
:102BA0000110F1CF109201108091051028E5829F4D
:102BB000C00111248C5F974FFC01208120FDE3CFE1
:102BC000209105102F5F2F70209302103091051077
:102BD00020910310321304C020910210209303109F
:102BE0000895FC017081472F50E0062E02C05595D4
:102BF00047950A94E2F740FF14C04091E90550E080
:102C0000062E02C0559547950A94E2F740FF09C089
:102C100021E030E001C0220F6A95EAF720952723D2
:102C200020830895CF93DF9324E0829FC001112475
:102C3000EC01CC57D24FFC01E55EF94F86589B4F13
:102C4000DC012D913D914D915C916081718182817A
:102C500093810E9481C4688379838A839B83DF91F7
:102C6000CF9108958091760490917704A091780493
:102C7000B091790480934A0290934B02A0934C0246
:102C8000B0934D02809174049091750490931B024F
:102C900080931A02089580914A0290914B02A0916C
:102CA0004C02B0914D028093760490937704A093E8
:102CB0007804B093790480911A0290911B0290934A
:102CC00075048093740484E690E090931B028093D3
:102CD0001A020895CF93DF939091670491111BC05E
:102CE000C0911802D0911902219797E1899FF001B4
:102CF0001124E554FA4F20E030E040E05FE36481C6
:102D00007581868197810E9481C40E94C5C521E09A
:102D10006C177D070CF020E0822FDF91CF91089592
:102D200090E080E0089520913004833021F425FD67
:102D30000CC024FD0CC030E0A90102C05595479598
:102D40008A95E2F7CA018170089581E0089580E0D4
:102D5000089580914C0484FD0BC080914E0487FD42
:102D600007C090914F04937081E019F480E00895BA
:102D700081E008952FEB280F2A3108F047C0E22F99
:102D8000F0E080914C0490914D04A0914E04B091DC
:102D90004F0404C0B695A795979587952A95D2F7C5
:102DA00080FD02C081700895EE5CFB4FE081EE2350
:102DB00041F18091B8079091B907E80FF92FF11D03
:102DC000808190ED980F9A3030F08E3251F48181ED
:102DD00080538A3098F4F0932D04E0932C0481E022
:102DE00008958D3211F08B3249F4818190ED980F66
:102DF0009A3088F38E3211F48281EACFF0E0E0E07D
:102E0000EACF10922D0410922C04E9CF80E00895AF
:102E1000B1DF882341F081E020912C0430912D0412
:102E2000232B09F480E00895FC01DB0112962D911B
:102E30003D914C91149722833383448315968C9152
:102E40001597858316962D913D914C911897268361
:102E50003783408719964D915D916D917C911C97B8
:102E600041875287638774871D964D915D916D915F
:102E70007C915097458756876787708B81EA93E0EE
:102E80009183808351968D919C915297928B818BE7
:102E900053964D915D916D917C915697438B548BD8
:102EA000658B768B57968C915797878B58968D911B
:102EB0009C915997918F808F5A968D919C915B9799
:102EC000938F828F5C968D919C915D97958F848F67
:102ED0005E964D915D916D917C919197468F578F44
:102EE00060A371A392964D915D916D917C919597A0
:102EF00042A353A364A375A396964D915D916D91E2
:102F00007C91999746A357A360A771A79A968D9134
:102F10009C919B9793A782A79C968D919C919D973E
:102F200095A784A79E968D919C919F9797A786A71A
:102F3000D0968D919C91D19791AB80ABD2968C918C
:102F400082AB0895EBE1F4E080EF9FEFA9E7B4ECEA
:102F500084839583A683B78380839183A283B3837D
:102F6000E5E0F4E08DE98183808308958F929F925C
:102F7000AF92BF92CF92DF92EF92FF92FC0198E066
:102F8000A8EDB4E001900D929A95E1F788E0FB017D
:102F9000AFECB4E001900D928A95E1F7C090D804AF
:102FA000D090D904E090DA04F090DB0420E030E027
:102FB000A901C701B6010E94CCBF8823E1F1A70196
:102FC000960160E070E080E89FE30E945DC56B01C0
:102FD0007C018090DC049090DD04A090DE04B09031
:102FE000DF0420E030E0A901C501B4010E94CCBF9C
:102FF000882329F1A501940160E070E080E89FE357
:103000000E945DC5C0921304D0921404E09215048E
:10301000F0921604609317047093180480931904B7
:1030200090931A04FF90EF90DF90CF90BF90AF90F5
:103030009F908F900895C12CD12C7601CACF60E06B
:1030400070E0CB01DFCF1092D3041092D404109221
:10305000D5041092D6041092CF041092D00410928E
:10306000D1041092D2041092DC041092DD0410926C
:10307000DE041092DF041092D8041092D90410924A
:10308000DA041092DB04E9EEF4E080E090E0A0ECDA
:10309000BFE780839183A283B38384839583A683D0
:1030A000B78380879187A287B38784879587A68710
:1030B000B787709625E0E932F20759F7089588231B
:1030C00019F0813021F0089580E00C94D6B1479832
:1030D00080919505806180939505089540912D0517
:1030E00021E042276CE070E00C94189940912D0586
:1030F00021E0422764E070E00C94189940912D057E
:1031000021E0422761E070E00C94189940912D0570
:1031100021E0422761E070E00C94189940912D0560
:1031200021E0422768E070E00C94189940912D0549
:1031300021E042276CE070E00C94189941E061E0D6
:1031400070E00C94189940912D0521E042270C94D1
:103150001899BC0190E080E00C942E976CE070E030
:103160000C94D59F61E070E00C94D59F61E070E015
:103170000C94D59F6CE070E00C94D59F64E070E0F7
:103180000C94D59F682F880F770B880B990B0C94A4
:1031900098970F931F93CF93DF930EEC17E0C3EB39
:1031A000D4E0F80121913191419151918F0160E07A
:1031B00070E080E89FE30E945DC5699379938993ED
:1031C0009993F4E0C33CDF0761F70E94F498DF9124
:1031D000CF911F910F91FFCB2F923F924F925F9211
:1031E0006F927F928F929F92AF92BF92CF92DF9217
:1031F000EF92FF920F931F93CF93DF93CDB7DEB77C
:10320000A0970FB6F894DEBF0FBECDBF1C017B01A7
:103210005E834D83FC01E95BFF4F20813181428158
:10322000538129833A834B835C83CA01B9010E948D
:10323000D0BF4B015C01D7012D913D914D915C9127
:103240000E9431C00E9447C52B013C01ED81FE81E7
:103250002081318142815381C501B4010E9431C076
:103260000E9447C56B017C01C301B2010E94CAC51F
:1032700069877A878B879C876837710581059105F7
:1032800040F428E730E040E050E029873A874B8758
:103290005C87C701B6010E94CAC56D877E878F878C
:1032A000988B683771058105910548F428E7C22E8F
:1032B000D12CE12CF12CCD86DE86EF86F88AD10167
:1032C0009596CD90DD90ED90FC909897CD82DE8222
:1032D000EF82F886F101ED5AFF4F608171818281A2
:1032E0009381611571058105910509F49FC10E94C3
:1032F000D2BF6D8B7E8B8F8B988F9B01AC0160E072
:1033000070E080E89FE30E945DC5698F7A8F8B8FA4
:103310009C8F20E030E040E05FE30E9431C06B0111
:103320007C01A5019401C501B4010E9431C02B01AB
:103330003C016D857E858F8598890E94D0BF9B0159
:10334000AC010E9431C09B01AC01C301B2010E94DB
:1033500080C4A70196010E9431C04B015C016985C0
:103360007A858B859C850E94D0BF9B01AC010E9411
:1033700031C06D8F7E8F8F8F98A39B01AC01C301ED
:10338000B2010E9480C4A70196010E9431C02B01A6
:103390003C010E9447C50E94CAC56B017C01C50162
:1033A000B4010E94F6C50E94CAC5698B7A8B8B8BCB
:1033B0009C8BDC01CB018C0D9D1DAE1DBF1D2D8195
:1033C0003E814F815885281B390B4A0B5B0BDA0174
:1033D000C901B7FF61C06D817E818F8198850E9490
:1033E000D0BFA30192010E9481C4A50194010E9453
:1033F00080C420E030E040E05FE30E9431C00E94E2
:1034000047C56B017C0120E030E0A9010E94A7C6FE
:1034100018161CF0C12CD12C7601C701B6010E94F0
:10342000CAC56B017C014D815E816F8178854C1529
:103430005D056E057F0510F46A017B016D817E815B
:103440008F8198856C197D098E099F09698B7A8B0C
:103450008B8B9C8BC701B6010E94D0BF4B015C01D6
:103460002D893E894F89588DCA01B9010E9481C4B6
:103470009B01AC01C501B4010E9431C02D8D3E8D70
:103480004F8D58A10E9481C40E94ECC60E94CAC5FB
:1034900069837A838B839C8320E034E244EF59E490
:1034A000698D7A8D8B8D9C8D0E9431C04B015C01A2
:1034B00069817A818B819C8129853A854B855C85E0
:1034C000621B730B840B950B0E94D0BFA501940166
:1034D0000E9431C00E94CAC52B013C0169817A81DA
:1034E0008B819C812D853E854F855889621B730B8E
:1034F000840B950B0E94D0BFA50194010E9431C09E
:103500000E94CAC54B015C013FE6431651046104A9
:10351000710408F097C0F201EE0FFF1FEE0FFF1FBE
:10352000E155FC4E85919591A591B4918C01AD8B9F
:10353000BD834FE684169104A104B10408F089C04C
:10354000F401EE0FFF1FEE0FFF1FE155FC4E4591FA
:103550005591659174919A01CB01D1019A96CD92C2
:10356000DD92ED92FC929D9795964D915D916D91B6
:103570007C919897C988DA88EB88FC884C195D099A
:103580006E097F099E964D935D936D937C93D197C1
:10359000F101E55BFF4FC984DA84EB84FC84C082CF
:1035A000D182E282F382D6964D925D926D927C92A8
:1035B000D997F10182AE93AEA4AEB5AEFE9600836C
:1035C0001183CD88C282DD80D382349620833183FB
:1035D00082839383C980DA80EB80FC80D296CD927F
:1035E000DD92ED92FC92D5973D96CD84DE84EF84FA
:1035F000F888C082D182E282F382A0960FB6F89456
:10360000DEBF0FBECDBFDF91CF911F910F91FF9015
:10361000EF90DF90CF90BF90AF909F908F907F9072
:103620006F905F904F903F902F900895198E1A8E53
:103630001B8E1C8E198A1A8A1B8A1C8AC12CD12CBB
:1036400076012ACFC301B201C9D88B018D8B9D832E
:1036500070CFC501B401C2D89B017FCF4F925F925A
:103660006F927F928F929F92AF92BF92CF92DF9292
:10367000EF92FF920F931F93CF93DF93EC01209172
:10368000CF043091D0044091D1045091D20468818C
:1036900079818A819B810E9480C46B017C01209189
:1036A000D3043091D4044091D5045091D6046C8158
:1036B0007D818E819F810E9480C44B015C01A701A6
:1036C000960160911B0470911C0480911D049091DF
:1036D0001E040E94CCBF882309F450C0C0921B0472
:1036E000D0921C04E0921D04F0921E042091130459
:1036F000309114044091150450911604C701B6018D
:103700000E9431C02B013C010E94F6C56B017C0177
:1037100020E030E0A9010E94CCBF87FD70C020E00E
:1037200030E040E050E4C701B6010E94A7C6181679
:103730002CF4C12CD12CE12CA0E4FA2EA701960187
:10374000C301B2010E9480C460930B0470930C0407
:1037500080930D0490930E04C701B6010E94C5C565
:1037600060930904062E000C770B6F5F7F4F633068
:10377000710514F063E070E060930704D0910504D4
:10378000C0910904A501940160911F047091200467
:1037900080912104909122040E94CCBF811133C0FA
:1037A000DC1381C02091ED033091EE034091EF03D3
:1037B0005091F00360910B0470910C0480910D0402
:1037C00090910E040E9431C02091F1033091F203D8
:1037D0004091F3035091F4030E9481C4DF91CF9193
:1037E0001F910F91FF90EF90DF90CF90BF90AF901F
:1037F0009F908F907F906F905F904F900895C12C15
:10380000D12C76019BCF80921F0490922004A0922D
:103810002104B092220420911704309118044091A1
:10382000190450911A04C501B4010E9431C04B0122
:103830005C010E94F6C56B017C0120E030E0A9012B
:103840000E94CCBF87FDF4C020E030E040E050E4AF
:10385000C701B6010E94A7C618162CF4C12CD12CA2
:10386000E12CF0E4FF2EA7019601C501B4010E94EE
:1038700080C460930F04709310048093110490939C
:103880001204C701B6010E94C5C560930A04062E42
:10389000000C770B6F5F7F4F6330710514F063E0AE
:1038A00070E06093080400910A04DC1305C0809165
:1038B0000604801709F471C08091090490910A04EC
:1038C0009093060480930504002E000C110B24E055
:1038D000C202C0011124FC01E00FF11FEE0FFF1F17
:1038E000EE0FFF1FE751FB4F208131814281538151
:1038F0002093010430930204409303045093040482
:10390000C09108040C2E000CDD0BFC01EC0FFD1F18
:10391000EE0FFF1FEE0FFF1FE751FB4F608171811C
:10392000828193810E9480C46093FD037093FE03A3
:103930008093FF03909300048091070424E08202A7
:10394000C0011124FC01E00FF11FEE0FFF1FEE0F6D
:10395000FF1FE751FB4F208131814281538120932A
:10396000F9033093FA034093FB035093FC03C80F11
:10397000D91FCC0FDD1FCC0FDD1FC751DB4F688176
:1039800079818A819B810E9480C46093F503709342
:10399000F6038093F7039093F80380900F049090C0
:1039A0001004A0901104B09012042091FD033091F6
:1039B000FE034091FF0350910004C501B4010E9431
:1039C00031C02091010430910204409103045091D0
:1039D00004040E9481C46B017C01C092F103D09267
:1039E000F203E092F303F092F4032091F503309197
:1039F000F6034091F7035091F803C501B4010E940A
:103A000031C02091F9033091FA034091FB035091AA
:103A1000FC030E9481C4A70196010E9480C46093A8
:103A2000ED037093EE038093EF039093F003BACE0F
:103A3000C12CD12C760117CF0F931F938091650471
:103A4000813019F50E9494A000915D0410915E04EC
:103A500020915F0430916004601B710B820B930B0B
:103A600028EE33E040E050E00E94A6C36091590484
:103A700070915A0480915B0490915C04620F731FF3
:103A8000841F951F1F910F9108956091610470919B
:103A900062048091630490916404D6CF80912C04D9
:103AA00090912D04009731F04AE050E070E060E022
:103AB0000C940CBD60E070E0CB010895EFDF97FD42
:103AC0000AC0ECDF6F3F71058105910509F02CF408
:103AD000E5DF862F089580E008958FEF0895CF9356
:103AE000C62F96D9882311F0CF91E8CF8C2FCF9194
:103AF000089580912C0490912D04892B39F0DEDFFC
:103B000091E0811101C090E0892F089591E0FCCFF0
:103B1000CF93DF93C82FD62F7BD9882319F0DF915D
:103B2000CF91E7CF8C2F26D9811101C08D2FDF9146
:103B3000CF910895B3DFCB010895CF93DF93EB01CD
:103B400067D9882319F0DF91CF91F4CFCE01DF91AF
:103B5000CF9108950F931F93CF9380912C04909150
:103B60002D04009709F1FC018F01C1912C2F2F7DAD
:103B7000A1F0C53431F0C53621F0C83511F0C83791
:103B800099F7F801108270E060E00E94B7BBF8017D
:103B9000C083CF911F910F91089570E060E0CF91A5
:103BA0001F910F910C94B7BB60E070E0CB01F1CF97
:103BB000CF92DF92EF92FF926A017B0129D988238D
:103BC00029F0FF90EF90DF90CF90C4CFC701B601EE
:103BD000FF90EF90DF90CF9008954F925F926F9299
:103BE0007F92AF92BF92CF92DF92EF92FF920F93AC
:103BF0001F93CF9389E1A82E83E0B82E96E0E92E9B
:103C000096E0F92E04E612E024E8C22E2DE0D22E32
:103C1000C0E0F50181915F01FBD8882309F476C0EB
:103C200099DF2B013C018C2F7ED8882309F464C0D6
:103C3000F8012081318142815381C301B2010E9488
:103C400081C4F7016083718382839383CF5FF4E043
:103C5000EF0EF11C0C5F1F4F84E0C80ED11CC33067
:103C6000C1F685E4D5D8882309F45BC073DF6B0106
:103C70007C0183E058D8882371F020917002309144
:103C800071024091720250917302C701B6010E9405
:103C900081C46B017C01C0921206D0921306E0929F
:103CA0001406F092150640E050E0BA0186E480DF89
:103CB00020E030E0A9010E94A7C618167CF44ADF74
:103CC00020E030E040E752E40E945DC560934A0284
:103CD00070934B0280934C0290934D02CF911F91B1
:103CE0000F91FF90EF90DF90CF90BF90AF907F90BB
:103CF0006F905F904F900895F6012081318142814D
:103D00005381C301B2010E9480C49BCFF80180811E
:103D10009181A281B381F70180839183A283B383D0
:103D200095CF8091700290917102A0917202B09132
:103D300073028093120690931306A0931406B09317
:103D40001506B1CFAF92BF92CF92DF92EF92FF9262
:103D50000F931F93CF935C016B018A0182529C4F9A
:103D60007C01DC01CC91C7FF3DC0FB0111821082B8
:103D7000CF5FD701CC93CC300CF053C08CE08A9D40
:103D8000F0018B9DF00D1124CF018C0F911DC7FD0B
:103D90009A952091EF0F2817190609F00CF441C0ED
:103DA000F60120813181FC01EE0FFF1FE80FF91FA2
:103DB000E955F04F81819281820F931FD8011196AE
:103DC0009C938E93808187FF3DC061E08F77CF9178
:103DD0001F910F91FF90EF90DF90CF90BF90AF9029
:103DE0000C942C9E8CE08A9DF0018B9DF00D11248B
:103DF000CF018C0F911DC7FD9A952091EF0F2817C9
:103E0000190609F00CF4B4CFFC01EE0FFF1FE80F08
:103E1000F91FE955F04F808160E08F770E942C9E5A
:103E2000A7CFF6018081918104968034FCE99F0739
:103E300010F480E49CE9D80111969C938E938FEF47
:103E4000F7018083CF911F910F91FF90EF90DF904A
:103E5000CF90BF90AF9008950F930FB70F9300913D
:103E60006E000F930D7F00936E0000916F000D7F29
:103E700000936F000F930BB70F930CB70F921F9225
:103E80002F933F934F935F936F937F938F939F9362
:103E9000AF93BF93EF93FF93112482D4FF91EF91DF
:103EA000BF91AF919F918F917F916F915F914F9152
:103EB0003F912F911F900F900CBF0F910BBF0F914F
:103EC0000260F89400936F000F9100936E000F91C1
:103ED0000FBF0F91189500008091190680FF27C031
:103EE000899A8FEF80932F058091190681FF22C058
:103EF0008F9A8FEF809330058091190682FF1DC045
:103F000080910B0180958270809309018FEF8093DF
:103F10003105809133059091190693FF17C08111E7
:103F200013C016988FEF809332050000089589988A
:103F300081E0D8CF8F9881E0DDCF80910B01827036
:103F40008093090181E0E3CF439AECCF811103C054
:103F5000169A81E0E8CF4398FCCF80E00E94A81336
:103F600081E00C94A81380E00E94C21381E00E94BB
:103F7000C21382E00E94C213F0CF813089F070F04A
:103F8000823081F021E030E001C0220F8A95EAF70B
:103F900080919505822B8093950508955F98F2CFC7
:103FA0008A98F0CF90910801917090930601EACF22
:103FB000CF93DF932091D704222371F0EC014EDBE5
:103FC0009B01AC01688579858A859B850E9481C4A7
:103FD000688779878A879B87DF91CF910895909131
:103FE0006F0081E091FD02C080E0089590916F0024
:103FF0009D7F90936F000895EFE6F0E080818260EE
:10400000808308958F929F92AF92BF92CF92DF925A
:10401000EF92FF920F931F93CF93DF93182F84E0BB
:10402000189FE0011124123008F046C0D8DF082F95
:10403000D6DF8090850590908605A0908705B0908A
:1040400088058111D9DFCBDFC0908905D0908A0522
:10405000E0908B05F0908C058111CEDF0111CCDF53
:10406000113019F5C501B4016C197D098E099F093C
:104070000E94D2BF20E030E040E05FE30E9431C008
:10408000CD54DB4F288139814A815B810E9431C048
:10409000DF91CF911F910F91FF90EF90DF90CF9024
:1040A000BF90AF909F908F900895C701B601680DA3
:1040B000791D8A1D9B1DDCCF92DFFE01EB57FA4F65
:1040C000C080D180E280F380811196DFC701B60104
:1040D0000E94D2BFD5CFCF92DF92EF92FF92CF93C3
:1040E000DF93C82F7CDF94E0C99FE0011124FE011B
:1040F000E758FA4FC080D180E280F38081117CDFE5
:10410000CD54DB4FC701B6010E94D2BF288139814F
:104110004A815B810E9431C0DF91CF91FF90EF9087
:10412000DF90CF900895CF93DF93CDB7DEB72C9774
:104130000FB6F894DEBF0FBECDBF0E9409984FDFC7
:104140009CE0E5E8F5E0DE01119601900D929A956C
:10415000E1F7811151DFCE0101960E94E4B12C9666
:104160000FB6F894DEBF0FBECDBFDF91CF9108959B
:10417000CF93DF931F92CDB7DEB7898360E0CE0186
:1041800001960E94F11561E0CE0101960E94F115A1
:1041900062E0CE0101960E94F11589810F90DF91B6
:1041A000CF9108958F929F92AF92BF92CF92DF925C
:1041B000EF92FF92CF93DF9320913002222309F4F4
:1041C0008EC0EC018091E905E82E80FF2CC0809024
:1041D000320290903302A0903402B09035022881D0
:1041E00039814A815B81C501B4010E94A7C61816B6
:1041F00024F488829982AA82BB8280903E029090A9
:104200003F02A0904002B0904102288139814A814A
:104210005B81C501B4010E94CCBF87FF04C08882C6
:104220009982AA82BB82E1FE2CC0809036029090D7
:104230003702A0903802B09039022C813D814E8126
:104240005F81C501B4010E94A7C6181624F48C82B0
:104250009D82AE82BF828090420290904302A090E5
:104260004402B09045022C813D814E815F81C501A1
:10427000B4010E94CCBF87FF04C08C829D82AE82B5
:10428000BF82E2FE2CC0C0903A02D0903B02E09088
:104290003C02F0903D02288539854A855B85C7013F
:1042A000B6010E94A7C6181624F4C886D986EA86E5
:1042B000FB86C0904602D0904702E0904802F09002
:1042C0004902288539854A855B85C701B6010E9468
:1042D000CCBF87FF04C0C886D986EA86FB86DF91FB
:1042E000CF91FF90EF90DF90CF90BF90AF909F90D5
:1042F0008F900895CF92DF92EF92FF920F931F93CA
:10430000CF93DF93E82FF0E0EF01CC0FDD1FCC0F50
:10431000DD1F461739F0823009F049C0C12CD12C7D
:10432000760117C08230D1F3A091B3078A2F90E0B5
:10433000DC01AA0FBB1FA80FB91FAE0FBF1FAA0F2A
:10434000BB1FAA0FBB1FA251BA4FCD90DD90ED90BD
:10435000FC908F01000F111F000F111FF801E05E8C
:10436000FC4E2591359145915491C05DDD4FC701BB
:10437000B6010E9481C46A837B838C839D83F8018C
:10438000EC5EFC4E2591359145915491C701B601E3
:104390000E9481C46E877F87888B998BDF91CF9134
:1043A0001F910F91FF90EF90DF90CF90089550E014
:1043B000DA01AA0FBB1FA40FB51FAE0FBF1FAA0FB4
:1043C000BB1FAA0FBB1FA251BA4F862F90E0BC01A2
:1043D000660F771F680F791FE60FF71FEE0FFF1F9D
:1043E000EE0FFF1FE251FA4F20813181428153814C
:1043F0006D917D918D919C910E9480C46B017C0197
:10440000C05DDD4FAC019B016A817B818C819D8108
:104410000E9481C46A837B838C839D83A70196015C
:104420006E857F8588899989B3CF4F925F926F920D
:104430007F928F929F92AF92BF92CF92DF92EF9234
:10444000FF92CF93DF9300D01F921F92CDB7DEB7BC
:10445000409064025090650260906602709067021E
:104460008090680290906902A0906A02B0906B02FE
:10447000C0906C02D0906D02E0906E02F0906F02DE
:104480008091700290917102A0917202B0917302BA
:1044900089839A83AB83BC830E94EB140E943915F5
:1044A0001D828D810E94121640E060E08D8122DF26
:1044B0009D819F5F9D839330A1F70E94A2170E9468
:1044C000C918A30192016091640270916502809104
:1044D0006602909167020E94CCBF81112CC0A50199
:1044E0009401609168027091690280916A029091D2
:1044F0006B020E94CCBF81111EC0A7019601609182
:104500006C0270916D0280916E0290916F020E9418
:10451000CCBF811110C029813A814B815C816091AF
:1045200070027091710280917202909173020E94E8
:10453000CCBF8823A1F00F900F900F900F900F9099
:10454000DF91CF91FF90EF90DF90CF90BF90AF9031
:104550009F908F907F906F905F904F90E4CD0F90E1
:104560000F900F900F900F90DF91CF91FF90EF90F1
:10457000DF90CF90BF90AF909F908F907F906F9083
:104580005F904F9008958F929F92AF92BF92CF927B
:10459000DF92EF92FF921F93CF93DF93CDB7DEB7F9
:1045A00060970FB6F894DEBF0FBECDBF182F80E026
:1045B00029DD4B015C018092680490926904A0920D
:1045C0006A04B0926B0481E01DDD6B017C01C09236
:1045D0006C04D0926D04E0926E04F0926F0482E05D
:1045E00011DD609370047093710480937204909352
:1045F00073041D861E861F86188A89829A82AB8262
:10460000BC82CD82DE82EF82F88669877A878B87CB
:104610009C8783E0F7DC6D877E878F87988B8091FE
:10462000D704882379F0CE01019618D89B01AC01FC
:1046300069857A858B859C850E9480C469877A8785
:104640008B879C871E3FD9F480E1FE013196A4E65A
:10465000B2E001900D928A95E1F760960FB6F8945A
:10466000DEBF0FBECDBFDF91CF911F91FF90EF90C6
:10467000DF90CF90BF90AF909F908F90089584E08F
:10468000189FF0011124DF01AC59BD4F81E090E08B
:104690008C0F9D1FE80FF91F40815181628173814A
:1046A0004D935D936D937C931397D7CF0C94F498AF
:1046B00080911806811105C08091B607882309F4FE
:1046C0006EC080916604659B5AC0816080936604C9
:1046D000909103018091660490FF53C082608093A3
:1046E000660480916604639B4EC088608093660474
:1046F000809166044A9B49C08460809366048091DF
:10470000690580FF10C08091190685FF0CC080915B
:10471000660480FF08C08091B40781608093B4076D
:1047200080E00E9418B28091690581FF10C08091DD
:10473000190686FD0CC08091660481FF08C0809137
:10474000B40782608093B40781E00E9418B2809120
:10475000690582FF24C08091190682FF18C08091EC
:10476000B6078823E1F08091660483FF18C080912A
:10477000B40788608093B40782E00C9418B28E7FEF
:10478000A5CF8D7FACCF877FB1CF8B7FB6CF809108
:10479000660482FF04C08091B4078460EBCF089563
:1047A0002F923F924F925F926F927F928F929F9241
:1047B000AF92BF92CF92DF92EF92FF920F931F932F
:1047C000CF93DF93CDB7DEB762970FB6F894DEBF15
:1047D0000FBECDBF8FEF9FEF90938900809388002D
:1047E0002AE0298B312C212C7894809172059091AC
:1047F0007305A0917405B0917505892B8A2B8B2BBD
:1048000009F0DFC1809178058823D1F08091760589
:104810009091770510927805892B91F01092770589
:104820001092760510926905909104108091051000
:10483000981731F0809105108F5F8F70809305106D
:104840008091760590917705892B09F4BAC1409142
:104850006E0550916F0560917005709171058091A2
:104860006A0590916B05A0916C05B0916D05481794
:1048700059076A077B0708F0A4C10091B00710E050
:1048800030E020E0841B950BA60BB70B0817190727
:104890002A073B0710F4D901C8018A8B840F951FA2
:1048A000A61FB71F80936E0590936F05A0937005A8
:1048B000B0937105E1E0C0903805D0903905E090E3
:1048C0003A05F0903B058091480590914905A091EB
:1048D0004A05B0914B05C80ED91EEA1EFB1EC092B8
:1048E0004805D0924905E0924A05F0924B05F7FC45
:1048F00018C08091340590913505A0913605B0918E
:104900003705B701A601481B590B6A0B7B0BDB016E
:10491000CA018093480590934905A0934A05B09336
:104920004B0500913C0510913D0520913E053091CD
:104930003F0580914C0590914D05A0914E05B09199
:104940004F05080F191F2A1F3B1F00934C0510939A
:104950004D0520934E0530934F0537FD18C08091CB
:10496000340590913505A0913605B09137052801A1
:104970003901481A590A6A0A7B0AD301C201809395
:104980004C0590934D05A0934E05B0934F05409173
:104990004005509141056091420570914305809119
:1049A000500590915105A0915205B0915305480FC3
:1049B000591F6A1F7B1F4093500550935105609308
:1049C00052057093530577FD18C08091340590917E
:1049D0003505A0913605B09137053A014B01681AAB
:1049E000790A8A0A9B0AD401C301809350059093E7
:1049F0005105A0935205B0935305809044059090C3
:104A00004505A0904605B0904705809154059091CA
:104A10005505A0915605B0915705880D991DAA1D01
:104A2000BB1D8093540590935505A0935605B093F4
:104A30005705B7FD18C08090340590903505A090BB
:104A40003605B09037052C013D01481859086A0811
:104A50007B08530142018092540590925505A09223
:104A60005605B0925705E11104C0E0918400F09121
:104A70008500F7FC1CC040902F05042C000C550845
:104A8000660877088090850590908605A090870538
:104A9000B0908805840C951CA61CB71C80928505D7
:104AA00090928605A0928705B0928805889A37FD76
:104AB0001CC040903005042C000C5508660877088F
:104AC0008090890590908A05A0908B05B0908C0508
:104AD000840C951CA61CB71C8092890590928A05AF
:104AE000A0928B05B0928C058E9A77FD21C04090E4
:104AF0003105042C000C55086608770880908D0558
:104B000090908E05A0908F05B0909005840C951C18
:104B1000A61CB71C80928D0590928E05A0928F05E1
:104B2000B0929005E0910B01E095E870E0930901E7
:104B3000B7FD20C040903205042C000C55086608D3
:104B400077088090910590909205A0909305B09081
:104B50009405840C951CA61CB71C8092910590921C
:104B60009205A0929305B0929405E0913305E1116E
:104B700005C2149AE0918400F0918500E0918400D0
:104B8000F0918500F7FE889837FF8E9877FD05C075
:104B900020910B01287020930901B7FD05C0809179
:104BA00033058111EDC114985A88552021F0809168
:104BB0008400909185002A8921502A8BE0E0211100
:104BC0007ACE8091720590917305A0917405B09191
:104BD0007505892B8A2B8B2B09F081C1E091760515
:104BE000F0917705309709F491C580916E05909109
:104BF0006F05A0917005B091710540916A055091C3
:104C00006B0560916C0570916D0584179507A6077B
:104C1000B70708F4B7C11092770510927605109285
:104C200069059091041080910510981709F46EC5DC
:104C3000809105108F5F8F708093051070EDC72EE7
:104C400077E0D72EE12CF12C8091760590917705B5
:104C5000892B09F03CC10E94BC1590937705809385
:104C60007605892B09F433C1E0917605F09177053B
:104C7000808183FD2FC5458956896789708DC18CD8
:104C8000D28CE38CF48CDF01AA5BBF4F8C918A8BB2
:104C900081E04C155D056E057F0509F033C580E0A8
:104CA000411551056105710551F02A8921709A89D4
:104CB0009695917081E0291380E0291323C5058D15
:104CC000168D278D30A1011511052105310509F03B
:104CD00084608093690510925805109259051092CE
:104CE0005A0510925B0510926105109262051092B0
:104CF00063051092640585A196A1A7A1B0A5809334
:104D00006A0590936B05A0936C05B0936D0588249C
:104D100099245401881A990AAA0ABB0A8092480564
:104D200090924905A0924A05B0924B0580924C059D
:104D300090924D05A0924E05B0924F05809250057D
:104D400090925105A0925205B0925305809254055D
:104D500090925505A0925605B092570581A092A059
:104D6000A3A0B4A0880C991CAA1CBB1C440F551FFF
:104D7000661F771F409338055093390560933A05B5
:104D800070933B05CC0CDD1CEE1CFF1CC0923C0557
:104D9000D0923D05E0923E05F0923F05000F111FB5
:104DA000221F331F009340051093410520934205B5
:104DB000309343058092440590924505A0924605A4
:104DC000B0924705880F991FAA1FBB1F8093340517
:104DD00090933505A0933605B093370510926E0574
:104DE00010926F05109270051092710582A593A51F
:104DF000A4A5B5A58093650590936605A093670566
:104E0000B093680586A597A5A0A9B1A980935D0573
:104E100090935E05A0935F05B093600581A5809394
:104E2000330590911906AA899A1304C0909128021B
:104E3000891731F080932802BA89B09319064BD8AC
:104E400037DC44244A94542C320140922902509277
:104E50002A0260922B0270922C02E0917605F0916A
:104E60007705DF01DE96ED90FD900D911C9122A952
:104E700033A944A955A9E55BFF4F60817181828107
:104E800093810E94561310925C05E0917605F09193
:104E90007705E55BFF4F60817181828193810E947C
:104EA000399D6B017C018091610590916205A09113
:104EB0006305B09164058C0D9D1DAE1DBF1D8093D3
:104EC000610590936205A0936305B0936405C09259
:104ED0007205D0927305E0927405F0927505809189
:104EE000720590917305A0917405B0917505AC01A0
:104EF000BD01009721E0A207B10520F04FEF5FEF61
:104F000060E070E0841B950BA60BB70B80937205D5
:104F100090937305A0937405B0937505F8948091F0
:104F2000840090918500409639893150398B332324
:104F300009F4EAC3240E351E2816390608F454CCA9
:104F40003092890020928800789462960FB6F89487
:104F5000DEBF0FBECDBFDF91CF911F910F91FF90AC
:104F6000EF90DF90CF90BF90AF909F908F907F9009
:104F70006F905F904F903F902F900895419AFACD97
:104F8000419812CE40916505509166056091670584
:104F900070916805481759076A077B0708F4A2C192
:104FA00040916105509162056091630570916405BF
:104FB00086A997A9A0ADB1AD481759076A077B0725
:104FC00008F08BC1411551056105710529F58091E6
:104FD000D7039091D803A091D903B091DA03BC0113
:104FE0002A2F9B2F822F0E94399D6B017C0180917B
:104FF000610590916205A0916305B09164058C0DE7
:105000009D1DAE1DBF1D8093610590936205A09309
:105010006305B093640518CEF0E0E981CA01262F3C
:10502000AA817B816C815D814E81BF8138854091F1
:10503000D303489F612D5527B091D403B89F600DCD
:10504000511D1090D503189E500D499F600D511DA4
:10505000B99F500D429F500DA62F752FA69F412D31
:10506000BB273327A59F400DB11D3F1F769F400DE5
:10507000B11D3F1F759FB00D311DAB2F732FA69F24
:10508000E12DBB273327A59FE00DB11D3F1F769F64
:10509000E00DB11D3F1F759FB00D311DAB2F732F5C
:1050A00044278091D7039091D8032091D903009091
:1050B000D2030F2A09F483C0B091CE03BA9F4119DD
:1050C0008F0B9F0B2F0B3091CF033A9F4019810913
:1050D0009F0B2F0BE091D003EA9F801991092F0BB2
:1050E000B79F401981099F0B2F0B379F801991099A
:1050F0002F0BE79F90192109A69FE12DBB2733278E
:10510000A59FE00DB11D3F1F769FE00DB11D3F1F14
:10511000759FB00D311DAB2F732FB091CA03BA9F8D
:10512000410D8F1F9F1F2F1F3091CB033A9F400DC2
:10513000811D9F1F2F1FE091CC03EA9F800D911DC1
:105140002F1FB79F400D811D9F1F2F1F379F800D61
:10515000911D2F1FE79F900D211DA69FE12DBB27BD
:105160003327A59FE00DB11D3F1F769FE00DB11DB8
:105170003F1F759FB00D311DAB2F732FB091C6032C
:10518000BA9F41198F0B9F0B2F0B3091C7033A9F8A
:10519000401981099F0B2F0BE091C803EA9F8019EA
:1051A00091092F0BB79F401981099F0B2F0B379F38
:1051B000801991092F0BE79F9019210982C0B091A6
:1051C000CE03BA9F410D8F1F9F1F2F1F3091CF031A
:1051D0003A9F400D811D9F1F2F1FE091D003EA9F32
:1051E000800D911D2F1FB79F400D811D9F1F2F1FE9
:1051F000379F800D911D2F1FE79F900D211DA69FAA
:10520000E12DBB273327A59FE00DB11D3F1F769FE2
:10521000E00DB11D3F1F759FB00D311DAB2F732FDA
:10522000B091CA03BA9F41198F0B9F0B2F0B30917E
:10523000CB033A9F401981099F0B2F0BE091CC03C0
:10524000EA9F801991092F0BB79F401981099F0B85
:105250002F0B379F801991092F0BE79F9019210978
:10526000A69FE12DBB273327A59FE00DB11D3F1F52
:10527000769FE00DB11D3F1F759FB00D311DAB2F07
:10528000732FB091C603BA9F410D8F1F9F1F2F1F11
:105290003091C7033A9F400D811D9F1F2F1FE09142
:1052A000C803EA9F800D911D2F1FB79F400D811DE0
:1052B0009F1F2F1F379F800D911D2F1FE79F900D60
:1052C000211D1124E983AA837B836C835D834E8334
:1052D000BF833887B0E0A22F82CE62A973A924A928
:1052E00095A980CE40915D0550915E0560915F0566
:1052F00070916005481759076A077B0708F0C7C116
:1053000080915C05811138C0DF01AE5BBF4FED902D
:10531000FD900D911C9113971D962D913D914D91EE
:105320005C9162A973A984A995A90E94561331E0E2
:1053300030935C05E0917605F091770562A973A939
:1053400024A995A9822F0E94399D6B017C0180912F
:10535000580590915905A0915A05B0915B058C0DA7
:105360009D1DAE1DBF1D8093580590935905A093B8
:105370005A05B0935B0568CC40915805509159058A
:1053800060915A0570915B0582AD93ADA4ADB5AD4A
:10539000481759076A077B0708F072C14115510584
:1053A0006105710561F48091D7039091D803A091B4
:1053B000D903B091DA03BC012A2F9B2FC3CFE0E0C1
:1053C000F985CA01262FBA85AB857C856D855E85FA
:1053D0004F8538895091D303589F712D662740918E
:1053E000D403489F700D611D1090D503189E600D69
:1053F000599F700D611D499F600D529F600DB72F21
:10540000A62FB79F512D44273327B69F500D411D1E
:105410003E1FA79F500D411D3E1FA69F400D311DF1
:10542000B42FA32FB79FF12D44273327B69FF00D3C
:10543000411D3E1FA79FF00D411D3E1FA69F400D21
:10544000311DB42FA32F55278091D7039091D803F6
:105450002091D9030090D2030E2A09F483C0409111
:10546000CE034B9F51198E0B9E0B2E0B3091CF0309
:105470003B9F501981099E0B2E0BF091D003FB9F8F
:10548000801991092E0B4A9F501981099E0B2E0BF2
:105490003A9F801991092E0BFA9F90192109B79F05
:1054A000F12D44273327B69FF00D411D3E1FA79FC6
:1054B000F00D411D3E1FA69F400D311DB42FA32F9F
:1054C0004091CA034B9F510D8E1F9E1F2E1F30917E
:1054D000CB033B9F500D811D9E1F2E1FF091CC03CF
:1054E000FB9F800D911D2E1F4A9F500D811D9E1FF9
:1054F0002E1F3A9F800D911D2E1FFA9F900D211D8A
:10550000B79FF12D44273327B69FF00D411D3E1F55
:10551000A79FF00D411D3E1FA69F400D311DB42FCA
:10552000A32F4091C6034B9F51198E0B9E0B2E0B40
:105530003091C7033B9F501981099E0B2E0BF091B0
:10554000C803FB9F801991092E0B4A9F50198109AE
:105550009E0B2E0B3A9F801991092E0BFA9F9019E2
:10556000210982C04091CE034B9F510D8E1F9E1F7B
:105570002E1F3091CF033B9F500D811D9E1F2E1F6C
:10558000F091D003FB9F800D911D2E1F4A9F500D5F
:10559000811D9E1F2E1F3A9F800D911D2E1FFA9F69
:1055A000900D211DB79FF12D44273327B69FF00D95
:1055B000411D3E1FA79FF00D411D3E1FA69F400DA0
:1055C000311DB42FA32F4091CA034B9F51198E0B4D
:1055D0009E0B2E0B3091CB033B9F501981099E0BE4
:1055E0002E0BF091CC03FB9F801991092E0B4A9F43
:1055F000501981099E0B2E0B3A9F801991092E0B91
:10560000FA9F90192109B79FF12D44273327B69FA0
:10561000F00D411D3E1FA79FF00D411D3E1FA69F8F
:10562000400D311DB42FA32F4091C6034B9F510D48
:105630008E1F9E1F2E1F3091C7033B9F500D811D53
:105640009E1F2E1FF091C803FB9F800D911D2E1FE2
:105650004A9F500D811D9E1F2E1F3A9F800D911D48
:105660002E1FFA9F900D211D1124F987BA87AB8751
:105670007C876D875E874F87388BB0E0A22F9BCEEB
:10568000E15BFF4F60817181228193815BCE8091CC
:10569000290290912A02A0912B02B0912C02B7FF0F
:1056A00010C0E95BFF4F60817181828193810E940C
:1056B000399D6093290270932A0280932B02909364
:1056C0002C02C0902902D0902A02E0902B02F09088
:1056D0002C02BACACF0145960E945FB2109277059C
:1056E0001092760510926905909104108091051032
:1056F000981709F4B0CA809105108F5F8F7080935E
:105700000510A9CA8260DBCA1C011ACC80EDC82E24
:1057100087E0D82EE12CF12C9ECA109265041092DD
:105720005D0410925E0410925F0410926004109267
:105730006104109262041092630410926404109247
:10574000590410925A0410925B0410925C0408955C
:10575000809165048130E9F08230C9F40E941C1DFB
:105760006093590470935A0480935B0490935C0493
:1057700081E0809365040E9494A060935D0470931F
:105780005E0480935F049093600481E00895C5DF18
:10579000EFCF80E00895809165048150823070F4ED
:1057A000109265040E9494A0609361047093620457
:1057B000809363049093640481E0089580E00895E9
:1057C000282F30E094E0359527959A95E1F797E3F7
:1057D0002A3008F490E3920F909315028F7097E3AC
:1057E0008A3008F490E3890F8093160285E192E0F5
:1057F0000895CF93DF93C091B805D091B905209754
:1058000029F16091B4057091B5058091B60590912C
:10581000B7050E94C5C56E5F7F4F24976C177D0743
:10582000ACF470939705609396050E9494A060581D
:10583000774C8E4F9F4F6093980570939905809396
:105840009A0590939B05DF91CF910895109298054A
:105850001092990510929A0510929B05F4CF0F9320
:105860001F93CF93DF93082F10E097E1899FF001FA
:105870001124E554FA4FC085D185209729F1648120
:105880007581868197810E94C5C56E5F7F4F259780
:105890006C177D07CCF486E0809FE001819FD00DDE
:1058A0001124C456DA4F798368830E9494A060540F
:1058B0007B428E4F9F4F6A837B838C839D83DF91D6
:1058C000CF911F910F91089586E0809FF001819FF5
:1058D000F00D1124E456FA4F1282138214821582BD
:1058E000EECFE62FF0E027E1629FD0011124A5540E
:1058F000BA4FEE0FFF1FE35EFC4F208131812F5026
:105900003109821793070CF49C0119963C932E934E
:105910001897862FA4CF0C9498978F929F92AF924E
:10592000BF92CF92DF92EF92FF920F931F93CF938C
:10593000DF9310925104109250042FE320935404EB
:10594000109253041092520410924C0410924D0481
:1059500010924E0410924F049C01F90190812F5F28
:105960003F4F9032D1F39E34C9F4818190ED980F6E
:105970009A3020F08D3211F08B3281F432969F01F3
:105980002F5F3F4F808180538A3008F46BC09F01A6
:105990002F5F3F4F8081803209F466C0F093B907D2
:1059A000E093B8078F010F5F1F4FC0816AE270E07C
:1059B000C8010E944DC7009731F0FC0131978081EA
:1059C0008032E1F31182CD3421F0C43511F0C734B7
:1059D000E1F5F80180810F5F1F4F8032D1F38053D2
:1059E0008A3098F5C093540430E020E06AE0AF01BB
:1059F0004F5F5F4F629FC001639F900D11249C0118
:105A0000205331098081280F311D87FD3A95FA0115
:105A1000808180538A3058F330935304209352048A
:105A2000DF0131968C918032D9F3CD3449F52E3196
:105A3000310539F0D8F42731310519F02C31310511
:105A4000F9F4B0935104A0935004DF91CF911F91CA
:105A50000F91FF90EF90DF90CF90BF90AF909F900D
:105A60008F900895F9018BCFF90191CF253731053A
:105A700038F02737310528F3203A83E0380709F357
:105A8000D091B80740E050E0BA0110E000E0C12C2E
:105A9000D12C7601C394FD0131968C91882309F4B1
:105AA0007FC08132E1F4CD34D1F420323105B9F434
:105AB00040934C0450934D0460934E0470934F04F4
:105AC000F0935104E093500463E270E0CF010E9430
:105AD0004DC7009709F4B9CFFC011082B6CF8154AD
