:100000000C9456130C9496130C9496130C9496130C
:100010000C9496130C9496130C9496130C949613BC
:100020000C9496130C943E980C943E980C943E9825
:100030000C9496130C9496130C9496130C9496139C
:100040000C9496130C9420B50C9496130C94961360
:100050000C9496130C94A5A40C9496130C94B39C36
:100060000C9496130C94D38C0C94C98C0C9496130A
:100070000C9496130C9496130C9496130C9496135C
:100080000C946A280C9496130C9496130C94961363
:100090000C9496130C9496130C9496130C9496133C
:1000A0000C9496130C9496130C943C280C94961371
:1000B0000C9496130C9496130C9496130C9496131C
:1000C0000C9496130C9496130C9496130C9496130C
:1000D0000C9496130C9496130C9496130C949613FC
:1000E0000C949613084AD73B3BCE016E84BCBFFDEF
:1000F000C12F3D6C74319ABD56833DDA3D00C77FF8
:1001000011BED9E4BB4C3E916BAAAABE0000008090
:100110003F05A84CCDB2D44EB93836A9020C50B91F
:10012000918688083CA6AAAA2ABE000000803F004B
:100130004E414E494E495459494E46CDCCCC3D0ACC
:10014000D7233C17B7D13877CC2B329595E6241FAF
:10015000B14F0A000020410000C84200401C462068
:10016000BCBE4CCA1B0E5AAEC59D74434F4D4D5577
:100170004E49434154494F4E0044525952554E0046
:100180004552524F525300494E464F004543484F47
:10019000005072696E7465722073746F707065645C
:1001A0002064756520746F206572726F72732E20E3
:1001B00046697820746865206572726F7220616E7E
:1001C0006420757365204D39393920746F2072654C
:1001D00073746172742E202854656D706572617439
:1001E0007572652069732072657365742E2053657E
:1001F000742069742061667465722072657374611D
:100200007274696E67290A004E6F20436865636BDC
:1002100073756D2077697468206C696E65206E75E2
:100220006D6265722C204C617374204C696E653A66
:100230002000636865636B73756D206D69736D6114
:100240007463682C204C617374204C696E653A208D
:10025000004C696E65204E756D6265722069732071
:100260006E6F74204C617374204C696E65204E75FE
:100270006D6265722B312C204C617374204C696E59
:10028000653A20004D3131300053657269616C2050
:10029000737461747573206D69736D617463680A3A
:1002A00000746F6F206D75636820696E6163746997
:1002B00076652074696D65202D2063757272656E98
:1002C0007420636F6D6D616E643A20002121204BB4
:1002D000494C4C206361757365642062792000622B
:1002E0007573793A2070617573656420666F72204A
:1002F000696E7075740A00627573793A2070617561
:1003000073656420666F7220757365720A0062758A
:1003100073793A2070726F63657373696E670A0050
:100320006563686F3A004572726F723A004F4646D5
:10033000004F4E0066616C73650074727565004213
:10034000696C696E656172204C6576656C696E6773
:1003500020477269643A0A00303D2E33323500314D
:100360003D2E3138006D6178002F3331002F33314D
:10037000002F333100303D2E33323500313D2E31E8
:1003800038006D6178002F3331002F3331002F3367
:100390003100303D2E33323500313D2E3138006D85
:1003A0006178002F3331002F3331002F333100308B
:1003B0003D2E33323500313D2E3138006D617800ED
:1003C0002F3331002F3331002F333100303D2E33A6
:1003D000323500313D2E3138006D6178002F3331D8
:1003E000002F3331002F3331000920426164207225
:1003F0006573706F6E73652100092042616420721D
:100400006573706F6E73652100092042616420720C
:100410006573706F6E7365210009204261642072FC
:100420006573706F6E7365210009204261642072EC
:100430006573706F6E736521004C4F5700484947D4
:1004400048004F4B004572726F723A20416C6C202D
:100450000020636F6E6E656374696F6E2E2E2E20A2
:100460000054657374696E6720004C4F570048490B
:100470004748004F4B004572726F723A20416C6CD6
:10048000200020636F6E6E656374696F6E2E2E2E72
:10049000200054657374696E6720004C4F57004804
:1004A000494748004F4B004572726F723A20416CC9
:1004B0006C200020636F6E6E656374696F6E2E2E04
:1004C0002E200054657374696E6720004C4F5700EE
:1004D00048494748004F4B004572726F723A2041BD
:1004E0006C6C200020636F6E6E656374696F6E2E96
:1004F0002E2E200054657374696E6720004C4F5790
:100500000048494748004F4B004572726F723A20CD
:10051000416C6C200020636F6E6E656374696F6E52
:100520002E2E2E200054657374696E67200042657C
:1005300064204C6576656C696E6720004661696C65
:10054000656420746F20656E61626C65204265642D
:10055000204C6576656C696E670A00496E76616C41
:100560006964206D6573682E0A002E0A002F005002
:10057000726F62696E67206D65736820706F696E57
:10058000742000202844525952554E2900473239D0
:10059000204175746F20426564204C6576656C69F6
:1005A0006E67003F20284C2C522C462C4229206F8D
:1005B0007574206F6620626F756E64732E0A003F3B
:1005C0002856296572626F7365206C6576656C20AC
:1005D000696D706C61757369626C652028302D34AB
:1005E000292E0A00426164205A2076616C75650AE2
:1005F000004E6F2062696C696E6561722067726976
:10060000640A0020440020204D3230302054002065
:10061000204D323030205300202844697361626CD1
:100620006564293A0046696C616D656E7420736576
:100630007474696E67730020204D32303120580089
:100640004D617820416363656C65726174696F6E9A
:100650002028756E6974732F7332290020204D3263
:1006600030332058004D617820666565647261748E
:1006700065732028756E6974732F732900205200EA
:1006800020204D323034205000416363656C657228
:100690006174696F6E2028756E6974732F733229C7
:1006A0002028503C7072696E742D616363656C3EE6
:1006B00020523C726574726163742D616363656C72
:1006C0003E20543C74726176656C2D616363656C89
:1006D0003E2900204A0020540020530020204D32A3
:1006E0003035204200416476616E636564202842A3
:1006F0003C6D696E5F7365676D656E745F74696D7F
:10070000655F75733E20533C6D696E5F6665656419
:10071000726174653E20543C6D696E5F74726176DF
:10072000656C5F66656564726174653E204A3C6A0B
:10073000756E635F6465763E290020204D32313747
:1007400000546F6F6C2D6368616E67696E6700207F
:10075000204D323138205400486F74656E64206F2C
:100760006666736574730020440020490020204DA4
:10077000333031205000486F74656E642050494416
:100780000020440020204D353933205920460020D8
:10079000440020204D3539332058204600496E70E2
:1007A00075742053686170696E67004452565F53D8
:1007B0005441545553090050574D5F5343414C45E4
:1007C000090050574D434F4E460900434F4F4C438D
:1007D0004F4E46090043484F50434F4E4609005480
:1007E0004849474809090054434F4F4C5448525315
:1007F00009005450574D544852530900545354451E
:100800005009090054504F574552444F574E090064
:10081000494F494E090900475354415409090049B9
:10082000484F4C445F4952554E090047434F4E468E
:10083000090900090044726976657220726567696A
:1008400073746572733A0A007332767362090073C7
:100850003276736109003132304309003134334359
:1008600009003135304309003135374309006F74D1
:1008700009006F7470770900733267610900733281
:10088000676209006F6C6109006F6C620900737424
:100890007374090073675F726573756C74004452FA
:1008A0005653544154555300755374657020636F0B
:1008B000756E74005374616C6C677561726420743A
:1008C00068727300202D7374617274090068797303
:1008D000746572657369730A202D656E6409006220
:1008E0006C616E6B2074696D65006F66662074695B
:1008F0006D650070776D2067726164206175746F3B
:100900000070776D206F6666736574206175746F13
:100910000070776D207363616C65206175746F0082
:1009200070776D207363616C652073756D004F5433
:10093000207072657761726E005B6D6D2F735D095B
:100940000050574D207468726573682E007473747C
:1009500065700900696E7465727009006D73746565
:1009600070730900737465616C746843686F70001C
:100970007673656E7365090050574D207363616C23
:10098000650043532061637475616C00486F6C644B
:100990002063757272656E740052756E2063757295
:1009A00072656E74004D41582063757272656E7485
:1009B00000524D532063757272656E7400536574F6
:1009C0002063757272656E7400456E61626C656459
:1009D00009004164647265737309000900737072E1
:1009E0006561644379636C6500737465616C7468F8
:1009F00043686F700020647269766572206D6F6461
:100A0000653A09007370726561644379636C6500CF
:100A1000737465616C746843686F700020647269F8
:100A2000766572206D6F64653A0900737072656156
:100A3000644379636C6500737465616C74684368C2
:100A40006F700020647269766572206D6F64653A1C
:100A500009007370726561644379636C6500737437
:100A600065616C746843686F7000206472697665B4
:100A700072206D6F64653A0900737072656164433A
:100A800079636C6500737465616C746843686F703A
:100A90000020647269766572206D6F64653A0900A2
:100AA000202E68737472743A2000202E68656E647C
:100AB0003A20002063686F70706572202E746F6634
:100AC000663A2000202E68737472743A2000202E3B
:100AD00068656E643A20002063686F7070657220EC
:100AE0002E746F66663A2000202E68737472743A12
:100AF0002000202E68656E643A20002063686F70C5
:100B0000706572202E746F66663A2000202E68731E
:100B10007472743A2000202E68656E643A200020BA
:100B200063686F70706572202E746F66663A20007D
:100B3000202E68737472743A2000202E68656E64EB
:100B40003A20002063686F70706572202E746F66A3
:100B5000663A20003F53206F7574206F66207261E3
:100B60006E67652028312E2E38290A003F50206FED
:100B70007574206F662072616E676520282D332E94
:100B80002E3132290A003F4F206F7574206F662086
:100B900072616E67652028312E2E3135290A003B9F
:100BA000200020496E76616C6964206578747275E6
:100BB000646572200047322F4733206261642070E1
:100BC0006172616D65746572730A00473238002086
:100BD0005A3A200020593A200042656420583A20B1
:100BE000004D65736820706F696E74206F75742096
:100BF0006F662072616E67650A002569730025695A
:100C00006D20256973002569682025696D20256997
:100C10007300256964202569682025696D20256990
:100C20007300256979202569642025696820256974
:100C30006D20256973005072696E742074696D654A
:100C40003A20006F6B006F6666008C01870180019F
:100C500079016B0144454255473A004D313132200C
:100C600053687574646F776E004D313133205300D3
:100C70002F2F003F4A206F7574206F662072616EBF
:100C800067652028302E303120746F20302E3329B4
:100C90000A0020204D61783A2000200020204D6974
:100CA0006E3A2000203B200020204D32313120536D
:100CB00000536F667420656E6473746F70730046C2
:100CC000523A0020466C6F773A20003A20002053B9
:100CD0006572766F2000206F7574206F66207261D8
:100CE0006E67650A00536572766F200050726F62FE
:100CF00065204F6666736574205A0050726F626596
:100D0000204F6666736574205A00496E76616C697F
:100D1000642065787472756465720A006469730092
:100D2000656E0043290A0061626C656420286D6964
:100D30006E2074656D702000436F6C64206578745C
:100D400072756465732061726520004D3432312004
:100D5000696E636F727265637420706172616D6534
:100D60007465722075736167650A004D657368204C
:100D7000706F696E74206F7574206F662072616E7B
:100D800067650A00546F6F206661722066726F6D2E
:100D9000207265666572656E636520706F696E743A
:100DA0000A00454550524F4D204F4B0A00206F72AC
:100DB000203020746F2064697361626C650A003FA3
:100DC0004672657175656E637920284629206D75B8
:100DD000737420626520677265617465722074683F
:100DE000616E20003F5A6574612028442920766195
:100DF0006C7565206F7574206F662072616E676513
:100E00002028302D31290A00290A0020746F200083
:100E10003F5A206F7574206F662072616E6765207F
:100E20002800290A0020746F20003F59206F757434
:100E3000206F662072616E676520282D00290A00E8
:100E400020746F20003F58206F7574206F662072E9
:100E5000616E676520282D002064726976657220B6
:100E600063757272656E743A2000206472697665EB
:100E7000722063757272656E743A20002064726924
:100E80007665722063757272656E743A2000206414
:100E900072697665722063757272656E743A2000AD
:100EA000206472697665722063757272656E743A39
:100EB00020006F6B0020204D323036205800486FE4
:100EC0006D65206F6666736574004361703A004318
:100ED0004F4E4649475F4558504F5254004D45418B
:100EE000545041434B00434F4F4C45525F54454D86
:100EF0005045524154555245004348414D42455298
:100F00005F54454D5045524154555245004241426F
:100F1000595354455050494E470041524353004D98
:100F20004F54494F4E5F4D4F44455300544845522E
:100F30004D414C5F50524F54454354494F4E00452C
:100F40005854454E4445445F4D3230004355535448
:100F50004F4D5F4649524D574152455F55504C4F9A
:100F60004144004C464E5F5752495445004C4F4E49
:100F7000475F46494C454E414D45004155544F52FF
:100F800045504F52545F53445F535441545553009E
:100F900053445F575249544500524550454154000F
:100FA0005344434152440050524F4D50545F5355A7
:100FB00050504F525400484F53545F414354494F8F
:100FC0004E5F434F4D4D414E445300454D455247B2
:100FD000454E43595F50415253455200434153459A
:100FE0005F4C494748545F4252494748544E455325
:100FF0005300544F47474C455F4C494748545300B2
:10100000534F4654574152455F504F574552004247
:1010100055494C445F50455243454E54004C45564B
:10102000454C494E475F44415441005A5F50524F2E
:1010300042450052554E4F5554004155544F4C4572
:1010400056454C005052494E545F4A4F4200505250
:101050004F4752455353004155544F5245504F52FC
:10106000545F54454D50004155544F5245504F52D6
:10107000545F504F5300564F4C554D4554524943C1
:1010800000454550524F4D0042494E4152595F462E
:10109000494C455F5452414E5346455200534552C8
:1010A00049414C5F584F4E5F584F464600464952A3
:1010B0004D574152455F4E414D453A4D61726C6905
:1010C0006E20322E312E3220284170722031302095
:1010D000323032332031353A34383A3530292053E2
:1010E0004F555243455F434F44455F55524C3A6715
:1010F00069746875622E636F6D2F4D61726C696ED5
:101100004669726D776172652F4D61726C696E20F0
:1011100050524F544F434F4C5F56455253494F4ED8
:101120003A312E30204D414348494E455F54595085
:10113000453A4A756C69612050726F204475616C44
:10114000203234562041424C207769746820544D37
:101150004332323039206F6E2055415254206D6F2A
:101160006465206F6E204D4B532047656E4C2056B2
:10117000322E31204D61726C696E20322E312E324A
:101180002045585452554445525F434F554E543AAA
:101190003220555549443A63656465326132662DA3
:1011A000343161322D343734382D396231322D6388
:1011B000353563363266333637666600203B0020AD
:1011C000204D3835312058005A2D50726F626520FD
:1011D0004F66667365740020573A0020573A002026
:1011E0006661696C65642120426164206865617490
:1011F00065722069640A00504944204175746F7417
:10120000756E650023646566696E652044454641D8
:10121000554C545F004B6420004B6920004B7020FC
:10122000002066696E6973686564212050757420BA
:10123000746865206C617374204B702C204B69209E
:10124000616E64204B6420636F6E7374616E74739F
:101250002066726F6D2062656C6F7720696E746FA7
:1012600020436F6E66696775726174696F6E2E6870
:101270000A00504944204175746F74756E650020F2
:101280006661696C6564212074696D656F75740AA7
:1012900000504944204175746F74756E6500206676
:1012A00061696C6564212054656D70657261747547
:1012B000726520746F6F20686967680A005049443E
:1012C000204175746F74756E6500204B643A200080
:1012D000204B693A2000204B703A200020436C617B
:1012E0007373696320504944200A002054753A20E2
:1012F00000204B753A2000206D61783A2000206D67
:10130000696E3A200020643A200020626961733AD5
:1013100020002073746172740A00504944204175A2
:10132000746F74756E6500206661696C6564212058
:1013300054656D706572617475726520746F6F208D
:10134000686967680A00504944204175746F747574
:101350006E65006F70656E005452494747455245AF
:1013600044003A20007A5F70726F6265007A5F6DA8
:10137000617800795F6D617800785F6D696E005209
:1013800065706F7274696E6720656E6473746F70D8
:10139000207374617475730A000000B9430080C53E
:1013A000430000C8430000000000000000000000EF
:1013B0000020746F6F206C6F6E6720657874727593
:1013C00073696F6E2070726576656E7465640A006D
:1013D00020636F6C6420657874727573696F6E201A
:1013E00070726576656E7465640A00000020C20044
:1013F00080C5430000C8435761726E696E673A202A
:10140000486F6D696E672042756D7020446976691A
:10141000736F72203C20310A000202040000B943BD
:101420000080C5430000C8430000A0400000A04069
:1014300000000040000000010000000100008000EA
:10144000555555000000400033333300AAAA2A0046
:101450004992240000002000C7711C0099991900CE
:10146000D1451700555515003BB113002449120012
:1014700011111100000010000F0F0F00E3380E00D3
:1014800043790D00CCCC0C00C3300C00E8A20B005B
:1014900064210B00AAAA0A00703D0A009DD8090029
:1014A000427B090092240900DCD3080088880800E8
:1014B0001042080000000800F0C1070087870700FD
:1014C00075500700711C07003EEB0600A1BC06002A
:1014D0006990060066660600703E06006118060008
:1014E00017F4050074D105005BB00500B29005004B
:1014F000627205005555050078390500B81E0500D3
:10150000050505004EEC040087D40400A1BD0400CD
:1015100090A7040049920400C17D0400EE69040014
:10152000C7560400444404005C320400082104004F
:1015300041100400000004003FF00300F8E0030045
:1015400026D20300C3C30300CCB503003AA80300AE
:101550000A9B0300388E0300C08103009F750300BF
:10156000D0690300505E03001D530300344803009C
:10157000913D03003333030016290300381F030095
:1015800097150300300C0300030303000BFA02005D
:1015900049F10200BAE802005CE002002DD8020026
:1015A0002DD0020059C80200B0C0020031B90200BB
:1015B000DAB10200AAAA0200A0A30200BC9C0200A9
:1015C000FA9502005C8F0200DF880200828202002E
:1015D000457C02002776020027700200436A020061
:1015E0007C640200D05E02003F590200C853020032
:1015F000FFFDFCFAF8F6F4F2F0EEECEAE9E7E5E3D9
:10160000E1E0DEDCDAD9D7D5D4D2D0CFCDCBCAC891
:10161000C7C5C3C2C0BFBDBCBAB9B7B6B4B3B2B018
:10162000AFADACAAA9A8A6A5A4A2A1A09E9D9C9A74
:1016300099989795949392908F8E8D8B8A898887AD
:101640008684838281807F7E7D7B7A7978777675C8
:1016500074737271706F6E6D6C6B6A6968676665C2
:1016600064636261605F5E5D5C5B5A5958585756AF
:10167000555453525150504F4E4D4C4B4A4A494885
:10168000474646454443424241403F3E3E3D3C3B47
:101690003B3A3938383736353534333232313030F9
:1016A0002F2E2E2D2C2B2B2A29292827272625259E
:1016B00024232322212120201F1E1E1D1C1C1B1B36
:1016C0001A191918181716161515141313121211C2
:1016D00011100F0F0E0E0D0D0C0C0B0A0A09090844
:1016E00008070706060505040403030202010000BB
:1016F000DB0FC93F45BCDA3F8FB30240FCF0274007
:1017000056946140FE4B9B4084A5D840E02318418D
:10171000346A5641E859974164DBD5416E27174238
:10172000B4B75542CE1A9742C8AED542B5885A438F
:10173000D40684BFA65FA7BF7443E0BF10B11AC030
:101740001C2C58C0E8F697C0B849D6C04E4E17C1F9
:1017500024D355C1802497C1A0B5D5C1121A17C290
:1017600044AE55C2781797C26CACD5C267885AC3CD
:1017700020746F6F206C6F6E67206578747275735C
:10178000696F6E2070726576656E7465640A0020FC
:10179000636F6C6420657874727573696F6E207006
:1017A000726576656E7465640A00290A00206279A4
:1017B0007465733B20637263200053657474696EB3
:1017C00067732053746F726564202800454550523A
:1017D0004F4D20496E697469616C697A65640A00CD
:1017E00048617264636F6465642044656661756C0A
:1017F000742053657474696E6773204C6F616465FF
:10180000640020286D6D2900203B204C6576656CB6
:10181000696E67200020204D34323020530041751E
:10182000746F20426564204C6576656C696E670054
:1018300020204D39303600205431204500205430CE
:101840002045005374657070657220647269766516
:10185000722063757272656E740020204D353639C2
:101860002053310054312045005430204500205889
:1018700000447269766572207374657070696E6772
:10188000206D6F646500204A0020204732392057C0
:1018900020490020204D3134392043203B20556E13
:1018A00069747320696E2043656C736975730A00EF
:1018B00054656D706572617475726520556E6974DA
:1018C00073002020473231203B004C696E65617205
:1018D00020556E69747300454550524F4D20646128
:1018E000746173697A65206572726F722E0A0029BD
:1018F0000A002062797465733B20637263200020C4
:1019000073746F7265642073657474696E67732095
:1019100072657472696576656420280020286361A9
:101920006C63756C6174656429210A0020213D2077
:1019300000454550524F4D20435243206D69736D11
:1019400061746368202D202873746F726564292088
:10195000002053697A653A2000496E6465783A2020
:101960000000004843000048430000A0410000344C
:10197000420000C8420000C842F0F7FB4300000CE0
:1019800043DC050000DC05000032000000102700E9
:1019900000204D61726C696E3D563837290A00454A
:1019A0004550524F4D2076657273696F6E206D6998
:1019B000736D617463682028454550524F4D3D005A
:1019C000423A0020436F756E7420413A0045006230
:1019D0006564002C2073797374656D2073746F7067
:1019E00070656421204865617465725F49443A20DE
:1019F000004572723A204D415854454D50004D41BA
:101A00005854454D5020747269676765726564006B
:101A100048656174696E67204661696C6564004859
:101A2000656174696E67206661696C6564001000A9
:101A3000600350012C0190012201D0011801100215
:101A40000E0170020401E002FA006003F0000004DD
:101A5000E600B004DC00A005D200B006C800000813
:101A6000BE00A009B400800BAA00D00DA000901009
:101A70009600C0138C0070178200901B7800102015
:101A80006E00C0246400E02D500080353C00A03A78
:101A90002800A03D1400003F0000A03FECFF45726D
:101AA000723A204D494E54454D50004D494E5445D3
:101AB0004D502074726967676572656400202F005D
:101AC0002040002042403A0020403A00496E7661B2
:101AD0006C69642065787472756465720A0041638C
:101AE000746976652045787472756465723A200071
:101AF0001000C90210012C014001220170011801DF
:101B0000B0010E01F00104015002FA00B002F00031
:101B10003003E600D003DC009004D2007005C8005A
:101B2000A006BE000008B400B009AA00D00BA000B7
:101B3000600E960060118C0000158200201978005C
:101B4000C01D6E00A0226400B0275A00902C5000E7
:101B500000314600E0343C0010383200903A280052
:101B6000603C1E00A03D1400803E0A00203F0000A3
:101B70002020506C616E6E657242756666657242B9
:101B8000797465733A20002046726565204D656D55
:101B90006F72793A200020436F6D70696C65643A0A
:101BA0002041707220313020323032330A00204C14
:101BB00061737420557064617465643A2032303208
:101BC000322D31322D3137207C20417574686F728F
:101BD0003A2028467261636B74616C20576F726B98
:101BE000732C2064656661756C7420636F6E666922
:101BF00067290A004D61726C696E20322E312E32D7
:101C00000A0020536F6674776172652052657365B0
:101C1000740A00205761746368646F6720526573AB
:101C200065740A002042726F776E206F75742052BF
:101C3000657365740A002045787465726E616C2066
:101C400052657365740A00506F77657255700A00AB
:101C500073746172740A0020503A00205A3A0020CE
:101C6000593A0020583A00656E6473746F7073209F
:101C70006869743A200000002100240027002A002F
:101C80002D003000330001010000040107010A01AA
:101C900000000A0B02090C0D0E08070304010000E6
:101CA0000000000000000000000000000000000034
:101CB00000000000000000000000000012111000F1
:101CC0000000000000000000000000000000000014
:101CD0000000000000000000200023002600290072
:101CE0002C002F0032000001000003010601090151
:101CF00000002200250028002B002E0031003400B7
:101D000002010000050108010B0105050505070595
:101D100008080808020202020A0A08080404040467
:101D20000101010101010101030303030303030393
:101D3000040707070C0C0C0C0C0C0C0C0202020222
:101D400006060606060606060B0B0B0B0B0B0B0B0B
:101D500001021020200808102040102040800201BD
:101D600002010804020101020408102040808040A2
:101D700020100804020180040201804020100804A1
:101D8000020108040201010204081020408001023F
:101D900004081020408024F404D9201BC40C5C0EDD
:101DA0009804C4095F0265077101F405F900FB049A
:101DB000B30048048700C1036900580355000303BA
:101DC0004500BE023A008402310053022A00290273
:101DD000250004022000E4011C00C8011900AF0125
:101DE00017009801140084011300710110006101B3
:101DF000100051010E0043010D0036010B002B01B4
:101E00000B0020010B00150109000C010900030162
:101E10000800FB000800F3000800EB000700E400E6
:101E20000600DE000600D8000600D2000600CC0046
:101E30000500C7000500C2000500BD000400B90090
:101E40000400B5000400B1000400AD000400A900C6
:101E50000400A5000300A20003009F0004009B00F3
:101E60000300980003009500020093000300900017
:101E700003008D0002008B00030088000200860032
:101E8000020084000300810002007F0002007D0048
:101E900002007B000200790002007700010076005A
:101EA00002007400020072000100710002006F0065
:101EB00002006D0001006C0002006A000100690070
:101EC0000200670001006600010065000100640077
:101ED00002006200010061000100600001005F007B
:101EE00002005D0001005C0001005B0001005A007F
:101EF0000100590001005800010057000100560080
:101F0000010055000100540001005300000053007F
:101F100001005200010051000100500001004F007B
:101F200001004E0000004E0001004D0001004C0079
:101F300001004B0000004B0001004A000100490075
:101F40000100480000004800010047000100460071
:101F5000000046000100450000004500010044006B
:101F60000100430000004300010042000000420065
:101F700001004100000041000100400001003F005D
:101F800000003F0001003E0000003E0001003D0057
:101F900000003D0001003C0000003C0000003C004F
:101FA00001003B0000003B0001003A0000003A0045
:101FB000010039000000390001003800000038003D
:101FC0000000380001003700000037000100360033
:101FD000000036000000360001003500000035002A
:101FE000000035000100340000003400000034001F
:101FF0000100330000003300000033000100320014
:102000000000320000003200010031000000310009
:1020100000003100010030000000300000003000FE
:1020200001002F0000002F0000002F0000002F00F3
:1020300001002E0000002E0000002E0001002D00E7
:1020400000002D0000002D0000002D0001002C00DC
:1020500000002C0000002C0000002C0001002B00D0
:1020600000002B0000002B0000002B0001002A00C4
:1020700000002A0000002A0000002A0001002900B8
:1020800000002900000029000000290000002900AC
:10209000010028000000280000002800000028009F
:1020A0000000280001002700000027000000270092
:1020B0000000270000002700010026000000260085
:1020C0000000260000002600000026000100250078
:1020D000000025000000250000002500000025006C
:1020E000000025000100240000002400000024005E
:1020F0000000240000002400010023000000230051
:102100000000230000002300000023000000230043
:102110000000230001002200000022000000220035
:102120000000220000002200000022000100210027
:10213000000021000000210000002100000021001B
:10214000000021000000210001002000000020000C
:1021500000002000000020000000200000002000FF
:10216000000020000000200001001F0000001F00F0
:1021700000001F0000001F0000001F0000001F00E3
:1021800000001F0001001E0000001E0000001E00D5
:1021900000001E00000024F4D43050C38E20C2A2E0
:1021A0004017828B7011127A910D816CD90AA86147
:1021B000E108C7586607615143061E4B5D05C145DE
:1021C000A7041A411104093D9803713931034036BF
:1021D000DB0265339102D4305402802E1D02632C41
:1021E000EE01752AC501B028A001102781018F25B5
:1021F00064012B244B01E0223401AC211F018D200E
:102200000D01801FFC00841EED00971DDF00B81C2F
:10221000D200E61BC600201BBC00641AB200B21933
:10222000A8000A19A0006A189900D1179100401758
:102230008B00B516840031167E00B31579003A156F
:102240007300C7146F0058146A00EE1366008813F9
:10225000630025135E00C7125B006C125700151255
:102260005400C111510070114F0021114B00D610C4
:1022700049008D1047004610440002104200C00F74
:102280004000800F3E00420F3C00060F3B00CB0E8B
:102290003800930E37005C0E3500270E3400F30D26
:1022A0003200C10D3100900D3000600D2E00320D56
:1022B0002D00050D2C00D90C2B00AE0C2900850C2F
:1022C00029005C0C2700350C27000E0C2600E80BBB
:1022D0002400C40B2400A00B23007D0B23005A0B09
:1022E0002100390B2100180B2000F80A1F00D90A21
:1022F0001E00BB0A1E009D0A1D00800A1D00630A05
:102300001C00470A1B002C0A1B00110A1A00F709BF
:102310001A00DD091900C4091900AB091900920956
:1023200017007B091800630917004C0916003609CD
:102330001600200916000A091500F5081500E00826
:102340001400CC081400B8081400A4081400900865
:1023500013007D0812006B0813005808120046088D
:10236000120034081100230811001208110001089E
:102370001100F0071000E0071000D0071000C007A0
:102380001000B0070F00A107100091070E0083078F
:102390000F0074070F0065070E0057070E0049076E
:1023A0000E003B070D002E070E0020070D0013073F
:1023B0000D0006070D00F9060C00ED060D00E00605
:1023C0000C00D4060C00C8060C00BC060C00B006BD
:1023D0000C00A4060B0099060C008D060B0082066B
:1023E0000B0077060B006C060B0061060A0057060F
:1023F0000B004C060A0042060A0038060A002E06A8
:102400000A0024060A001A060A0010060900070638
:102410000A00FD050900F4050900EB050900E205C5
:102420000900D9050900D0050900C7050900BE0546
:102430000900B5050800AD050800A50509009C05C3
:102440000800940508008C050800840508007C0538
:102450000800740508006C050700650508005D05A7
:102460000700560508004E05070047050700400510
:10247000080038050700310507002A050700230575
:1024800007001C050600160507000F0507000805D4
:10249000060002050700FB040600F5040700EE0431
:1024A0000600E8040600E2040700DB040600D50489
:1024B0000600CF040600C9040600C3040600BD04DC
:1024C0000600B7040600B1040500AC040600A6042B
:1024D0000600A00405009B04060095040500900476
:1024E00006008A04050085040500800406007A04BD
:1024F000050075040500700405006B040500660402
:102500000500610405005C04050057040500520441
:1025100005004D04050048040500430405003E0481
:1025200004003A04050035040500300404002C04BE
:10253000050027040400230405001E0404001A04F7
:10254000040016040500110404000D04040009042D
:1025500005000404040000040400FC030400F80364
:102560000400F4030400F0030400EC030400E80397
:102570000400E4030400E0030400DC030400D803C7
:102580000400D4030400D0030400CC030400C803F7
:102590000300C5030300181F0000EE140000A90C7F
:1025A000000011070000C1030000F0010000FC0062
:1025B00000007F000000486F6D696E67204661690A
:1025C0006C656400FF010150726F62696E6720469E
:1025D00061696C65640A00205A3A200020593A204B
:1025E0000042656420583A2000307800220A0055E5
:1025F0006E6B6E6F776E20636F6D6D616E643A20E7
:102600002200204500205A0020590020204D393258
:1026100020580053746570732070657220756E6960
:1026200074004572726F722077726974696E6720E8
:10263000746F20454550524F4D210A005448455271
:102640004D414C2052554E415741590054686572D6
:102650006D616C2052756E6177617900486F6D65B0
:1026600020257325732573204669727374002045F5
:102670003A00205A3A0020593A00583A006F6B0A43
:1026800000526573656E643A20005072696E74651D
:10269000722068616C7465642E206B696C6C2829EB
:1026A0002063616C6C6564210A006BBB11241FBE42
:1026B000CFEFD1E2DEBFCDBF00E00CBF84B7809387
:1026C0004E1414BE0FB6F894A895809160008861EE
:1026D00080936000109260000FBE13E0A0E0B2E0B3
:1026E000E2EAF0EA01E00BBF02C007900D92AE3CB7
:1026F000B107D9F724E1AEECB3E001C01D92AE34CE
:10270000B207E1F713E1C6E5D3E100E006C0219787
:102710000109802FFE010E94F7CCC535D10780E06A
:102720000807A9F70E9485BD0C944FD00C940000B7
:102730009F92AF92BF92CF92DF92EF92FF920F9350
:102740001F93CF93DF9300D01F921F92CDB7DEB7B8
:10275000E0EFF5E10027BB27462F572FA82FAA232C
:1027600041F4A52F542FB85FAA2319F4A52F55279C
:10277000B85FA03138F45295A295452F4F70507F25
:10278000A42BBC5FA03428F4550FAA1F550FAA1F15
:10279000BE5FA03818F4550FAA1FB395550FAA1F96
:1027A000EA0FF01F449151E0AA27B85079F1C0F028
:1027B000B0FF02C0440F551FB1FF04C0440F551FA6
:1027C000440F551FB2FF06C052954295142F1F703B
:1027D000407F512BB3FF1AC0A52F542F442716C09A
:1027E000B195B0FF02C055954795B1FF04C055950E
:1027F000479555954795B2FF05C05295407F429544
:10280000452B5F70B3FF02C0452F5527DD24CC2434
:10281000BB24B2E0649FD018C108B00AB00B749F0B
:10282000C018B108B00B849FB018B109659FC018DB
:10283000B108B00B759FB018B109859FB0196A9F98
:10284000B018B1097A9FB0194D9DA12C9924332756
:10285000992722275D9DA00C911C301F901F201FDF
:10286000AD9D900C311D901F201F4C9DA00C911C04
:10287000301F901F201F5C9D900C311D901F201F4A
:10288000AC9D300D911D201F4B9D900C311D901F54
:10289000201F5B9D300D911D201FAB9D900D211DB4
:1028A0004B9F300D911D201F5B9F900D211DAB9FF5
:1028B000200DB1E0BB24CC24DD24639FD018C108D7
:1028C000B00AB00B739FC018B108B00B839FB0184B
:1028D000B109699FC018B108B00B799FB018B10950
:1028E000899FB019629FB018B109729FB019D61AAA
:1028F000C70AB80A20F0B1E03B0F901F201F112437
:10290000792F632F90E0822F0F900F900F900F90F0
:102910000F90DF91CF911F910F91FF90EF90DF907B
:10292000CF90BF90AF909F900895AF92BF92CF92FB
:10293000DF92EF92FF920F931F93CF93DF93CCE739
:10294000DAE00EE914E08CE8A82E8AE0B82EC12C5B
:10295000D12C7601C39469917991899199910E94C2
:1029600097C8288939894A895B890E94F8C80E94DA
:10297000A1CEF80161937193819391938F01C61653
:10298000D706E806F90610F46B017C01AC16BD060B
:1029900011F76FEF7FEFCB01A70196010E946DCC7D
:1029A0002093AE043093AF044093B0045093B1042D
:1029B000DF91CF911F910F91FF90EF90DF90CF901B
:1029C000BF90AF9008957F928F929F92AF92BF92E7
:1029D000CF92DF92EF92FF920F931F93CF93DF93EB
:1029E0007090E804C6E8D4E09CE1C92E92E0D92EAC
:1029F00020E2E22E22E0F22E00EE14E0772009F42D
:102A00005EC0F80180809180A280B38020E030E039
:102A1000A901C501B4010E9493C8882309F44FC0DD
:102A200020E030E040E05FE3C501B4010E94F8C857
:102A30009B01AC010E94F8C82BED3FE049E450E453
:102A40000E94F8C89B01AC0160E070E080E89FE361
:102A50000E9434CE4B015C0189929992A992B9925D
:102A6000F601619171916F01072E000C880B990B93
:102A70000E9499C82AE037ED43E25CE30E94F8C85F
:102A8000A50194010E94F8C8F701619371938193A5
:102A900091937F010C5F1F4FF4E0CE38DF0709F000
:102AA000ADCFDF91CF911F910F91FF90EF90DF900D
:102AB000CF90BF90AF909F908F907F900895812C82
:102AC000912C80E8A82E8FE3B82EC6CFFC01708130
:102AD000472F50E0062E02C0559547950A94E2F71D
:102AE00040FF14C04091AC0850E0062E02C055953E
:102AF00047950A94E2F740FF09C021E030E001C0A9
:102B0000220F6A95EAF72095272320830895CF9313
:102B1000DF9324E0829FC0011124EC01CA5BDF4EE9
:102B2000FC01E252F74F86589B4FDC012D913D91FD
:102B30004D915C9160817181828193810E9458CD19
:102B4000688379838A839B83DF91CF9108958091F5
:102B5000760490917704A0917804B09179048093E1
:102B6000520290935302A0935402B0935502809165
:102B700074049091750490931B0280931A02089537
:102B80008091520290915302A0915402B09155024B
:102B90008093760490937704A0937804B09379049B
:102BA00080911A0290911B02909375048093740493
:102BB00084E690E090931B0280931A020895CF93CD
:102BC000DF939091670491111BC0C0911802D091BE
:102BD0001902219797E1899FF0011124E258F74FDC
:102BE00020E030E040E05FE3648175818681978179
:102BF0000E9458CD0E949CCE21E06C177D070CF0FE
:102C000020E0822FDF91CF91089590E080E0089539
:102C100020913004833021F425FD0CC024FD0CC02C
:102C200030E0A90102C0559547958A95E2F7CA019F
:102C30008170089581E0089580E0089580914C04AA
:102C400084FD0BC080914E0487FD07C090914F0416
:102C5000937081E019F480E0089581E008952FEBEE
:102C6000280F2A3108F047C0E22FF0E080914C0491
:102C700090914D04A0914E04B0914F0404C0B695BC
:102C8000A795979587952A95D2F780FD02C0817008
:102C90000895EE5CFB4FE081EE2341F180917A0ACA
:102CA00090917B0AE80FF92FF11D808190ED980F2C
:102CB0009A3030F08E3251F4818180538A3098F40A
:102CC000F0932D04E0932C0481E008958D3211F0EF
:102CD0008B3249F4818190ED980F9A3088F38E32CF
:102CE00011F48281EACFF0E0E0E0EACF10922D0407
:102CF00010922C04E9CF80E00895B1DF882341F0E1
:102D000081E020912C0430912D04232B09F480E0E4
:102D10000895FC01DB0112962D913D914C91149781
:102D200022833383448315968C9115978583169659
:102D30002D913D914C9118972683378340871996A2
:102D40004D915D916D917C911C974187528763876E
:102D500074871D964D915D916D917C91509745873B
:102D600056876787708B89EA93E0918380835196B9
:102D70008D919C915297928B818B53964D915D9141
:102D80006D917C915697438B548B658B768B5796C0
:102D90008C915797878B58968D919C915997918FCD
:102DA000808F5A968D919C915B97938F828F5C96C2
:102DB0008D919C915D97958F848F5E964D915D91DD
:102DC0006D917C919197468F578F60A371A39296D6
:102DD0004D915D916D917C91959742A353A364A30E
:102DE00075A396964D915D916D917C91999746A3AF
:102DF00057A360A771A79A968D919C919B9793A7D3
:102E000082A79C968D919C919D9795A784A79E964D
:102E10008D919C919F9797A786A7D0968D919C9115
:102E2000D19791AB80ABD2968C9182AB0895EBE1B8
:102E3000F4E080EF9FEFA9E7B4EC84839583A68349
:102E4000B78380839183A283B383E5E0F4E08DE9C7
:102E50008183808308958F929F92AF92BF92CF9289
:102E6000DF92EF92FF92FC0198E0A8EDB4E00190B0
:102E70000D929A95E1F788E0FB01AFECB4E0019088
:102E80000D928A95E1F7C090D804D090D904E090D3
:102E9000DA04F090DB0420E030E0A901C701B601BC
:102EA0000E9493C88823E1F1A701960160E070E0D9
:102EB00080E89FE30E9434CE6B017C018090DC04AB
:102EC0009090DD04A090DE04B090DF0420E030E0BC
:102ED000A901C501B4010E9493C8882329F1A50165
:102EE000940160E070E080E89FE30E9434CEC092DD
:102EF0001304D0921404E0921504F0921604609327
:102F00001704709318048093190490931A04FF9087
:102F1000EF90DF90CF90BF90AF909F908F900895EB
:102F2000C12CD12C7601CACF60E070E0CB01DFCF9D
:102F30001092D3041092D4041092D5041092D604A7
:102F40001092CF041092D0041092D1041092D204A7
:102F50001092DC041092DD041092DE041092DF0463
:102F60001092D8041092D9041092DA041092DB0463
:102F7000E9EEF4E080E090E0A0ECBFE7808391838D
:102F8000A283B38384839583A683B7838087918745
:102F9000A287B38784879587A687B787709625E031
:102FA000E932F20759F70895882319F0813021F0AA
:102FB000089580E00C9468A6479880915808806135
:102FC00080935808089540912D0521E0422768E03C
:102FD00070E00C941D9440912D0521E042276CE097
:102FE00070E00C941D9440912D0521E0422764E08F
:102FF00070E00C941D9440912D0521E0422761E082
:1030000070E00C941D9440912D0521E0422761E071
:1030100070E00C941D9440912D0521E0422768E05A
:1030200070E00C941D9440912D0521E042276CE046
:1030300070E00C941D9441E061E070E00C941D94EC
:1030400040912D0521E042270C941D94BC0190E095
:1030500080E00C9433926CE070E00C94639A61E031
:1030600070E00C94639A61E070E00C94639A6CE0F9
:1030700070E00C94639A64E070E00C94639A682F9B
:10308000880F770B880B990B0C949D920F931F93CD
:10309000CF93DF9300E91AE0C3EBD4E0F80121916C
:1030A0003191419151918F0160E070E080E89FE3A0
:1030B0000E9434CE6993799389939993F4E0C33C49
:1030C000DF0761F70E94F993DF91CF911F910F9174
:1030D0002CCC2F923F924F925F926F927F928F9261
:1030E0009F92AF92BF92CF92DF92EF92FF920F9397
:1030F0001F93CF93DF93CDB7DEB7A0970FB6F894A9
:10310000DEBF0FBECDBF1C017B015E834D83FC0182
:10311000E95BFF4F208131814281538129833A83CA
:103120004B835C83CA01B9010E9497C84B015C01C3
:10313000D7012D913D914D915C910E94F8C80E945C
:103140001ECE2B013C01ED81FE8120813181428127
:103150005381C501B4010E94F8C80E941ECE6B01C4
:103160007C01C301B2010E94A1CE69877A878B8757
:103170009C87683771058105910540F428E730E0A8
:1031800040E050E029873A874B875C87C701B6014A
:103190000E94A1CE6D877E878F87988B68377105D7
:1031A0008105910548F428E7C22ED12CE12CF12CA1
:1031B000CD86DE86EF86F88AD1019596CD90DD909A
:1031C000ED90FC909897CD82DE82EF82F886F10137
:1031D000ED5AFF4F60817181828193816115710584
:1031E0008105910509F49FC10E9499C86D8B7E8B62
:1031F0008F8B988F9B01AC0160E070E080E89FE3CB
:103200000E9434CE698F7A8F8B8F9C8F20E030E0C4
:1032100040E05FE30E94F8C86B017C01A5019401C6
:10322000C501B4010E94F8C82B013C016D857E8563
:103230008F8598890E9497C89B01AC010E94F8C8AD
:103240009B01AC01C301B2010E9457CDA7019601B9
:103250000E94F8C84B015C0169857A858B859C8545
:103260000E9497C89B01AC010E94F8C86D8F7E8FA9
:103270008F8F98A39B01AC01C301B2010E9457CD6F
:10328000A70196010E94F8C82B013C010E941ECEA6
:103290000E94A1CE6B017C01C501B4010E94CDCE7C
:1032A0000E94A1CE698B7A8B8B8B9C8BDC01CB012E
:1032B0008C0D9D1DAE1DBF1D2D813E814F815885FA
:1032C000281B390B4A0B5B0BDA01C901B7FF61C040
:1032D0006D817E818F8198850E9497C8A30192019C
:1032E0000E9458CDA50194010E9457CD20E030E006
:1032F00040E05FE30E94F8C80E941ECE6B017C0193
:1033000020E030E0A9010E947ECF18161CF0C12CED
:10331000D12C7601C701B6010E94A1CE6B017C01C0
:103320004D815E816F8178854C155D056E057F0549
:1033300010F46A017B016D817E818F8198856C1903
:103340007D098E099F09698B7A8B8B8B9C8BC701BA
:10335000B6010E9497C84B015C012D893E894F89B7
:10336000588DCA01B9010E9458CD9B01AC01C5011D
:10337000B4010E94F8C82D8D3E8D4F8D58A10E943A
:1033800058CD0E94C3CF0E94A1CE69837A838B83DC
:103390009C8320E034E244EF59E4698D7A8D8B8D73
:1033A0009C8D0E94F8C84B015C0169817A818B81F8
:1033B0009C8129853A854B855C85621B730B840B48
:1033C000950B0E9497C8A50194010E94F8C80E941D
:1033D000A1CE2B013C0169817A818B819C812D8555
:1033E0003E854F855889621B730B840B950B0E9499
:1033F00097C8A50194010E94F8C80E94A1CE4B0174
:103400005C013FE6431651046104710408F097C063
:10341000F201EE0FFF1FEE0FFF1FEC5CFB4E8591DC
:103420009591A591B4918C01AD8BBD834FE6841627
:103430009104A104B10408F089C0F401EE0FFF1F4C
:10344000EE0FFF1FEC5CFB4E459155916591749119
:103450009A01CB01D1019A96CD92DD92ED92FC9228
:103460009D9795964D915D916D917C919897C988A6
:10347000DA88EB88FC884C195D096E097F099E96F5
:103480004D935D936D937C93D197F101E55BFF4F75
:10349000C984DA84EB84FC84C082D182E282F38224
:1034A000D6964D925D926D927C92D997F10182AE43
:1034B00093AEA4AEB5AEFE9600831183CD88C282D2
:1034C000DD80D38234962083318382839383C980C5
:1034D000DA80EB80FC80D296CD92DD92ED92FC9268
:1034E000D5973D96CD84DE84EF84F888C082D18262
:1034F000E282F382A0960FB6F894DEBF0FBECDBF76
:10350000DF91CF911F910F91FF90EF90DF90CF90BF
:10351000BF90AF909F908F907F906F905F904F90F3
:103520003F902F900895198E1A8E1B8E1C8E198A2B
:103530001A8A1B8A1C8AC12CD12C76012ACFC3017E
:10354000B201F6D88B018D8B9D8370CFC501B4017C
:10355000EFD89B017FCF4F925F926F927F928F92B5
:103560009F92AF92BF92CF92DF92EF92FF920F9312
:103570001F93CF93DF93EC012091CF043091D004BF
:103580004091D1045091D204688179818A819B81D4
:103590000E9457CD6B017C012091D3043091D4045B
:1035A0004091D5045091D6046C817D818E819F819C
:1035B0000E9457CD4B015C01A701960160911B044D
:1035C00070911C0480911D0490911E040E9493C868
:1035D000882309F450C0C0921B04D0921C04E092CE
:1035E0001D04F0921E0420911304309114044091A4
:1035F000150450911604C701B6010E94F8C82B01AA
:103600003C010E94CDCE6B017C0120E030E0A9019D
:103610000E9493C887FD70C020E030E040E050E495
:10362000C701B6010E947ECF18162CF4C12CD12CF4
:10363000E12CA0E4FA2EA7019601C301B2010E9479
:1036400057CD60930B0470930C0480930D049093FA
:103650000E04C701B6010E949CCE60930904062E99
:10366000000C770B6F5F7F4F6330710514F063E0E0
:1036700070E060930704D0910504C0910904A5018E
:10368000940160911F047091200480912104909115
:1036900022040E9493C8811133C0DC1381C02091A1
:1036A000ED033091EE034091EF035091F0036091F0
:1036B0000B0470910C0480910D0490910E040E94F3
:1036C000F8C82091F1033091F2034091F303509137
:1036D000F4030E9458CDDF91CF911F910F91FF907D
:1036E000EF90DF90CF90BF90AF909F908F907F90A2
:1036F0006F905F904F900895C12CD12C76019BCF95
:1037000080921F0490922004A0922104B09222047F
:1037100020911704309118044091190450911A0413
:10372000C501B4010E94F8C84B015C010E94CDCED6
:103730006B017C0120E030E0A9010E9493C887FD65
:10374000F4C020E030E040E050E4C701B6010E9440
:103750007ECF18162CF4C12CD12CE12CF0E4FF2ED6
:10376000A7019601C501B4010E9457CD60930F04D3
:10377000709310048093110490931204C701B60152
:103780000E949CCE60930A04062E000C770B6F5F9C
:103790007F4F6330710514F063E070E060930804BC
:1037A00000910A04DC1305C080910604801709F417
:1037B00071C08091090490910A049093060480934B
:1037C0000504002E000C110B24E0C202C0011124DC
:1037D000FC01E00FF11FEE0FFF1FEE0FFF1FE7517F
:1037E000FB4F20813181428153812093010430932A
:1037F00002044093030450930404C09108040C2E67
:10380000000CDD0BFC01EC0FFD1FEE0FFF1FEE0F98
:10381000FF1FE751FB4F60817181828193810E947C
:1038200057CD6093FD037093FE038093FF03909345
:1038300000048091070424E08202C0011124FC01ED
:10384000E00FF11FEE0FFF1FEE0FFF1FE751FB4FC1
:1038500020813181428153812093F9033093FA030F
:103860004093FB035093FC03C80FD91FCC0FDD1FFF
:10387000CC0FDD1FC751DB4F688179818A819B8125
:103880000E9457CD6093F5037093F6038093F7037E
:103890009093F80380900F0490901004A09011046E
:1038A000B09012042091FD033091FE034091FF037C
:1038B00050910004C501B4010E94F8C82091010490
:1038C0003091020440910304509104040E9458CDA9
:1038D0006B017C01C092F103D092F203E092F303FA
:1038E000F092F4032091F5033091F6034091F70331
:1038F0005091F803C501B4010E94F8C82091F90362
:103900003091FA034091FB035091FC030E9458CD83
:10391000A70196010E9457CD6093ED037093EE03CB
:103920008093EF039093F003BACEC12CD12C760193
:1039300017CF0F931F9380916504813019F50E9472
:10394000229B00915D0410915E0420915F043091F0
:103950006004601B710B820B930B28EE33E040E098
:1039600050E00E946DCC6091590470915A0480918E
:103970005B0490915C04620F731F841F951F1F915D
:103980000F910895609161047091620480916304C5
:1039900090916404D6CF80912C0490912D040097CF
:1039A00031F04AE050E070E060E00C94D3C560E094
:1039B00070E0CB010895EFDF97FD0AC0ECDF6F3FA9
:1039C00071058105910509F02CF4E5DF862F089536
:1039D00080E008958FEF0895CF93C62F8ED9882366
:1039E00011F0CF91E8CF8C2FCF91089580912C04C6
:1039F00090912D04892B39F0DEDF91E0811101C017
:103A000090E0892F089591E0FCCFCF93DF93C82FEA
:103A1000D62F73D9882319F0DF91CF91E7CF8C2F60
:103A20001ED9811101C08D2FDF91CF910895B3DF91
:103A3000CB010895CF93DF93EB015FD9882319F071
:103A4000DF91CF91F4CFCE01DF91CF9108950F9305
:103A50001F93CF9380912C0490912D04009709F12E
:103A6000FC018F01C1912C2F2F7DA1F0C53431F0C5
:103A7000C53621F0C83511F0C83799F7F801108222
:103A800070E060E00E947EC4F801C083CF911F9176
:103A90000F91089570E060E0CF911F910F910C9409
:103AA0007EC460E070E0CB01F1CFCF92DF92EF9265
:103AB000FF926A017B0121D9882329F0FF90EF90C2
:103AC000DF90CF90C4CFC701B601FF90EF90DF9099
:103AD000CF9008954F925F926F927F92AF92BF9274
:103AE000CF92DF92EF92FF920F931F93CF9381E2D9
:103AF000A82E83E0B82E99ECE92E98E0F92E0CE67A
:103B000012E026E4C22E20E1D22EC0E0F501819120
:103B10005F01F3D8882309F476C099DF2B013C01BB
:103B20008C2F76D8882309F464C0F8012081318174
:103B300042815381C301B2010E9458CDF7016083D5
:103B4000718382839383CF5FF4E0EF0EF11C0C5FEF
:103B50001F4F84E0C80ED11CC330C1F685E4CDD818
:103B6000882309F45BC073DF6B017C0183E050D8CC
:103B7000882371F0209178023091790240917A0285
:103B800050917B02C701B6010E9458CD6B017C01A8
:103B9000C092D508D092D608E092D708F092D80803
:103BA00040E050E0BA0186E480DF20E030E0A90187
:103BB0000E947ECF18167CF44ADF20E030E040E718
:103BC00052E40E9434CE6093520270935302809369
:103BD000540290935502CF911F910F91FF90EF9057
:103BE000DF90CF90BF90AF907F906F905F904F909D
:103BF0000895F6012081318142815381C301B201D0
:103C00000E9457CD9BCFF80180819181A281B38121
:103C1000F70180839183A283B38395CF809178024B
:103C200090917902A0917A02B0917B028093D5089D
:103C30009093D608A093D708B093D808B1CFAF928D
:103C4000BF92CF92DF92EF92FF920F931F93CF9389
:103C50005C016B018A0182529C4F7C01DC01CC919A
:103C6000C7FF3DC0FB0111821082CF5FD701CC930B
:103C7000CC300CF053C08CE08A9DF0018B9DF00D90
:103C80001124CF018C0F911DC7FD9A952091D5125B
:103C90002817190609F00CF441C0F6012081318182
:103CA000FC01EE0FFF1FE80FF91FE357FD4E818166
:103CB0009281820F931FD80111969C938E938081DD
:103CC00087FF3DC061E08F77CF911F910F91FF90EB
:103CD000EF90DF90CF90BF90AF900C94BA988CE0AB
:103CE0008A9DF0018B9DF00D1124CF018C0F911D49
:103CF000C7FD9A952091D5122817190609F00CF4E2
:103D0000B4CFFC01EE0FFF1FE80FF91FE357FD4E84
:103D1000808160E08F770E94BA98A7CFF6018081FA
:103D2000918104968034FCE99F0710F480E49CE9BB
:103D3000D80111969C938E938FEFF7018083CF91DA
:103D40001F910F91FF90EF90DF90CF90BF90AF90B9
:103D5000089593E0980F21E030E002C0220F331F56
:103D60009A95E2F720953095909158082923209351
:103D70005808882321F0813021F081E00895129ABB
:103D8000FCCF479AFACF21E030E0082E02C0220F84
:103D9000331F0A94E2F72095309590915808292313
:103DA00020935808813061F020F0823071F081E07A
:103DB00008955F9A8091770A8E7F8093770AF7CF74
:103DC0008A9A8091770A8D7FF8CF8091080180953B
:103DD0008170809306018091770A8B7FEECF8130CE
:103DE00089F070F0823081F021E030E001C0220FD4
:103DF0008A95EAF780915808822B80935808089595
:103E00005F98F2CF8A98F0CF9091080191709093CB
:103E10000601EACF20912E0830912F08F901ED5CC0
:103E2000FA4F908196959695937081E0913009F0C4
:103E300080E0409128025091290260912C087091F5
:103E40002D084F5F5F4F2F5F3F4F2D3F310511F41E
:103E500030E020E06217730721F1F901ED5CFA4FC1
:103E6000908196959695937061F330932F082093E7
:103E70002E08509329024093280240913708509110
:103E800038086091350870913608461B570B220F91
:103E9000331FF901E05DF94F20813181240F351F77
:103EA0000AC070932F0860932E0850932902409304
:103EB00028022FEF3FEF309334022093330208950E
:103EC00020912A0830912B08F901ED5CFA4F90817E
:103ED000937081E0913009F080E040912A02509186
:103EE0002B0260912C0870912D084F5F5F4F2F5F60
:103EF0003F4F2D3F310511F430E020E0621773078A
:103F000011F1F901ED5CFA4F9081937071F33093E8
:103F10002B0820932A0850932B0240932A024091A9
:103F2000390850913A086091350870913608461B5F
:103F3000570B220F331FF901E05DF94F20813181CA
:103F4000240F351F0AC070932B0860932A085093E2
:103F50002B0240932A022FEF3FEF3093320220933F
:103F600031020895CF93DF932091D704222371F07B
:103F7000EC01F1DA9B01AC01688579858A859B8526
:103F80000E9458CD688779878A879B87DF91CF9178
:103F900008958091EA129091EB12891B8F7019F4A9
:103FA00090E080E008959091E712992351F08330DA
:103FB00030F48FEF890F19F08093E712F1CF109250
:103FC000E7128091EB1228E5829FC00111248A53E9
:103FD000954FFC01208120FDE3CF2091EB122F5F54
:103FE0002F702093E8123091EB122091E9123213D6
:103FF00004C02091E8122093E912089590916F0077
:1040000081E091FD02C080E0089590916F009D7F56
:1040100090936F000895EFE6F0E0808182608083E6
:1040200008958F929F92AF92BF92CF92DF92EF92BC
:10403000FF920F931F93CF93DF93182F84E0189F65
:10404000E0011124123008F046C0D8DF082FD6DF77
:104050008090480890904908A0904A08B0904B087A
:104060008111D9DFCBDFC0904C08D0904D08E09093
:104070004E08F0904F088111CEDF0111CCDF1130D6
:1040800019F5C501B4016C197D098E099F090E94BB
:1040900099C820E030E040E05FE30E94F8C8CD54CA
:1040A000DB4F288139814A815B810E94F8C8DF910A
:1040B000CF911F910F91FF90EF90DF90CF90BF9025
:1040C000AF909F908F900895C701B601680D791D3C
:1040D0008A1D9B1DDCCF92DFFE01E85BF74FC0809D
:1040E000D180E280F380811196DFC701B6010E9482
:1040F00099C8D5CFCF92DF92EF92FF92CF93DF9303
:10410000C82F7CDF94E0C99FE0011124FE01E45C2C
:10411000F74FC080D180E280F38081117CDFCD54E5
:10412000DB4FC701B6010E9499C8288139814A81B5
:104130005B810E94F8C8DF91CF91FF90EF90DF90F4
:10414000CF900895CF93DF93CDB7DEB72C970FB6FE
:10415000F894DEBF0FBECDBF0E940E934FDF9CE0F0
:10416000E8E4F8E0DE01119601900D929A95E1F7EE
:10417000811151DFCE0101960E9476A62C960FB6D2
:10418000F894DEBF0FBECDBFDF91CF910895CF93DE
:10419000DF931F92CDB7DEB7898360E0CE01019631
:1041A0000E94661561E0CE0101960E94661562E0EC
:1041B000CE0101960E94661589810F90DF91CF9103
:1041C00008958F929F92AF92BF92CF92DF92EF921B
:1041D000FF92CF93DF9320913802222309F48EC0FF
:1041E000EC018091AC08E82E80FF2CC080903A0250
:1041F00090903B02A0903C02B0903D022881398112
:104200004A815B81C501B4010E947ECF181624F457
:1042100088829982AA82BB8280904602909047024F
:10422000A0904802B0904902288139814A815B817F
:10423000C501B4010E9493C887FF04C08882998297
:10424000AA82BB82E1FE2CC080903E0290903F0289
:10425000A0904002B09041022C813D814E815F814F
:10426000C501B4010E947ECF181624F48C829D8271
:10427000AE82BF8280904A0290904B02A0904C0286
:10428000B0904D022C813D814E815F81C501B4010A
:104290000E9493C887FF04C08C829D82AE82BF8239
:1042A000E2FE2CC0C0904202D0904302E090440253
:1042B000F0904502288539854A855B85C701B6019E
:1042C0000E947ECF181624F4C886D986EA86FB861B
:1042D000C0904E02D0904F02E0905002F0905102F8
:1042E000288539854A855B85C701B6010E9493C838
:1042F00087FF04C0C886D986EA86FB86DF91CF9106
:10430000FF90EF90DF90CF90BF90AF909F908F90F5
:104310000895CF92DF92EF92FF920F931F93CF9366
:10432000DF93E82FF0E0EF01CC0FDD1FCC0FDD1F96
:10433000461739F0823009F049C0C12CD12C7601E2
:1043400017C08230D1F3A091750A8A2F90E0DC016A
:10435000AA0FBB1FA80FB91FAE0FBF1FAA0FBB1F0D
:10436000AA0FBB1FAF54B74FCD90DD90ED90FC90DE
:104370008F01000F111F000F111FF801EB55FC4EAC
:104380002591359145915491C85CDD4FC701B60127
:104390000E9458CD6A837B838C839D83F801E75606
:1043A000FC4E2591359145915491C701B6010E946B
:1043B00058CD6E877F87888B998BDF91CF911F9126
:1043C0000F91FF90EF90DF90CF90089550E0DA01C9
:1043D000AA0FBB1FA40FB51FAE0FBF1FAA0FBB1F95
:1043E000AA0FBB1FAF54B74F862F90E0BC01660FDA
:1043F000771F680F791FE60FF71FEE0FFF1FEE0FF5
:10440000FF1FEF54F74F20813181428153816D911D
:104410007D918D919C910E9457CD6B017C01C85C70
:10442000DD4FAC019B016A817B818C819D810E9463
:1044300058CD6A837B838C839D83A70196016E850B
:104440007F8588899989B3CF4F925F926F927F92CF
:104450008F929F92AF92BF92CF92DF92EF92FF9294
:10446000CF93DF9300D01F921F92CDB7DEB740905D
:104470006C0250906D0260906E0270906F0280909E
:10448000700290907102A0907202B0907302C0907E
:104490007402D0907502E0907602F09077028091DD
:1044A000780290917902A0917A02B0917B0289837F
:1044B0009A83AB83BC830E9495140E94E3141D82EF
:1044C0008D810E94871540E060E08D8122DF9D8113
:1044D0009F5F9D839330A1F70E9417170E94461893
:1044E000A301920160916C0270916D0280916E0245
:1044F00090916F020E9493C881112CC0A501940174
:1045000060917002709171028091720290917302B9
:104510000E9493C881111EC0A70196016091740288
:104520007091750280917602909177020E9493C8F3
:10453000811110C029813A814B815C8160917802A0
:104540007091790280917A0290917B020E9493C8C7
:104550008823A1F00F900F900F900F900F90DF9194
:10456000CF91FF90EF90DF90CF90BF90AF909F9052
:104570008F907F906F905F904F90E4CD0F900F9051
:104580000F900F900F90DF91CF91FF90EF90DF9001
:10459000CF90BF90AF909F908F907F906F905F90E3
:1045A0004F9008958F929F92AF92BF92CF92DF92D9
:1045B000EF92FF921F93CF93DF93CDB7DEB7609753
:1045C0000FB6F894DEBF0FBECDBF182F80E029DDF7
:1045D0004B015C018092680490926904A0926A0485
:1045E000B0926B0481E01DDD6B017C01C0926C0414
:1045F000D0926D04E0926E04F0926F0482E011DDBF
:1046000060937004709371048093720490937304A8
:104610001D861E861F86188A89829A82AB82BC827A
:10462000CD82DE82EF82F88669877A878B879C87C6
:1046300083E0F7DC6D877E878F87988B8091D70426
:10464000882381F0CE0101960E94AB1A9B01AC0138
:1046500069857A858B859C850E9457CD69877A8785
:104660008B879C871E3FD9F480E1FE013196ACE632
:10467000B2E001900D928A95E1F760960FB6F8943A
:10468000DEBF0FBECDBFDF91CF911F91FF90EF90A6
:10469000DF90CF90BF90AF909F908F90089584E06F
:1046A000189FF0011124DF01A459BD4F81E090E073
:1046B0008C0F9D1FE80FF91F40815181628173812A
:1046C0004D935D936D937C931397D7CF0C94F9938F
:1046D0008091DB08811105C08091780A882309F454
:1046E0006EC080916604659B5AC0816080936604A9
:1046F000909103018091660490FF53C08260809383
:10470000660480916604639B4EC088608093660453
:10471000809166044A9B49C08460809366048091BE
:10472000340880FF10C08091DC0885FF0CC08091A8
:10473000660480FF08C08091760A81608093760AC3
:1047400080E00E94AAA68091340881FF10C0809169
:10475000DC0886FD0CC08091660481FF08C0809152
:10476000760A82608093760A81E00E94AAA68091F0
:10477000340882FF24C08091DC0882FF18C0809139
:10478000780A8823E1F08091660483FF18C0809145
:10479000760A88608093760A82E00C94AAA68E7FBF
:1047A000A5CF8D7FACCF877FB1CF8B7FB6CF8091E8
:1047B000660482FF04C08091760A8460EBCF08957E
:1047C0001092650410925D0410925E0410925F04D2
:1047D00010926004109261041092620410926304BB
:1047E000109264041092590410925A0410925B04BF
:1047F00010925C040895809165048130E1F082306C
:10480000C1F497D86093590470935A0480935B0461
:1048100090935C0481E0809365040E94229B6093E6
:104820005D0470935E0480935F049093600481E064
:104830000895C6DFEFCF80E0089580916504815030
:10484000823070F4109265040E94229B6093610490
:1048500070936204809363049093640481E00895EC
:1048600080E00895282F30E094E0359527959A95BB
:10487000E1F797E32A3008F490E3920F9093150242
:104880008F7097E38A3008F490E3890F80931602C3
:1048900085E192E00895CF93DF93C0917B08D0919A
:1048A0007C08209729F160917708709178088091B1
:1048B000790890917A080E949CCE6E5F7F4F249772
:1048C0006C177D07ACF470935A08609359080E94E6
:1048D000229B6058774C8E4F9F4F60935B0870937C
:1048E0005C0880935D0890935E08DF91CF910895F6
:1048F00010925B0810925C0810925D0810925E089E
:10490000F4CF0F931F93CF93DF93082F10E097E11D
:10491000899FF0011124E258F74FC085D185209777
:1049200029F164817581868197810E949CCE6E5F9A
:104930007F4F25976C177D07CCF486E0809FE001C0
:10494000819FD00D1124C15AD74F798368830E946B
:10495000229B60547B428E4F9F4F6A837B838C8364
:104960009D83DF91CF911F910F91089586E0809FE5
:10497000F001819FF00D1124E15AF74F128213824A
:1049800014821582EECFE62FF0E027E1629FD0017E
:104990001124A258B74FEE0FFF1FEB5DFC4F208193
:1049A00031812F503109821793070CF49C0119961D
:1049B0003C932E931897862FA4CF0C949D928F92A0
:1049C0009F92AF92BF92CF92DF92EF92FF920F939E
:1049D0001F93CF93DF9310925104109250042FE352
:1049E00020935404109253041092520410924C04D9
:1049F00010924D0410924E0410924F049C01F90144
:104A000090812F5F3F4F9032D1F39E34C9F4818162
:104A100090ED980F9A3020F08D3211F08B3281F4A6
:104A200032969F012F5F3F4F808180538A3008F478
:104A30006BC09F012F5F3F4F8081803209F466C0B9
:104A4000F0937B0AE0937A0A8F010F5F1F4FC081BA
:104A50006AE270E0C8010E9424D0009731F0FC01A6
:104A6000319780818032E1F31182CD3421F0C43559
:104A700011F0C734E1F5F80180810F5F1F4F8032DC
:104A8000D1F380538A3098F5C093540430E020E08D
:104A90006AE0AF014F5F5F4F629FC001639F900D5F
:104AA00011249C01205331098081280F311D87FD7D
:104AB0003A95FA01808180538A3058F33093530439
:104AC00020935204DF0131968C918032D9F3CD349A
:104AD00049F52E31310539F0D8F42731310519F077
:104AE0002C313105F9F4B0935104A0935004DF91B7
:104AF000CF911F910F91FF90EF90DF90CF90BF90DB
:104B0000AF909F908F900895F9018BCFF90191CFCD
:104B10002537310538F02737310528F3203A83E06F
:104B2000380709F3D0917A0A40E050E0BA0110E06A
:104B300000E0C12CD12C7601C394FD0131968C91FB
:104B4000882309F47FC08132E1F4CD34D1F42032DE
:104B50003105B9F440934C0450934D0460934E04D6
:104B600070934F04F0935104E093500463E270E0BB
:104B7000CF010E9424D0009709F4B9CFFC01108224
:104B8000B6CF81548A3108F058C0DF019D91903230
:104B900091F0A0EDA90FAA30E8F09E3271F4918156
:104BA00090539A30B8F00115110519F48F01015096
:104BB000110990E013C0FD01E8CF9D3211F09B3246
:104BC00091F79181A0EDA90FAA3020F09E3259F7FC
:104BD0009281E6CF9E2F9D1B309759F3A82FB0E00E
:104BE0004601570104C0880C991CAA1CBB1C8A955D
:104BF000D2F7482959296A297B29AE5CBB4F9C937F
:104C000080818154DF018A3108F497CFDF018191DF
:104C1000882309F492CF90ED980F9A30B8F393ED72
:104C2000980F923098F38B3289F3CD010196EC9175
:104C3000E03209F082CFDC01F8CF0115110501F750
:104C40008D01DECF109351040093500440934C0427
:104C500050934D0460934E0470934F0448CFCF920D
:104C6000DF92EF92FF926B017C0183E3C816D104BF
:104C7000E104F10470F082E3C81AD108E108F108F8
:104C800062E370E080E090E00E94309A0E9434B8C5
:104C9000ECCFC701B6010E94309AFF90EF90DF90F1
:104CA000CF900C9434B88091DB08811104C08091BE
:104CB000780A882329F062E070E080E090E0CFCFAE
:104CC000089581E00895DC01EC918E2F90E0FC01C5
:104CD000EE0FFF1FE80FF91FE357FD4E80818F771E
:104CE00080830895CF93DF93EC01E62F660FFF0BCF
:104CF000E057F34EE491E250E13108F0B0C0F0E04B
:104D00008827EA57F94D8F4F0C94F7CC97262F2719
:104D10002F272F272F27C126A326E526E326C326E4
:104D200009270727E7262F272D272B270B2782E187
:104D3000E2E8F2E0DE0101900D928A95E1F7CE0102
:104D4000DF91CF91089581E020EB30E03983288313
:104D500021EB30E03B832A831D821C8223EB30E071
:104D60003F832E8324EB30E0398728871B861A8601
:104D70001D861C8692E09E878F8781E0888B198A2A
:104D8000DECF80E0E1CF81E08F5F20E930E0398342
:104D9000288321E930E03B832A8322E930E03D8308
:104DA0002C8328E930E03F832E832AE930E03987DD
:104DB00028872CE930E03B872A8726E930E03D87C9
:104DC0002C8793E0D8CF80E0DFCF80E0DECF81E09A
:104DD0008F5F20EA30E03983288321EA30E03B838B
:104DE0002A8322EA30E03D832C8328EA30E03F83A7
:104DF0002E832AEA30E0398728872CEA30E03B8787
:104E00002A8726EA30E03D872C8794E0B4CF80E003
:104E1000DFCF80E0DECF81E08F5F20E231E03983B9
:104E2000288321E231E03B832A8322E231E03D8383
:104E30002C8328E231E03F832E832AE231E0398758
:104E400028872CE231E03B872A8726E231E03D8744
:104E50002C8795E090CF80E0DFCF80E0DECF82E14D
:104E6000FE0111928A95E9F76ACF009719F0019730
:104E700089F008951092900082E080939100109242
:104E8000950010929400C19A809171008260809385
:104E9000710008951092A00082E08093A10010920A
:104EA000A5001092A40089BB8093720008957F92A0
:104EB0008F929F92AF92BF92CF92DF92EF92FF922A
:104EC0000F931F93CF93DF93EC016B01888188319F
:104ED00008F0C4C090E0FC01EE0FFF1FE80FF91FBF
:104EE000E357FD4E808161E08F770E9454991982CB
:104EF0001A8288812CE0622F0E94C4CC829FB0016C
:104F0000112430E020E0AB01420F531FFA01EE0FF5
:104F1000FF1FE40FF51FE357FD4E908197FD07C07B
:104F20002F5F3F4F2C30310571F790E09EDF788086
:104F3000E72CF12C8701000F111FF801EE0DFF1D6A
:104F4000E357FD4E80818068808377FC87C080E2D4
:104F5000C81682E0D8060CF03FC08A8128E532E00E
:104F6000281B310987FD3395220F331F220F331F72
:104F7000032E000C440B550B898178E8872E912C69
:104F8000881A910887FD9394880C991C880C991CA9
:104F9000092C000CAA08BB0860E070E0CB01D7FC2C
:104FA0000AC0B601653B710514F064EB70E0072E92
:104FB000000C880B990B281939094A095B090E94D2
:104FC0005ECC24EB30E040E050E00E948FCC820EBB
:104FD000931EA41EB51E640187E18715D8F02981B0
:104FE00088E890E0821B910927FD9395880F991F0F
:104FF000880F991FC816D9060CF502972FB7F89499
:105000000E0D1F1DF801E357FD4E880F991F928367
:1050100081832FBF60ED77E080E090E020DECE015D
:10502000DF91CF911F910F91FF90EF90DF90CF9084
:10503000BF90AF909F908F907F9045CE2A8188E55A
:1050400092E0821B910927FD9395880F991F880F85
:10505000991FC816D9068CF6C601CFCFDF91CF9124
:105060001F910F91FF90EF90DF90CF90BF90AF9086
:105070009F908F907F9008951F920F920FB60F927E
:1050800011240BB60F922F933F934F935F936F931F
:105090007F938F939F93AF93BF93EF93FF9348EAD0
:1050A00050E064EA70E081E090E00E941F1EFF91F2
:1050B000EF91BF91AF919F918F917F916F915F9190
:1050C0004F913F912F910F900BBE0F900FBE0F90FD
:1050D0001F9018951F920F920FB60F9211240BB6C6
:1050E0000F922F933F934F935F936F937F938F9381
:1050F0009F93AF93BF93EF93FF9348E950E064E928
:1051000070E090E080E00E941F1EFF91EF91BF9140
:10511000AF919F918F917F916F915F914F913F914F
:105120002F910F900BBE0F900FBE0F901F901895F0
:105130009091C00095FFFCCF8093C6000895CF9357
:10514000DF93EC018991882311F0F2DFFBCFDF912F
:10515000CF910895F4DF8DE0EBDF8AE0E9CF85E4BD
:10516000E7DF81E3E5CF85E4E3CF8AE5E1CF89E5B9
:10517000DFCF88E5DDCFEF92FF920F931F93CF93A0
:10518000DF93CDB7DEB7E3970FB6F894DEBF0FBE5F
:10519000CDBF182FE42EF22E662301F18F3008F0D8
:1051A00080C0E82F880FFF0B8827E652F74D8F4FFE
:1051B0000C94F7CCE9280D291429202929292E2916
:1051C00031293629512951293D2951294229472977
:1051D0004C2989E0ADDFCDDF89E0AADFEE2009F4BC
:1051E0006EC01F3008F0CEC0E12F012E000CFF0B67
:1051F0008827E250F74D8F4F0C94F7CC5A297E291F
:10520000852991299A299F29A229A729C229C2293A
:10521000AE29C229B329B829BD298DE292E10E94A5
:10522000269F0E949C94D8CF80912F12909130128B
:1052300020913112A22FAF70BC018A2F90E0F1CFE4
:105240008DE292E10E940F9D682F70E090E080E077
:10525000E8CF8DE292E10E94F69EE3CF6091321298
:10526000F4CF8DE292E10E94079DDBCF8091331253
:105270009091341220913512DDCF8DE292E10E949F
:10528000A19FCFCF8DE292E10E94069FCACF8DE20F
:1052900092E10E94FE9EC5CF8DE292E10E94A88F0E
:1052A000C0CF6DE272E1CE0101960E94891689E0BD
:1052B0003FDF92CF89E03CDF5ADF89E039DFFF2012
:1052C00009F46EC01F3008F0CEC0E12F012E000C93
:1052D000FF0B8827E159F64D8F4F0C94F7CCCB2963
:1052E000EF29F629022A0B2A102A132A182A332A10
:1052F000332A1F2A332A242A292A2E2A81EF91E1D0
:105300000E94269F0E949C94D8CF8091F311909187
:10531000F4112091F511A22FAF70BC018A2F90E0FB
:10532000F1CF81EF91E10E940F9D682F70E090E036
:1053300080E0E8CF81EF91E10E94F69EE3CF60919B
:10534000F611F4CF81EF91E10E94079DDBCF8091B0
:10535000F7119091F8112091F911DDCF81EF91E1D2
:105360000E94A19FCFCF81EF91E10E94069FCACFFB
:1053700081EF91E10E94FE9EC5CF81EF91E10E94F5
:10538000A88FC0CF61EF71E1CE0101960E9489160E
:1053900089E0CEDE92CF89E0CBDEE7DE89E0C8DEB1
:1053A000002309F4DBC01F3008F0CAC0E12F012E32
:1053B000000CFF0B8827E052F64D8F4F0C94F7CC72
:1053C0003C2A5C2A632A6F2A782A7D2A802A852A29
:1053D000A02AA02A8C2AA02A912A962A9B2A85EB09
:1053E00091E10E94269F0E949C94D8CF8091B71192
:1053F0009091B8112091B911A22FAF70BC018A2FE2
:1054000090E0F1CF85EB91E10E940F9D682F70E055
:1054100090E080E0E8CF85EB91E10E94F69EE3CF3B
:105420006091BA11F4CF85EB91E10E94079DDBCF2B
:105430008091BB119091BC112091BD11DDCF85EB06
:1054400091E10E94A19FCFCF85EB91E10E94069F41
:10545000CACF85EB91E10E94FE9EC5CF85EB91E11D
:105460000E94A88FC0CF65EB71E1CE0101960E942A
:10547000891689E05DDE92CF89E05ADE74DE89E02C
:1054800057DE1F3008F0BDC0E12F110FFF0B88273A
:10549000E35BF54D8F4F0C94F7CCA92ABD2AC42AA3
:1054A000D02AD92ADE2AE12AE62A012B012BED2A6D
:1054B000012BF22AF72AFC2A89E791E10E94269F14
:1054C0000E949C94DCCF80917B1190917C11209163
:1054D0007D11A22FAF70BC018A2F90E0F1CF89E738
:1054E00091E10E940F9D682F70E090E080E0E8CF8E
:1054F00089E791E10E94F69EE3CF60917E11F4CF9F
:1055000089E791E10E94079DDBCF80917F11909107
:10551000801120918111DDCF89E791E10E94A19F47
:10552000CFCF89E791E10E94069FCACF89E791E139
:105530000E94FE9EC5CF89E791E10E94A88FC0CF4F
:1055400069E771E1CE0101960E94891689E0F0DDDC
:1055500096CF89E0EDDD03DE89E0EADD8AE0E8DD73
:10556000E3960FB6F894DEBF0FBECDBFDF91CF91AB
:105570001F910F91FF90EF9008958DE391E10E94AC
:10558000269F0E949C94E8CF80913F1190914011FA
:1055900020914111A22FAF70BC018A2F90E0F1CF72
:1055A0008DE391E10E940F9D682F70E090E080E014
:1055B000E8CF8DE391E10E94F69EE3CF6091421126
:1055C000F4CF8DE391E10E94079DDBCF80914311E1
:1055D0009091441120914511DDCF8DE391E10E941E
:1055E000A19FCFCF8DE391E10E94069FCACF8DE3AB
:1055F00091E10E94FE9EC5CF8DE391E10E94A88FAC
:10560000C0CF6DE371E1CE0101960E94891689E059
:105610008FDDA2CFDC016B3051F4ED91FC91028063
:10562000F381E02D61E41995CB010C942618E7EF86
:10563000E60FEB3050F50E2E000CFF0B8827EC5DCB
:10564000F44D8F4F0C94F7CC722B452B452B452BEB
:105650002F2B3B2B462B512B452B672B5C2BED9196
:10566000FC9111970084F185E02DCD01199573FF10
:105670000CC08AE25DCDED91FC9111970084F1851B
:10568000E02DCD01199572FDF4CF0895ED91FC91B7
:1056900011970084F185E02DCD01199571FFF5CFAB
:1056A000E8CFED91FC9111970084F185E02DCD01BB
:1056B000199570FFEACFDDCFED91FC911197008431
:1056C000F185E02DCD01199564FFDFCFD2CFED91AB
:1056D000FC9111970084F185E02DCD01199565FFAE
:1056E000D4CFC7CFCD010E943E9F9FCFCF93DF93F2
:1056F000EC01FE0184912196882311F019DDF9CF88
:10570000DF91CF9108950F931F93CF938C01C62FF4
:105710008AEC9EE0EBDFC801E9DF8AE309DD80E384
:105720008C0F06DD8AE0CF911F910F9101CD8DEA9C
:1057300090E1DCDF8AE0FCDC60E08DE990E1E3DF12
:1057400060E088E890E1DFDF61E081E890E1DBDFA5
:1057500061E086E790E1D7DF60E087E690E1D3DFA4
:1057600061E087E590E1CFDF60E08EE490E1CBDFA0
:1057700061E084E490E1C7DF61E08AE390E1C3DFA8
:1057800060E083E390E1BFDF61E08BE290E1BBDFAB
:1057900061E08DE190E1B7DF60E08FE090E1B3DFA1
:1057A00060E080E090E1AFDF60E082EF9FE0ABDFA0
:1057B00060E08CED9FE0A7DF60E08BEC9FE0A3DF73
:1057C00060E086EB9FE09FDF60E087EA9FE09BDF81
:1057D00060E080EA9FE097DF60E089E99FE093DF87
:1057E00060E080E99FE08FDF60E08BE79FE08BDF88
:1057F00060E08DE69FE087DF60E083E69FE083DF87
:1058000060E08CE49FE07FDF60E08FE39FE07BDF80
:1058100061E08CE29FE077DF60E08FE19FE073DF83
:1058200061E08AE19FE06FDF61E08DE09FE06BDF88
:1058300060E089EF9EE067DF60E086EE9EE063DF78
:1058400060E08AEE98E00E940516682F61708DED89
:105850009EE059DF60E08FEC9EE055CFCF93C62FDE
:1058600045DF8C2FCF910C943F18CF93C62F3EDF8E
:105870008C2FCF910C94E19FF8DF8AE059CCEF9206
:10588000FF920F931F93CF93DF9361E87FEF8FE435
:105890000E941A1DD82F813861F18FEF8D0F8F3044
:1058A00040F186E89BE022DF11E061E87FEF80E5D0
:1058B0000E941A1DC82F813841F083E08C0F80317F
:1058C00020F08CE69BE012DF11E061E87FEF83E5DA
:1058D0000E941A1D813879F09FEF980F983058F088
:1058E00084E59BE0DF91CF911F910F91FF90EF90A6
:1058F000FDCE10E0DACF1111FDC0D13809F4D4E0AB
:10590000C13809F4C2E0182F813809F411E081E2AE
:10591000E82E83E0F82E00E081E0F70191917F010D
:10592000915440914C0450914D0460914E047091FB
:105930004F0404C076956795579547959A95D2F789
:1059400040FF19C06D2F023009F4ABC0033009F4D9
:10595000B5C0013009F498C08DE292E10E94899FA0
:105960006C2F8DE292E10E94599D612F8DE292E1B0
:105970000E94489D80E00F5F043079F6882309F487
:10598000B9C0F7DB8DE292E10E94C79F682F83EBDD
:105990009AE06BDF8DE292E10E94509D682F8AEAC7
:1059A0009AE05CDF8DE292E10E943F9D682F80EAE1
:1059B0009AE062DFDCDB81EF91E10E94C79F682FF4
:1059C00087ED9AE052DF81EF91E10E94509D682FB0
:1059D0008EEC9AE043DF81EF91E10E943F9D682FBA
:1059E00084EC9AE049DFC1DB85EB91E10E94C79F1F
:1059F000682F8BEF9AE039DF85EB91E10E94509D93
:105A0000682F82EF9AE02ADF85EB91E10E943F9DAB
:105A1000682F88EE9AE030DFA6DB89E791E10E94EB
:105A2000C79F682F8FE19BE020DF89E791E10E940B
:105A3000509D682F86E19BE011DF89E791E10E948C
:105A40003F9D682F8CE09BE017DF89DB8DE391E1C0
:105A50000E94C79F682F83E49BE007DF8DE391E1FD
:105A60000E94509D682F8AE39BE0F8DE8DE391E170
:105A70000E943F9D682F80E39BE0DF91CF911F91B3
:105A80000F91FF90EF90F8CE81EF91E10E94899FF6
:105A90006C2F81EF91E10E94599D612F81EF91E17F
:105AA00067CF85EB91E10E94899F6C2F85EB91E197
:105AB0000E94599D612F85EB91E15ACF89E791E1D1
:105AC0000E94899F6C2F89E791E10E94599D612F67
:105AD00089E791E10E94489D6D2F8DE391E10E943D
