:100000000C94F5150C9435160C9435160C94351685
:100010000C9435160C9435160C9435160C94351634
:100020000C9435160C940E980C940E980C940E9813
:100030000C9435160C9435160C9435160C94351614
:100040000C9435160C9403220C9435160C9435162A
:100050000C9435160C94A3A30C9435160C943E9D69
:100060000C9435160C94498D0C943F8D0C943516D8
:100070000C9435160C9435160C9435160C943516D4
:100080000C940A340C9435160C9435160C943516D1
:100090000C9435160C9435160C9435160C943516B4
:1000A0000C9435160C9435160C94DC330C943516E0
:1000B0000C9435160C9435160C9435160C94351694
:1000C0000C9435160C9435160C9435160C94351684
:1000D0000C9435160C9435160C9435160C94351674
:1000E0000C943516084AD73B3BCE016E84BCBFFD4D
:1000F000C12F3D6C74319ABD56833DDA3D00C77FF8
:1001000011BED9E4BB4C3E916BAAAABE0000008090
:100110003F05A84CCDB2D44EB93836A9020C50B91F
:10012000918688083CA6AAAA2ABE000000803F004B
:100130004E414E494E495459494E46CDCCCC3D0ACC
:10014000D7233C17B7D13877CC2B329595E6241FAF
:10015000B14F0A000020410000C84200401C462068
:10016000BCBE4CCA1B0E5AAEC59D74434F4D4D5577
:100170004E49434154494F4E0044525952554E0046
:100180004552524F525300494E464F004543484F47
:10019000004572726F722077726974696E6720749D
:1001A0006F20454550524F4D210A00363726033CFB
:1001B0003D380F2E303E13051A1C1824221E0A4506
:1001C000074304084400015072696E74657220731D
:1001D000746F707065642064756520746F2065723B
:1001E000726F72732E20466978207468652065727C
:1001F000726F7220616E6420757365204D393939D4
:1002000020746F20726573746172742E2028546597
:100210006D706572617475726520697320726573A3
:1002200065742E205365742069742061667465724C
:100230002072657374617274696E67290A004E6F6B
:1002400020436865636B73756D2077697468206CF3
:10025000696E65206E756D6265722C204C617374D9
:10026000204C696E653A2000636865636B73756D39
:10027000206D69736D617463682C204C6173742008
:100280004C696E653A20004C696E65204E756D6252
:100290006572206973206E6F74204C617374204CFA
:1002A000696E65204E756D6265722B312C204C6134
:1002B0007374204C696E653A20004D313130005323
:1002C000657269616C20737461747573206D6973F4
:1002D0006D617463680A00746F6F206D75636820C8
:1002E000696E6163746976652074696D65202D207F
:1002F00063757272656E7420636F6D6D616E643AC2
:1003000020002121204B494C4C20636175736564AA
:100310002062792000627573793A20706175736587
:100320006420666F7220696E7075740A006275735E
:10033000793A2070617573656420666F72207573F9
:1003400065720A00627573793A2070726F63657323
:1003500073696E670A006563686F3A004572726F71
:10036000723A004F4646004F4E0042696C696E6516
:100370006172204C6576656C696E672047726964AE
:100380003A0A004C4F570048494748004F4B004538
:1003900072726F723A20416C6C200020636F6E6E37
:1003A000656374696F6E2E2E2E2000546573746918
:1003B0006E6720004C4F570048494748004F4B009C
:1003C0004572726F723A20416C6C200020636F6E30
:1003D0006E656374696F6E2E2E2E200054657374E3
:1003E000696E6720004C4F570048494748004F4B03
:1003F000004572726F723A20416C6C200020636F6E
:100400006E6E656374696F6E2E2E2E2000546573B8
:1004100074696E6720004C4F570048494748004FA9
:100420004B004572726F723A20416C6C2000206361
:100430006F6E6E656374696F6E2E2E2E200054658C
:100440007374696E6720004C4F5700484947480055
:100450004F4B004572726F723A20416C6C20002045
:10046000636F6E6E656374696F6E2E2E2E2000545E
:10047000657374696E672000426564204C6576651B
:100480006C696E6720004661696C656420746F203A
:10049000656E61626C6520426564204C6576656CB2
:1004A000696E670A00496E76616C6964206D6573D8
:1004B000682E0A002E0A002F0050726F62696E6764
:1004C000206D65736820706F696E74200020284469
:1004D000525952554E2900473239204175746F20C8
:1004E000426564204C6576656C696E67003F202824
:1004F0004C2C522C462C4229206F7574206F66209C
:10050000626F756E64732E0A003F28562965726209
:100510006F7365206C6576656C20696D706C6175B4
:100520007369626C652028302D34292E0A004261DF
:1005300064205A2076616C75650A004E6F206269EE
:100540006C696E65617220677269640A00204400FC
:1005500020204D32303020540020204D32303020C9
:100560005300202844697361626C6564293A00462F
:10057000696C616D656E742073657474696E677300
:100580000020204D3230312058004D6178204163E9
:1005900063656C65726174696F6E2028756E69742D
:1005A000732F7332290020204D3230332058004DF4
:1005B0006178206665656472617465732028756E64
:1005C0006974732F73290020520020204D3230347B
:1005D000205000416363656C65726174696F6E20C1
:1005E00028756E6974732F7332292028503C7072FD
:1005F000696E742D616363656C3E20523C72657454
:10060000726163742D616363656C3E20543C747247
:100610006176656C2D616363656C3E290020540032
:1006200020530020204D3230352042004164766155
:100630006E6365642028423C6D696E5F7365676D0B
:10064000656E745F74696D655F75733E20533C6DB4
:10065000696E5F66656564726174653E20543C6DC9
:10066000696E5F74726176656C5F66656564726100
:1006700074653E20583C6D61785F6A65726B3E2000
:10068000593C6D61785F6A65726B3E205A3C6D61C2
:10069000785F6A65726B3E20453C6D61785F6A6584
:1006A000726B3E290020204D32313700546F6F6C41
:1006B0002D6368616E67696E670020204D323138A6
:1006C000205400486F74656E64206F6666736574AD
:1006D000730020440020490020500020204D33307A
:1006E00031204500486F74656E64205049440050C5
:1006F000574D3A20202534640050574D3A2020258C
:1007000034640050574D3A20202534640050574D32
:100710003A20202534640050574D3A202025346477
:100720000050574D3A20202534640050574D3A2050
:10073000202534640050574D3A2020253464005061
:10074000574D3A20202534640050574D3A2020253B
:1007500034640050574D3A20202534640050574DE2
:100760003A20202534640050574D3A202025346427
:100770000050574D3A20202534640050574D3A2000
:10078000202534640050574D3A2020253464003A27
:10079000200020202020434F4D002020206E6F6E2F
:1007A0002D7374616E646172642050574D206D6FBB
:1007B000646500202020636F6D7061726520696E32
:1007C0007465727275707420656E61626C65640028
:1007D0002020206F766572666C6F7720696E746575
:1007E000727275707420656E61626C6564003A2087
:1007F000002020202054494D534B00423A20002035
:100800002020205443435200413A20002020202041
:1008100054434352002020202043533A20002020FC
:10082000202057474D3A200050574D3A202025347C
:10083000640050574D3A202025346400470048009A
:10084000000088008A008C00B300B400000098000B
:100850009A009C00A800AA00AC0028012A012C01E3
:100860002020202054494D455200440045006E0090
:10087000800081006F00B000B10070009000910016
:100880007100A000A1007200200121017300206905
:100890007320616C736F207469656420746F2074B9
:1008A0006869732070696E0054494D4552314300A8
:1008B0000A202E002020002020506F72743A200061
:1008C0004C4F57004849474800446F6E652E0A0058
:1008D00050756C73696E6720202000556E746F75BB
:1008E0006368656420005A5F50524F42455F53452C
:1008F00052564F5F4E52206E6F7420736574207590
:10090000702E0A00202D20005761746368696E679D
:100910002070696E00206973007320617265002089
:1009200070726F7465637465642E2055736520273B
:10093000492720746F206F766572726964652E0A8C
:10094000005370656369666965642070696E006450
:10095000697300656E0061626C65640A00656E64AF
:1009600073746F70206D6F6E69746F722000737096
:10097000726561644379636C6500737465616C745E
:100980006843686F700020647269766572206D6FCD
:1009900064653A09007370726561644379636C65DC
:1009A00000737465616C746843686F7000206472D2
:1009B00069766572206D6F64653A090073707265BF
:1009C00061644379636C6500737465616C7468433A
:1009D000686F700020647269766572206D6F64655F
:1009E0003A09007370726561644379636C650073E2
:1009F0007465616C746843686F7000206472697616
:100A00006572206D6F64653A090073707265616488
:100A10004379636C6500737465616C746843686FD7
:100A2000700020647269766572206D6F64653A09A2
:100A300000202E68737472743A2000202E68656E50
:100A4000643A20002063686F70706572202E746FA6
:100A500066663A2000202E68737472743A20002073
:100A60002E68656E643A20002063686F707065724E
:100A7000202E746F66663A2000202E68737472749C
:100A80003A2000202E68656E643A20002063686F6B
:100A900070706572202E746F66663A2000202E6892
:100AA000737472743A2000202E68656E643A2000D8
:100AB0002063686F70706572202E746F66663A20CE
:100AC00000202E68737472743A2000202E68656EC0
:100AD000643A20002063686F70706572202E746F16
:100AE00066663A20003F53206F7574206F6620724F
:100AF000616E67652028312E2E38290A003F50206C
:100B00006F7574206F662072616E676520282D33C3
:100B10002E2E3132290A003F4F206F7574206F66E8
:100B20002072616E67652028312E2E3135290A002A
:100B30003B200020496E76616C6964206578747290
:100B400075646572200047322F473320626164204C
:100B5000706172616D65746572730A0047323800A6
:100B60005A2050726F626520506173742042656430
:100B700000205A3A200020593A200042656420584B
:100B80003A20004D65736820706F696E74206F7530
:100B900074206F662072616E67650A005072696E1C
:100BA000742074696D653A20000A53746174733A55
:100BB0002046696C616D656E7420757365643A20BA
:100BC000002C204C6F6E67657374206A6F623A2048
:100BD00000546F74616C2074696D653A2000537421
:100BE0006174733A20002C204661696C65643A2078
:100BF000002C2046696E69736865643A2000507263
:100C0000696E74733A200053746174733A20006FF4
:100C10006B006F6666008C018701800179016B01B2
:100C200044454255473A004D31313220536875747E
:100C3000646F776E004D3131332053002F2F002029
:100C40006C696D6974656420746F2000204D617853
:100C50002000416363656C65726174696F6E005753
:100C600041524E494E4721204C6F77205A204A6509
:100C7000726B206D6179206C65616420746F2075E2
:100C80006E77616E746564207061757365732E0A8A
:100C90000020204D61783A2000200020204D696E10
:100CA0003A2000203B200020204D323131205300DB
:100CB000536F667420656E6473746F707300250AD9
:100CC0000046523A0020466C6F773A20003A2000E6
:100CD00020536572766F2000206F7574206F662038
:100CE00072616E67650A00536572766F20005072FC
:100CF0006F6265204F6666736574205A0050726F8C
:100D00006265204F6666736574205A00496E76618D
:100D10006C69642065787472756465720A00646930
:100D20007300656E0043290A0061626C65642028C7
:100D30006D696E2074656D702000436F6C64206572
:100D4000787472756465732061726520004D343269
:100D50003120696E636F72726563742070617261B5
:100D60006D657465722075736167650A004D657302
:100D70006820706F696E74206F7574206F662072C2
:100D8000616E67650A00546F6F206661722066723B
:100D90006F6D207265666572656E636520706F6940
:100DA0006E740A00454550524F4D204F4B0A0029A2
:100DB0000A0020746F20003F5A206F7574206F6600
:100DC0002072616E67652028003F59206D7573742D
:100DD000206265203020284E4F5A5A4C455F4153BF
:100DE0005F50524F4245292E0A003F58206D7573BF
:100DF00074206265203020284E4F5A5A4C455F417E
:100E0000535F50524F4245292E0A00206472697682
:100E100065722063757272656E743A200020647288
:100E2000697665722063757272656E743A2000206F
:100E30006472697665722063757272656E743A20A9
:100E400000206472697665722063757272656E74D3
:100E50003A2000206472697665722063757272654B
:100E60006E743A20006F6B0020204D3230362058CF
:100E700000486F6D65206F6666736574004361702E
:100E80003A00434F4E4649475F4558504F52540031
:100E90004D4541545041434B00434F4F4C45525FE9
:100EA00054454D5045524154555245004348414DDB
:100EB0004245525F54454D504552415455524500AC
:100EC000424142595354455050494E4700415243C4
:100ED00053004D4F54494F4E5F4D4F4445530054BE
:100EE0004845524D414C5F50524F54454354494F31
:100EF0004E00455854454E4445445F4D3230004302
:100F00005553544F4D5F4649524D574152455F55D9
:100F1000504C4F4144004C464E5F57524954450097
:100F20004C4F4E475F46494C454E414D450041555B
:100F3000544F5245504F52545F53445F53544154A1
:100F400055530053445F575249544500524550454C
:100F50004154005344434152440050524F4D505469
:100F60005F535550504F525400484F53545F4143C4
:100F700054494F4E5F434F4D4D414E445300454DF4
:100F8000455247454E43595F5041525345520043E5
:100F90004153455F4C494748545F42524947485482
:100FA0004E45535300544F47474C455F4C494748C3
:100FB000545300534F4654574152455F504F574585
:100FC00052004255494C445F50455243454E5400EF
:100FD0004C4556454C494E475F44415441005A5F89
:100FE00050524F42450052554E4F555400415554B2
:100FF0004F4C4556454C005052494E545F4A4F4263
:101000000050524F4752455353004155544F52459B
:10101000504F52545F54454D50004155544F524526
:10102000504F52545F504F5300564F4C554D4554FE
:1010300052494300454550524F4D0042494E41529E
:10104000595F46494C455F5452414E534645520004
:1010500053455249414C5F584F4E5F584F464600EA
:101060004649524D574152455F4E414D453A4D61BB
:10107000726C696E20322E312E322E3120284D6155
:101080007220203220323032342030393A35323A30
:1010900034322920534F555243455F434F44455FF7
:1010A00055524C3A6769746875622E636F6D2F4DA7
:1010B00061726C696E4669726D776172652F4D6100
:1010C000726C696E2050524F544F434F4C5F5645DF
:1010D0005253494F4E3A312E30204D414348494EEC
:1010E000455F545950453A55706772616465642094
:1010F0004A756C69612050726F204475616C2032B2
:101100003456207769746820544D43323230392C7C
:1011100020536572766F34322C204361727269619C
:1011200067652D41424C206F6E204D4B5320476523
:101130006E4C2076322E312045585452554445523B
:101140005F434F554E543A3220555549443A6365F2
:101150006465326132662D343161322D3437343872
:101160002D396231322D6335356336326633363789
:10117000666600203B0020204D3835312058302055
:101180005930205A005A2D50726F6265204F6666A2
:10119000736574002569730025696D2025697300E6
:1011A0002569682025696D202569730025696420FB
:1011B0002569682025696D202569730025697920D6
:1011C000256964202569682025696D2025697300DB
:1011D00020573A0020573A00206661696C65642107
:1011E00020426164206865617465722069640A0048
:1011F000504944204175746F74756E6500236465B1
:1012000066696E652044454641554C545F004B6409
:1012100020004B6920004B7020002066696E6973C6
:10122000686564212050757420746865206C617352
:1012300074204B702C204B6920616E64204B64201D
:10124000636F6E7374616E74732066726F6D20626B
:10125000656C6F7720696E746F20436F6E66696787
:1012600075726174696F6E2E680A0050494420419E
:1012700075746F74756E6500206661696C656421B4
:101280002074696D656F75740A005049442041757A
:10129000746F74756E6500206661696C65642120E9
:1012A00054656D706572617475726520746F6F201E
:1012B000686967680A00504944204175746F747505
:1012C0006E6500204B643A2000204B693A200020D4
:1012D0004B703A200020436C61737369632050495E
:1012E00044200A002054753A2000204B753A200013
:1012F000206D61783A2000206D696E3A20002064EC
:101300003A200020626961733A2000207374617290
:10131000740A00504944204175746F74756E6500FD
:10132000206661696C6564212054656D7065726129
:101330007475726520746F6F20686967680A005061
:101340004944204175746F74756E65006F70656EE9
:1013500000545249474745524544003A20007A5FBD
:1013600070726F6265007A5F6D617800795F6D61A0
:101370007800785F6D696E005265706F7274696E87
:101380006720656E6473746F702073746174757315
:101390000A000080C5430080C5430000C843000028
:1013A0000000000000000000000020746F6F206C3F
:1013B0006F6E6720657874727573696F6E207072D6
:1013C0006576656E7465640A0020636F6C642065E1
:1013D0007874727573696F6E2070726576656E745D
:1013E00065640A00000020C20080C5430000C843B5
:1013F0005761726E696E673A20486F6D696E67203B
:1014000042756D702044697669736F72203C20319B
:101410000A000202040080C5430080C5430000C8E2
:10142000430000A0400000A0400000004000000079
:1014300001000000010000800055555500000040EB
:101440000033333300AAAA2A004992240000002066
:1014500000C7711C0099991900D145170055551501
:10146000003BB113002449120011111100000010BB
:10147000000F0F0F00E3380E0043790D00CCCC0CA9
:1014800000C3300C00E8A20B0064210B00AAAA0ADA
:1014900000703D0A009DD80900427B090092240992
:1014A00000DCD3080088880800104208000000080B
:1014B00000F0C107008787070075500700711C07FF
:1014C000003EEB0600A1BC060069900600666606B9
:1014D00000703E06006118060017F4050074D1057F
:1014E000005BB00500B2900500627205005555051D
:1014F0000078390500B81E0500050505004EEC040E
:101500000087D40400A1BD040090A7040049920400
:1015100000C17D0400EE690400C756040044440481
:10152000005C3204000821040041100400000004A3
:10153000003FF00300F8E0030026D20300C3C3031A
:1015400000CCB503003AA803000A9B0300388E03C1
:1015500000C08103009F750300D0690300505E0343
:10156000001D53030034480300913D03003333034F
:101570000016290300381F030097150300300C03E1
:1015800000030303000BFA020049F10200BAE8026B
:10159000005CE002002DD802002DD0020059C802E4
:1015A00000B0C0020031B90200DAB10200AAAA02FA
:1015B00000A0A30200BC9C0200FA9502005C8F020E
:1015C00000DF88020082820200457C02002776024A
:1015D0000027700200436A02007C640200D05E02B1
:1015E000003F590200C8530200FFFDFCFAF8F6F470
:1015F000F2F0EEECEAE9E7E5E3E1E0DEDCDAD9D7A8
:10160000D5D4D2D0CFCDCBCAC8C7C5C3C2C0BFBD49
:10161000BCBAB9B7B6B4B3B2B0AFADACAAA9A8A6BC
:10162000A5A4A2A1A09E9D9C9A9998979594939207
:10163000908F8E8D8B8A8988878684838281807F34
:101640007E7D7B7A797877767574737271706F6E40
:101650006D6C6B6A696867666564636261605F5E32
:101660005D5C5B5A59585857565554535251505017
:101670004F4E4D4C4B4A4A494847464645444342E3
:101680004241403F3E3E3D3C3B3B3A39383837369D
:101690003535343332323130302F2E2E2D2C2B2B4A
:1016A0002A292928272726252524232322212120EA
:1016B000201F1E1E1D1C1C1B1B1A1919181817167B
:1016C00016151514131312121111100F0F0E0E0D03
:1016D0000D0C0C0B0A0A0909080807070606050580
:1016E00004040303020201000020746F6F206C6F7A
:1016F0006E6720657874727573696F6E207072659D
:1017000076656E7465640A0020636F6C642065788A
:1017100074727573696F6E2070726576656E74652C
:10172000640A00290A002062797465733B206372A1
:1017300063200053657474696E67732053746F720D
:101740006564202800454550524F4D20496E69740C
:1017500069616C697A65640A0048617264636F64E8
:1017600065642044656661756C74205365747469A2
:101770006E6773204C6F616465640020286D6D296D
:1017800000203B204C6576656C696E672000202048
:101790004D3432302053004175746F20426564200F
:1017A0004C6576656C696E670020204D39303600D7
:1017B000205431204500205430204500537465707A
:1017C00070657220647269766572206375727265E5
:1017D0006E740020204D35363920533100543120AD
:1017E00045005430204500205800447269766572E7
:1017F000207374657070696E67206D6F646500207A
:101800004A002020473239205720490020204D31FE
:1018100034392043203B20556E69747320696E2053
:1018200043656C736975730A0054656D7065726108
:101830007475726520556E697473002020473231CB
:10184000203B004C696E65617220556E69747300AF
:10185000454550524F4D206461746173697A65202B
:101860006572726F722E0A00202863616C63756C5A
:101870006174656429210A0020213D2000454550FE
:10188000524F4D20435243206D69736D61746368FC
:10189000202D202873746F726564292000454550FF
:1018A000524F4D20436F72727570740A0020536955
:1018B0007A653A2000496E6465783A2000290A006A
:1018C0002062797465733B20637263200020737417
:1018D0006F7265642073657474696E6773207265D6
:1018E0007472696576656420280000004843000032
:1018F00048430000A041000034420000C8420000FC
:10190000C842F0F7FB4300000C43DC050000DC0597
:1019100000006400000010270000204D61726C6917
:101920006E3D563838290A00454550524F4D2076B5
:10193000657273696F6E206D69736D617463682081
:1019400028454550524F4D3D0045315F5345524962
:10195000414C5F52585F50494E0045315F534552EC
:1019600049414C5F54585F50494E0045305F5345E4
:101970005249414C5F52585F50494E0045305F53C9
:10198000455249414C5F54585F50494E005A5F538D
:10199000455249414C5F52585F50494E005A5F537F
:1019A000455249414C5F54585F50494E00595F536E
:1019B000455249414C5F52585F50494E00595F5360
:1019C000455249414C5F54585F50494E00585F534F
:1019D000455249414C5F52585F50494E00585F5341
:1019E000455249414C5F54585F50494E005A5F532D
:1019F0005445505F50494E005A5F454E41424C4558
:101A00005F50494E005A5F4449525F50494E005959
:101A10005F535445505F50494E00595F454E414217
:101A20004C455F50494E00595F4449525F50494E02
:101A300000585F535445505F50494E00585F454E23
:101A400041424C455F50494E00585F4449525F50F7
:101A5000494E005A5F4D494E5F50524F42455F50CC
:101A6000494E0045315F444941475F50494E00456A
:101A7000305F444941475F50494E005A5F444941F5
:101A8000475F50494E00595F444941475F50494EB6
:101A900000585F444941475F50494E005A5F5354D4
:101AA0004F505F50494E005A5F4D41585F50494E6C
:101AB00000595F53544F505F50494E00595F4D419C
:101AC000585F50494E00585F53544F505F50494E35
:101AD00000585F4D494E5F50494E00534552564F96
:101AE000335F50494E00534552564F325F50494E76
:101AF00000534552564F315F50494E0053455256A0
:101B00004F305F50494E0053445F53535F50494E2E
:101B100000534453530053445F53434B5F50494E6B
:101B20000053445F4D4F53495F50494E0053445F4B
:101B30004D49534F5F50494E004D4F534645545FFA
:101B4000445F50494E004D4F534645545F435F50EC
:101B5000494E004D4F534645545F425F50494E0039
:101B60004D4F534645545F415F50494E0054454DDB
:101B7000505F305F43535F50494E004C45445F50C7
:101B8000494E004845415445525F4245445F5049E3
:101B90004E004845415445525F315F50494E004820
:101BA00045415445525F305F50494E0046414E5FBB
:101BB00050494E0045315F535445505F50494E00E7
:101BC00045315F454E41424C455F50494E004531DD
:101BD0005F4449525F50494E0045305F5354455071
:101BE0005F50494E0045305F454E41424C455F5085
:101BF000494E0045305F4449525F50494E004558B8
:101C000050325F30385F50494E00455850325F3097
:101C1000375F50494E00455850325F30365F50496B
:101C20004E00455850325F30355F50494E004558A0
:101C300050325F30345F50494E00455850325F306B
:101C4000335F50494E00455850325F30325F504943
:101C50004E00455850325F30315F50494E00455874
:101C600050315F30385F50494E00455850315F3039
:101C7000375F50494E00455850315F30365F50490C
:101C80004E00455850315F30355F50494E00455841
:101C900050315F30345F50494E00455850315F300D
:101CA000335F50494E00455850315F30325F5049E4
:101CB0004E00455850315F30315F50494E0041561B
:101CC000525F53535F50494E004156525F53434B4E
:101CD0005F50494E004156525F4D4F53495F504946
:101CE0004E004156525F4D49534F5F50494E00548C
:101CF000454D505F4245445F50494E0054454D505C
:101D00005F315F50494E0054454D505F305F504940
:101D10004E0046494C57494454485F50494E005480
:101D2000584430005258443000423A0020436F7506
:101D30006E7420413A004500626564002C2073797E
:101D40007374656D2073746F7070656421204865CD
:101D5000617465725F49443A20004572723A204DC1
:101D6000415854454D50004D415854454D502074F4
:101D700072696767657265640048656174696E675A
:101D8000204661696C65640048656174696E67200E
:101D90006661696C6564001000600350012C01905D
:101DA000012201D001180110020E0170020401E0AD
:101DB00002FA006003F0000004E600B004DC00A0BA
:101DC00005D200B006C8000008BE00A009B400801B
:101DD0000BAA00D00DA00090109600C0138C0070CC
:101DE000178200901B780010206E00C0246400E071
:101DF0002D500080353C00A03A2800A03D14000082
:101E00003F0000A03FECFF4572723A204D494E540E
:101E1000454D50004D494E54454D502074726967F0
:101E2000676572656400544845524D414C205255D7
:101E30004E4157415900546865726D616C2052756E
:101E40006E61776179000A0A0020205A5F4D494E81
:101E50005F50524F42453A0020205A5F4D41583A58
:101E6000002020595F4D41583A002020585F4D49CD
:101E70004E3A00202F002040002042403A002040EF
:101E80003A00496E76616C69642065787472756495
:101E900065720A00416374697665204578747275CD
:101EA0006465723A20001000C90210012C01400143
:101EB000220170011801B0010E01F001040150026D
:101EC000FA00B002F0003003E600D003DC0090041A
:101ED000D2007005C800A006BE000008B400B0091A
:101EE000AA00D00BA000600E960060118C000015B7
:101EF000820020197800C01D6E00A0226400B02767
:101F00005A00902C500000314600E0343C0010385C
:101F10003200903A2800603C1E00A03D1400803E34
:101F20000A00203F00002020506C616E6E657242F6
:101F3000756666657242797465733A200020467250
:101F40006565204D656D6F72793A200020436F6D95
:101F500070696C65643A204D617220203220323005
:101F600032340A00204C61737420557064617465CA
:101F7000643A20323032332D30352D3136207C20FA
:101F8000417574686F723A2028467261636B7461A0
:101F90006C20576F726B732C2064656661756C746E
:101FA00020636F6E666967290A004D61726C696E05
:101FB00020322E312E322E310A0020536F66747774
:101FC0006172652052657365740A002057617463FD
:101FD00068646F672052657365740A002042726FEF
:101FE000776E206F75742052657365740A00204502
:101FF000787465726E616C2052657365740A005066
:102000006F77657255700A0073746172740A0020EC
:10201000503A00205A3A0020593A0020583A0065B8
:102020006E6473746F7073206869743A20000000E6
:102030002100240027002A002D0030003300010178
:102040000000040107010A0100000A0B02090C0D3F
:102050000E0807030401000000000000000000005B
:102060000000000000000000000000000000000070
:10207000000000001211100000000000000000002D
:102080000000000000000000000000000000000050
:1020900020002300260029002C002F003200000120
:1020A00000000301060109010000220025002800AC
:1020B0002B002E0031003400020100000501080150
:1020C0000B010505050507050808080802020202BC
:1020D0000A0A0808040404040101010101010101C4
:1020E0000303030303030303040707070C0C0C0C8F
:1020F0000C0C0C0C02020202060606060606060678
:102100000B0B0B0B0B0B0B0B010210202008081004
:102110002040102040800201020108040201010257
:102120000408102040808040201008040201800430
:10213000020180402010080402010804020101028B
:10214000040810204080010204081020408024F47C
:1021500004D9201BC40C5C0E9804C4095F026507F7
:102160007101F405F900FB04B30048048700C103C2
:1021700069005803550003034500BE023A0084027B
:10218000310053022A002902250004022000E40144
:102190001C00C8011900AF01170098011400840148
:1021A0001300710110006101100051010E00430184
:1021B0000D0036010B002B010B0020010B00150157
:1021C00009000C01090003010800FB000800F300EE
:1021D0000800EB000700E4000600DE000600D8005F
:1021E0000600D2000600CC000500C7000500C200B2
:1021F0000500BD000400B9000400B5000400B100F2
:102200000400AD000400A9000400A5000300A20022
:1022100003009F0004009B0003009800030095004A
:10222000020093000300900003008D0002008B0069
:102230000300880002008600020084000300810081
:1022400002007F0002007D0002007B000200790096
:1022500002007700010076000200740002007200A4
:102260000100710002006F0002006D0001006C00AF
:1022700002006A00010069000200670001006600B8
:1022800001006500010064000200620001006100BD
:102290000100600001005F0002005D0001005C00C1
:1022A00001005B0001005A000100590001005800C4
:1022B00001005700010056000100550001005400C4
:1022C00001005300000053000100520001005100C2
:1022D0000100500001004F0001004E0000004E00C0
:1022E00001004D0001004C0001004B0000004B00BC
:1022F00001004A00010049000100480000004800B8
:1023000001004700010046000000460001004500B2
:1023100000004500010044000100430000004300AC
:1023200001004200000042000100410000004100A5
:102330000100400001003F0000003F0001003E009E
:1023400000003E0001003D0000003D0001003C0097
:1023500000003C0000003C0001003B0000003B008E
:1023600001003A0000003A00010039000000390085
:10237000010038000000380000003800010037007C
:102380000000370001003600000036000000360073
:102390000100350000003500000035000100340068
:1023A000000034000000340001003300000033005E
:1023B0000000330001003200000032000000320053
:1023C0000100310000003100000031000100300048
:1023D000000030000000300001002F0000002F003E
:1023E00000002F0000002F0001002E0000002E0032
:1023F00000002E0001002D0000002D0000002D0027
:1024000000002D0001002C0000002C0000002C001A
:1024100000002C0001002B0000002B0000002B000E
:1024200000002B0001002A0000002A0000002A0002
:1024300000002A00010029000000290000002900F6
:1024400000002900000029000100280000002800E9
:1024500000002800000028000000280001002700DC
:1024600000002700000027000000270000002700D0
:1024700001002600000026000000260000002600C3
:1024800000002600010025000000250000002500B6
:1024900000002500000025000000250001002400A8
:1024A000000024000000240000002400000024009C
:1024B000010023000000230000002300000023008F
:1024C0000000230000002300000023000100220080
:1024D0000000220000002200000022000000220074
:1024E0000000220001002100000021000000210066
:1024F0000000210000002100000021000000210058
:10250000010020000000200000002000000020004A
:10251000000020000000200000002000000020003B
:1025200001001F0000001F0000001F0000001F002E
:1025300000001F0000001F0000001F0001001E001F
:1025400000001E0000001E0000001E00000024F419
:10255000D43050C38E20C2A24017828B7011127AE1
:10256000910D816CD90AA861E108C75866076151CD
:1025700043061E4B5D05C145A7041A411104093DE0
:102580009803713931034036DB0265339102D43050
:102590005402802E1D02632CEE01752AC501B0285D
:1025A000A001102781018F2564012B244B01E0221B
:1025B0003401AC211F018D200D01801FFC00841E01
:1025C000ED00971DDF00B81CD200E61BC600201BE3
:1025D000BC00641AB200B219A8000A19A0006A1857
:1025E0009900D117910040178B00B5168400311661
:1025F0007E00B31579003A157300C7146F005814A4
:102600006A00EE1366008813630025135E00C7128C
:102610005B006C12570015125400C111510070116B
:102620004F0021114B00D61049008D104700461075
:10263000440002104200C00F4000800F3E00420FD5
:102640003C00060F3B00CB0E3800930E37005C0EAB
:102650003500270E3400F30D3200C10D3100900D0E
:102660003000600D2E00320D2D00050D2C00D90C10
:102670002B00AE0C2900850C29005C0C2700350CC2
:1026800027000E0C2600E80B2400C40B2400A00B2E
:1026900023007D0B23005A0B2100390B2100180B5E
:1026A0002000F80A1F00D90A1E00BB0A1E009D0A5E
:1026B0001D00800A1D00630A1C00470A1B002C0A2B
:1026C0001B00110A1A00F7091A00DD091900C409D4
:1026D0001900AB091900920917007B09180063095A
:1026E00017004C09160036091600200916000A09C1
:1026F0001500F5081500E0081400CC081400B8080F
:102700001400A4081400900813007D0812006B0840
:10271000130058081200460812003408110023085C
:1027200011001208110001081100F0071000E00765
:102730001000D0071000C0071000B0070F00A1075D
:10274000100091070E0083070F0074070F00650744
:102750000E0057070E0049070E003B070D002E071D
:102760000E0020070D0013070D0006070D00F906E7
:102770000C00ED060D00E0060C00D4060C00C806A7
:102780000C00BC060C00B0060C00A4060B00990659
:102790000C008D060B0082060B0077060B006C0602
:1027A0000B0061060A0057060B004C060A004206A1
:1027B0000A0038060A002E060A0024060A001A0635
:1027C0000A001006090007060A00FD050900F405C5
:1027D0000900EB050900E2050900D9050900D0054B
:1027E0000900C7050900BE050900B5050800AD05CB
:1027F0000800A50509009C050800940508008C0543
:102800000800840508007C050800740508006C05B4
:102810000700650508005D050700560508004E0520
:102820000700470507004005080038050700310587
:1028300007002A050700230507001C0506001605EA
:1028400007000F0507000805060002050700FB0446
:102850000600F5040700EE040600E8040600E204A2
:102860000700DB040600D5040600CF040600C904F7
:102870000600C3040600BD040600B7040600B10448
:102880000500AC040600A6040600A00405009B0495
:10289000060095040500900406008A0405008504DE
:1028A0000500800406007A04050075040500700424
:1028B00005006B04050066040500610405005C0466
:1028C000050057040500520405004D0405004804A6
:1028D0000500430405003E0404003A0405003504E5
:1028E0000500300404002C04050027040400230420
:1028F00005001E0404001A04040016040500110457
:1029000004000D040400090405000404040000048C
:102910000400FC030400F8030400F4030400F003C3
:102920000400EC030400E8030400E4030400E003F3
:102930000400DC030400D8030400D4030400D00323
:102940000400CC030400C8030300C503030072297C
:1029500000007C200000AD160000270E00001208C9
:102960000000570400004102000026010000486FEB
:102970006D696E67204661696C656400FF010150F6
:10298000726F62696E67204661696C65640A002037
:102990005A3A200020593A200042656420583A20D3
:1029A0000020202000202020416E616C6F6720698C
:1029B0006E203D2025356C64003C756E7573656432
:1029C0002F756E6B6E6F776E3E0020284125326446
:1029D00029202000253364200050494E3A20004F22
:1029E00075747075742000496E70757420200041F4
:1029F0006E616C6F6720696E203D2025356C640028
:102A000070726F74656374656420002028412532FC
:102A10006429202000253364200050494E3A2000CC
:102A2000241D00011F1D0101121D3B00071D450053
:102A3000FC1C4300EF1C4400E21C3201D51C330196
:102A4000C91C3401BE1C3501B21C2501A61C230182
:102A50009A1C11018E1C1001821C1701761C190191
:102A60006A1C1B015E1C1D01521C3201461C3401F4
:102A70003A1C1F012E1C3501221C2101161C33019A
:102A80000A1C3101FE1B2901F31B1C01E51B180167
:102A9000D91B1A01CE1B2201C01B1E01B41B24012D
:102AA000AC1B04019F1B0A01921B0701831B080139
:102AB0007B1B0D016D1B4201601B0A01531B0901A9
:102AC000461B0801391B07012D1B3201211B330155
:102AD000161B3401111B3501071B3501FC1A1501AA
:102AE000F11A1501E61A2701DB1A2001D11A030198
:102AF000C61A0301BC1A0F01B11A0F01A71A13015C
:102B00009C1A1301911A0301861A0E017B1A1201F5
:102B10006F1A0201631A0F01531A0501491A37018E
:102B20003C1A2601311A3601271A3D011A1A3801BA
:102B30000F1A3C01051A3001F8193E01ED192E015A
:102B4000DD192801CD193F01BD193B01AD19400127
:102B50009D192A018D1941017C192C016B19420123
:102B60005A19140149190C01220A00556E6B6E6F37
:102B7000776E20636F6D6D616E643A202200204590
:102B800000205A0020590020204D3932205800538F
:102B9000746570732070657220756E697400486F7B
:102BA0006D652025732046697273740020453A00D4
:102BB000205A3A0020593A00583A006F6B0A0052E6
:102BC0006573656E643A20005072696E7465722098
:102BD00068616C7465642E206B696C6C28292063B5
:102BE000616C6C6564210A0008AE11241FBECFEF32
:102BF000D1E2DEBFCDBF00E00CBF84B780930111EE
:102C000014BE0FB6F894A8958091600088618093F7
:102C10006000109260000FBE13E0A0E0B2E0E0E1BF
:102C2000F7E801E00BBF02C007900D92AA38B10788
:102C3000D9F721E1AAE8B3E001C01D92A130B207A3
:102C4000E1F715E1C5EFD5E100E006C021970109E4
:102C5000802FFE010E9450C0C43FD10780E00807CA
:102C6000A9F70E94A9B00C9486C30C940000EF92BF
:102C7000FF920F931F93E0929703F09298030093B3
:102C8000990310939A0360939B0370939C03809322
:102C90009D039FEFFF27621B730B840B30F480951D
:102CA00070956195790B890B992790939603A6E00F
:102CB0006A9F00928A03512DEE277A9F500DE11DE5
:102CC0008A9FE00D50938B03E0938C03AFE06A9FE3
:102CD00000928E03512DEE277A9F500DE11D8A9FA1
:102CE000E00D50938F03E0939003AAE06A9F009257
:102CF0009203512DEE277A9F500DE11D8A9FE00D22
:102D000050939303E09394031F910F91FF90EF90E2
:102D1000089593E0980F21E030E002C0220F331FA6
:102D20009A95E2F72095309590915F05292320939D
:102D30005F05882321F0813021F081E00895129A07
:102D4000FCCF479AFACF21E030E0082E02C0220FD4
:102D5000331F0A94E2F72095309590915F0529235F
:102D600020935F05813061F020F0823071F081E0C6
:102D700008955F9A809146078E7F80934607F7CF2C
:102D80008A9A809146078D7FF8CF809108018095BF
:102D9000817080930601809146078B7FEECF9F92D2
:102DA000AF92BF92CF92DF92EF92FF920F931F9359
:102DB000CF93DF9300D01F921F92CDB7DEB7E9EE1D
:102DC000F5E10027BB27462F572FA82FAA2341F450
:102DD000A52F542FB85FAA2319F4A52F5527B85F44
:102DE000A03138F45295A295452F4F70507FA42BF7
:102DF000BC5FA03428F4550FAA1F550FAA1FBE5F51
:102E0000A03818F4550FAA1FB395550FAA1FEA0F43
:102E1000F01F449151E0AA27B85079F1C0F0B0FFFB
:102E200002C0440F551FB1FF04C0440F551F440F8B
:102E3000551FB2FF06C052954295142F1F70407F58
:102E4000512BB3FF1AC0A52F542F442716C0B1959C
:102E5000B0FF02C055954795B1FF04C05595479501
:102E600055954795B2FF05C05295407F4295452B39
:102E70005F70B3FF02C0452F5527DD24CC24BB244F
:102E8000B2E0649FD018C108B00AB00B749FC0189C
:102E9000B108B00B849FB018B109659FC018B10884
:102EA000B00B759FB018B109859FB0196A9FB01813
:102EB000B1097A9FB0194D9DA12C992433279927E8
:102EC00022275D9DA00C911C301F901F201FAD9DDF
:102ED000900C311D901F201F4C9DA00C911C301F89
:102EE000901F201F5C9D900C311D901F201FAC9DDA
:102EF000300D911D201F4B9D900C311D901F201FE8
:102F00005B9D300D911D201FAB9D900D211D4B9F92
:102F1000300D911D201F5B9F900D211DAB9F200D3B
:102F2000B1E0BB24CC24DD24639FD018C108B00AD3
:102F3000B00B739FC018B108B00B839FB018B109D4
:102F4000699FC018B108B00B799FB018B109899F6B
:102F5000B019629FB018B109729FB019D61AC70A8A
:102F6000B80A20F0B1E03B0F901F201F1124792FE9
:102F7000632F90E0822F0F900F900F900F900F9083
:102F8000DF91CF911F910F91FF90EF90DF90CF9045
:102F9000BF90AF909F900895AF92BF92CF92DF9273
:102FA000EF92FF920F931F93CF93DF93C3E6D7E087
:102FB00001E514E083E7A82E87E0B82EC12CD12CC0
:102FC0007601C39469917991899199910E94F0BB9E
:102FD000288939894A895B890E9451BC0E94D8C1DD
:102FE000F80161937193819391938F01C616D7066F
:102FF000E806F90610F46B017C01AC16BD0611F76A
:103000006FEF7FEFCB01A70196010E94C6BF20930F
:103010006104309362044093630450936404DF912D
:10302000CF911F910F91FF90EF90DF90CF90BF90C5
:10303000AF9008957F928F929F92AF92BF92CF925E
:10304000DF92EF92FF920F931F93CF93DF937090D5
:10305000A504C5E4D4E095E1C92E92E0D92E29E17A
:10306000E22E22E0F22E0DE914E0772009F45EC092
:10307000F80180809180A280B38020E030E0A90137
:10308000C501B4010E94ECBB882309F44FC020E0C5
:1030900030E040E05FE3C501B4010E9451BC9B01F8
:1030A000AC010E9451BC2BED3FE049E450E40E948A
:1030B00051BC9B01AC0160E070E080E89FE30E949E
:1030C0006BC14B015C0189929992A992B992F60168
:1030D000619171916F01072E000C880B990B0E9472
:1030E000F2BB2AE037ED43E25CE30E9451BCA5014C
:1030F00094010E9451BCF701619371938193919364
:103100007F010C5F1F4FF4E0CD34DF0709F0ADCF36
:10311000DF91CF911F910F91FF90EF90DF90CF90B3
:10312000BF90AF909F908F907F900895812C912CAD
:1031300080E8A82E8FE3B82EC6CF80910D10909115
:103140000E10891B8F7019F490E080E00895909123
:103150000A10992351F0833030F48FEF890F19F062
:1031600080930A10F1CF10920A1080910E1028E57A
:10317000829FC00111248C53984FFC01208120FDB7
:10318000E3CF20910E102F5F2F7020930B10309102
:103190000E1020910C10321304C020910B102093BC
:1031A0000C100895FC017081472F50E0062E02C0DC
:1031B000559547950A94E2F740FF14C04091860563
:1031C00050E0062E02C0559547950A94E2F740FF5D
:1031D00009C021E030E001C0220F6A95EAF720958E
:1031E000272320830895CF93DF9324E0829FC0019B
:1031F0001124EC01CC5BD24FFC01EC5AF84F875CF8
:103200009B4FDC012D913D914D915C9160817181CD
:10321000828193810E948FC0688379838A839B8394
:10322000DF91CF9108958091350490913604A0915B
:103230003704B09138048093440290934502A093E0
:103240004602B093470280913304909134049093E6
:1032500014028093130208958091440290914502D4
:10326000A0914602B09147028093350490933604B2
:10327000A0933704B0933804809113029091140204
:10328000909334048093330484E690E09093140286
:10329000809313020895CF93DF93909126049111A8
:1032A0001BC0C0911102D091120221979CE2899F0C
:1032B000F0011124E65CF14F20E030E040E05FE3F4
:1032C00064817581868197810E948FC00E94D3C1DD
:1032D00021E06C177D070CF020E0822FDF91CF9169
:1032E000089590E080E008952091FC03833021F45C
:1032F00025FD0CC024FD0CC030E0A90102C055958D
:1033000047958A95E2F7CA018170089581E0089592
:1033100080E008958091180484FD0BC080911A0408
:1033200087FD07C090911B04937081E019F480E041
:10333000089581E00895EAE3FEE081E0838787ABAA
:1033400008952FEB280F2A3108F047C0E22FF0E054
:103350008091180490911904A0911A04B0911B0453
:1033600004C0B695A795979587952A95D2F780FDC5
:1033700002C081700895E250FC4FE081EE2341F1DC
:103380008091610790916207E80FF92FF11D80810C
:1033900090ED980F9A3030F08E3251F48181805345
:1033A0008A3098F4F093F903E093F80381E00895EC
:1033B0008D3211F08B3249F4818190ED980F9A3063
:1033C00088F38E3211F48281EACFF0E0E0E0EACFB8
:1033D0001092F9031092F803E9CF80E00895B1DF6D
:1033E000882341F081E02091F8033091F903232BE9
:1033F00009F480E00895E7EEF3E080EF9FEFA9E79E
:10340000B4EC84839583A683B78380839183A2835E
:10341000B383E1EDF3E08DE98183808308958F929A
:103420009F92AF92BF92CF92DF92EF92FF92FC01F8
:1034300098E0A3E9B4E001900D929A95E1F788E055
:10344000FB01AAE8B4E001900D928A95E1F7C090E3
:103450009304D0909404E0909504F090960420E0BA
:1034600030E0A901C701B6010E94ECBB8823E1F15D
:10347000A701960160E070E080E89FE30E946BC1C5
:103480006B017C018090970490909804A09099041F
:10349000B0909A0420E030E0A901C501B4010E9477
:1034A000ECBB882329F1A501940160E070E080E87D
:1034B0009FE30E946BC1C092DF03D092E003E092D1
:1034C000E103F092E2036093E3037093E4038093DB
:1034D000E5039093E603FF90EF90DF90CF90BF90CD
:1034E000AF909F908F900895C12CD12C7601CACFB8
:1034F00060E070E0CB01DFCF10928E0410928F0459
:10350000109290041092910410928A0410928B04ED
:1035100010928C0410928D041092970410929804CB
:103520001092990410929A041092930410929404A9
:103530001092950410929604E6EAF4E080E090E0A0
:10354000A0ECBFE780839183A283B38384839583B8
:10355000A683B78380879187A287B387848795875F
:10356000A687B787709624E0E63EF20759F70895DC
:10357000882319F0813021F0089580E00C9444AB49
:10358000479880915F05806180935F0508950F9350
:103590001F93CF93DF9307E717E0C6E6D4E0F80167
:1035A00021913191419151918F0160E070E080E86B
:1035B0009FE30E946BC16993799389939993F4E097
:1035C000C637DF0761F70E94AA94DF91CF911F9160
:1035D0000F91E2CC2F923F924F925F926F927F9227
:1035E0008F929F92AF92BF92CF92DF92EF92FF9213
:1035F0000F931F93CF93DF93CDB7DEB7A0970FB68E
:10360000F894DEBF0FBECDBF1C017B015E834D83EE
:10361000FC01E95BFF4F2081318142815381298385
:103620003A834B835C83CA01B9010E94F0BB4B0112
:103630005C01D7012D913D914D915C910E9451BC4F
:103640000E9455C12B013C01ED81FE812081318119
:1036500042815381C501B4010E9451BC0E9455C1F1
:103660006B017C01C301B2010E94D8C169877A87CE
:103670008B879C87683771058105910540F428E7A1
:1036800030E040E050E029873A874B875C87C701EC
:10369000B6010E94D8C16D877E878F87988B683767
:1036A00071058105910548F428E7C22ED12CE12C43
:1036B000F12CCD86DE86EF86F88AD1019596CD90E5
:1036C000DD90ED90FC909897CD82DE82EF82F886B7
:1036D000F101ED5AFF4F6081718182819381611503
:1036E00071058105910509F49FC10E94F2BB6D8BA4
:1036F0007E8B8F8B988F9B01AC0160E070E080E83F
:103700009FE30E946BC1698F7A8F8B8F9C8F20E023
:1037100030E040E05FE30E9451BC6B017C01A501F9
:103720009401C501B4010E9451BC2B013C016D857F
:103730007E858F8598890E94F0BB9B01AC010E9419
:1037400051BC9B01AC01C301B2010E948EC0A70114
:1037500096010E9451BC4B015C0169857A858B857D
:103760009C850E94F0BB9B01AC010E9451BC6D8FF7
:103770007E8F8F8F98A39B01AC01C301B2010E9481
:103780008EC0A70196010E9451BC2B013C010E94F2
:1037900055C10E94D8C16B017C01C501B4010E94D2
:1037A00004C20E94D8C1698B7A8B8B8B9C8BDC0105
:1037B000CB018C0D9D1DAE1DBF1D2D813E814F8106
:1037C0005885281B390B4A0B5B0BDA01C901B7FF7F
:1037D00061C06D817E818F8198850E94F0BBA301BD
:1037E00092010E948FC0A50194010E948EC020E02A
:1037F00030E040E05FE30E9451BC0E9455C16B0184
:103800007C0120E030E0A9010E94B5C218161CF02E
:10381000C12CD12C7601C701B6010E94D8C16B0121
:103820007C014D815E816F8178854C155D056E054B
:103830007F0510F46A017B016D817E818F819885FF
:103840006C197D098E099F09698B7A8B8B8B9C8BF8
:10385000C701B6010E94F0BB4B015C012D893E8976
:103860004F89588DCA01B9010E948FC09B01AC01DC
:10387000C501B4010E9451BC2D8D3E8D4F8D58A1C4
:103880000E948FC00E94FAC20E94D8C169837A83C5
:103890008B839C8320E034E244EF59E4698D7A8D78
:1038A0008B8D9C8D0E9451BC4B015C0169817A819A
:1038B0008B819C8129853A854B855C85621B730BC6
:1038C000840B950B0E94F0BBA50194010E9451BC92
:1038D0000E94D8C12B013C0169817A818B819C8136
:1038E0002D853E854F855889621B730B840B950B84
:1038F0000E94F0BBA50194010E9451BC0E94D8C156
:103900004B015C013FE6431651046104710408F069
:1039100097C0F201EE0FFF1FEE0FFF1FE35DFB4E9E
:1039200085919591A591B4918C01AD8BBD834FE6A6
:1039300084169104A104B10408F089C0F401EE0FCB
:10394000FF1FEE0FFF1FE35DFB4E45915591659103
:1039500074919A01CB01D1019A96CD92DD92ED92AC
:10396000FC929D9795964D915D916D917C91989764
:10397000C988DA88EB88FC884C195D096E097F09D3
:103980009E964D935D936D937C93D197F101E55B8A
:10399000FF4FC984DA84EB84FC84C082D182E28246
:1039A000F382D6964D925D926D927C92D997F101F9
:1039B00082AE93AEA4AEB5AEFE9600831183CD88E1
:1039C000C282DD80D38234962083318382839383C5
:1039D000C980DA80EB80FC80D296CD92DD92ED92A8
:1039E000FC92D5973D96CD84DE84EF84F888C08222
:1039F000D182E282F382A0960FB6F894DEBF0FBEAA
:103A0000CDBFDF91CF911F910F91FF90EF90DF908D
:103A1000CF90BF90AF909F908F907F906F905F906E
:103A20004F903F902F900895198E1A8E1B8E1C8EEA
:103A3000198A1A8A1B8A1C8AC12CD12C76012ACF9A
:103A4000C301B201ACD98B018D8B9D8370CFC501B1
:103A5000B401A5D99B017FCF4F925F926F927F9265
:103A60008F929F92AF92BF92CF92DF92EF92FF928E
:103A70000F931F93CF93DF93EC0120918A04309131
:103A80008B0440918C0450918D04688179818A81E6
:103A90009B810E948EC06B017C0120918E0430912D
:103AA0008F0440919004509191046C817D818E81AE
:103AB0009F810E948EC04B015C01A701960160911D
:103AC000E7037091E8038091E9039091EA030E9473
:103AD000ECBB882309F450C0C092E703D092E803FE
:103AE000E092E903F092EA032091DF033091E003D2
:103AF0004091E1035091E203C701B6010E9451BC1D
:103B00002B013C010E9404C26B017C0120E030E0EB
:103B1000A9010E94ECBB87FD70C020E030E040E0CE
:103B200050E4C701B6010E94B5C218162CF4C12C8E
:103B3000D12CE12CA0E4FA2EA7019601C301B20119
:103B40000E948EC06093D7037093D8038093D903EB
:103B50009093DA03C701B6010E94D3C16093D503E5
:103B6000062E000C770B6F5F7F4F6330710514F0EA
:103B700063E070E06093D303D091D103C091D5038B
:103B8000A50194016091EB037091EC038091ED032A
:103B90009091EE030E94ECBB811133C0DC1381C015
:103BA0002091B9033091BA034091BB035091BC03FB
:103BB0006091D7037091D8038091D9039091DA0373
:103BC0000E9451BC2091BD033091BE034091BF03C0
:103BD0005091C0030E948FC0DF91CF911F910F9130
:103BE000FF90EF90DF90CF90BF90AF909F908F901D
:103BF0007F906F905F904F900895C12CD12C7601EB
:103C00009BCF8092EB039092EC03A092ED03B092D5
:103C1000EE032091E3033091E4034091E5035091DA
:103C2000E603C501B4010E9451BC4B015C010E9436
:103C300004C26B017C0120E030E0A9010E94ECBBD2
:103C400087FDF4C020E030E040E050E4C701B60159
:103C50000E94B5C218162CF4C12CD12CE12CF0E432
:103C6000FF2EA7019601C501B4010E948EC060938A
:103C7000DB037093DC038093DD039093DE03C701C5
:103C8000B6010E94D3C16093D603062E000C770BB9
:103C90006F5F7F4F6330710514F063E070E06093F5
:103CA000D4030091D603DC1305C08091D2038017A2
:103CB00009F471C08091D5039091D6039093D203FB
:103CC0008093D103002E000C110B24E0C202C0012E
:103CD0001124FC01E00FF11FEE0FFF1FEE0FFF1F7D
:103CE000EA55FB4F20813181428153812093CD03DE
:103CF0003093CE034093CF035093D003C091D403AD
:103D00000C2E000CDD0BFC01EC0FFD1FEE0FFF1F56
:103D1000EE0FFF1FEA55FB4F608171818281938115
:103D20000E948EC06093C9037093CA038093CB0333
:103D30009093CC038091D30324E08202C00111242C
:103D4000FC01E00FF11FEE0FFF1FEE0FFF1FEA5502
:103D5000FB4F20813181428153812093C5033093F1
:103D6000C6034093C7035093C803C80FD91FCC0F95
:103D7000DD1FCC0FDD1FCA55DB4F688179818A8139
:103D80009B810E948EC06093C1037093C203809395
:103D9000C3039093C4038090DB039090DC03A09056
:103DA000DD03B090DE032091C9033091CA03409136
:103DB000CB035091CC03C501B4010E9451BC2091AA
:103DC000CD033091CE034091CF035091D0030E9498
:103DD0008FC06B017C01C092BD03D092BE03E09204
:103DE000BF03F092C0032091C1033091C203409100
:103DF000C3035091C403C501B4010E9451BC20917A
:103E0000C5033091C6034091C7035091C8030E9477
:103E10008FC0A70196010E948EC06093B903709372
:103E2000BA038093BB039093BC03BACEC12CD12CB0
:103E3000760117CF2F923F924F925F926F927F92AF
:103E40008F929F92AF92BF92CF92DF92EF92FF92AA
:103E50000F931F93CF93DF93D62FC72FFC01808042
:103E60009180A280B380C501B40120E831E541E032
:103E700050E00E94C6BFC9016DE671E00E9429C0F2
:103E80006B017C01C501B40120E13EE040E050E05F
:103E90000E94C6BFCA01B90128E130E040E050E00D
:103EA0000E94C6BF362E272E062F172F8CE3482ED2
:103EB000512C612C712CC501B401A30192010E9407
:103EC000C6BFB62EA72ECA01B901A30192010E9456
:103ED000C6BFCB01C114D10479F1AF92BF927F93D9
:103EE0006F932F923F92FF92EF92DF92CF928CEBE3
:103EF00091E19F938F93CF93DF930E94BDBB8DB7CA
:103F00009EB70E960FB6F8949EBF0FBE8DBF8D2F35
:103F10009C2FDF91CF911F910F91FF90EF90DF9039
:103F2000CF90BF90AF909F908F907F906F905F9059
:103F30004F903F902F900895E114F104C9F0AF9293
:103F4000BF927F936F932F923F92FF92EF928CEAF2
:103F500091E19F938F93CF93DF930E94BDBBEDB709
:103F6000FEB73C960FB6F894FEBF0FBEEDBFCFCFA5
:103F7000012BB9F0AF92BF927F936F932F923F9234
:103F800080EA91E19F938F93CF93DF930E94BDBB13
:103F90008DB79EB70A960FB6F8949EBF0FBE8DBF21
:103FA000B6CF892BA9F0AF92BF927F936F9388E928
:103FB00091E19F938F93CF93DF930E94BDBBEDB7A9
:103FC000FEB738960FB6F894FEBF0FBEEDBF9FCF79
:103FD000AF92BF9284E991E19F938F93CF93DF9348
:103FE0000E94BDBB0F900F900F900F900F900F90FD
:103FF0008ECFAF92BF92CF92DF92EF92FF920F934C
:104000001F93CF935C016B018A018E559C4F7C01FD
:10401000DC01CC91C7FF3DC0FB0111821082CF5F54
:10402000D701CC93CC300CF053C08CE08A9DF001CA
:104030008B9DF00D1124CF018C0F911DC7FD9A951A
:10404000209106102817190609F00CF441C0F6015A
:1040500020813181FC01EE0FFF1FE80FF91FE254B0
:10406000F04F81819281820F931FD80111969C930A
:104070008E93808187FF3DC061E08F77CF911F9144
:104080000F91FF90EF90DF90CF90BF90AF900C9486
:10409000B3988CE08A9DF0018B9DF00D1124CF0127
:1040A0008C0F911DC7FD9A952091061028171906AF
:1040B00009F00CF4B4CFFC01EE0FFF1FE80FF91F5D
:1040C000E254F04F808160E08F770E94B398A7CFD1
:1040D000F6018081918104968034FCE99F0710F4F9
:1040E00080E49CE9D80111969C938E938FEFF701A1
:1040F0008083CF911F910F91FF90EF90DF90CF9031
:10410000BF90AF9008958091F8039091F9030097C4
:1041100031F04AE050E070E060E00C942CB960E0CF
:1041200070E0CB010895EFDF97FD0AC0ECDF6F3F31
:1041300071058105910509F02CF4E5DF862F0895BE
:1041400080E008958FEF0895CF93C62F48D9882334
:1041500011F0CF91E8CF8C2FCF9108958091F80383
:104160009091F903892B39F0DEDF91E0811101C0D4
:1041700090E0892F089591E0FCCFCF93DF93C82F73
:10418000D62F2DD9882319F0DF91CF91E7CF8C2F2F
:10419000D8D8811101C08D2FDF91CF910895B3DF61
:1041A000CB010895CF93DF93EB0119D9882319F040
:1041B000DF91CF91F4CFCE01DF91CF9108950F938E
:1041C0001F93CF938091F8039091F903009709F121
:1041D000FC018F01C1912C2F2F7DA1F0C53431F04E
:1041E000C53621F0C83511F0C83799F7F8011082AB
:1041F00070E060E00E94D7B7F801C083CF911F91B3
:104200000F91089570E060E0CF911F910F910C9491
:10421000D7B760E070E0CB01F1CFCF92DF92EF92A1
:10422000FF926A017B01DBD8882329F0FF90EF9091
:10423000DF90CF90C4CFC701B601FF90EF90DF9021
:10424000CF9008954F925F926F927F92AF92BF92FC
:10425000CF92DF92EF92FF920F931F93CF9383E160
:10426000A82E83E0B82E93EAE92E95E0F92E0EE50C
:1042700012E024E4C22E2DE0D22EC0E0F50181919F
:104280005F01ADD8882309F4A2C099DF2B013C015E
:104290008C2F2AD8882309F490C0F801208131811D
:1042A00042815381C301B2010E948FC0F701608334
:1042B000718382839383CF5FF4E0EF0EF11C0C5F78
:1042C0001F4F84E0C80ED11CC330C1F685E487D8E7
:1042D000882309F487C073DF6B017C0183E004D875
:1042E000882371F020916A0230916B0240916C0238
:1042F00050916D02C701B6010E948FC06B017C0115
:10430000C092AF05D092B005E092B105F092B2052F
:1043100040E050E0BA0186E480DF20E030E0A9010F
:104320000E94B5C218167CF44ADF20E030E040E776
:1043300052E40E946BC160934402709345028093E3
:104340004602909347028091B90583FD28C0809171
:10435000B405882321F120916A0230916B024091CB
:104360006C0250916D026091AF057091B005809123
:10437000B1059091B2050E948EC02091C007309186
:10438000C1074091C2075091C3070E948FC060933C
:10439000C0077093C1078093C2079093C307CF9162
:1043A0001F910F91FF90EF90DF90CF90BF90AF9053
:1043B0007F906F905F904F900895F601208131813A
:1043C00042815381C301B2010E948EC06FCFF801B8
:1043D00080819181A281B381F70180839183A2833F
:1043E000B38369CF80916A0290916B02A0916C02B5
:1043F000B0916D028093AF059093B005A093B10585
:10440000B093B20585CF0F930FB70F9300916E0055
:104410000F930D7F00936E0000916F000D7F00934E
:104420006F000F930BB70F930CB70F921F922F9340
:104430003F934F935F936F937F938F939F93AF932C
:10444000BF93EF93FF93112484D4FF91EF91BF9119
:10445000AF919F918F917F916F915F914F913F911C
:104460002F911F900F900CBF0F910BBF0F91026007
:10447000F89400936F000F9100936E000F910FBF9F
:104480000F91189500008091B70580FF27C0899A89
:104490008FEF8093F9048091B70581FF22C08F9A36
:1044A0008FEF8093FA048091B70582FF1DC0809141
:1044B0000B0180958270809309018FEF8093FB043C
:1044C0008091FD049091B70593FF17C0811113C02F
:1044D00016988FEF8093FC0400000895899881E07E
:1044E000D8CF8F9881E0DDCF80910B0182708093CF
:1044F000090181E0E3CF439AECCF811103C0169A02
:1045000081E0E8CF4398FCCF80E00E94891681E0EB
:104510000C94891680E00E94A31681E00E94A316E5
:1045200082E00E94A316F0CF813089F070F08230D3
:1045300081F021E030E001C0220F8A95EAF78091F6
:104540005F05822B80935F0508955F98F2CF8A986C
:10455000F0CF90910801917090930601EACFCF932C
:10456000DF9320919204222371F0EC0175DA9B0114
:10457000AC01688579858A859B850E948FC0688794
:1045800079878A879B87DF91CF91089590916F00FB
:1045900081E091FD02C080E0089590916F009D7FC1
:1045A00090936F000895EFE6F0E080818260808351
:1045B00008958F929F92AF92BF92CF92DF92EF9227
:1045C000FF920F931F93CF93DF93182F84E0189FD0
:1045D000E0011124123008F046C0D8DF082FD6DFE2
:1045E00080904F0590905005A0905105B0905205D5
:1045F0008111D9DFCBDFC0905305D0905405E090F6
:104600005505F09056058111CEDF0111CCDF113038
:1046100019F5C501B4016C197D098E099F090E9425
:10462000F2BB20E030E040E05FE30E9451BCCA5999
:10463000DB4F288139814A815B810E9451BCDF9127
:10464000CF911F910F91FF90EF90DF90CF90BF908F
:10465000AF909F908F900895C701B601680D791DA6
:104660008A1D9B1DDCCF92DFFE01E15BFA4FC0800B
:10467000D180E280F380811196DFC701B6010E94EC
:10468000F2BBD5CF8F929F92AF92BF92CF92DF9223
:10469000EF92FF921F93CF93DF93CDB7DEB7609772
:1046A0000FB6F894DEBF0FBECDBF182F80E081DFBC
:1046B0004B015C018092270490922804A092290467
:1046C000B0922A0481E075DF6B017C01C0922B045B
:1046D000D0922C04E0922D04F0922E0482E069DF47
:1046E00060932F04709330048093310490933204CC
:1046F0001D861E861F86188A89829A82AB82BC829A
:10470000CD82DE82EF82F88669877A878B879C87E5
:1047100083E04FDF6D877E878F87988B809192042F
:10472000882379F0CE01019697D99B01AC01698568
:104730007A858B859C850E948EC069877A878B8756
:104740009C871E3FD9F480E1FE013196AEE5B2E0D0
:1047500001900D928A95E1F760960FB6F894DEBF4E
:104760000FBECDBFDF91CF911F91FF90EF90DF90F3
:10477000CF90BF90AF909F908F90089584E0189F46
:10478000F0011124DF01A25ABD4F81E090E08C0FAF
:104790009D1FE80FF91F40815181628173814D9304
:1047A0005D936D937C931397D7CFCF92DF92EF9267
:1047B000FF92CF93DF93C82FE9DE94E0C99FE00119
:1047C0001124FE01ED5BFA4FC080D180E280F380BE
:1047D0008111E9DECA59DB4FC701B6010E94F2BB65
:1047E000288139814A815B810E9451BCDF91CF9140
:1047F000FF90EF90DF90CF900895CF93DF93CDB7E8
:10480000DEB72C970FB6F894DEBF0FBECDBF0E9467
:104810008D93BCDE9CE0EFE4F5E0DE0111960190A3
:104820000D929A95E1F78111BEDECE0101960E94AC
:1048300052AB2C960FB6F894DEBF0FBECDBFDF9102
:10484000CF910895CF93DF931F92CDB7DEB78983C1
:1048500060E0CE0101960E94D21861E0CE0101967F
:104860000E94D21862E0CE0101960E94D21889817E
:104870000F90DF91CF9108958F929F92AF92BF9248
:10488000CF92DF92EF92FF92CF93DF9320912A0293
:10489000222309F48EC0EC0180918605E82E80FF6A
:1048A0002CC080902C0290902D02A0902E02B090EF
:1048B0002F02288139814A815B81C501B4010E94A0
:1048C000B5C2181624F488829982AA82BB8280908D
:1048D000380290903902A0903A02B0903B022881B1
:1048E00039814A815B81C501B4010E94ECBB87FF1D
:1048F00004C088829982AA82BB82E1FE2CC080908B
:10490000300290903102A0903202B09033022C819C
:104910003D814E815F81C501B4010E94B5C2181668
:1049200024F48C829D82AE82BF8280903C02909063
:104930003D02A0903E02B0903F022C813D814E810D
:104940005F81C501B4010E94ECBB87FF04C08C826B
:104950009D82AE82BF82E2FE2CC0C0903402D09015
:104960003502E0903602F0903702288539854A8575
:104970005B85C701B6010E94B5C2181624F4C8862B
:10498000D986EA86FB86C0904002D0904102E09032
:104990004202F0904302288539854A855B85C7012C
:1049A000B6010E94ECBB87FF04C0C886D986EA86A0
:1049B000FB86DF91CF91FF90EF90DF90CF90BF907B
:1049C000AF909F908F900895CF92DF92EF92FF92D9
:1049D0000F931F93CF93DF93E82FF0E0EF01CC0FFD
:1049E000DD1FCC0FDD1F461739F0823009F049C0BA
:1049F000C12CD12C760117C08230D1F3A09145078C
:104A00008A2F90E0DC01AA0FBB1FA80FB91FAE0FC1
:104A1000BF1FAA0FBB1FAA0FBB1FA557BA4FCD9030
:104A2000DD90ED90FC908F01000F111F000F111F02
:104A3000F801E256FC4E2591359145915491C65DA1
:104A4000DD4FC701B6010E948FC06A837B838C83D0
:104A50009D83F801EE56FC4E259135914591549178
:104A6000C701B6010E948FC06E877F87888B998BA4
:104A7000DF91CF911F910F91FF90EF90DF90CF903A
:104A8000089550E0DA01AA0FBB1FA40FB51FAE0FA7
:104A9000BF1FAA0FBB1FAA0FBB1FA557BA4F862F58
:104AA00090E0BC01660F771F680F791FE60FF71FB4
:104AB000EE0FFF1FEE0FFF1FE557FA4F20813181E8
:104AC000428153816D917D918D919C910E948EC008
:104AD0006B017C01C65DDD4FAC019B016A817B816E
:104AE0008C819D810E948FC06A837B838C839D8390
:104AF000A70196016E857F8588899989B3CF4F92EA
:104B00005F926F927F928F929F92AF92BF92CF925D
:104B1000DF92EF92FF92CF93DF9300D01F921F920C
:104B2000CDB7DEB740905E0250905F0260906002A9
:104B3000709061028090620290906302A090640283
:104B4000B0906502C0906602D0906702E090680263
:104B5000F090690280916A0290916B02A0916C02C0
:104B6000B0916D0289839A83AB83BC830E94CC177A
:104B70000E949B190E941A181D828D810E94F318B1
:104B800040E060E08D8120DF9D819F5F9D839330B9
:104B9000A1F70E94FB190E94C71AA301920160911C
:104BA0005E0270915F0280916002909161020E94AA
:104BB000ECBB81112CC0A50194016091620270913F
:104BC000630280916402909165020E94ECBB8111A6
:104BD0001EC0A701960160916602709167028091E4
:104BE0006802909169020E94ECBB811110C029817A
:104BF0003A814B815C8160916A0270916B02809175
:104C00006C0290916D020E94ECBB8823A1F00F9082
:104C10000F900F900F900F90DF91CF91FF90EF903A
:104C2000DF90CF90BF90AF909F908F907F906F90CC
:104C30005F904F90E2CD0F900F900F900F900F90DC
:104C4000DF91CF91FF90EF90DF90CF90BF90AF902A
:104C50009F908F907F906F905F904F9008950C94ED
:104C6000AA948091B605811105C0809147078823D9
:104C700009F46EC080912504659B5AC081608093C1
:104C80002504909103018091250490FF53C0826018
:104C90008093250480912504639B4EC08860809397
:104CA0002504809125044A9B49C084608093250493
:104CB0008091330580FF10C08091B70585FF0CC03F
:104CC0008091250480FF08C0809142078160809315
:104CD000420780E00E9486AB8091330581FF10C0BF
:104CE0008091B70586FD0CC08091250481FF08C026
:104CF0008091420782608093420781E00E9486ABE8
:104D00008091330582FF24C08091B70582FF18C0CF
:104D1000809147078823E1F08091250483FF18C024
:104D20008091420788608093420782E00C9486ABB2
:104D30008E7FA5CF8D7FACCF877FB1CF8B7FB6CF56
:104D40008091250482FF04C0809142078460EBCFEC
:104D500008952F923F924F925F926F927F928F921F
:104D60009F92AF92BF92CF92DF92EF92FF920F93FA
:104D70001F93CF93DF93CDB7DEB762970FB6F8944A
:104D8000DEBF0FBECDBF8FEF9FEF90938900809362
:104D900088002AE0298B312C212C789480913C05C5
:104DA00090913D05A0913E05B0913F05892B8A2B3E
:104DB0008B2B09F0DFC1809142058823D1F08091CF
:104DC00040059091410510924205892B91F0109277
:104DD0004105109240051092330590910D1080917D
:104DE0000E10981731F080910E108F5F8F708093A6
:104DF0000E108091400590914105892B09F4BAC1AC
:104E0000409138055091390560913A0570913B0504
:104E10008091340590913505A0913605B091370504
:104E2000481759076A077B0708F0A4C1009141079A
:104E300010E030E020E0841B950BA60BB70B0817A1
:104E400019072A073B0710F4D901C8018A8B840F80
:104E5000951FA61FB71F8093380590933905A0931F
:104E60003A05B0933B05E1E0C0900205D090030500
:104E7000E0900405F09005058091120590911305CE
:104E8000A0911405B0911505C80ED91EEA1EFB1E8F
:104E9000C0921205D0921305E0921405F092150508
:104EA000F7FC18C08091FE049091FF04A0910005CA
:104EB000B0910105B701A601481B590B6A0B7B0B8A
:104EC000DB01CA018093120590931305A09314058A
:104ED000B09315050091060510910705209108056E
:104EE000309109058091160590911705A09118053C
:104EF000B0911905080F191F2A1F3B1F00931605B3
:104F000010931705209318053093190537FD18C025
:104F10008091FE049091FF04A0910005B0910105DD
:104F200028013901481A590A6A0A7B0AD301C201C9
:104F30008093160590931705A0931805B093190553
:104F400040910A0550910B0560910C0570910D057B
:104F500080911A0590911B05A0911C05B0911D052B
:104F6000480F591F6A1F7B1F40931A0550931B055A
:104F700060931C0570931D0577FD18C08091FE0499
:104F80009091FF04A0910005B09101053A014B01F9
:104F9000681A790A8A0A9B0AD401C30180931A0508
:104FA00090931B05A0931C05B0931D0580900E05E2
:104FB00090900F05A0901005B090110580911E05EE
:104FC00090911F05A0912005B0912105880D991D94
:104FD000AA1DBB1D80931E0590931F05A09320055D
:104FE000B0932105B7FD18C08090FE049090FF0497
:104FF000A0900005B09001052C013D01481859080A
:105000006A087B085301420180921E0590921F0599
:10501000A0922005B0922105E11104C0E091840026
:10502000F0918500F7FC1CC04090F904042C000CA2
:1050300055086608770880904F0590905005A0901D
:105040005105B0905205840C951CA61CB71C80928B
:105050004F0590925005A0925105B0925205889A42
:1050600037FD1CC04090FA04042C000C550866085B
:1050700077088090530590905405A0905505B09006
:105080005605840C951CA61CB71C80925305909263
:105090005405A0925505B09256058E9A77FD21C011
:1050A0004090FB04042C000C55086608770880909B
:1050B000570590905805A0905905B0905A05840C5A
:1050C000951CA61CB71C8092570590925805A0927B
:1050D0005905B0925A05E0910B01E095E870E09314
:1050E0000901B7FD20C04090FC04042C000C5508B9
:1050F0006608770880905B0590905C05A0905D0540
:10510000B0905E05840C951CA61CB71C80925B05B4
:1051100090925C05A0925D05B0925E05E091FD0461
:10512000E11104C2149AE0918400F0918500E091AD
:105130008400F0918500F7FE889837FF8E9877FD00
:1051400005C020910B01287020930901B7FD05C00F
:105150008091FD048111ECC114985A88552021F0EA
:1051600080918400909185002A8921502A8BE0E06B
:1051700021117ACE80913C0590913D05A0913E058C
:10518000B0913F05892B8A2B8B2B09F081C1E091CF
:105190004005F0914105309709F490C5809138059C
:1051A00090913905A0913A05B0913B0540913405A5
:1051B0005091350560913605709137058417950734
:1051C000A607B70708F4B6C1109241051092400532
:1051D0001092330590910D1080910E10981709F4DC
:1051E0006DC580910E108F5F8F7080930E1070EDE3
:1051F000C72E77E0D72EE12CF12C809140059091BD
:105200004105892B09F03CC10E949D1890934105EE
:1052100080934005892B09F433C1E0914005F0915A
:105220004105808183FD2EC5458956896789708D2A
:10523000C18CD28CE38CF48CDF01AA5BBF4F8C91C4
:105240008A8B81E04C155D056E057F0509F032C53E
:1052500080E0411551056105710551F02A892170E1
:105260009A899695917081E0291380E0291322C5CF
:10527000058D168D278D30A10115110521053105EC
:1052800009F0846080933305109222051092230563
:10529000109224051092250510922B0510922C05D2
:1052A00010922D0510922E0585A196A1A7A1B0A55B
:1052B0008093340590933505A0933605B093370558
:1052C000882499245401881A990AAA0ABB0A809250
:1052D000120590921305A0921405B09215058092C4
:1052E000160590921705A0921805B09219058092A4
:1052F0001A0590921B05A0921C05B0921D05809284
:105300001E0590921F05A0922005B092210581A054
:1053100092A0A3A0B4A0880C991CAA1CBB1C440F8B
:10532000551F661F771F4093020550930305609336
:10533000040570930505CC0CDD1CEE1CFF1CC0920F
:105340000605D0920705E0920805F0920905000FC6
:10535000111F221F331F00930A0510930B05209382
:105360000C0530930D0580920E0590920F05A092CA
:105370001005B0921105880F991FAA1FBB1F8093BB
:10538000FE049093FF04A0930005B09301051092D2
:1053900038051092390510923A0510923B0582A506
:1053A00093A5A4A5B5A580932F0590933005A09350
:1053B0003105B093320586A597A5A0A9B1A9809320
:1053C000270590932805A0932905B0932A0581A568
:1053D0008093FD049091B705AA899A1304C0909117
:1053E0002102891731F080932102BA89B093B70561
:1053F00049D837DC44244A94542C3201409222028A
:10540000509223026092240270922502E09140059E
:10541000F0914105DF01DE96ED90FD900D911C911C
:1054200022A933A944A955A9E55BFF4F6081718189
:10543000828193810E94371610922605E0914005E3
:10544000F0914105E55BFF4F60817181828193811D
:105450000E9499976B017C0180912B0590912C05FE
:10546000A0912D05B0912E058C0D9D1DAE1DBF1D6B
:1054700080932B0590932C05A0932D05B0932E05BA
:10548000C0923C05D0923D05E0923E05F0923F056A
:1054900080913C0590913D05A0913E05B0913F055E
:1054A000AC01BD01009721E0A207B10520F04FEF4C
:1054B0005FEF60E070E0841B950BA60BB70B809349
:1054C0003C0590933D05A0933E05B0933F05F894AD
:1054D0008091840090918500409639893150398BB4
:1054E000332309F4E9C3240E351E2816390608F4BF
:1054F00054CC309289002092880062960FB6F894BE
:10550000DEBF0FBECDBFDF91CF911F910F91FF90F6
:10551000EF90DF90CF90BF90AF909F908F907F9053
:105520006F905F904F903F902F900895419AFBCDE0
:10553000419813CE40912F0550913005609131056F
:1055400070913205481759076A077B0708F4A2C112
:1055500040912B0550912C0560912D0570912E05E1
:1055600086A997A9A0ADB1AD481759076A077B076F
:1055700008F08BC1411551056105710529F5809130
:105580009B0390919C03A0919D03B0919E03BC014D
:105590002A2F9B2F822F0E9499976B017C0180916B
:1055A0002B0590912C05A0912D05B0912E058C0D09
:1055B0009D1DAE1DBF1D80932B0590932C05A093C0
:1055C0002D05B0932E0519CEF0E0E981CA01262FF2
:1055D000AA817B816C815D814E81BF81388540913C
:1055E0009703489F612D5527B0919803B89F600D90
:1055F000511D10909903189E500D499F600D511D2B
:10560000B99F500D429F500DA62F752FA69F412D7B
:10561000BB273327A59F400DB11D3F1F769F400D2F
:10562000B11D3F1F759FB00D311DAB2F732FA69F6E
:10563000E12DBB273327A59FE00DB11D3F1F769FAE
:10564000E00DB11D3F1F759FB00D311DAB2F732FA6
:10565000442780919B0390919C0320919D0300908F
:1056600096030F2A09F483C0B0919203BA9F41199F
:105670008F0B9F0B2F0B309193033A9F4019810999
:105680009F0B2F0BE0919403EA9F801991092F0B38
:10569000B79F401981099F0B2F0B379F80199109E4
:1056A0002F0BE79F90192109A69FE12DBB273327D8
:1056B000A59FE00DB11D3F1F769FE00DB11D3F1F5F
:1056C000759FB00D311DAB2F732FB0918E03BA9F14
:1056D000410D8F1F9F1F2F1F30918F033A9F400D49
:1056E000811D9F1F2F1FE0919003EA9F800D911D48
:1056F0002F1FB79F400D811D9F1F2F1F379F800DAC
:10570000911D2F1FE79F900D211DA69FE12DBB2707
:105710003327A59FE00DB11D3F1F769FE00DB11D02
:105720003F1F759FB00D311DAB2F732FB0918A03B2
:10573000BA9F41198F0B9F0B2F0B30918B033A9F10
:10574000401981099F0B2F0BE0918C03EA9F801970
:1057500091092F0BB79F401981099F0B2F0B379F82
:10576000801991092F0BE79F9019210982C0B091F0
:105770009203BA9F410D8F1F9F1F2F1F30919303DC
:105780003A9F400D811D9F1F2F1FE0919403EA9FB8
:10579000800D911D2F1FB79F400D811D9F1F2F1F33
:1057A000379F800D911D2F1FE79F900D211DA69FF4
:1057B000E12DBB273327A59FE00DB11D3F1F769F2D
:1057C000E00DB11D3F1F759FB00D311DAB2F732F25
:1057D000B0918E03BA9F41198F0B9F0B2F0B309105
:1057E0008F033A9F401981099F0B2F0BE091900383
:1057F000EA9F801991092F0BB79F401981099F0BD0
:105800002F0B379F801991092F0BE79F90192109C2
:10581000A69FE12DBB273327A59FE00DB11D3F1F9C
:10582000769FE00DB11D3F1F759FB00D311DAB2F51
:10583000732FB0918A03BA9F410D8F1F9F1F2F1F97
:1058400030918B033A9F400D811D9F1F2F1FE091C8
:105850008C03EA9F800D911D2F1FB79F400D811D66
:105860009F1F2F1F379F800D911D2F1FE79F900DAA
:10587000211D1124E983AA837B836C835D834E837E
:10588000BF833887B0E0A22F82CE62A973A924A972
:1058900095A980CE40912705509128056091290552
:1058A00070912A05481759076A077B0708F0C7C196
:1058B00080912605811138C0DF01AE5BBF4FED90AE
:1058C000FD900D911C9113971D962D913D914D9139
:1058D0005C9162A973A984A995A90E94371631E049
:1058E00030932605E0914005F091410562A973A926
:1058F00024A995A9822F0E9499976B017C01809120
:10590000220590912305A0912405B09125058C0DC9
:105910009D1DAE1DBF1D8093220590932305A0936E
:105920002405B093250569CC4091220550912305AB
:10593000609124057091250582AD93ADA4ADB5AD00
:10594000481759076A077B0708F072C141155105CE
:105950006105710561F480919B0390919C03A09176
:105960009D03B0919E03BC012A2F9B2FC3CFE0E083
:10597000F985CA01262FBA85AB857C856D855E8544
:105980004F85388950919703589F712D6627409114
:105990009803489F700D611D10909903189E600D2B
:1059A000599F700D611D499F600D529F600DB72F6B
:1059B000A62FB79F512D44273327B69F500D411D69
:1059C0003E1FA79F500D411D3E1FA69F400D311D3C
:1059D000B42FA32FB79FF12D44273327B69FF00D87
:1059E000411D3E1FA79FF00D411D3E1FA69F400D6C
:1059F000311DB42FA32F552780919B0390919C03B9
:105A000020919D03009096030E2A09F483C04091D3
:105A100092034B9F51198E0B9E0B2E0B30919303CB
:105A20003B9F501981099E0B2E0BF0919403FB9F15
:105A3000801991092E0B4A9F501981099E0B2E0B3C
:105A40003A9F801991092E0BFA9F90192109B79F4F
:105A5000F12D44273327B69FF00D411D3E1FA79F10
:105A6000F00D411D3E1FA69F400D311DB42FA32FE9
:105A700040918E034B9F510D8E1F9E1F2E1F309104
:105A80008F033B9F500D811D9E1F2E1FF091900391
:105A9000FB9F800D911D2E1F4A9F500D811D9E1F43
:105AA0002E1F3A9F800D911D2E1FFA9F900D211DD4
:105AB000B79FF12D44273327B69FF00D411D3E1FA0
:105AC000A79FF00D411D3E1FA69F400D311DB42F15
:105AD000A32F40918A034B9F51198E0B9E0B2E0BC7
