:100000000C9477130C94B7130C94B7130C94B71388
:100010000C94B7130C94B7130C94B7130C94B71338
:100020000C94B7130C94569C0C94569C0C94569CB0
:100030000C94B7130C94B7130C94B7130C94B71318
:100040000C94B7130C94C9BB0C94B7130C94B7134E
:100050000C94B7130C94BDA80C94B7130C94CBA0BC
:100060000C94B7130C94ED900C94E3900C94B7138C
:100070000C94B7130C94B7130C94B7130C94B713D8
:100080000C9455290C94B7130C94B7130C94B71314
:100090000C94B7130C94B7130C94B7130C94B713B8
:1000A0000C94B7130C94B7130C9427290C94B71322
:1000B0000C94B7130C94B7130C94B7130C94B71398
:1000C0000C94B7130C94B7130C94B7130C94B71388
:1000D0000C94B7130C94B7130C94B7130C94B71378
:1000E0000C94B713084AD73B3BCE016E84BCBFFDCE
:1000F000C12F3D6C74319ABD56833DDA3D00C77FF8
:1001000011BED9E4BB4C3E916BAAAABE0000008090
:100110003F05A84CCDB2D44EB93836A9020C50B91F
:10012000918688083CA6AAAA2ABE000000803F004B
:100130004E414E494E495459494E46CDCCCC3D0ACC
:10014000D7233C17B7D13877CC2B329595E6241FAF
:10015000B14F0A000020410000C84200401C462068
:10016000BCBE4CCA1B0E5AAEC59D74434F4D4D5577
:100170004E49434154494F4E0044525952554E0046
:100180004552524F525300494E464F004543484F47
:10019000005072696E7465722073746F707065645C
:1001A0002064756520746F206572726F72732E20E3
:1001B00046697820746865206572726F7220616E7E
:1001C0006420757365204D39393920746F2072654C
:1001D00073746172742E202854656D706572617439
:1001E0007572652069732072657365742E2053657E
:1001F000742069742061667465722072657374611D
:100200007274696E67290A004E6F20436865636BDC
:1002100073756D2077697468206C696E65206E75E2
:100220006D6265722C204C617374204C696E653A66
:100230002000636865636B73756D206D69736D6114
:100240007463682C204C617374204C696E653A208D
:10025000004C696E65204E756D6265722069732071
:100260006E6F74204C617374204C696E65204E75FE
:100270006D6265722B312C204C617374204C696E59
:10028000653A20004D3131300053657269616C2050
:10029000737461747573206D69736D617463680A3A
:1002A00000746F6F206D75636820696E6163746997
:1002B00076652074696D65202D2063757272656E98
:1002C0007420636F6D6D616E643A20002121204BB4
:1002D000494C4C206361757365642062792000622B
:1002E0007573793A2070617573656420666F72204A
:1002F000696E7075740A00627573793A2070617561
:1003000073656420666F7220757365720A0062758A
:1003100073793A2070726F63657373696E670A0050
:100320006563686F3A004572726F723A004F4646D5
:10033000004F4E0066616C73650074727565004213
:10034000696C696E656172204C6576656C696E6773
:1003500020477269643A0A00303D2E33323500314D
:100360003D2E3138006D6178002F3331002F33314D
:10037000002F333100303D2E33323500313D2E31E8
:1003800038006D6178002F3331002F3331002F3367
:100390003100303D2E33323500313D2E3138006D85
:1003A0006178002F3331002F3331002F333100308B
:1003B0003D2E33323500313D2E3138006D617800ED
:1003C0002F3331002F3331002F333100303D2E33A6
:1003D000323500313D2E3138006D6178002F3331D8
:1003E000002F3331002F3331000920426164207225
:1003F0006573706F6E73652100092042616420721D
:100400006573706F6E73652100092042616420720C
:100410006573706F6E7365210009204261642072FC
:100420006573706F6E7365210009204261642072EC
:100430006573706F6E736521004C4F5700484947D4
:1004400048004F4B004572726F723A20416C6C202D
:100450000020636F6E6E656374696F6E2E2E2E20A2
:100460000054657374696E6720004C4F570048490B
:100470004748004F4B004572726F723A20416C6CD6
:10048000200020636F6E6E656374696F6E2E2E2E72
:10049000200054657374696E6720004C4F57004804
:1004A000494748004F4B004572726F723A20416CC9
:1004B0006C200020636F6E6E656374696F6E2E2E04
:1004C0002E200054657374696E6720004C4F5700EE
:1004D00048494748004F4B004572726F723A2041BD
:1004E0006C6C200020636F6E6E656374696F6E2E96
:1004F0002E2E200054657374696E6720004C4F5790
:100500000048494748004F4B004572726F723A20CD
:10051000416C6C200020636F6E6E656374696F6E52
:100520002E2E2E200054657374696E67200042657C
:1005300064204C6576656C696E6720004661696C65
:10054000656420746F20656E61626C65204265642D
:10055000204C6576656C696E670A00496E76616C41
:100560006964206D6573682E0A002E0A002F005002
:10057000726F62696E67206D65736820706F696E57
:10058000742000202844525952554E2900473239D0
:10059000204175746F20426564204C6576656C69F6
:1005A0006E67003F20284C2C522C462C4229206F8D
:1005B0007574206F6620626F756E64732E0A003F3B
:1005C0002856296572626F7365206C6576656C20AC
:1005D000696D706C61757369626C652028302D34AB
:1005E000292E0A00426164205A2076616C75650AE2
:1005F000004E6F2062696C696E6561722067726976
:10060000640A0020440020204D3230302054002065
:10061000204D323030205300202844697361626CD1
:100620006564293A0046696C616D656E7420736576
:100630007474696E67730020204D32303120580089
:100640004D617820416363656C65726174696F6E9A
:100650002028756E6974732F7332290020204D3263
:1006600030332058004D617820666565647261748E
:1006700065732028756E6974732F732900205200EA
:1006800020204D323034205000416363656C657228
:100690006174696F6E2028756E6974732F733229C7
:1006A0002028503C7072696E742D616363656C3EE6
:1006B00020523C726574726163742D616363656C72
:1006C0003E20543C74726176656C2D616363656C89
:1006D0003E2900204A0020540020530020204D32A3
:1006E0003035204200416476616E636564202842A3
:1006F0003C6D696E5F7365676D656E745F74696D7F
:10070000655F75733E20533C6D696E5F6665656419
:10071000726174653E20543C6D696E5F74726176DF
:10072000656C5F66656564726174653E204A3C6A0B
:10073000756E635F6465763E290020204D32313747
:1007400000546F6F6C2D6368616E67696E6700207F
:10075000204D323138205400486F74656E64206F2C
:100760006666736574730020440020490020204DA4
:10077000333031205000486F74656E642050494416
:100780000020440020204D353933205920460020D8
:10079000440020204D3539332058204600496E70E2
:1007A00075742053686170696E67004452565F53D8
:1007B0005441545553090050574D5F5343414C45E4
:1007C000090050574D434F4E460900434F4F4C438D
:1007D0004F4E46090043484F50434F4E4609005480
:1007E0004849474809090054434F4F4C5448525315
:1007F00009005450574D544852530900545354451E
:100800005009090054504F574552444F574E090064
:10081000494F494E090900475354415409090049B9
:10082000484F4C445F4952554E090047434F4E468E
:10083000090900090044726976657220726567696A
:1008400073746572733A0A007332767362090073C7
:100850003276736109003132304309003134334359
:1008600009003135304309003135374309006F74D1
:1008700009006F7470770900733267610900733281
:10088000676209006F6C6109006F6C620900737424
:100890007374090073675F726573756C74004452FA
:1008A0005653544154555300755374657020636F0B
:1008B000756E74005374616C6C677561726420743A
:1008C00068727300202D7374617274090068797303
:1008D000746572657369730A202D656E6409006220
:1008E0006C616E6B2074696D65006F66662074695B
:1008F0006D650070776D2067726164206175746F3B
:100900000070776D206F6666736574206175746F13
:100910000070776D207363616C65206175746F0082
:1009200070776D207363616C652073756D004F5433
:10093000207072657761726E005B6D6D2F735D095B
:100940000050574D207468726573682E007473747C
:1009500065700900696E7465727009006D73746565
:1009600070730900737465616C746843686F70001C
:100970007673656E7365090050574D207363616C23
:10098000650043532061637475616C00486F6C644B
:100990002063757272656E740052756E2063757295
:1009A00072656E74004D41582063757272656E7485
:1009B00000524D532063757272656E7400536574F6
:1009C0002063757272656E7400456E61626C656459
:1009D00009004164647265737309000900737072E1
:1009E0006561644379636C6500737465616C7468F8
:1009F00043686F700020647269766572206D6F6461
:100A0000653A09007370726561644379636C6500CF
:100A1000737465616C746843686F700020647269F8
:100A2000766572206D6F64653A0900737072656156
:100A3000644379636C6500737465616C74684368C2
:100A40006F700020647269766572206D6F64653A1C
:100A500009007370726561644379636C6500737437
:100A600065616C746843686F7000206472697665B4
:100A700072206D6F64653A0900737072656164433A
:100A800079636C6500737465616C746843686F703A
:100A90000020647269766572206D6F64653A0900A2
:100AA000202E68737472743A2000202E68656E647C
:100AB0003A20002063686F70706572202E746F6634
:100AC000663A2000202E68737472743A2000202E3B
:100AD00068656E643A20002063686F7070657220EC
:100AE0002E746F66663A2000202E68737472743A12
:100AF0002000202E68656E643A20002063686F70C5
:100B0000706572202E746F66663A2000202E68731E
:100B10007472743A2000202E68656E643A200020BA
:100B200063686F70706572202E746F66663A20007D
:100B3000202E68737472743A2000202E68656E64EB
:100B40003A20002063686F70706572202E746F66A3
:100B5000663A20003F53206F7574206F66207261E3
:100B60006E67652028312E2E38290A003F50206FED
:100B70007574206F662072616E676520282D332E94
:100B80002E3132290A003F4F206F7574206F662086
:100B900072616E67652028312E2E3135290A003B9F
:100BA000200020496E76616C6964206578747275E6
:100BB000646572200047322F4733206261642070E1
:100BC0006172616D65746572730A00473238002086
:100BD0005A3A200020593A200042656420583A20B1
:100BE000004D65736820706F696E74206F75742096
:100BF0006F662072616E67650A002569730025695A
:100C00006D20256973002569682025696D20256997
:100C10007300256964202569682025696D20256990
:100C20007300256979202569642025696820256974
:100C30006D20256973005072696E742074696D654A
:100C40003A20006F6B006F6666008C01870180019F
:100C500079016B0144454255473A004D313132200C
:100C600053687574646F776E004D313133205300D3
:100C70002F2F003F4A206F7574206F662072616EBF
:100C800067652028302E303120746F20302E3329B4
:100C90000A0020204D61783A2000200020204D6974
:100CA0006E3A2000203B200020204D32313120536D
:100CB00000536F667420656E6473746F70730046C2
:100CC000523A0020466C6F773A20003A20002053B9
:100CD0006572766F2000206F7574206F66207261D8
:100CE0006E67650A00536572766F200050726F62FE
:100CF00065204F6666736574205A0050726F626596
:100D0000204F6666736574205A00496E76616C697F
:100D1000642065787472756465720A006469730092
:100D2000656E0043290A0061626C656420286D6964
:100D30006E2074656D702000436F6C64206578745C
:100D400072756465732061726520004D3432312004
:100D5000696E636F727265637420706172616D6534
:100D60007465722075736167650A004D657368204C
:100D7000706F696E74206F7574206F662072616E7B
:100D800067650A00546F6F206661722066726F6D2E
:100D9000207265666572656E636520706F696E743A
:100DA0000A00454550524F4D204F4B0A00206F72AC
:100DB000203020746F2064697361626C650A003FA3
:100DC0004672657175656E637920284629206D75B8
:100DD000737420626520677265617465722074683F
:100DE000616E20003F5A6574612028442920766195
:100DF0006C7565206F7574206F662072616E676513
:100E00002028302D31290A00290A0020746F200083
:100E10003F5A206F7574206F662072616E6765207F
:100E20002800290A0020746F20003F59206F757434
:100E3000206F662072616E676520282D00290A00E8
:100E400020746F20003F58206F7574206F662072E9
:100E5000616E676520282D002E0A002028302D3174
:100E60003029002076616C7565206F7574206F667F
:100E70002072616E676500416476616E6365204B28
:100E80003D00206472697665722063757272656ECA
:100E9000743A2000206472697665722063757272FC
:100EA000656E743A200020647269766572206375FD
:100EB0007272656E743A20002064726976657220E1
:100EC00063757272656E743A20002064726976658B
:100ED000722063757272656E743A20006F6B002029
:100EE000204D323036205800486F6D65206F6666A1
:100EF000736574004361703A00434F4E4649475F43
:100F00004558504F5254004D4541545041434B00B9
:100F1000434F4F4C45525F54454D504552415455F7
:100F20005245004348414D4245525F54454D50455E
:100F30005241545552450042414259535445505034
:100F4000494E470041524353004D4F54494F4E5F65
:100F50004D4F44455300544845524D414C5F50520B
:100F60004F54454354494F4E00455854454E44450F
:100F7000445F4D323000435553544F4D5F46495204
:100F80004D574152455F55504C4F4144004C464EE1
:100F90005F5752495445004C4F4E475F46494C45B8
:100FA0004E414D45004155544F5245504F52545FAC
:100FB00053445F5354415455530053445F5752496F
:100FC0005445005245504541540053444341524416
:100FD0000050524F4D50545F535550504F52540093
:100FE000484F53545F414354494F4E5F434F4D4D1B
:100FF000414E445300454D455247454E43595F507D
:10100000415253455200434153455F4C4947485470
:101010005F4252494748544E45535300544F474747
:101020004C455F4C494748545300534F4654574131
:1010300052455F504F574552004255494C445F500E
:10104000455243454E54004C4556454C494E475F2A
:1010500044415441005A5F50524F42450052554E50
:101060004F5554004155544F4C4556454C00505235
:10107000494E545F4A4F420050524F4752455353D6
:10108000004155544F5245504F52545F54454D50B6
:10109000004155544F5245504F52545F504F5300EA
:1010A000564F4C554D455452494300454550524FBB
:1010B0004D0042494E4152595F46494C455F54529A
:1010C000414E534645520053455249414C5F584F9B
:1010D0004E5F584F4646004649524D574152455F74
:1010E0004E414D453A4D61726C696E20322E312E63
:1010F0003220284170722031332032303233203197
:10110000363A30313A33362920534F555243455FF2
:10111000434F44455F55524C3A6769746875622E77
:10112000636F6D2F4D61726C696E4669726D776188
:1011300072652F4D61726C696E2050524F544F434F
:101140004F4C5F56455253494F4E3A312E30204D49
:10115000414348494E455F545950453A4A756C6978
:10116000612050726F204475616C203234562041EA
:10117000424C207769746820544D43323230392014
:101180006F6E2055415254206D6F6465206F6E2044
:101190004D4B532047656E4C2056322E31204D6109
:1011A000726C696E20322E312E32204558545255C1
:1011B0004445525F434F554E543A322055554944A9
:1011C0003A63656465326132662D343161322D34A3
:1011D0003734382D396231322D6335356336326616
:1011E000333637666600203B0020204D38353120ED
:1011F00058005A2D50726F6265204F666673657491
:101200000020573A0020573A00206661696C6564F7
:101210002120426164206865617465722069640AF6
:1012200000504944204175746F74756E65002364E5
:101230006566696E652044454641554C545F004BD8
:101240006420004B6920004B7020002066696E69A5
:1012500073686564212050757420746865206C6122
:101260007374204B702C204B6920616E64204B649A
:1012700020636F6E7374616E74732066726F6D207D
:1012800062656C6F7720696E746F20436F6E66695C
:101290006775726174696F6E2E680A005049442048
:1012A0004175746F74756E6500206661696C656464
:1012B000212074696D656F75740A0050494420419E
:1012C00075746F74756E6500206661696C65642164
:1012D0002054656D706572617475726520746F6FEE
:1012E00020686967680A00504944204175746F742A
:1012F000756E6500204B643A2000204B693A20004F
:10130000204B703A200020436C6173736963205056
:101310004944200A002054753A2000204B753A2099
:1013200000206D61783A2000206D696E3A2000201F
:10133000643A200020626961733A2000207374616E
:1013400072740A00504944204175746F74756E655B
:1013500000206661696C6564212054656D7065725A
:10136000617475726520746F6F20686967680A0020
:10137000504944204175746F74756E65006F7065D7
:101380006E00545249474745524544003A20007A7E
:101390005F70726F6265007A5F6D617800795F6D72
:1013A000617800785F6D696E005265706F72746964
:1013B0006E6720656E6473746F70207374617475EA
:1013C000730A000000B9430080C5430000C8430011
:1013D000000000000000000000000020746F6F207B
:1013E0006C6F6E6720657874727573696F6E2070AC
:1013F000726576656E7465640A0020636F6C6420A4
:10140000657874727573696F6E2070726576656E3B
:101410007465640A00000020C20080C5430000C853
:10142000435761726E696E673A20486F6D696E67E7
:101430002042756D702044697669736F72203C207C
:10144000310A000202040000B9430080C5430000D5
:10145000C8430000A0400000A04000000040000081
:1014600000010000000100008000555555000000FB
:10147000400033333300AAAA2A0049922400000016
:101480002000C7711C0099991900D14517005555C6
:1014900015003BB113002449120011111100000086
:1014A00010000F0F0F00E3380E0043790D00CCCC75
:1014B0000C00C3300C00E8A20B0064210B00AAAAA8
:1014C0000A00703D0A009DD80900427B0900922461
:1014D0000900DCD3080088880800104208000000DA
:1014E0000800F0C107008787070075500700711CCE
:1014F00007003EEB0600A1BC060069900600666688
:101500000600703E06006118060017F4050074D14D
:1015100005005BB00500B2900500627205005555EC
:10152000050078390500B81E0500050505004EECDC
:10153000040087D40400A1BD040090A704004992D0
:101540000400C17D0400EE690400C7560400444451
:1015500004005C3204000821040041100400000073
:1015600004003FF00300F8E0030026D20300C3C3E9
:101570000300CCB503003AA803000A9B0300388E91
:101580000300C08103009F750300D0690300505E13
:1015900003001D53030034480300913D030033331F
:1015A000030016290300381F030097150300300CB1
:1015B0000300030303000BFA020049F10200BAE83A
:1015C00002005CE002002DD802002DD0020059C8B4
:1015D0000200B0C0020031B90200DAB10200AAAACA
:1015E0000200A0A30200BC9C0200FA9502005C8FDE
:1015F0000200DF88020082820200457C020027761A
:10160000020027700200436A02007C640200D05E80
:1016100002003F590200C8530200FFFDFCFAF8F631
:10162000F4F2F0EEECEAE9E7E5E3E1E0DEDCDAD95A
:10163000D7D5D4D2D0CFCDCBCAC8C7C5C3C2C0BFFF
:10164000BDBCBAB9B7B6B4B3B2B0AFADACAAA9A875
:10165000A6A5A4A2A1A09E9D9C9A999897959493C3
:1016600092908F8E8D8B8A898887868483828180F1
:101670007F7E7D7B7A797877767574737271706FFF
:101680006E6D6C6B6A696867666564636261605FF2
:101690005E5D5C5B5A5958585756555453525150D9
:1016A000504F4E4D4C4B4A4A4948474646454443A5
:1016B000424241403F3E3E3D3C3B3B3A3938383761
:1016C000363535343332323130302F2E2E2D2C2B0F
:1016D0002B2A2929282727262525242323222121AF
:1016E00020201F1E1E1D1C1C1B1B1A191918181741
:1016F0001616151514131312121111100F0F0E0ECA
:101700000D0D0C0C0B0A0A09090808070706060547
:1017100005040403030202010000DB0FC93F45BCBE
:10172000DA3F8FB30240FCF0274056946140FE4BF5
:101730009B4084A5D840E0231841346A5641E859BB
:10174000974164DBD5416E271742B4B75542CE1A94
:101750009742C8AED542B5885A43D40684BFA65F27
:10176000A7BF7443E0BF10B11AC01C2C58C0E8F6E4
:1017700097C0B849D6C04E4E17C124D355C1802456
:1017800097C1A0B5D5C1121A17C244AE55C2781779
:1017900097C26CACD5C267885AC320746F6F206C37
:1017A0006F6E6720657874727573696F6E207072E2
:1017B0006576656E7465640A0020636F6C642065ED
:1017C0007874727573696F6E2070726576656E7469
:1017D00065640A00290A002062797465733B2063FE
:1017E0007263200053657474696E67732053746F5D
:1017F000726564202800454550524F4D20496E695E
:101800007469616C697A65640A0048617264636F27
:101810006465642044656661756C742053657474F6
:10182000696E6773204C6F616465640020286D6D7C
:101830002900203B204C6576656C696E672000208E
:10184000204D3432302053004175746F204265645E
:10185000204C6576656C696E670020204D39303606
:101860000020543120450020543020450053746539
:101870007070657220647269766572206375727229
:10188000656E740020204D353639205331005431B7
:101890002045005430204500205800447269766588
:1018A00072207374657070696E67206D6F64650077
:1018B00020204D393030204B004C696E656172201C
:1018C000416476616E636500204A0020204732390A
:1018D000205720490020204D3134392043203B201F
:1018E000556E69747320696E2043656C73697573F6
:1018F0000A0054656D706572617475726520556E6D
:10190000697473002020473231203B004C696E65BA
:10191000617220556E69747300454550524F4D20D9
:101920006461746173697A65206572726F722E0AE0
:1019300000290A002062797465733B20637263207A
:10194000002073746F7265642073657474696E67C8
:10195000732072657472696576656420280020289A
:1019600063616C63756C6174656429210A002021D0
:101970003D2000454550524F4D20435243206D6954
:10198000736D61746368202D202873746F726564B1
:101990002920002053697A653A2000496E646578F1
:1019A0003A200000004843000048430000A04100E6
:1019B0000034420000C8420000C842F0F7FB430078
:1019C000000C43DC050000DC0500003200000010C4
:1019D000270000204D61726C696E3D563837290A28
:1019E00000454550524F4D2076657273696F6E20E9
:1019F0006D69736D617463682028454550524F4D81
:101A00003D0024F404D9201BC40C5C0E9804C409C6
:101A10005F0265077101F405F900FB04B300480497
:101A20008700C10369005803550003034500BE0247
:101A30003A008402310053022A00290225000402E0
:101A40002000E4011C00C8011900AF011700980133
:101A50001400840113007101100061011000510194
:101A60000E0043010D0036010B002B010B0020017D
:101A70000B00150109000C01090003010800FB001F
:101A80000800F3000800EB000700E4000600DE0099
:101A90000600D8000600D2000600CC000500C700F2
:101AA0000500C2000500BD000400B9000400B50037
:101AB0000400B1000400AD000400A9000400A5006A
:101AC0000300A20003009F0004009B000300980095
:101AD00003009500020093000300900003008D00B6
:101AE00002008B00030088000200860002008400D0
:101AF0000300810002007F0002007D0002007B00E5
:101B000002007900020077000100760002007400F4
:101B1000020072000100710002006F0002006D00FF
:101B200001006C0002006A00010069000200670009
:101B3000010066000100650001006400020062000F
:101B4000010061000100600001005F0002005D0013
:101B500001005C0001005B0001005A000100590017
:101B60000100580001005700010056000100550017
:101B70000100540001005300000053000100520016
:101B8000010051000100500001004F0001004E0013
:101B900000004E0001004D0001004C0001004B0010
:101BA00000004B0001004A0001004900010048000C
:101BB0000000480001004700010046000000460008
:101BC0000100450000004500010044000100430001
:101BD00000004300010042000000420001004100FB
:101BE000000041000100400001003F0000003F00F4
:101BF00001003E0000003E0001003D0000003D00ED
:101C000001003C0000003C0000003C0001003B00E3
:101C100000003B0001003A0000003A0001003900DA
:101C200000003900010038000000380000003800D2
:101C300001003700000037000100360000003600C8
:101C400000003600010035000000350000003500BE
:101C500001003400000034000000340001003300B3
:101C600000003300000033000100320000003200A9
:101C7000000032000100310000003100000031009E
:101C800001003000000030000000300001002F0093
:101C900000002F0000002F0000002F0001002E0088
:101CA00000002E0000002E0001002D0000002D007D
:101CB00000002D0000002D0001002C0000002C0071
:101CC00000002C0000002C0001002B0000002B0065
:101CD00000002B0000002B0001002A0000002A0059
:101CE00000002A0000002A0001002900000029004D
:101CF0000000290000002900000029000100280040
:101D00000000280000002800000028000000280033
:101D10000100270000002700000027000000270026
:101D20000000270001002600000026000000260019
:101D3000000026000000260001002500000025000C
:101D400000002500000025000000250000002500FF
:101D500001002400000024000000240000002400F2
:101D600000002400010023000000230000002300E5
:101D700000002300000023000000230000002300D7
:101D800001002200000022000000220000002200CA
:101D900000002200000022000100210000002100BC
:101DA00000002100000021000000210000002100AF
:101DB00000002100010020000000200000002000A1
:101DC0000000200000002000000020000000200093
:101DD0000000200001001F0000001F0000001F0085
:101DE00000001F0000001F0000001F0000001F0077
:101DF00001001E0000001E0000001E0000001E006A
:101E0000000024F4D43050C38E20C2A24017828B2D
:101E10007011127A910D816CD90AA861E108C75836
:101E20006607615143061E4B5D05C145A7041A4173
:101E30001104093D9803713931034036DB026533E3
:101E40009102D4305402802E1D02632CEE01752ABB
:101E5000C501B028A001102781018F2564012B2422
:101E60004B01E0223401AC211F018D200D01801FA8
:101E7000FC00841EED00971DDF00B81CD200E61B9D
:101E8000C600201BBC00641AB200B219A8000A19CF
:101E9000A0006A189900D117910040178B00B51661
:101EA000840031167E00B31579003A157300C7140B
:101EB0006F0058146A00EE13660088136300251340
:101EC0005E00C7125B006C12570015125400C1115E
:101ED000510070114F0021114B00D61049008D1098
:101EE00047004610440002104200C00F4000800F1F
:101EF0003E00420F3C00060F3B00CB0E3800930E15
:101F000037005C0E3500270E3400F30D3200C10D92
:101F10003100900D3000600D2E00320D2D00050DAA
:101F20002C00D90C2B00AE0C2900850C29005C0C70
:101F30002700350C27000E0C2600E80B2400C40BEC
:101F40002400A00B23007D0B23005A0B2100390B2A
:101F50002100180B2000F80A1F00D90A1E00BB0A36
:101F60001E009D0A1D00800A1D00630A1C00470A0E
:101F70001B002C0A1B00110A1A00F7091A00DD09C0
:101F80001900C4091900AB091900920917007B094F
:101F90001800630917004C091600360916002009BD
:101FA00016000A091500F5081500E0081400CC0811
:101FB0001400B8081400A4081400900813007D0849
:101FC00012006B081300580812004608120034086B
:101FD0001100230811001208110001081100F00778
:101FE0001000E0071000D0071000C0071000B00775
:101FF0000F00A107100091070E0083070F00740760
:102000000F0065070E0057070E0049070E003B073B
:102010000D002E070E0020070D0013070D00060708
:102020000D00F9060C00ED060D00E0060C00D406CC
:102030000C00C8060C00BC060C00B0060C00A40680
:102040000B0099060C008D060B0082060B0077062C
:102050000B006C060B0061060A0057060B004C06CD
:102060000A0042060A0038060A002E060A00240664
:102070000A001A060A001006090007060A00FD05F4
:102080000900F4050900EB050900E2050900D9057E
:102090000900D0050900C7050900BE050900B505FE
:1020A0000800AD050800A50509009C050800940579
:1020B00008008C050800840508007C0508007405EC
:1020C00008006C050700650508005D05070056055A
:1020D00008004E05070047050700400508003805C1
:1020E0000700310507002A050700230507001C0526
:1020F0000600160507000F05070008050600020583
:102100000700FB040600F5040700EE040600E804DF
:102110000600E2040700DB040600D5040600CF0435
:102120000600C9040600C3040600BD040600B70487
:102130000600B1040500AC040600A6040600A004D5
:1021400005009B04060095040500900406008A041F
:10215000050085040500800406007A040500750466
:102160000500700405006B040500660405006104A9
:1021700005005C04050057040500520405004D04E9
:10218000050048040500430405003E0404003A0429
:10219000050035040500300404002C040500270464
:1021A0000400230405001E0404001A04040016049D
:1021B0000500110404000D040400090405000404D2
:1021C000040000040400FC030400F8030400F4030A
:1021D0000400F0030400EC030400E8030400E4033B
:1021E0000400E0030400DC030400D8030400D4036B
:1021F0000400D0030400CC030400C8030300C5039B
:102200000300423A0020436F756E7420413A004546
:1022100000626564002C2073797374656D2073749B
:102220006F7070656421204865617465725F494410
:102230003A20004572723A204D415854454D5000A5
:102240004D415854454D50207472696767657265F9
:10225000640048656174696E67204661696C6564F5
:102260000048656174696E67206661696C65640029
:102270001000600350012C0190012201D0011801CF
:1022800010020E0170020401E002FA006003F00087
:102290000004E600B004DC00A005D200B006C800CF
:1022A0000008BE00A009B400800BAA00D00DA00059
:1022B00090109600C0138C0070178200901B78005D
:1022C00010206E00C0246400E02D500080353C00DA
:1022D000A03A2800A03D1400003F0000A03FECFF02
:1022E0004572723A204D494E54454D50004D494E6D
:1022F00054454D50207472696767657265640020AB
:102300002F002040002042403A0020403A00496E11
:1023100076616C69642065787472756465720A0010
:102320004163746976652045787472756465723AA4
:1023300020001000C90210012C014001220170018F
:102340001801B0010E01F00104015002FA00B002C0
:10235000F0003003E600D003DC009004D2007005EA
:10236000C800A006BE000008B400B009AA00D00B47
:10237000A000600E960060118C00001582002019EC
:102380007800C01D6E00A0226400B0275A00902C77
:10239000500000314600E0343C0010383200903AE2
:1023A0002800603C1E00A03D1400803E0A00203F33
:1023B00000002020506C616E6E6572427566666525
:1023C0007242797465733A20002046726565204D2B
:1023D000656D6F72793A200020436F6D70696C658E
:1023E000643A2041707220313320323032330A0097
:1023F000204C61737420557064617465643A2032B6
:102400003032322D31322D3137207C2041757468C5
:102410006F723A2028467261636B74616C20576F4B
:10242000726B732C2064656661756C7420636F6ECB
:10243000666967290A004D61726C696E20322E311F
:102440002E320A0020536F667477617265205265E0
:102450007365740A00205761746368646F67205263
:10246000657365740A002042726F776E206F757411
:102470002052657365740A002045787465726E6138
:102480006C2052657365740A00506F7765725570E1
:102490000A0073746172740A0020503A00205A3A9C
:1024A0000020593A0020583A00656E6473746F70CA
:1024B00073206869743A200000002100240027007E
:1024C0002A002D0030003300010100000401070143
:1024D0000A0100000A0B02090C0D0E080703040193
:1024E00000000000000000000000000000000000EC
:1024F00000000000000000000000000000001211B9
:1025000010000000000000000000000000000000BB
:102510000000000000000000000020002300260052
:1025200029002C002F0032000001000003010601E9
:10253000090100002200250028002B002E00310098
:10254000340002010000050108010B010505050525
:10255000070508080808020202020A0A080804041B
:102560000404010101010101010103030303030349
:102570000303040707070C0C0C0C0C0C0C0C0202D8
:10258000020206060606060606060B0B0B0B0B0BD5
:102590000B0B010210202008081020401020408062
:1025A0000201020108040201010204081020408017
:1025B00080402010080402018004020180402010A5
:1025C00008040201080402010102040810204080EE
:1025D0000102040810204080571D00001F14000055
:1025E0005C0C0000F9060000BA030000EE010000D8
:1025F000FB0000007E000000486F6D696E6720469A
:1026000061696C656400FF010150726F62696E67F9
:10261000204661696C65640A00205A3A20002059FE
:102620003A200042656420583A2000307800220A9F
:1026300000556E6B6E6F776E20636F6D6D616E64AB
:102640003A202200204500205A0020590020204D29
:10265000393220580053746570732070657220758C
:102660006E6974004572726F722077726974696E58
:102670006720746F20454550524F4D210A00544841
:1026800045524D414C2052554E41574159005468D6
:1026900065726D616C2052756E6177617900486F6B
:1026A0006D65202573257325732046697273740048
:1026B00020453A00205A3A0020593A00583A006F13
:1026C0006B0A00526573656E643A20005072696E41
:1026D0007465722068616C7465642E206B696C6C23
:1026E00028292063616C6C6564210A0014C21124DE
:1026F0001FBECFEFD1E2DEBFCDBF00E00CBF84B77D
:1027000080930A1514BE0FB6F894A89580916000C6
:10271000886180936000109260000FBE13E0A0E01B
:10272000B2E0E4E3FEEA01E00BBF02C007900D92C5
:10273000A63DB107D9F725E1A6EDB3E001C01D9292
:10274000AA30B207E1F713E1C7E7D3E100E006C022
:1027500021970109802FFE010E94C0D3C637D107FF
:1027600080E00807A9F70E944EC40C9418D70C9477
:1027700000009F92AF92BF92CF92DF92EF92FF92B2
:102780000F931F93CF93DF9300D01F921F92CDB76B
:10279000DEB7EAE1F6E10027BB27462F572FA82F27
:1027A000AA2341F4A52F542FB85FAA2319F4A52F0B
:1027B0005527B85FA03138F45295A295452F4F7038
:1027C000507FA42BBC5FA03428F4550FAA1F550FCF
:1027D000AA1FBE5FA03818F4550FAA1FB395550F56
:1027E000AA1FEA0FF01F449151E0AA27B85079F1CF
:1027F000C0F0B0FF02C0440F551FB1FF04C0440F2A
:10280000551F440F551FB2FF06C052954295142F15
:102810001F70407F512BB3FF1AC0A52F542F4427A0
:1028200016C0B195B0FF02C055954795B1FF04C0E1
:102830005595479555954795B2FF05C05295407FF0
:102840004295452B5F70B3FF02C0452F5527DD240D
:10285000CC24BB24B2E0649FD018C108B00AB00BEE
:10286000749FC018B108B00B849FB018B109659F60
:10287000C018B108B00B759FB018B109859FB01989
:102880006A9FB018B1097A9FB0194D9DA12C992467
:102890003327992722275D9DA00C911C301F901F84
:1028A000201FAD9D900C311D901F201F4C9DA00C32
:1028B000911C301F901F201F5C9D900C311D901F9C
:1028C000201FAC9D300D911D201F4B9D900C311D84
:1028D000901F201F5B9D300D911D201FAB9D900D03
:1028E000211D4B9F300D911D201F5B9F900D211DC1
:1028F000AB9F200DB1E0BB24CC24DD24639FD01816
:10290000C108B00AB00B739FC018B108B00B839F09
:10291000B018B109699FC018B108B00B799FB01801
:10292000B109899FB019629FB018B109729FB0199F
:10293000D61AC70AB80A20F0B1E03B0F901F201F3B
:102940001124792F632F90E0822F0F900F900F901A
:102950000F900F90DF91CF911F910F91FF90EF900B
:10296000DF90CF90BF90AF909F9008957F928F920D
:102970009F92AF92BF92CF92DF92EF92FF920F930E
:102980001F93CF93DF937090F804CEE8D4E09CE1DE
:10299000C92E92E0D92E20E2E22E22E0F22E00EFA4
:1029A00014E0772009F45EC0F80180809180A28055
:1029B000B38020E030E0A901C501B4010E945CCFE2
:1029C000882309F44FC020E030E040E05FE3C50118
:1029D000B4010E94C1CF9B01AC010E94C1CF2BED7D
:1029E0003FE049E450E40E94C1CF9B01AC0160E0AC
:1029F00070E080E89FE30E94FDD44B015C01899266
:102A00009992A992B992F601619171916F01072E85
:102A1000000C880B990B0E9462CF2AE037ED43E24D
:102A20005CE30E94C1CFA50194010E94C1CFF701D0
:102A300061937193819391937F010C5F1F4FF4E039
:102A4000C639DF0709F0ADCFDF91CF911F910F910C
:102A5000FF90EF90DF90CF90BF90AF909F908F90BE
:102A60007F900895812C912C80E8A82E8FE3B82EBA
:102A7000C6CFFC017081472F50E0062E02C055954D
:102A800047950A94E2F740FF14C04091BC0850E01B
:102A9000062E02C0559547950A94E2F740FF09C0FB
:102AA00021E030E001C0220F6A95EAF72095272344
:102AB00020830895CF93DF9324E0829FC0011124E7
:102AC000EC01CA51DF4EFC01E251F74F8E579B4F8C
:102AD000DC012D913D914D915C91608171818281EC
:102AE00093810E9421D4688379838A839B83DF91B9
:102AF000CF91089580917E0490917F04A0918004ED
:102B0000B091810480935A0290935B02A0935C027F
:102B1000B0935D0280917C0490917D0490931B02A0
:102B200080931A02089580915A0290915B02A091BD
:102B30005C02B0915D0280937E0490937F04A09329
:102B40008004B093810480911A0290911B029093AB
:102B50007D0480937C0484E690E090931B02809334
:102B60001A020895CF93DF9390916F0491111BC0C7
:102B7000C0911802D0911902219797E1899FF00125
:102B80001124E257F74F20E030E040E05FE364813A
:102B90007581868197810E9421D40E9465D521E0AC
:102BA0006C177D070CF020E0822FDF91CF91089504
:102BB00090E080E0089520913804833021F425FDD1
:102BC0000CC024FD0CC030E0A90102C0559547950A
:102BD0008A95E2F7CA018170089581E0089580E046
:102BE00008958091540484FD0BC08091560487FDA4
:102BF00007C090915704937081E019F480E0089524
:102C000081E008952FEB280F2A3108F047C0E22F0A
:102C1000F0E08091540490915504A0915604B09135
:102C2000570404C0B695A795979587952A95D2F72E
:102C300080FD02C081700895E65CFB4FE081EE23C9
:102C400041F180918A0A90918B0AE80FF92FF11DCA
:102C5000808190ED980F9A3030F08E3251F481815E
:102C600080538A3098F4F0933504E093340481E083
:102C700008958D3211F08B3249F4818190ED980FD7
:102C80009A3088F38E3211F48281EACFF0E0E0E0EE
:102C9000EACF1092350410923404E9CF80E0089511
:102CA000B1DF882341F081E0209134043091350474
:102CB000232B09F480E00895FC01DB0112962D918D
:102CC0003D914C91149722833383448315968C91C4
:102CD0001597858316962D913D914C9118972683D3
:102CE0003783408719964D915D916D917C911C972A
:102CF00041875287638774871D964D915D916D91D1
:102D00007C915097458756876787708B81EB93E05E
:102D10009183808351968D919C915297928B818B58
:102D200053964D915D916D917C915697438B548B49
:102D3000658B768B57968C915797878B58968D918C
:102D40009C915997918F808F5A968D919C915B970A
:102D5000938F828F5C968D919C915D97958F848FD8
:102D60005E964D915D916D917C919197468F578FB5
:102D700060A371A392964D915D916D917C91959711
:102D800042A353A364A375A396964D915D916D9153
:102D90007C91999746A357A360A771A79A968D91A6
:102DA0009C919B9793A782A79C968D919C919D97B0
:102DB00095A784A79E968D919C919F9797A786A78C
:102DC000D0968D919C91D19791AB80ABD2968C91FE
:102DD00082AB0895E3E2F4E080EF9FEFA9E7B4EC63
:102DE00084839583A683B78380839183A283B383EF
:102DF000EDE0F4E08DE98183808308958F929F92C6
:102E0000AF92BF92CF92DF92EF92FF92FC0198E0D7
:102E1000A4EEB4E001900D929A95E1F788E0FB01F1
:102E2000ABEDB4E001900D928A95E1F7C090E40417
:102E3000D090E504E090E604F090E70420E030E074
:102E4000A901C701B6010E945CCF8823E1F1A70167
:102E5000960160E070E080E89FE30E94FDD46B0182
:102E60007C018090E8049090E904A090EA04B0907E
:102E7000EB0420E030E0A901C501B4010E945CCF61
:102E8000882329F1A501940160E070E080E89FE3C8
:102E90000E94FDD4C0921B04D0921C04E0921D0439
:102EA000F0921E0460931F04709320048093210409
:102EB00090932204FF90EF90DF90CF90BF90AF905F
:102EC0009F908F900895C12CD12C7601CACF60E0DD
:102ED00070E0CB01DFCF1092DF041092E00410927B
:102EE000E1041092E2041092DB041092DC041092D0
:102EF000DD041092DE041092E8041092E9041092AE
:102F0000EA041092EB041092E4041092E50410928B
:102F1000E6041092E704E9EFF4E080E090E0A0EC32
:102F2000BFE780839183A283B38384839583A68341
:102F3000B78380879187A287B38784879587A68781
:102F4000B787709625E0E933F20759F7089588238B
:102F500019F0813021F0089580E00C9480AA479800
:102F600080916808806180936808089540913D05CC
:102F700021E0422768E070E00C94359840913D05CF
:102F800021E042276CE070E00C94359840913D05BB
:102F900021E0422764E070E00C94359840913D05B3
:102FA00021E0422761E070E00C94359840913D05A6
:102FB00021E0422761E070E00C94359840913D0596
:102FC00021E0422768E070E00C94359840913D057F
:102FD00021E042276CE070E00C94359841E061E01C
:102FE00070E00C94359840913D0521E042270C9407
:102FF0003598BC0190E080E00C944B966CE070E05A
:103000000C947B9E64E070E00C947B9E61E070E029
:103010000C947B9E61E070E00C947B9E6CE070E011
:103020000C947B9E682F880F770B880B990B0C9460
:10303000B596AF92BF92CF92DF92EF92FF920F932D
:103040001F93CF93DF93CCE8DAE006EA14E08CE933
:10305000A82E8AE0B82EC12CD12C7601C394699198
:103060007991899199910E9460CF288939894A89FB
:103070005B890E94C1CF0E946AD5F8016193719368
:10308000819391938F01C616D706E806F90610F4CE
:103090006B017C01AC16BD0611F76FEF7FEFCB0122
:1030A000A70196010E9436D32093B6043093B7044B
:1030B0004093B8045093B90423EF34E045E35FE351
:1030C0006091390570913A0580913B0590913C05DE
:1030D0000E94C1CF2AE136EF45E95EE30E94FDD4AC
:1030E0006B017C016091980A7091990A80919A0A0B
:1030F00090919B0A0E9460CF9B01AC01C701B60171
:103100000E94C1CF0E948CD66093CB047093CC04F4
:103110008093CD049093CE04DF91CF911F910F91B6
:10312000FF90EF90DF90CF90BF90AF9008950F93F6
:103130001F93CF93DF9300EA1AE0CBEBD4E0F801C2
:1031400021913191419151918F0160E070E080E8CF
:103150009FE30E94FDD46993799389939993F4E056
:10316000CB3CDF0761F70E941198DF91CF911F914F
:103170000F915FCF2F923F924F925F926F927F920B
:103180008F929F92AF92BF92CF92DF92EF92FF9277
:103190000F931F93CF93DF93CDB7DEB7A0970FB6F2
:1031A000F894DEBF0FBECDBF1C017B015E834D8353
:1031B000FC01E05BFF4F20813181428153812983F3
:1031C0003A834B835C83CA01B9010E9460CF4B01F3
:1031D0005C01D7012D913D914D915C910E94C1CF31
:1031E0000E94E7D42B013C01ED81FE8120813181D9
:1031F00042815381C501B4010E94C1CF0E94E7D42E
:103200006B017C01C301B2010E946AD56D877E8784
:103210008F87988B683771058105910540F428E701
:1032200030E040E050E02D873E874F87588BC70144
:10323000B6010E946AD56D837E838F839887683735
:1032400071058105910540F488E790E0A0E0B0E0C9
:103250008D839E83AF83B887D10195962D913D9143
:103260004D915C91989729873A874B875C87F1014C
:10327000E45AFF4F608171818281938161157105EC
:103280008105910509F4FCC10E9462CF6D8B7E8B94
:103290008F8B988F9B01AC0160E070E080E89FE32A
:1032A0000E94FDD4698F7A8F8B8F9C8F20E030E055
:1032B00040E05FE30E94C1CF6B017C01A501940156
:1032C000C501B4010E94C1CF2B013C016D817E81FB
:1032D0008F8198850E9460CF9B01AC010E94C1CF75
:1032E0009B01AC01C301B2010E9420D4A701960149
:1032F0000E94C1CF4B015C016D857E858F859889C9
:103300000E9460CF9B01AC010E94C1CF6D8F7E8F68
:103310008F8F98A39B01AC01C301B2010E9420D4FE
:10332000A70196010E94C1CF2B013C010E94E7D466
:103330000E946AD56B017C01C501B4010E9496D53B
:103340000E946AD5698B7A8B8B8B9C8BDC01CB01BD
:103350008C0D9D1DAE1DBF1D29853A854B855C8555
:10336000281B390B4A0B5B0BDA01C901B7FF61C09F
:1033700069857A858B859C850E9460CFA301920127
:103380000E9421D4A50194010E9420D420E030E0C5
:1033900040E05FE30E94C1CF0E94E7D46B017C0153
:1033A00020E030E0A9010E9447D618161CF0C12C7D
:1033B000D12C7601C701B6010E946AD56B017C0150
:1033C00089859A85AB85BC858C159D05AE05BF05A5
:1033D00010F46C017D0129853A854B855C852C199B
:1033E0003D094E095F09298B3A8B4B8B5C8BC701DA
:1033F000B6010E9460CF4B015C012D893E894F8947
:10340000588DCA01B9010E9421D49B01AC01C501AC
:10341000B4010E94C1CF2D8D3E8D4F8D58A10E94C9
:1034200021D40E948CD60E946AD569837A838B83CB
:103430009C8320E034E244EF59E4698D7A8D8B8DD2
:103440009C8D0E94C1CF4B015C0169817A818B8187
:103450009C812D853E854F855889621B730B840B9B
:10346000950B0E9460CFA50194010E94C1CF0E94DC
:103470006AD52B013C0169817A818B819C812D81E8
:103480003E814F815885621B730B840B950B0E9404
:1034900060CFA50194010E94C1CF0E946AD54B0163
:1034A0005C013FE6431651046104710408F0F4C066
:1034B000F201EE0FFF1FEE0FFF1FE25AFB4E859148
:1034C0009591A591B4918C01AD8BB9874FE6841687
:1034D0009104A104B10408F0E6C0F401EE0FFF1F4F
:1034E000EE0FFF1FE25AFB4E459155916591749185
:1034F000342F252F698F7D8FD1019A96CD92DD9241
:10350000ED92FC929D979596CD90DD90ED90FC907C
:103510009897B701A60189899A89AB89BC89481B0C
:10352000590B6A0B7B0BD1019E964D935D936D9366
:103530007C93D197F101EC5AFF4F8D859E85AF8525
:10354000B88980839183A283B383D101D6964D92AB
:103550005D926D927C92D997F10182AE93AEA4AE4A
:10356000B5AEFE96008311834D89428359855383FE
:10357000349630832183898D82839D8D9383298125
:103580003A814B815C81D2962D933D934D935C9310
:10359000D59776962D813E814F8158852083318342
:1035A00042835383719780819181A281B381892B5A
:1035B0008A2B8B2B09F44BC0D10191966D917D9193
:1035C0008D919C9194970E9460CF2091EC04309152
:1035D000ED044091EE045091EF040E94C1CF4B01E5
:1035E0005C01C701B6010E9460CF9B01AC01C5011F
:1035F000B4010E94FDD46B017C01F101E45BFF4F3B
:10360000FA87E98769817A818B819C810E9460CFEA
:10361000A70196010E94C1CF0E946AD5A985BA85EB
:103620006D937C93F101E25BFF4FFA83E9836D8137
:103630007E818F8198850E9460CFA70196010E94AC
:10364000C1CF0E946AD5A981BA816D937C93A0965F
:103650000FB6F894DEBF0FBECDBFDF91CF911F91A3
:103660000F91FF90EF90DF90CF90BF90AF909F9021
:103670008F907F906F905F904F903F902F90089524
:10368000198E1A8E1B8E1C8E198A1A8A1B8A1C8A06
:10369000C12CD12C7601CDCEC301B2016AD88B01E9
:1036A0008D8B998713CFC501B40163D8362F272F8F
:1036B000898F9D8F21CF4F925F926F927F928F92D1
:1036C0009F92AF92BF92CF92DF92EF92FF920F93B1
:1036D0001F93CF93DF93EC012091DB043091DC0446
:1036E0004091DD045091DE04688179818A819B815B
:1036F0000E9420D46B017C012091DF043091E00412
:103700004091E1045091E2046C817D818E819F8122
:103710000E9420D44B015C01A70196016091230413
:103720007091240480912504909126040E945CCF1E
:10373000882309F450C0C0922304D0922404E0925C
:103740002504F092260420911B0430911C04409122
:103750001D0450911E04C701B6010E94C1CF2B0168
:103760003C010E9496D56B017C0120E030E0A9016C
:103770000E945CCF87FD70C020E030E040E050E464
:10378000C701B6010E9447D618162CF4C12CD12CC3
:10379000E12CA0E4FA2EA7019601C301B2010E9418
:1037A00020D46093130470931404809315049093B1
:1037B0001604C701B6010E9465D560931104062E58
:1037C000000C770B6F5F7F4F6330710514F063E07F
:1037D00070E060930F04D0910D04C0911104A50115
:1037E000940160912704709128048091290490919C
:1037F0002A040E945CCF811133C0DC1381C0209168
:10380000F5033091F6034091F7035091F80360916E
:1038100013047091140480911504909116040E9471
:10382000C1CF2091F9033091FA034091FB035091ED
:10383000FC030E9421D4DF91CF911F910F91FF9043
:10384000EF90DF90CF90BF90AF909F908F907F9040
:103850006F905F904F900895C12CD12C76019BCF33
:103860008092270490922804A0922904B0922A04FE
:1038700020911F0430912004409121045091220492
:10388000C501B4010E94C1CF4B015C010E9496D5D5
:103890006B017C0120E030E0A9010E945CCF87FD34
:1038A000F4C020E030E040E050E4C701B6010E94DF
:1038B00047D618162CF4C12CD12CE12CF0E4FF2EA5
:1038C000A7019601C501B4010E9420D4609317049A
:1038D000709318048093190490931A04C701B601D9
:1038E0000E9465D560931204062E000C770B6F5F63
:1038F0007F4F6330710514F063E070E06093100453
:1039000000911204DC1305C080910E04801709F4A5
:1039100071C0809111049091120490930E048093D1
:103920000D04002E000C110B24E0C202C001112472
:10393000FC01E00FF11FEE0FFF1FEE0FFF1FE7501E
:10394000FB4F2081318142815381209309043093C0
:103950000A0440930B0450930C04C09110040C2EE5
:10396000000CDD0BFC01EC0FFD1FEE0FFF1FEE0F37
:10397000FF1FE750FB4F60817181828193810E941C
:1039800020D46093050470930604809307049093F9
:10399000080480910F0424E08202C0011124FC017C
:1039A000E00FF11FEE0FFF1FEE0FFF1FE750FB4F61
:1039B000208131814281538120930104309302049C
:1039C0004093030450930404C80FD91FCC0FDD1F8C
:1039D000CC0FDD1FC750DB4F688179818A819B81C5
:1039E0000E9420D46093FD037093FE038093FF0335
:1039F000909300048090170490901804A0901904EC
:103A0000B0901A04209105043091060440910704F7
:103A100050910804C501B4010E94C1CF209109044E
:103A200030910A0440910B0450910C040E9421D45F
:103A30006B017C01C092F903D092FA03E092FB0380
:103A4000F092FC032091FD033091FE034091FF03AF
:103A500050910004C501B4010E94C1CF209101041E
:103A60003091020440910304509104040E9421D437
:103A7000A70196010E9420D46093F5037093F6038A
:103A80008093F7039093F803BACEC12CD12C760122
:103A900017CF0F931F9380916D04813019F50E9409
:103AA0003A9F00916504109166042091670430915B
:103AB0006804601B710B820B930B28EE33E040E02F
:103AC00050E00E9436D3609161047091620480914D
:103AD000630490916404620F731F841F951F1F91EC
:103AE0000F9108956091690470916A0480916B044C
:103AF00090916C04D6CF8091340490913504009756
:103B000031F04AE050E070E060E00C949CCC60E062
:103B100070E0CB010895EFDF97FD0AC0ECDF6F3F47
:103B200071058105910509F02CF4E5DF862F0895D4
:103B300080E008958FEF0895CF93C62FB1D88823E2
:103B400011F0CF91E8CF8C2FCF910895809134045C
:103B500090913504892B39F0DEDF91E0811101C0AD
:103B600090E0892F089591E0FCCFCF93DF93C82F89
:103B7000D62F96D8882319F0DF91CF91E7CF8C2FDD
:103B800041D8811101C08D2FDF91CF910895B3DF0E
:103B9000CB010895CF93DF93EB0182D8882319F0EE
:103BA000DF91CF91F4CFCE01DF91CF9108950F93A4
:103BB0001F93CF938091340490913504009709F1BD
:103BC000FC018F01C1912C2F2F7DA1F0C53431F064
:103BD000C53621F0C83511F0C83799F7F8011082C1
:103BE00070E060E00E9447CBF801C083CF911F9145
:103BF0000F91089570E060E0CF911F910F910C94A8
:103C000047CB60E070E0CB01F1CFCF92DF92EF9233
:103C1000FF926A017B0144D8882329F0FF90EF903E
:103C2000DF90CF90C4CFC701B601FF90EF90DF9037
:103C3000CF9008954F925F926F927F92AF92BF9212
:103C4000CF92DF92EF92FF920F931F93CF9389E26F
:103C5000A82E83E0B82E99EDE92E98E0F92E04E71E
:103C600012E026EEC22E20E1D22EC0E0F5018191B5
:103C70005F0116D8882309F479C099DF2B013C0134
:103C80008C2F0E94DB15882309F466C0F80120817F
:103C9000318142815381C301B2010E9421D4F701D5
:103CA0006083718382839383CF5FF4E0EF0EF11C16
:103CB0000C5F1F4F84E0C80ED11CC330B9F685E4F9
:103CC0000E945016882309F45CC071DF6B017C01EF
:103CD00083E00E94DB15882371F0209180023091EF
:103CE00081024091820250918302C701B6010E9475
:103CF00021D46B017C01C092E508D092E608E092E5
:103D0000E708F092E80840E050E0BA0186E47DDF81
:103D100020E030E0A9010E9447D618167CF447DF66
:103D200020E030E040E752E40E94FDD460935A0264
:103D300070935B0280935C0290935D02CF911F9120
:103D40000F91FF90EF90DF90CF90BF90AF907F905A
:103D50006F905F904F900895F601208131814281EC
:103D60005381C301B2010E9420D499CFF801808110
:103D70009181A281B381F70180839183A283B38370
:103D800093CF8091800290918102A0918202B091A4
:103D900083028093E5089093E608A093E708B09328
:103DA000E808B1CFAF92BF92CF92DF92EF92FF922D
:103DB0000F931F93CF935C016B018A018A519C4F33
:103DC0007C01DC01CC91C7FF3DC0FB011182108258
:103DD000CF5FD701CC93CC300CF053C08CE08A9DE0
:103DE000F0018B9DF00D1124CF018C0F911DC7FDAB
:103DF0009A95209175132817190609F00CF441C003
:103E0000F60120813181FC01EE0FFF1FE80FF91F41
:103E1000E35DFC4E81819281820F931FD801119640
:103E20009C938E93808187FF3DC061E08F77CF9117
:103E30001F910F91FF90EF90DF90CF90BF90AF90C8
:103E40000C94D29C8CE08A9DF0018B9DF00D112486
:103E5000CF018C0F911DC7FD9A95209175132817DE
:103E6000190609F00CF4B4CFFC01EE0FFF1FE80FA8
:103E7000F91FE35DFC4E808160E08F770E94D29C49
:103E8000A7CFF6018081918104968034FCE99F07D9
:103E900010F480E49CE9D80111969C938E938FEFE7
:103EA000F7018083CF911F910F91FF90EF90DF90EA
:103EB000CF90BF90AF90089593E0980F21E030E04D
:103EC00002C0220F331F9A95E2F72095309590910A
:103ED0006808292320936808882321F0813021F085
:103EE00081E00895129AFCCF479AFACF21E030E0A2
:103EF000082E02C0220F331F0A94E2F72095309556
:103F000090916808292320936808813061F020F09F
:103F1000823071F081E008955F9A8091870A8E7FE8
:103F20008093870AF7CF8A9A8091870A8D7FF8CF8E
:103F30008091080180958170809306018091870AA5
:103F40008B7FEECF813089F070F0823081F021E0FC
:103F500030E001C0220F8A95EAF780916808822B31
:103F60008093680808955F98F2CF8A98F0CF909177
:103F70000801917090930601EACF20913E0830919C
:103F80003F08F901ED5BFA4F9081969596959370F5
:103F900081E0913009F080E040912802509129029F
:103FA00060913C0870913D084F5F5F4F2F5F3F4F1E
:103FB0002D3F310511F430E020E06217730721F145
:103FC000F901ED5BFA4F908196959695937061F3A8
:103FD00030933F0820933E085093290240932802D3
:103FE00040914708509148086091450870914608F3
:103FF000461B570B220F331FF901E05CF94F20815C
:104000003181240F351F0AC070933F0860933E082A
:1040100050932902409328022FEF3FEF3093340250
:1040200020933302089520913A0830913B08F9011A
:10403000ED5BFA4F9081937081E0913009F080E060
:1040400040912A0250912B0260913C0870913D08EA
:104050004F5F5F4F2F5F3F4F2D3F310511F430E031
:1040600020E06217730711F1F901ED5BFA4F9081BF
:10407000937071F330933B0820933A0850932B02CE
:1040800040932A024091490850914A08609145089E
:1040900070914608461B570B220F331FF901E05C55
:1040A000F94F20813181240F351F0AC070933B08DE
:1040B00060933A0850932B0240932A022FEF3FEF70
:1040C00030933202209331020895CF93DF932091F1
:1040D000E304222371F0EC01EEDA9B01AC01688568
:1040E00079858A859B850E9421D4688779878A870C
:1040F0009B87DF91CF91089580918A1390918B13C4
:10410000891B8F7019F490E080E0089590918713D7
:10411000992351F0833030F48FEF890F19F0809399
:104120008713F1CF1092871380918B1321E6829F22
:10413000C00111248A52954FFC01208120FDE3CF5C
:1041400020918B132F5F2F702093881330918B1346
:1041500020918913321304C020918813209389136E
:10416000089590916F0081E091FD02C080E0089574
:1041700090916F009D7F90936F000895EFE6F0E0BF
:1041800080818260808308958F929F92AF92BF92C8
:10419000CF92DF92EF92FF920F931F93CF93DF9313
:1041A000182F84E0189FE0011124123008F046C057
:1041B000D8DF082FD6DF8090580890905908A0903B
:1041C0005A08B0905B088111D9DFCBDFC0905C0842
:1041D000D0905D08E0905E08F0905F088111CEDF1E
:1041E0000111CCDF113019F5C501B4016C197D093D
:1041F0008E099F090E9462CF20E030E040E05FE33B
:104200000E94C1CFC554DB4F288139814A815B812F
:104210000E94C1CFDF91CF911F910F91FF90EF903E
:10422000DF90CF90BF90AF909F908F900895C7017F
:10423000B601680D791D8A1D9B1DDCCF92DFFE0142
:10424000E85AF74FC080D180E280F380811196DF79
:10425000C701B6010E9462CFD5CFCF92DF92EF9215
:10426000FF92CF93DF93C82F7CDF94E0C99FE001DA
:104270001124FE01E45BF74FC080D180E280F3801F
:1042800081117CDFC554DB4FC701B6010E9462CFAC
:10429000288139814A815B810E94C1CFDF91CF9112
:1042A000FF90EF90DF90CF900895CF93DF93CDB73D
:1042B000DEB72C970FB6F894DEBF0FBECDBF0E94BD
:1042C00026974FDF9CE0E8E5F8E0DE0111960190CB
:1042D0000D929A95E1F7811151DFCE0101960E946E
:1042E0008EAA2C960FB6F894DEBF0FBECDBFDF911D
:1042F000CF910895CF93DF931F92CDB7DEB7898317
:1043000060E0CE0101960E94391561E0CE01019670
:104310000E94391562E0CE0101960E94391589810B
:104320000F90DF91CF9108958F929F92AF92BF929D
:10433000CF92DF92EF92FF92CF93DF9320914002D2
:10434000222309F48EC0EC018091BC08E82E80FF86
:104350002CC08090420290904302A0904402B09002
:104360004502288139814A815B81C501B4010E94DF
:1043700047D6181624F488829982AA82BB8280903C
:104380004E0290904F02A0905002B09051022881AE
:1043900039814A815B81C501B4010E945CCF87FFEE
:1043A00004C088829982AA82BB82E1FE2CC08090E0
:1043B000460290904702A0904802B09049022C819A
:1043C0003D814E815F81C501B4010E9447D6181618
:1043D00024F48C829D82AE82BF82809052029090A3
:1043E0005302A0905402B09055022C813D814E8121
:1043F0005F81C501B4010E945CCF87FF04C08C823D
:104400009D82AE82BF82E2FE2CC0C0904A02D09054
:104410004B02E0904C02F0904D02288539854A8588
:104420005B85C701B6010E9447D6181624F4C886DA
:10443000D986EA86FB86C0905602D0905702E0905B
:104440005802F0905902288539854A855B85C70155
:10445000B6010E945CCF87FF04C0C886D986EA8671
:10446000FB86DF91CF91FF90EF90DF90CF90BF90D0
:10447000AF909F908F900895CF92DF92EF92FF922E
:104480000F931F93CF93DF93E82FF0E0EF01CC0F52
:10449000DD1FCC0FDD1F461739F0823009F049C00F
:1044A000C12CD12C760117C08230D1F3A091850A9E
:1044B0008A2F90E0DC01AA0FBB1FA80FB91FAE0F17
:1044C000BF1FAA0FBB1FAA0FBB1FAF53B74FCD9083
:1044D000DD90ED90FC908F01000F111F000F111F58
:1044E000F801E153FC4E2591359145915491C05C02
:1044F000DD4FC701B6010E9421D46A837B838C8380
:104500009D83F801ED53FC4E2591359145915491D1
:10451000C701B6010E9421D46E877F87888B998B53
:10452000DF91CF911F910F91FF90EF90DF90CF908F
:10453000089550E0DA01AA0FBB1FA40FB51FAE0FFC
:10454000BF1FAA0FBB1FAA0FBB1FAF53B74F862FAA
:1045500090E0BC01660F771F680F791FE60FF71F09
:10456000EE0FFF1FEE0FFF1FEF53F74F208131813A
:10457000428153816D917D918D919C910E9420D4B7
:104580006B017C01C05CDD4FAC019B016A817B81CA
:104590008C819D810E9421D46A837B838C839D833F
:1045A000A70196016E857F8588899989B3CF4F923F
:1045B0005F926F927F928F929F92AF92BF92CF92B3
:1045C000DF92EF92FF92CF93DF9300D000D000D024
:1045D000CDB7DEB78090740290907502A0907602FD
:1045E000B0907702C0907802D0907902E0907A0281
:1045F000F0907B0280917C0290917D02A0917E02DE
:10460000B0917F0289839A83AB83BC8380918002BF
:1046100090918102A0918202B09183028D839E834A
:10462000AF83B8870E9419180E94B614198689852D
:104630000E945A1540E060E089851EDF99859F5FE2
:1046400099879330A1F70E94EA1623EF34E045E3FF
:104650005FE36091390570913A0580913B05909137
:104660003C050E94C1CF2AE136EF45E95EE30E9496
:10467000FDD42B013C016091980A7091990A8091B8
:104680009A0A90919B0A0E9460CF9B01AC01C301E2
:10469000B2010E94C1CF0E948CD66093CB0470936C
:1046A000CC048093CD049093CE040E949718A5016A
:1046B00094016091740270917502809176029091DC
:1046C00077020E945CCF81112EC0A70196016091F4
:1046D00078027091790280917A0290917B020E9417
:1046E0005CCF811120C029813A814B815C8160912E
:1046F0007C0270917D0280917E0290917F020E94E7
:104700005CCF811110C02D813E814F815885609111
:1047100080027091810280918202909183020E94B6
:104720005CCF8823A9F029960FB6F894DEBF0FBEA0
:10473000CDBFDF91CF91FF90EF90DF90CF90BF90F2
:10474000AF909F908F907F906F905F904F90ADCD86
:1047500029960FB6F894DEBF0FBECDBFDF91CF9183
:10476000FF90EF90DF90CF90BF90AF909F908F9091
:104770007F906F905F904F9008958F929F92AF922D
:10478000BF92CF92DF92EF92FF921F93CF93DF936E
:10479000CDB7DEB760970FB6F894DEBF0FBECDBFC2
:1047A000182F80E0F1DC4B015C0180927004909244
:1047B0007104A0927204B092730481E0E5DC6B0195
:1047C0007C01C0927404D0927504E0927604F09259
:1047D000770482E0D9DC6093780470937904809345
:1047E0007A0490937B041D861E861F86188A898210
:1047F0009A82AB82BC82CD82DE82EF82F8866987A4
:104800007A878B879C8783E0BFDC6D877E878F8765
:10481000988B8091E304882381F0CE0101960E9459
:104820005B1B9B01AC0169857A858B859C850E9409
:1048300020D469877A878B879C871E3FD9F480E1D3
:10484000FE013196A4E7B2E001900D928A95E1F75E
:1048500060960FB6F894DEBF0FBECDBFDF91CF914B
:104860001F91FF90EF90DF90CF90BF90AF909F90FF
:104870008F90089584E0189FF0011124DF01AC5857
:10488000BD4F81E090E08C0F9D1FE80FF91F408124
:104890005181628173814D935D936D937C931397E6
:1048A000D7CF0C9411988091EB08811105C08091AD
:1048B000880A882309F46EC080916E04659B5AC0F3
:1048C000816080936E049091030180916E0490FF4B
:1048D00053C0826080936E0480916E04639B4EC0CF
:1048E000886080936E0480916E044A9B49C0846006
:1048F00080936E048091440880FF10C08091EC0882
:1049000085FF0CC080916E0480FF08C08091860AEC
:1049100081608093860A80E00E94C2AA8091440848
:1049200081FF10C08091EC0886FD0CC080916E0460
:1049300081FF08C08091860A82608093860A81E0A8
:104940000E94C2AA8091440882FF24C08091EC0892
:1049500082FF18C08091880A8823E1F080916E045C
:1049600083FF18C08091860A88608093860A82E05F
:104970000C94C2AA8E7FA5CF8D7FACCF877FB1CF9D
:104980008B7FB6CF80916E0482FF04C08091860A2F
:104990008460EBCF089510926D041092650410921C
:1049A00066041092670410926804109269041092D1
:1049B0006A0410926B0410926C04109261041092BD
:1049C00062041092630410926404089580916D044F
:1049D0008130E1F08230C1F45CD86093610470935F
:1049E0006204809363049093640481E080936D0477
:1049F0000E943A9F609365047093660480936704F5
:104A00009093680481E00895C6DFEFCF80E00895B9
:104A100080916D048150823070F410926D040E9478
:104A20003A9F6093690470936A0480936B04909337
:104A30006C0481E0089580E00895282F30E094E030
:104A4000359527959A95E1F797E32A3008F490E396
:104A5000920F909315028F7097E38A3008F490E3D9
:104A6000890F8093160285E192E00895CF93DF933A
:104A7000C0918B08D0918C08209729F1609187080C
:104A8000709188088091890890918A080E9465D564
:104A90006E5F7F4F24976C177D07ACF470936A08A4
:104AA000609369080E943A9F6058774C8E4F9F4FE1
:104AB00060936B0870936C0880936D0890936E08F8
:104AC000DF91CF91089510926B0810926C081092AC
:104AD0006D0810926E08F4CF0F931F93CF93DF935E
:104AE000082F10E097E1899FF0011124E257F74F5A
:104AF000C085D185209729F1648175818681978150
:104B00000E9465D56E5F7F4F25976C177D07CCF4AB
:104B100086E0809FE001819FD00D1124C159D74FBD
:104B2000798368830E943A9F60547B428E4F9F4FE7
:104B30006A837B838C839D83DF91CF911F910F913B
:104B4000089586E0809FF001819FF00D1124E159C6
:104B5000F74F1282138214821582EECFE62FF0E017
:104B600027E1629FD0011124A257B74FEE0FFF1F1C
:104B7000E35DFC4F208131812F503109821793076B
:104B80000CF49C0119963C932E931897862FA4CF72
:104B90000C94B5968F929F92AF92BF92CF92DF9274
:104BA000EF92FF920F931F93CF93DF9310925904CC
:104BB000109258042FE320935C0410925B0410922F
:104BC0005A041092540410925504109256041092F4
:104BD00057049C01F90190812F5F3F4F9032D1F330
:104BE0009E34C9F4818190ED980F9A3020F08D3277
:104BF00011F08B3281F432969F012F5F3F4F8081FD
:104C000080538A3008F46BC09F012F5F3F4F808133
:104C1000803209F466C0F0938B0AE0938A0A8F0110
:104C20000F5F1F4FC0816AE270E0C8010E94EDD69D
:104C3000009731F0FC01319780818032E1F31182DD
:104C4000CD3421F0C43511F0C734E1F5F80180818D
:104C50000F5F1F4F8032D1F380538A3098F5C09395
:104C60005C0430E020E06AE0AF014F5F5F4F629F7D
:104C7000C001639F900D11249C0120533109808154
:104C8000280F311D87FD3A95FA01808180538A30C3
:104C900058F330935B0420935A04DF0131968C91D2
:104CA0008032D9F3CD3449F52E31310539F0D8F4BD
:104CB0002731310519F02C313105F9F4B09359043D
:104CC000A0935804DF91CF911F910F91FF90EF9027
:104CD000DF90CF90BF90AF909F908F900895F90193
:104CE0008BCFF90191CF2537310538F027373105C2
:104CF00028F3203A83E0380709F3D0918A0A40E08C
:104D000050E0BA0110E000E0C12CD12C7601C39430
:104D1000FD0131968C91882309F47FC08132E1F442
:104D2000CD34D1F420323105B9F44093540450937A
:104D300055046093560470935704F0935904E0931C
:104D4000580463E270E0CF010E94EDD6009709F4A9
:104D5000B9CFFC011082B6CF81548A3108F058C017
:104D6000DF019D91903291F0A0EDA90FAA30E8F0FB
:104D70009E3271F4918190539A30B8F0011511056B
:104D800019F48F010150110990E013C0FD01E8CF23
:104D90009D3211F09B3291F79181A0EDA90FAA30BD
:104DA00020F09E3259F79281E6CF9E2F9D1B3097BF
:104DB00059F3A82FB0E04601570104C0880C991C94
:104DC000AA1CBB1C8A95D2F7482959296A297B2934
:104DD000A65CBB4F9C9380818154DF018A3108F42B
:104DE00097CFDF018191882309F492CF90ED980F3E
:104DF0009A30B8F393ED980F923098F38B3289F391
:104E0000CD010196EC91E03209F082CFDC01F8CFC0
:104E10000115110501F78D01DECF109359040093A0
:104E2000580440935404509355046093560470936F
:104E3000570448CFCF92DF92EF92FF926B017C0133
:104E400083E3C816D104E104F10470F082E3C81AC8
:104E5000D108E108F10862E370E080E090E00E9490
:104E6000489E0E94DDBEECCFC701B6010E94489E5D
:104E7000FF90EF90DF90CF900C94DDBE8091EB0817
:104E8000811104C08091880A882329F062E070E0D3
:104E900080E090E0CFCF089581E00895DC01EC91AF
:104EA0008E2F90E0FC01EE0FFF1FE80FF91FE35D6E
:104EB000FC4E80818F7780830895CF93DF93EC0140
:104EC000E62F660FFF0BEE52FB4DE491E250E1310D
:104ED00008F0B0C0F0E08827EF58F84D8F4F0C94E1
:104EE000C0D382271A281A281A281A28AC278E27F6
:104EF000D027CE27AE27F427F227D2271A28182842
:104F00001628F62782E1EAE8F2E0DE0101900D9230
:104F10008A95E1F7CE01DF91CF91089581E020EBF2
:104F200030E03983288321EB30E03B832A831D82E4
:104F30001C8223EB30E03F832E8324EB30E0398763
:104F400028871B861A861D861C8692E09E878F877F
:104F500081E0888B198ADECF80E0E1CF81E08F5F2E
:104F600020E930E03983288321E930E03B832A833C
:104F700022E930E03D832C8328E930E03F832E8313
:104F80002AE930E0398728872CE930E03B872A87F7
:104F900026E930E03D872C8793E0D8CF80E0DFCF53
:104FA00080E0DECF81E08F5F20EA30E03983288324
:104FB00021EA30E03B832A8322EA30E03D832C83E0
:104FC00028EA30E03F832E832AEA30E039872887B9
:104FD0002CEA30E03B872A8726EA30E03D872C87A1
:104FE00094E0B4CF80E0DFCF80E0DECF81E08F5F60
:104FF00020E231E03983288321E231E03B832A83B8
:1050000022E231E03D832C8328E231E03F832E838E
:105010002AE231E0398728872CE231E03B872A8772
:1050200026E231E03D872C8795E090CF80E0DFCF0E
:1050300080E0DECF82E1FE0111928A95E9F76ACF26
:10504000009719F0019789F008951092900082E07E
:10505000809391001092950010929400C19A8091D3
:10506000710082608093710008951092A00082E028
:105070008093A1001092A5001092A40089BB809398
:10508000720008957F928F929F92AF92BF92CF92BB
:10509000DF92EF92FF920F931F93CF93DF93EC0178
:1050A0006B018881883108F0C4C090E0FC01EE0FEC
:1050B000FF1FE80FF91FE35DFC4E808161E08F77F1
:1050C0000E946C9D19821A8288812CE0622F0E94B6
:1050D0008DD3829FB001112430E020E0AB01420F5C
:1050E000531FFA01EE0FFF1FE40FF51FE35DFC4EA7
:1050F000908197FD07C02F5F3F4F2C30310571F72E
:1051000090E09EDF7880E72CF12C8701000F111FC3
:10511000F801EE0DFF1DE35DFC4E80818068808309
:1051200077FC87C080E2C81682E0D8060CF03FC04A
:105130008A8128E532E0281B310987FD3395220F4B
:10514000331F220F331F032E000C440B550B898194
:1051500078E8872E912C881A910887FD9394880C03
:10516000991C880C991C092C000CAA08BB0860E04B
:1051700070E0CB01D7FC0AC0B601653B710514F0A5
:1051800064EB70E0072E000C880B990B2819390985
:105190004A095B090E9427D324EB30E040E050E04D
:1051A0000E9458D3820E931EA41EB51E640187E18F
:1051B0008715D8F0298188E890E0821B910927FDA6
:1051C0009395880F991F880F991FC816D9060CF55B
:1051D00002972FB7F8940E0D1F1DF801E35DFC4EEA
:1051E000880F991F928381832FBF60ED77E080E065
:1051F00090E020DECE01DF91CF911F910F91FF90C3
:10520000EF90DF90CF90BF90AF909F908F907F9066
:1052100045CE2A8188E592E0821B910927FD93956E
:10522000880F991F880F991FC816D9068CF6C601DA
:10523000CFCFDF91CF911F910F91FF90EF90DF9033
:10524000CF90BF90AF909F908F907F9008951F92C6
:105250000F920FB60F9211240BB60F922F933F931C
:105260004F935F936F937F938F939F93AF93BF936E
:10527000EF93FF9348EA50E064EA70E081E090E049
:105280000E94D21EFF91EF91BF91AF919F918F919C
:105290007F916F915F914F913F912F910F900BBE36
:1052A0000F900FBE0F901F9018951F920F920FB680
:1052B0000F9211240BB60F922F933F934F935F934E
:1052C0006F937F938F939F93AF93BF93EF93FF93CE
:1052D00048E950E064E970E090E080E00E94D21E6E
:1052E000FF91EF91BF91AF919F918F917F916F91BE
:1052F0005F914F913F912F910F900BBE0F900FBE7A
:105300000F901F9018959091C00095FFFCCF80934F
:10531000C6000895CF93DF93EC018991882311F0A3
:10532000F2DFFBCFDF91CF910895F4DF8DE0EBDF6B
:105330008AE0E9CF85E4E7DF81E3E5CF85E4E3CFE9
:105340008AE5E1CF89E5DFCF88E5DDCFEF92FF92F7
:105350000F931F93CF93DF93CDB7DEB7E3970FB6CD
:10536000F894DEBF0FBECDBF182FE42EF22E6623B9
:1053700001F18F3008F080C0E82F880FFF0B8827DD
:10538000EB53F64D8F4F0C94C0D3D429F829FF2945
:105390000B2A142A192A1C2A212A3C2A3C2A282AA8
:1053A0003C2A2D2A322A372A89E0ADDFCDDF89E079
:1053B000AADFEE2009F46EC01F3008F0CEC0E12F46
:1053C000012E000CFF0B8827E751F64D8F4F0C94F0
:1053D000C0D3452A692A702A7C2A852A8A2A8D2ADE
:1053E000922AAD2AAD2A992AAD2A9E2AA32AA82A52
:1053F0008DEC92E10E943EA30E94B498D8CF809198
:10540000CF129091D0122091D112A22FAF70BC0177
:105410008A2F90E0F1CF8DEC92E10E9427A1682FB6
:1054200070E090E080E0E8CF8DEC92E10E940EA366
:10543000E3CF6091D212F4CF8DEC92E10E941FA1D4
:10544000DBCF8091D3129091D4122091D512DDCF71
:105450008DEC92E10E94B9A3CFCF8DEC92E10E9436
:105460001EA3CACF8DEC92E10E9416A3C5CF8DEC8E
:1054700092E10E944B93C0CF6DEC72E1CE01019698
:105480000E945C1689E03FDF92CF89E03CDF5ADF63
:1054900089E039DFFF2009F46EC01F3008F0CEC06C
:1054A000E12F012E000CFF0B8827E65AF54D8F4F98
:1054B0000C94C0D3B62ADA2AE12AED2AF62AFB2A6E
:1054C000FE2A032B1E2B1E2B0A2B1E2B0F2B142BFD
:1054D000192B81E992E10E943EA30E94B498D8CF93
:1054E000809193129091941220919512A22FAF70F7
:1054F000BC018A2F90E0F1CF81E992E10E9427A1BF
:10550000682F70E090E080E0E8CF81E992E10E94AE
:105510000EA3E3CF60919612F4CF81E992E10E944D
:105520001FA1DBCF80919712909198122091991230
:10553000DDCF81E992E10E94B9A3CFCF81E992E169
:105540000E941EA3CACF81E992E10E9416A3C5CF93
:1055500081E992E10E944B93C0CF61E972E1CE01F3
:1055600001960E945C1689E0CEDE92CF89E0CBDE08
:10557000E7DE89E0C8DE002309F4DBC01F3008F055
:10558000CAC0E12F012E000CFF0B8827E553F54D13
:105590008F4F0C94C0D3272B472B4E2B5A2B632BAA
:1055A000682B6B2B702B8B2B8B2B772B8B2B7C2BCC
:1055B000812B862B85E592E10E943EA30E94B49840
:1055C000D8CF809157129091581220915912A22F42
:1055D000AF70BC018A2F90E0F1CF85E592E10E9487
:1055E00027A1682F70E090E080E0E8CF85E592E1A8
:1055F0000E940EA3E3CF60915A12F4CF85E592E1A9
:105600000E941FA1DBCF80915B1290915C122091D0
:105610005D12DDCF85E592E10E94B9A3CFCF85E58C
:1056200092E10E941EA3CACF85E592E10E9416A3D3
:10563000C5CF85E592E10E944B93C0CF65E572E14D
:10564000CE0101960E945C1689E05DDE92CF89E072
:105650005ADE74DE89E057DE1F3008F0BDC0E12F4E
:10566000110FFF0B8827E85CF44D8F4F0C94C0D3CB
:10567000942BA82BAF2BBB2BC42BC92BCC2BD12B02
:10568000EC2BEC2BD82BEC2BDD2BE22BE72B89E141
:1056900092E10E943EA30E94B498DCCF80911B123D
:1056A00090911C1220911D12A22FAF70BC018A2F65
:1056B00090E0F1CF89E192E10E9427A1682F70E08C
:1056C00090E080E0E8CF89E192E10E940EA3E3CF71
:1056D00060911E12F4CF89E192E10E941FA1DBCFFD
:1056E00080911F129091201220912112DDCF89E12B
:1056F00092E10E94B9A3CFCF89E192E10E941EA35B
:10570000CACF89E192E10E9416A3C5CF89E192E157
:105710000E944B93C0CF69E172E1CE0101960E94D5
:105720005C1689E0F0DD96CF89E0EDDD03DE89E0EF
:10573000EADD8AE0E8DDE3960FB6F894DEBF0FBE3F
:10574000CDBFDF91CF911F910F91FF90EF90089502
:105750008DED91E10E943EA30E94B498E8CF809124
:10576000DF119091E0112091E111A22FAF70BC01E7
:105770008A2F90E0F1CF8DED91E10E9427A1682F53
:1057800070E090E080E0E8CF8DED91E10E940EA303
:10579000E3CF6091E211F4CF8DED91E10E941FA162
:1057A000DBCF8091E3119091E4112091E511DDCFE1
:1057B0008DED91E10E94B9A3CFCF8DED91E10E94D3
:1057C0001EA3CACF8DED91E10E9416A3C5CF8DED2A
:1057D00091E10E944B93C0CF6DED71E1CE01019636
:1057E0000E945C1689E08FDDA2CFDC016B3051F4A2
:1057F000ED91FC910280F381E02D61E41995CB01DC
:105800000C94F917E7EFE60FEB3050F50E2E000C75
:10581000FF0B8827E15FF34D8F4F0C94C0D35D2CB5
:10582000302C302C302C1A2C262C312C3C2C302CAB
:10583000522C472CED91FC9111970084F185E02DBD
:10584000CD01199573FF0CC08AE25DCDED91FC91FD
:1058500011970084F185E02DCD01199572FDF4CFEB
:105860000895ED91FC9111970084F185E02DCD0113
:10587000199571FFF5CFE8CFED91FC911197008458
:10588000F185E02DCD01199570FFEACFDDCFED91C7
:10589000FC9111970084F185E02DCD01199564FFED
:1058A000DFCFD2CFED91FC9111970084F185E02DEF
:1058B000CD01199565FFD4CFC7CFCD010E9456A366
:1058C0009FCFCF93DF93EC01FE0184912196882333
:1058D00011F019DDF9CFDF91CF9108950F931F9348
:1058E000CF938C01C62F84EF9EE0EBDFC801E9DF88
:1058F0008AE309DD80E38C0F06DD8AE0CF911F91FA
:105900000F9101CD87ED90E1DCDF8AE0FCDC60E007
:1059100087EC90E1E3DF60E082EB90E1DFDF61E0C4
:105920008BEA90E1DBDF61E080EA90E1D7DF60E0C5
:1059300081E990E1D3DF61E081E890E1CFDF60E0D1
:1059400088E790E1CBDF61E08EE690E1C7DF61E0C0
:1059500084E690E1C3DF60E08DE590E1BFDF61E0C8
:1059600085E590E1BBDF61E087E490E1B7DF60E0CF
:1059700089E390E1B3DF60E08AE290E1AFDF60E0CD
:105980008CE190E1ABDF60E086E090E1A7DF60E0D2
:1059900085EF9FE0A3DF60E080EE9FE09FDF60E0A7
:1059A00081ED9FE09BDF60E08AEC9FE097DF60E0A5
:1059B00083EC9FE093DF60E08AEB9FE08FDF60E0A5
:1059C00085EA9FE08BDF60E087E99FE087DF60E0AA
:1059D0008DE89FE083DF60E086E79FE07FDF60E0A7
:1059E00089E69FE07BDF61E086E59FE077DF60E0AE
:1059F00089E49FE073DF61E084E49FE06FDF61E0B2
:105A000087E39FE06BDF60E083E29FE067DF60E0B9
:105A100080E19FE063DF60E08AEF98E00E94D815A4
:105A2000682F617087E09FE059DF60E089EF9EE0BA
:105A300055CFCF93C62F45DF8C2FCF910C941218E2
:105A4000CF93C62F3EDF8C2FCF910C94F9A3F8DFB4
:105A50008AE059CCEF92FF920F931F93CF93DF937D
:105A600061E87FEF8FE40E94CA1DD82F813861F171
:105A70008FEF8D0F8F3040F186E89BE022DF11E041
:105A800061E87FEF80E50E94CA1DC82F813841F090
:105A900083E08C0F803120F08CE69BE012DF11E078
:105AA00061E87FEF83E50E94CA1D813879F09FEF9E
:105AB000980F983058F084E59BE0DF91CF911F91CB
:105AC0000F91FF90EF90FDCE10E0DACF1111FDC0E5
:105AD000D13809F4D4E0C13809F4C2E0182F813874
