:100000000C94AB130C94EB130C94EB130C94EB13B8
:100010000C94EB130C94EB130C94EB130C94EB1368
:100020000C94EB130C94BE9D0C94BE9D0C94BE9D41
:100030000C94EB130C94EB130C94EB130C94EB1348
:100040000C94EB130C94E01F0C94EB130C94EB1337
:100050000C94EB130C9462A70C94EB130C94FBA17F
:100060000C94EB130C9481830C9477830C94EB1316
:100070000C94EB130C94EB130C94EB130C94EB1308
:100080000C94EB130C94EB130C94EB130C94EB13F8
:100090000C94EB130C94EB130C94EB130C94EB13E8
:1000A0000C94EB130C94EB130C94EB130C94EB13D8
:1000B0000C94EB130C94EB130C94EB130C94EB13C8
:1000C0000C94EB130C94EB130C94EB130C94EB13B8
:1000D0000C94EB130C94EB130C94EB130C94EB13A8
:1000E0000C94EB13084AD73B3BCE016E84BCBFFD9A
:1000F000C12F3D6C74319ABD56833DDA3D00C77FF8
:1001000011BED9E4BB4C3E916BAAAABE0000008090
:100110003F05A84CCDB2D44EB93836A9020C50B91F
:10012000918688083CA6AAAA2ABE000000803F004B
:100130004E414E494E495459494E46CDCCCC3D0ACC
:10014000D7233C17B7D13877CC2B329595E6241FAF
:10015000B14F0A000020410000C84200401C462068
:10016000BCBE4CCA1B0E5AAEC59D74434F4D4D5577
:100170004E49434154494F4E0044525952554E0046
:100180004552524F525300494E464F004543484F47
:10019000005072696E7465722073746F707065645C
:1001A0002064756520746F206572726F72732E20E3
:1001B00046697820746865206572726F7220616E7E
:1001C0006420757365204D39393920746F2072654C
:1001D00073746172742E202854656D706572617439
:1001E0007572652069732072657365742E2053657E
:1001F000742069742061667465722072657374611D
:100200007274696E67290A004E6F20436865636BDC
:1002100073756D2077697468206C696E65206E75E2
:100220006D6265722C204C617374204C696E653A66
:100230002000636865636B73756D206D69736D6114
:100240007463682C204C617374204C696E653A208D
:10025000004C696E65204E756D6265722069732071
:100260006E6F74204C617374204C696E65204E75FE
:100270006D6265722B312C204C617374204C696E59
:10028000653A20004D3131300053657269616C2050
:10029000737461747573206D69736D617463680A3A
:1002A000002121204B494C4C20636175736564200B
:1002B000627920746F6F206D75636820696E616369
:1002C000746976652074696D65202D20637572727E
:1002D000656E7420636F6D6D616E643A2000486FC7
:1002E00074656E642049646C652054696D656F7532
:1002F000740A006D41290A002064726976657220D3
:100300006F76657274656D70657261747572652063
:100310007761726E696E67212028003A20002063A1
:10032000757272656E74206465637265617365646D
:1003300020746F20006D41290A002064726976657F
:1003400072206F76657274656D7065726174757216
:1003500065207761726E696E67212028003A20005F
:100360002063757272656E74206465637265617373
:10037000656420746F20006D41290A002064726951
:10038000766572206F76657274656D7065726174E2
:10039000757265207761726E696E67212028003A58
:1003A00020002063757272656E74206465637265E7
:1003B0006173656420746F20006D41290A00206418
:1003C0007269766572206F76657274656D7065729C
:1003D0006174757265207761726E696E672120287D
:1003E000003A2000627573793A2070617573656414
:1003F00020666F7220696E7075740A006275737979
:100400003A2070617573656420666F72207573653C
:10041000720A00627573793A2070726F6365737344
:10042000696E670A006563686F3A004572726F72A1
:100430003A004F4646004F4E0066616C736500748B
:100440007275650042696C696E656172204C6576F3
:10045000656C696E6720477269643A0A00256875A1
:100460003A25303268750025303268753A253032C9
:10047000687500253032687527253032687500258B
:100480006875642025303268753A25303268750009
:10049000447269766572206572726F7200636F696B
:1004A0006C2073686F727420636972637569740A73
:1004B000006F76657274656D7065726174757265D2
:1004C0000A0020647269766572206572726F72200C
:1004D00064657465637465643A20307800303D2E3D
:1004E00033323500313D2E3138006D6178002F33C5
:1004F00031002F3331002F333100303D2E33323570
:1005000000313D2E3138006D6178002F3331002FDE
:100510003331002F333100303D2E33323500313D41
:100520002E3138006D6178002F3331002F333100C8
:100530002F333100303D2E33323500313D2E3138EE
:10054000006D6178002F3331002F3331002F3331AC
:1005500000092042616420726573706F6E736521BB
:1005600000092042616420726573706F6E736521AB
:1005700000092042616420726573706F6E7365219B
:1005800000092042616420726573706F6E7365218B
:10059000004472697665722072656769737465726A
:1005A000733A0A00733276736209007332767361AC
:1005B0000900313230430900313433430900313509
:1005C000304309003135374309006F7409006F74F7
:1005D000707709007332676109007332676209003E
:1005E0006F6C6109006F6C620900737473740900A9
:1005F00073675F726573756C74004452565354414F
:1006000054555300755374657020636F756E740094
:100610005374616C6C6775617264207468727300E6
:10062000202D737461727409006879737465726542
:100630007369730A202D656E640900626C616E6BCC
:100640002074696D65006F66662074696D65007061
:10065000776D2067726164206175746F0070776DCB
:10066000206F6666736574206175746F0070776DB6
:10067000207363616C65206175746F0070776D2005
:100680007363616C652073756D007472696767656B
:100690007265640A204F545009004F5420707265EF
:1006A0007761726E005B6D6D2F735D090050574D61
:1006B000207468726573682E007473746570090025
:1006C000696E7465727009006D73746570730900EA
:1006D000737465616C746843686F70007673656EDF
:1006E0007365090050574D207363616C6500435377
:1006F0002061637475616C00486F6C64206375726F
:1007000072656E740052756E2063757272656E74D8
:10071000004D41582063757272656E7400524D53DE
:100720002063757272656E74005365742063757210
:1007300072656E7400456E61626C656409004164A7
:100740006472657373090009004C4F5700484947AC
:1007500048004F4B004572726F723A20416C6C201A
:100760000020636F6E6E656374696F6E2E2E2E208F
:100770000054657374696E6720004C4F57004849F8
:100780004748004F4B004572726F723A20416C6CC3
:10079000200020636F6E6E656374696F6E2E2E2E5F
:1007A000200054657374696E6720004C4F570048F1
:1007B000494748004F4B004572726F723A20416CB6
:1007C0006C200020636F6E6E656374696F6E2E2EF1
:1007D0002E200054657374696E6720004C4F5700DB
:1007E00048494748004F4B004572726F723A2041AA
:1007F0006C6C200020636F6E6E656374696F6E2E83
:100800002E2E200054657374696E6720002E0A0036
:100810002F0050726F62696E67206D65736820707B
:100820006F696E742000202844525952554E290099
:10083000473239204175746F20426564204C6576DB
:10084000656C696E67003F20284C2C522C462C4268
:1008500029206F7574206F6620626F756E64732E29
:100860000A003F2856296572626F7365206C6576B1
:10087000656C20696D706C61757369626C652028A8
:10088000302D34292E0A00426164205A2076616C92
:1008900075650A004E6F2062696C696E6561722031
:1008A000677269640A0020440020204D32303020F5
:1008B0005300202844697361626C6564293A0046DC
:1008C000696C616D656E742073657474696E6773AD
:1008D0000020204D3230312058004D617820416396
:1008E00063656C65726174696F6E2028756E6974DA
:1008F000732F7332290020204D3230332058004DA1
:100900006178206665656472617465732028756E10
:100910006974732F73290020520020204D32303427
:10092000205000416363656C65726174696F6E206D
:1009300028756E6974732F7332292028503C7072A9
:10094000696E742D616363656C3E20523C72657400
:10095000726163742D616363656C3E20543C7472F4
:100960006176656C2D616363656C3E2900204A00E9
:1009700020540020530020204D32303520420041C9
:100980006476616E6365642028423C6D696E5F73B6
:1009900065676D656E745F74696D655F75733E2024
:1009A000533C6D696E5F66656564726174653E2077
:1009B000543C6D696E5F74726176656C5F666565E7
:1009C00064726174653E204A3C6A756E635F64655B
:1009D000763E290020440020490020204D3330314C
:1009E000205000486F74656E64205049440061785F
:1009F00069733A70776D5F7363616C652F637572AD
:100A0000725F7363616C652F6D6563685F6C6F61A6
:100A1000647C666C6167737C7761726E636F756E00
:100A2000740A004452565F535441545553090050C0
:100A3000574D5F5343414C45090050574D434F4E6E
:100A4000460900434F4F4C434F4E46090043484F21
:100A500050434F4E4609005448494748090900543D
:100A6000434F4F4C5448525309005450574D54482B
:100A700052530900545354455009090054504F57DC
:100A80004552444F574E0900494F494E0909004706
:100A90005354415409090049484F4C445F49525549
:100AA0004E090047434F4E460909000900202E68B1
:100AB000737472743A2000202E68656E643A2000C8
:100AC0002063686F70706572202E746F66663A20BE
:100AD00000202E68737472743A2000202E68656EB0
:100AE000643A20002063686F70706572202E746F06
:100AF00066663A2000202E68737472743A200020D3
:100B00002E68656E643A20002063686F70706572AD
:100B1000202E746F66663A2000202E6873747274FB
:100B20003A2000202E68656E643A20002063686FCA
:100B300070706572202E746F66663A20003F5320F5
:100B40006F7574206F662072616E67652028312E84
:100B50002E38290A003F50206F7574206F6620726E
:100B6000616E676520282D332E2E3132290A003F11
:100B70004F206F7574206F662072616E6765202844
:100B8000312E2E3135290A003B200020496E766136
:100B90006C696420657874727564657220004732F0
:100BA0002F47332062616420706172616D657465E6
:100BB00072730A0047323800205A3A200020593A0E
:100BC000200042656420583A20004D65736820700B
:100BD0006F696E74206F7574206F662072616E6726
:100BE000650A002569730025696D20256973002554
:100BF00069682025696D20256973002569642025B1
:100C000069682025696D202569730025697920258B
:100C10006964202569682025696D20256973005065
:100C200072696E742074696D653A20006F6B006F95
:100C30006666008C018701800179016B01444542A1
:100C400055473A004D3131322053687574646F77DF
:100C50006E004D3131332053002F2F003F4A206F5B
:100C60007574206F662072616E67652028302E30A3
:100C70003120746F20302E33290A0020204D6178F6
:100C80003A2000200020204D696E3A2000203B20B1
:100C90000020204D323131205300536F667420659F
:100CA0006E6473746F70730046523A0020466C6F26
:100CB000773A200050726F6265204F6666736574E4
:100CC000205A0050726F6265204F6666736574200B
:100CD0005A0064697300656E0043290A0061626C02
:100CE000656420286D696E2074656D702000436F07
:100CF0006C64206578747275646573206172652018
:100D000000426564204C6576656C696E672000461C
:100D100061696C656420746F20656E61626C65202A
:100D2000426564204C6576656C696E670A00496EA1
:100D300076616C6964206D6573682E0A004D3432EB
:100D40003120696E636F72726563742070617261C5
:100D50006D657465722075736167650A004D657312
:100D60006820706F696E74206F7574206F662072D2
:100D7000616E67650A00546F6F206661722066724B
:100D80006F6D207265666572656E636520706F6950
:100D90006E740A00454550524F4D204F4B0A0029B2
:100DA0000A0020746F20003F5A206F7574206F6610
:100DB0002072616E6765202800290A0020746F2068
:100DC000003F59206F7574206F662072616E6765F1
:100DD00020282D00290A0020746F20003F58206F22
:100DE0007574206F662072616E676520282D002063
:100DF0006472697665722063757272656E743A20EA
:100E000000206472697665722063757272656E7413
:100E10003A2000206472697665722063757272658B
:100E20006E743A2000206472697665722063757270
:100E300072656E743A200073707265616443796301
:100E40006C6500737465616C746843686F70002032
:100E5000647269766572206D6F64653A090073701B
:100E6000726561644379636C6500737465616C7469
:100E70006843686F700020647269766572206D6FD8
:100E800064653A09007370726561644379636C65E7
:100E900000737465616C746843686F7000206472DD
:100EA00069766572206D6F64653A090073707265CA
:100EB00061644379636C6500737465616C74684345
:100EC000686F700020647269766572206D6F64656A
:100ED0003A09002074656D706572617475726520E1
:100EE0007072657761726E2074726967676572658A
:100EF000643A20002074656D706572617475726566
:100F0000207072657761726E2074726967676572AE
:100F100065643A20002074656D7065726174757245
:100F200065207072657761726E207472696767659B
:100F30007265643A20002074656D70657261747525
:100F40007265207072657761726E2074726967676E
:100F5000657265643A2000207072657761726E2058
:100F6000666C616720636C65617265640A0020705D
:100F700072657761726E20666C616720636C656173
:100F80007265640A00207072657761726E20666C0B
:100F9000616720636C65617265640A002070726528
:100FA0007761726E20666C616720636C6561726543
:100FB000640A00496E76616C6964206578747275A4
:100FC0006465720A006F6B0020204D323036205865
:100FD00000486F6D65206F666673657400436170CD
:100FE0003A00434F4E4649475F4558504F525400D0
:100FF0004D4541545041434B00434F4F4C45525F88
:1010000054454D5045524154555245004348414D79
:101010004245525F54454D5045524154555245004A
:10102000424142595354455050494E470041524362
:1010300053004D4F54494F4E5F4D4F44455300545C
:101040004845524D414C5F50524F54454354494FCF
:101050004E00455854454E4445445F4D32300043A0
:101060005553544F4D5F4649524D574152455F5578
:10107000504C4F4144004C464E5F57524954450036
:101080004C4F4E475F46494C454E414D45004155FA
:10109000544F5245504F52545F53445F5354415440
:1010A00055530053445F57524954450052455045EB
:1010B0004154005344434152440050524F4D505408
:1010C0005F535550504F525400484F53545F414363
:1010D00054494F4E5F434F4D4D414E445300454D93
:1010E000455247454E43595F504152534552004384
:1010F0004153455F4C494748545F42524947485421
:101100004E45535300544F47474C455F4C49474861
:10111000545300534F4654574152455F504F574523
:1011200052004255494C445F50455243454E54008D
:101130004C4556454C494E475F44415441005A5F27
:1011400050524F42450052554E4F55540041555450
:101150004F4C4556454C005052494E545F4A4F4201
:101160000050524F4752455353004155544F52453A
:10117000504F52545F54454D50004155544F5245C5
:10118000504F52545F504F5300564F4C554D45549D
:1011900052494300454550524F4D0042494E41523D
:1011A000595F46494C455F5452414E5346455200A3
:1011B00053455249414C5F584F4E5F584F46460089
:1011C0004649524D574152455F4E414D453A4D615A
:1011D000726C696E206275676669782D322E302ECA
:1011E0007820284A756E2031362032303232203154
:1011F000323A33383A33382920534F555243455FFA
:10120000434F44455F55524C3A6769746875622E86
:10121000636F6D2F4D61726C696E4669726D776197
:1012200072652F4D61726C696E2050524F544F435E
:101230004F4C5F56455253494F4E3A312E30204D58
:10124000414348494E455F545950453A4A756C6987
:101250006120416476616E6365642045585452553F
:101260004445525F434F554E543A312055554944F9
:101270003A63656465326132662D343161322D34F2
:101280003734382D396231322D6335356336326665
:1012900033363766660A00203B0020204D38353152
:1012A0002058005A2D50726F6265204F6666736534
:1012B000740020573A0020573A0023646566696E2F
:1012C000652044454641554C545F004B6420004B1B
:1012D0006920004B702000504944204175746F74A0
:1012E000756E652066696E69736865642120507546
:1012F0007420746865206C617374204B702C204BD3
:101300006920616E64204B6420636F6E7374616E3C
:1013100074732066726F6D2062656C6F7720696EE2
:10132000746F20436F6E66696775726174696F6E62
:101330002E680A00504944204175746F74756E65BB
:10134000206661696C6564212074696D656F7574D0
:101350000A00504944204175746F74756E652066AB
:1013600061696C6564212054656D70657261747586
:10137000726520746F6F20686967680A00204B648B
:101380003A2000204B693A2000204B703A20002080
:10139000436C617373696320504944200A002054F0
:1013A000753A2000204B753A2000206D61783A2074
:1013B00000206D696E3A200020643A2000206269A6
:1013C00061733A2000504944204175746F74756E02
:1013D000652073746172740A005049442041757429
:1013E0006F74756E65206661696C65642120546553
:1013F0006D706572617475726520746F6F206869B5
:1014000067680A00504944204175746F74756E65B1
:10141000206661696C6564212042616420686561B1
:101420007465722069640A006F70656E00545249D9
:10143000474745524544003A20007A5F70726F6218
:1014400065007A5F6D617800795F6D617800785F23
:101450006D696E005265706F7274696E6720656E9B
:101460006473746F70207374617475730A002074F0
:101470006F6F206C6F6E6720657874727573696F1B
:101480006E2070726576656E7465640A0020636F05
:101490006C6420657874727573696F6E2070726504
:1014A00076656E7465640A000000A0C000007A438F
:1014B00000809D435761726E696E673A20486F6D78
:1014C000696E672042756D702044697669736F722A
:1014D000203C20310A0002020400007A4300007A16
:1014E0004300809D430000A0400000A04000000099
:1014F000400000000100000001000080005555552B
:10150000000000400033333300AAAA2A0049922485
:101510000000002000C7711C0099991900D14517DF
:1015200000555515003BB11300244912001111114B
:1015300000000010000F0F0F00E3380E0043790D7C
:1015400000CCCC0C00C3300C00E8A20B0064210BD3
:1015500000AAAA0A00703D0A009DD80900427B0932
:101560000092240900DCD308008888080010420893
:101570000000000800F0C1070087870700755007CA
:1015800000711C07003EEB0600A1BC060069900636
:101590000066660600703E06006118060017F40536
:1015A0000074D105005BB00500B2900500627205C1
:1015B000005555050078390500B81E0500050505DC
:1015C000004EEC040087D40400A1BD040090A704E1
:1015D0000049920400C17D0400EE690400C756046E
:1015E00000444404005C320400082104004110045B
:1015F00000000004003FF00300F8E0030026D203DF
:1016000000C3C30300CCB503003AA803000A9B0340
:1016100000388E0300C08103009F750300D069036A
:1016200000505E03001D53030034480300913D0346
:10163000003333030016290300381F0300971503F6
:1016400000300C0300030303000BFA020049F1020F
:1016500000BAE802005CE002002DD802002DD002A2
:101660000059C80200B0C0020031B90200DAB1026C
:1016700000AAAA0200A0A30200BC9C0200FA9502E4
:10168000005C8F0200DF88020082820200457C023B
:10169000002776020027700200436A02007C640281
:1016A00000D05E02003F590200C8530200FFFDFC5B
:1016B000FAF8F6F4F2F0EEECEAE9E7E5E3E1E0DE71
:1016C000DCDAD9D7D5D4D2D0CFCDCBCAC8C7C5C321
:1016D000C2C0BFBDBCBAB9B7B6B4B3B2B0AFADAC9F
:1016E000AAA9A8A6A5A4A2A1A09E9D9C9A999897F4
:1016F00095949392908F8E8D8B8A89888786848328
:101700008281807F7E7D7B7A79787776757473723B
:1017100071706F6E6D6C6B6A696867666564636231
:1017200061605F5E5D5C5B5A59585857565554531B
:10173000525150504F4E4D4C4B4A4A4948474646ED
:10174000454443424241403F3E3E3D3C3B3B3A39AB
:10175000383837363535343332323130302F2E2E5B
:101760002D2C2B2B2A2929282727262525242323FE
:1017700022212120201F1E1E1D1C1C1B1B1A191993
:101780001818171616151514131312121111100F1D
:101790000F0E0E0D0D0C0C0B0A0A0909080807079D
:1017A0000606050504040303020201000000007A96
:1017B0004300007A4300809D4300000000000000C9
:1017C0000000000000290A002062797465733B2044
:1017D000637263200053657474696E677320537479
:1017E0006F726564202800454550524F4D20496E68
:1017F000697469616C697A65640A0048617264633E
:101800006F6465642044656661756C74205365740B
:1018100074696E6773204C6F616465640020286D85
:101820006D2900203B204C6576656C696E67200051
:1018300020204D3432302053004175746F204265B2
:1018400064204C6576656C696E670020204D3930E8
:101850003600205430204500537465707065722046
:101860006472697665722063757272656E740020A9
:10187000204D353639205331005430204500205852
:1018800000447269766572207374657070696E6762
:10189000206D6F646500204A0020204732392057B0
:1018A00020490020204D3134392043203B20556E03
:1018B00069747320696E2043656C736975730A00DF
:1018C00054656D706572617475726520556E6974CA
:1018D00073002020473231203B004C696E656172F5
:1018E00020556E69747300454550524F4D20646118
:1018F000746173697A65206572726F722E0A0029AD
:101900000A002062797465733B20637263200020B3
:1019100073746F7265642073657474696E67732085
:101920007265747269657665642028002028636199
:101930006C63756C6174656429210A0020213D2067
:1019400000454550524F4D20435243206D69736D01
:1019500061746368202D202873746F726564292078
:10196000002053697A653A2000496E6465783A2010
:101970000000004843000048430000A0410000343C
:10198000420000C8420000C842F0F7FB4300000CD0
:1019900043DC050000DC05000032000000102700D9
:1019A00000204D61726C696E3D563836290A00453B
:1019B0004550524F4D2076657273696F6E206D6988
:1019C000736D617463682028454550524F4D3D004A
:1019D00024F4D43050C38E20C2A24017828B7011E1
:1019E000127A910D816CD90AA861E108C75866077F
:1019F000615143061E4B5D05C145A7041A41110400
:101A0000093D9803713931034036DB026533910299
:101A1000D4305402802E1D02632CEE01752AC501BC
:101A2000B028A001102781018F2564012B244B01D0
:101A3000E0223401AC211F018D200D01801FFC002C
:101A4000841EED00971DDF00B81CD200E61BC60007
:101A5000201BBC00641AB200B219A8000A19A00029
:101A60006A189900D117910040178B00B5168400B1
:101A700031167E00B31579003A157300C7146F0054
:101A800058146A00EE1366008813630025135E0085
:101A9000C7125B006C12570015125400C11151009F
:101AA00070114F0021114B00D61049008D104700D6
:101AB0004610440002104200C00F4000800F3E005C
:101AC000420F3C00060F3B00CB0E3800930E370050
:101AD0005C0E3500270E3400F30D3200C10D3100CD
:101AE000900D3000600D2E00320D2D00050D2C00E4
:101AF000D90C2B00AE0C2900850C29005C0C2700AA
:101B0000350C27000E0C2600E80B2400C40B240023
:101B1000A00B23007D0B23005A0B2100390B210061
:101B2000180B2000F80A1F00D90A1E00BB0A1E006D
:101B30009D0A1D00800A1D00630A1C00470A1B0045
:101B40002C0A1B00110A1A00F7091A00DD091900F6
:101B5000C4091900AB091900920917007B09180084
:101B6000630917004C0916003609160020091600F3
:101B70000A091500F5081500E0081400CC08140047
:101B8000B8081400A4081400900813007D0812007F
:101B90006B081300580812004608120034081100A0
:101BA000230811001208110001081100F0071000AD
:101BB000E0071000D0071000C0071000B0070F00AA
:101BC000A107100091070E0083070F0074070F0094
:101BD00065070E0057070E0049070E003B070D0072
:101BE0002E070E0020070D0013070D0006070D003D
:101BF000F9060C00ED060D00E0060C00D4060C0002
:101C0000C8060C00BC060C00B0060C00A4060B00B5
:101C100099060C008D060B0082060B0077060B0060
:101C20006C060B0061060A0057060B004C060A0002
:101C300042060A0038060A002E060A0024060A0098
:101C40001A060A001006090007060A00FD05090029
:101C5000F4050900EB050900E2050900D9050900B2
:101C6000D0050900C7050900BE050900B505080033
:101C7000AD050800A50509009C05080094050800AD
:101C80008C050800840508007C0508007405080020
:101C90006C050700650508005D050700560508008E
:101CA0004E050700470507004005080038050700F6
:101CB000310507002A050700230507001C0506005B
:101CC000160507000F0507000805060002050700B6
:101CD000FB040600F5040700EE040600E804060015
:101CE000E2040700DB040600D5040600CF0406006A
:101CF000C9040600C3040600BD040600B7040600BC
:101D0000B1040500AC040600A6040600A00405000A
:101D10009B04060095040500900406008A04050053
:101D200085040500800406007A040500750405009A
:101D3000700405006B0405006604050061040500DD
:101D40005C04050057040500520405004D0405001D
:101D500048040500430405003E0404003A0405005D
:101D600035040500300404002C0405002704040099
:101D7000230405001E0404001A04040016040500D0
:101D8000110404000D040400090405000404040007
:101D900000040400FC030400F8030400F40304003E
:101DA000F0030400EC030400E8030400E40304006F
:101DB000E0030400DC030400D8030400D40304009F
:101DC000D0030400CC030400C8030300C5030300D0
:101DD00024F404D9201BC40C5C0E9804C4095F02CF
:101DE00065077101F405F900FB04B300480487009E
:101DF000C10369005803550003034500BE023A00C1
:101E00008402310053022A00290225000402200026
:101E1000E4011C00C8011900AF011700980114006B
:101E200084011300710110006101100051010E00C6
:101E300043010D0036010B002B010B0020010B00AC
:101E4000150109000C01090003010800FB0008004E
:101E5000F3000800EB000700E4000600DE000600C7
:101E6000D8000600D2000600CC000500C70005001F
:101E7000C2000500BD000400B9000400B500040064
:101E8000B1000400AD000400A9000400A500030097
:101E9000A20003009F0004009B00030098000300C1
:101EA0009500020093000300900003008D000200E3
:101EB0008B000300880002008600020084000300FB
:101EC000810002007F0002007D0002007B00020012
:101ED0007900020077000100760002007400020021
:101EE00072000100710002006F0002006D0001002D
:101EF0006C0002006A000100690002006700010036
:101F0000660001006500010064000200620001003B
:101F100061000100600001005F0002005D0001003F
:101F20005C0001005B0001005A0001005900010043
:101F30005800010057000100560001005500010043
:101F40005400010053000000530001005200010042
:101F500051000100500001004F0001004E00000040
:101F60004E0001004D0001004C0001004B0000003C
:101F70004B0001004A000100490001004800000038
:101F80004800010047000100460000004600010033
:101F9000450000004500010044000100430000002E
:101FA0004300010042000000420001004100000027
:101FB00041000100400001003F0000003F0001001F
:101FC0003E0000003E0001003D0000003D00010019
:101FD0003C0000003C0000003C0001003B00000011
:101FE0003B0001003A0000003A0001003900000007
:101FF00039000100380000003800000038000100FE
:1020000037000000370001003600000036000000F5
:1020100036000100350000003500000035000100E9
:1020200034000000340000003400010033000000E0
:1020300033000000330001003200000032000000D5
:1020400032000100310000003100000031000100C9
:102050003000000030000000300001002F000000C0
:102060002F0000002F0000002F0001002E000000B4
:102070002E0000002E0001002D0000002D000000A9
:102080002D0000002D0001002C0000002C0000009D
:102090002C0000002C0001002B0000002B00000091
:1020A0002B0000002B0001002A0000002A00000085
:1020B0002A0000002A000100290000002900000079
:1020C000290000002900000029000100280000006C
:1020D000280000002800000028000000280001005F
:1020E0002700000027000000270000002700000054
:1020F0002700010026000000260000002600000046
:102100002600000026000100250000002500000038
:10211000250000002500000025000000250001002A
:10212000240000002400000024000000240000001F
:102130002400010023000000230000002300000011
:102140002300000023000000230000002300010002
:1021500022000000220000002200000022000000F7
:1021600022000000220001002100000021000000E8
:1021700021000000210000002100000021000000DB
:1021800021000100200000002000000020000000CD
:1021900020000000200000002000000020000000BF
:1021A000200001001F0000001F0000001F000000B1
:1021B0001F0000001F0000001F0000001F000100A2
:1021C0001E0000001E0000001E0000001E00000097
:1021D000393000003325000087190000B00F0000DF
:1021E000DB080000BD040000740200003F01000095
:1021F000423A0020436F756E7420413A00450062F8
:102200006564002C2073797374656D2073746F702E
:1022100070656421204865617465725F49443A20A5
:102220000048656174696E67204661696C65640089
:1022300048656174696E67206661696C6564001049
:1022400000600350012C0190012201D001180110FF
:10225000020E0170020401E002FA006003F00000C7
:1022600004E600B004DC00A005D200B006C80000FF
:1022700008BE00A009B400800BAA00D00DA00090F9
:10228000109600C0138C0070178200901B7800100D
:10229000206E00C0246400E02D500080353C00A07A
:1022A0003A2800A03D1400003F0000A03FECFF458D
:1022B00072723A204D415854454D50004D4158548A
:1022C000454D502074726967676572656400457298
:1022D000723A204D494E54454D50004D494E54459B
:1022E0004D502074726967676572656400202F0025
:1022F0002042403A0020403A001000C90210012C50
:10230000014001220170011801B0010E01F0010429
:10231000015002FA00B002F0003003E600D003DC06
:10232000009004D2007005C800A006BE000008B4EA
:1023300000B009AA00D00BA000600E960060118CBE
:10234000000015820020197800C01D6E00A02264D4
:1023500000B0275A00902C500000314600E0343C79
:102360000010383200903A2800603C1E00A03D1456
:1023700000803E0A00203F00002020506C616E6EFD
:10238000657242756666657242797465733A2000BB
:102390002046726565204D656D6F72793A20002088
:1023A000436F6D70696C65643A204A756E203136F2
:1023B00020323032320A00204C6173742055706430
:1023C000617465643A20323032322D30332D31342D
:1023D000207C20417574686F723A202846726163D0
:1023E0006B74616C20576F726B732C20646566612F
:1023F000756C7420636F6E666967290A004D61729F
:102400006C696E206275676669782D322E302E7881
:102410000A0020536F667477617265205265736598
:10242000740A00205761746368646F672052657393
:1024300065740A002042726F776E206F75742052A7
:10244000657365740A002045787465726E616C204E
:1024500052657365740A00506F77657255700A0093
:1024600073746172740A0020503A00205A3A0020B6
:10247000593A0020583A00656E6473746F70732087
:102480006869743A200000002100240027002A0017
:102490002D003000330001010000040107010A0192
:1024A00000000A0B02090C0D0E08070304010000CE
:1024B000000000000000000000000000000000001C
:1024C00000000000000000000000000012111000D9
:1024D00000000000000000000000000000000000FC
:1024E000000000000000000020002300260029005A
:1024F0002C002F0032000001000003010601090139
:1025000000002200250028002B002E00310034009E
:1025100002010000050108010B010505050507057D
:1025200008080808020202020A0A0808040404044F
:10253000010101010101010103030303030303037B
:10254000040707070C0C0C0C0C0C0C0C020202020A
:1025500006060606060606060B0B0B0B0B0B0B0BF3
:1025600001021020200808102040102040800201A5
:10257000020108040201010204081020408080408A
:102580002010080402018004020180402010080489
:102590000201080402010102040810204080010227
:1025A000040810204080486F6D696E67204661699D
:1025B0006C656400FF010150726F62696E672046AE
:1025C00061696C65640A00205A3A200020593A205B
:1025D0000042656420583A2000220A00556E6B6E56
:1025E0006F776E20636F6D6D616E643A20220020FC
:1025F0004500205A0020590020204D393220580033
:1026000053746570732070657220756E697400452F
:1026100072726F722077726974696E6720746F20AE
:10262000454550524F4D210A00DB0FC93F45BCDAEA
:102630003F8FB30240FCF0274056946140FE4B9B15
:102640004084A5D840E0231841346A5641E85997A0
:102650004164DBD5416E271742B4B75542CE1A9775
:1026600042C8AED542B5885A43D40684BFA65FA7F8
:10267000BF7443E0BF10B11AC01C2C58C0E8F697D5
:10268000C0B849D6C04E4E17C124D355C180249737
:10269000C1A0B5D5C1121A17C244AE55C27817975A
:1026A000C26CACD5C267885AC320746F6F206C6F40
:1026B0006E6720657874727573696F6E20707265CD
:1026C00076656E7465640A0020636F6C64206578BB
:1026D00074727573696F6E2070726576656E74655D
:1026E000640A00544845524D414C2052554E4157C2
:1026F000415900546865726D616C2052756E617746
:10270000617900486F6D6520257325732573204618
:10271000697273740020453A00205A3A0020593AF1
:1027200000583A006F6B0A00526573656E643A2078
:10273000003078005072696E7465722068616C7444
:1027400065642E206B696C6C28292063616C6C6554
:1027500064210A0014AF11241FBECFEFD1E2DEBF07
:10276000CDBF00E00CBF84B78093DA0F14BE0FB664
:10277000F894A89580916000886180936000109221
:1027800060000FBE13E0A0E0B2E0ECEFF5E801E07E
:102790000BBF02C007900D92A03AB107D9F72FE006
:1027A000A0EAB3E001C01D92AA3DB207E1F713E130
:1027B000CBEAD3E100E006C021970109802FFE019A
:1027C0000E94B4BFCA3AD10780E00807A9F70E9467
:1027D0009EB00C94FCC20C940000EF92FF920F93F9
:1027E0001F93E092AD03F092AE030093AF031093FA
:1027F000B0036093B1037093B2038093B3039FEF70
:10280000FF27621B730B840B30F4809570956195E4
:10281000790B890B99279093AC03A6E06A9F0092ED
:10282000A003512DEE277A9F500DE11D8A9FE00DE8
:102830005093A103E093A203AFE06A9F0092A40328
:10284000512DEE277A9F500DE11D8A9FE00D509388
:10285000A503E093A603AAE06A9F0092A803512D66
:10286000EE277A9F500DE11D8A9FE00D5093A9033A
:10287000E093AA031F910F91FF90EF90089521E03C
:1028800030E0082E02C0220F331F0A94E2F7209591
:1028900030959091C30429232093C304813051F0D3
:1028A000823069F05F9A8091FB068E7F8093FB06F1
:1028B00081E008958A9A8091FB068D7FF7CF809101
:1028C000080180958170809306018091FB068B7FC3
:1028D000EDCF9F92AF92BF92CF92DF92EF92FF9295
:1028E0000F931F93CF93DF9300D01F921F92CDB70A
:1028F000DEB7EDEAF6E10027BB27462F572FA82FBA
:10290000AA2341F4A52F542FB85FAA2319F4A52FA9
:102910005527B85FA03138F45295A295452F4F70D6
:10292000507FA42BBC5FA03428F4550FAA1F550F6D
:10293000AA1FBE5FA03818F4550FAA1FB395550FF4
:10294000AA1FEA0FF01F449151E0AA27B85079F16D
:10295000C0F0B0FF02C0440F551FB1FF04C0440FC8
:10296000551F440F551FB2FF06C052954295142FB4
:102970001F70407F512BB3FF1AC0A52F542F44273F
:1029800016C0B195B0FF02C055954795B1FF04C080
:102990005595479555954795B2FF05C05295407F8F
:1029A0004295452B5F70B3FF02C0452F5527DD24AC
:1029B000CC24BB24B2E0649FD018C108B00AB00B8D
:1029C000749FC018B108B00B849FB018B109659FFF
:1029D000C018B108B00B759FB018B109859FB01928
:1029E0006A9FB018B1097A9FB0194D9DA12C992406
:1029F0003327992722275D9DA00C911C301F901F23
:102A0000201FAD9D900C311D901F201F4C9DA00CD0
:102A1000911C301F901F201F5C9D900C311D901F3A
:102A2000201FAC9D300D911D201F4B9D900C311D22
:102A3000901F201F5B9D300D911D201FAB9D900DA1
:102A4000211D4B9F300D911D201F5B9F900D211D5F
:102A5000AB9F200DB1E0BB24CC24DD24639FD018B4
:102A6000C108B00AB00B739FC018B108B00B839FA8
:102A7000B018B109699FC018B108B00B799FB018A0
:102A8000B109899FB019629FB018B109729FB0193E
:102A9000D61AC70AB80A20F0B1E03B0F901F201FDA
:102AA0001124792F632F90E0822F0F900F900F90B9
:102AB0000F900F90DF91CF911F910F91FF90EF90AA
:102AC000DF90CF90BF90AF909F900895AF92BF924C
:102AD000CF92DF92EF92FF920F931F93CF93DF93EA
:102AE000CDE9DCE005E017E08DEAA82E8CE0B82EF9
:102AF000C12CD12C7601C3946991799189919991D6
:102B00000E9460BB288939894A895B890E94C1BBC0
:102B10000E944EC1F80161937193819391938F014B
:102B2000C616D706E806F90610F46B017C01AC1650
:102B3000BD0611F76FEF7FEFCB01A70196010E9451
:102B400036BF20931507309316074093170750930D
:102B50001807DF91CF911F910F91FF90EF90DF90B9
:102B6000CF90BF90AF900895CF92DF92EF92FF92F7
:102B700080918C04882309F457C0C0908804D090B9
:102B80008904E0908A04F0908B0420E030E0A901F1
:102B9000C701B6010E945CBB882309F445C020E050
:102BA00030E040E05FE3C701B6010E94C1BB9B017A
:102BB000AC010E94C1BB2BED3FE049E450E40E9410
:102BC000C1BB9B01AC0160E070E080E89FE30E9424
:102BD000E1C06B017C01C0927604D0927704E09250
:102BE0007804F09279046091280270912902072EEE
:102BF000000C880B990B0E9462BB2AE037ED43E280
:102C00005CE30E94C1BBA70196010E94C1BB609317
:102C10005B0270935C0280935D0290935E02FF9072
:102C2000EF90DF90CF900895C12CD12C80E8E82E52
:102C30008FE3F82ED0CF8091E90E9091EA0E891B98
:102C40008F7019F490E080E008959091E60E99233A
:102C500051F0833030F48FEF890F19F08093E60E36
:102C6000F1CF1092E60E8091EA0E27E5829FC00117
:102C70001124845D984FFC01208120FDE3CF209139
:102C8000EA0E2F5F2F702093E70E3091EA0E20910D
:102C9000E80E321304C02091E70E2093E80E089549
:102CA000FC017081472F50E0062E02C055954795D4
:102CB0000A94E2F740FF14C04091590450E0062EF8
:102CC00002C0559547950A94E2F740FF09C021E0FC
:102CD00030E001C0220F6A95EAF720952723208370
:102CE0000895CF93DF9324E0829FC0011124EC016B
:102CF000CB51D34FFC01EA59FA4F865A9B4FDC0166
:102D00002D913D914D915C91608171818281938182
:102D10000E9405C0688379838A839B83DF91CF916A
:102D200008958F929F92AF92BF92CF92DF92EF92CF
:102D3000FF92CF93DF9320912C02222309F48EC0BF
:102D4000EC0180915904E82E80FF2CC080902E0267
:102D500090902F02A0903002B090310228813981EA
:102D60004A815B81C501B4010E942BC2181624F46C
:102D700088829982AA82BB8280903A0290903B021C
:102D8000A0903C02B0903D02288139814A815B814C
:102D9000C501B4010E945CBB87FF04C08882998290
:102DA000AA82BB82E1FE2CC0809032029090330256
:102DB000A0903402B09035022C813D814E815F811C
:102DC000C501B4010E942BC2181624F48C829D8286
:102DD000AE82BF8280903E0290903F02A09040025F
:102DE000B09041022C813D814E815F81C501B401CB
:102DF0000E945CBB87FF04C08C829D82AE82BF8232
:102E0000E2FE2CC0C0903602D0903702E09038022B
:102E1000F0903902288539854A855B85C701B6015E
:102E20000E942BC2181624F4C886D986EA86FB862F
:102E3000C0904202D0904302E0904402F0904502DC
:102E4000288539854A855B85C701B6010E945CBB30
:102E500087FF04C0C886D986EA86FB86DF91CF91BA
:102E6000FF90EF90DF90CF90BF90AF909F908F90AA
:102E700008958091550490915604A0915704B09103
:102E800058048093240290932502A0932602B093C5
:102E900027028091530490915404909323028093CD
:102EA000220208958091240290912502A091260289
:102EB000B09127028093550490935604A093570431
:102EC000B09358048091220290912302909354046D
:102ED0008093530484E690E090932302809322022F
:102EE000089590E080E0089520911004833021F44B
:102EF00025FD0CC024FD0CC030E0A90102C0559591
:102F000047958A95E2F7CA018170089581E0089596
:102F100080E0089580912C0484FD0BC080912E04E4
:102F200087FD07C090912F04937081E019F480E031
:102F3000089581E008952FEB280F2A3108F047C04B
:102F4000E22FF0E080912C0490912D04A0912E04AA
:102F5000B0912F0404C0B695A795979587952A95AB
:102F6000D2F780FD02C081700895EE5EFB4FE081D4
:102F7000EE2341F18091FD069091FE06E80FF92FB6
:102F8000F11D808190ED980F9A3030F08E3251F41F
:102F9000818180538A3098F4F0930D04E0930C04FF
:102FA00081E008958D3211F08B3249F4818190EDEA
:102FB000980F9A3088F38E3211F48281EACFF0E0D4
:102FC000E0E0EACF10920D0410920C04E9CF80E00B
:102FD0000895B1DF882341F081E020910C04309105
:102FE0000D04232B09F480E00895FC01DB01129607
:102FF0002D913D914C9114972283338344831596F0
:103000008C911597858316962D913D914C9118972B
:1030100026833783408719964D915D916D917C9100
:103020001C9741875287638774871D964D915D91E8
:103030006D917C915097458756876787708B8CE799
:1030400093E09183808351968D919C915297928BBE
:10305000818B53964D915D916D917C915697438BE9
:10306000548B658B768B57968C915797878B589698
:103070008D919C915997918F808F5A968D919C91AB
:103080005B97938F828F5C968D919C915D97958FC6
:10309000848F5E964D915D916D917C919197468F55
:1030A000578F60A371A392964D915D916D917C9124
:1030B000959742A353A364A375A396964D915D91F2
:1030C0006D917C91999746A357A360A771A79A9693
:1030D0008D919C919B9793A782A79C968D919C9193
:1030E0009D9795A784A79E968D919C919F9797A752
:1030F00086A7D0968D919C91D19791AB80ABD296BB
:103100008C9182AB0895CF92DF92EF92FF920F9352
:103110001F93CF93DF9300D000D01F921F92CDB7A3
:10312000DEB7DC01ED91FC910084F185E02D19956D
:10313000AB01BC01072F11272227332749835A836C
:103140006B837C838D8140FB80F96A017B01F6945F
:10315000E794D794C794C0FA81F98D836A017B0103
:10316000BCE3CB22DD24EE24FF2491E0CD28CE2841
:10317000CF2809F490E08D8190FB82F906FB85F958
:1031800007FB86F98F77762F7F7129813A814B81F2
:103190005C81682F8F81988528960FB6F894DEBFE2
:1031A0000FBECDBFDF91CF911F910F91FF90EF9098
:1031B000DF90CF9008958F929F92AF92BF92CF925F
:1031C000DF92EF92FF92C090B904D090BA04E090E1
:1031D000BB04F090BC0420E030E0A901C701B601B7
:1031E0000E945CBB8823E1F1A701960160E070E0DA
:1031F00080E89FE30E94E1C06B017C018090BD04E8
:103200009090BE04A090BF04B090C00420E030E0D5
:10321000A901C501B4010E945CBB882329F1A50165
:10322000940160E070E080E89FE30E94E1C0C092FA
:10323000F903D092FA03E092FB03F092FC0360934F
:10324000FD037093FE038093FF0390930004FF90AF
:10325000EF90DF90CF90BF90AF909F908F900895A8
:10326000C12CD12C7601CACF60E070E0CB01DFCF5A
:103270002F923F924F925F926F927F928F929F9286
:10328000AF92BF92CF92DF92EF92FF920F931F9374
:10329000CF93DF93CDB7DEB72E970FB6F894DEBF8E
:1032A0000FBECDBFF82EE62E042F122F282F30E0B0
:1032B0003A872987862F90E09C878B87220F331FC0
:1032C000A985BA852A0F3B1F3E872D87FC01E20F97
:1032D000F31FEE0FFF1FEE0FFF1FE357FB4F608141
:1032E0007181828193819B01AC010E94B1C28823CC
:1032F00009F440C1802F8F0D612F6E0D282F30E013
:10330000F901EE0FFF1FE20FF31FAB85BC85AE0F77
:10331000BF1FAA0FBB1FAA0FBB1FA357BB4FAC9069
:103320001196BC9011971296CC9012971396DC9040
:10333000080F802F90E0AC01440F551F480F591F14
:10334000AB85BC85A40FB51FAA0FBB1FAA0FBB1F5F
:10335000A357BB4FEC901196FC90119712960C91CD
:10336000129713969C90862F90E0AD85BE85A80F8E
:10337000B91FAA0FBB1FAA0FBB1FA357BB4F8C902F
:1033800011967C90119712966C90129713965C9000
:10339000610F70E02D853E85260F371F220F331FEA
:1033A000220F331F23573B4F3E872D87D9014C9067
:1033B00011963C90119712961C91129713962C908F
:1033C000E80FF91FEE0FFF1FEE0FFF1FE357FB4F34
:1033D000B081B98321812A8332813B8383818C83AD
:1033E000FA01E60FF71FEE0FFF1FEE0FFF1FE35767
:1033F000FB4F90819D83A181AE83B281BF832381E6
:1034000028879701402F592DB701802F992D0E94B1
:10341000B1C2882321F0E12CF12C00E0912C950120
:10342000A601B501C6010E94B1C2882319F0570157
:10343000C02ED92C242D332D412F522D642D732DC8
:10344000812F922D0E94B1C2882321F0412C312C72
:1034500010E0212C282D372D462D552D682D772D48
:10346000862D952D0E94B1C2882321F0842C732CC7
:10347000612E522C2D813E814F8158856D817E8138
:103480008F8198850E94B1C2882321F01D821E82FF
:103490001F82188629813A814B815C8169817A81FA
:1034A0008B819C810E94B1C2882341F03D81398388
:1034B0008E818A839F819B83A885AC83E985FA8569
:1034C000EE0FFF1F29853A85E20FF31F8B859C8540
:1034D000E80FF91FEE0FFF1FEE0FFF1FE357FB4F23
:1034E000FA87E9879501A601B501C6010E9405C0CA
:1034F0009701402F592D0E9404C06B017C01282D9B
:10350000372D462D552D682D772D862D952D0E9412
:1035100005C0242D332D412F522D0E9404C09B0144
:10352000AC01C701B6010E9405C06B017C01298175
:103530003A814B815C8169817A818B819C810E9477
:1035400005C02D813E814F8158850E9404C09B019A
:10355000AC01C701B6010E9405C020E030E040E4A4
:1035600050E40E94E1C0A985BA856D937D938D9347
:103570009C9313972E960FB6F894DEBF0FBECDBF67
:10358000DF91CF911F910F91FF90EF90DF90CF903F
:10359000BF90AF909F908F907F906F905F904F9073
:1035A0003F902F9008954091C10421E042276CE0A4
:1035B00070E00C94C1994091C10421E0422764E07D
:1035C00070E00C94C1994091C10421E0422761E070
:1035D00070E00C94C1994091C10421E0422761E060
:1035E00070E00C94C1994091C10421E0422768E049
:1035F00070E00C94C1994091C10421E042276CE035
:1036000070E00C94C19941E061E070E00C94C199C4
:103610004091C10421E042270C94C1996CE070E014
:103620000C94A89F64E070E00C94A89F61E070E0A7
:103630000C94A89F61E070E00C94A89F6CE070E08F
:103640000C94A89F682F880F770B880B990B0C940C
:103650000F98CF93DF93EC01C43081E0D8076CF171
:1036600084E091E09093520580935105C4E0D1E04D
:1036700060914D0570914E0580914F0590915005D8
:103680000E9449C16E5F7F4F25976C177D07DCF460
:1036900070933105609330050E9467A060547B42AF
:1036A0008E4F9F4F6093320570933305809334059E
:1036B00090933505DF91CF910895D0935205C09333
:1036C00051052097A9F610923205109233051092F9
:1036D000340510923505EECF0F931F93809145046A
:1036E000813019F50E9467A000913D0410913E04BD
:1036F00020913F0430914004601B710B820B930BAF
:1037000028EE33E040E050E00E9436BF609139047B
:1037100070913A0480913B0490913C04620F731FB6
:10372000841F951F1F910F9108956091410470911E
:1037300042048091430490914404D6CF0F931F9389
:10374000CF93DF9301EB1CE0CAE1D7E0F8012191B0
:103750003191419151918F0160E070E080E89FE3E9
:103760000E94E1C06993799389939993F7E0CA32F3
:10377000DF0761F70E949D99DF91CF911F910F9113
:10378000A5C94F925F926F927F928F929F92AF9254
:10379000BF92CF92DF92EF92FF920F931F93CF933E
:1037A000DF93EC012091B1043091B2044091B30455
:1037B0005091B404688179818A819B810E9404C000
:1037C0006B017C012091B5043091B6044091B7049F
:1037D0005091B8046C817D818E819F810E9404C0CC
:1037E0004B015C01A70196016091030270910402F4
:1037F00080910502909106020E945CBB882309F427
:1038000051C0C0920302D0920402E0920502F092ED
:1038100006022091F9033091FA034091FB03509185
:10382000FC03C701B6010E94C1BB2B013C010E94F1
:103830007AC16B017C0120E030E0A9010E945CBBF1
:1038400087FD71C020E030E040E85FE3C701B601CA
:103850000E942BC2181634F4C12CD12CC0E8EC2ED7
:10386000CFE3FC2EA7019601C301B2010E9404C060
:103870006093F1037093F2038093F3039093F40346
:10388000C701B6010E9449C16093EF03062E000CE8
:10389000770B6F5F7F4F6230710514F062E070E06C
:1038A0006093ED0310910102D091EF03A501940103
:1038B00060910702709108028091090290910A02BA
:1038C0000E945CBB811133C01D1382C02091D503BF
:1038D0003091D6034091D7035091D8036091F10302
:1038E0007091F2038091F3039091F4030E94C1BBA5
:1038F0002091D9033091DA034091DB035091DC032E
:103900000E9405C0DF91CF911F910F91FF90EF9022
:10391000DF90CF90BF90AF909F908F907F906F90EF
:103920005F904F900895C12CD12C76019BCF80924F
:10393000070290920802A0920902B0920A02209116
:10394000FD033091FE034091FF0350910004C50137
:10395000B4010E94C1BB4B015C010E947AC16B01A2
:103960007C0120E030E0A9010E945CBB87FDFDC026
:1039700020E030E040E85FE3C701B6010E942BC2BF
:10398000181634F4C12CD12CB0E8EB2EBFE3FB2E7B
:10399000A7019601C501B4010E9404C06093F5031C
:1039A0007093F6038093F7039093F803C701B60171
:1039B0000E9449C16093F003062E000C770B6F5FE5
:1039C0007F4F6230710514F062E070E06093EE03A7
:1039D000C091F0031D1305C0809102028C1709F4F9
:1039E00079C08091EF039091F0039093020280934D
:1039F00001028D2FDD0F990B0C2E000CDD0BAC019D
:103A0000440F551F840F951FFC01EC0FFD1FEE0F97
:103A1000FF1FEE0FFF1FE357FB4F208131814281D3
:103A200053812093E9033093EA034093EB035093CF
:103A3000EC03E091EE030E2FEE0F110BDC01A00F53
:103A4000B11FAA0FBB1FAA0FBB1FA357BB4F6D917E
:103A50007D918D919C910E9404C06093E5037093C9
:103A6000E6038093E7039093E8038091ED03282F0A
:103A7000880F330BC901880F991F820F931FC80F3E
:103A8000D91FCC0FDD1FCC0FDD1FC357DB4F2881A3
:103A900039814A815B812093E1033093E2034093B3
:103AA000E3035093E403FC01E00FF11FEE0FFF1F4F
:103AB000EE0FFF1FE357FB4F60817181828193817D
:103AC0000E9404C06093DD037093DE038093DF03E4
:103AD0009093E0038090F5039090F603A090F70395
:103AE000B090F8032091E5033091E6034091E7039D
:103AF0005091E803C501B4010E94C1BB2091E903C4
:103B00003091EA034091EB035091EC030E9405C011
:103B10006B017C01C092D903D092DA03E092DB03FF
:103B2000F092DC032091DD033091DE034091DF034E
:103B30005091E003C501B4010E94C1BB2091E10393
:103B40003091E2034091E3035091E4030E9405C0E9
:103B5000A70196010E9404C06093D5037093D60319
:103B60008093D7039093D803B1CEC12CD12C76018A
:103B70000FCFCF93DF9320918704222371F0EC01C4
:103B800000DE9B01AC01688579858A859B850E9452
:103B900004C0688779878A879B87DF91CF910895D2
:103BA00020E030E0A901BC018FE592E00C9465991A
:103BB0002F923F924F925F926F927F928F929F923D
:103BC000AF92BF92CF92DF92EF92FF920F931F932B
:103BD000CF93DF93162F072F242EFC018080918036
:103BE000A280B380C501B40120E13EE040E050E096
:103BF0000E9436BFE22ED32EC22FD32F8CE3482E45
:103C0000512C612C712CC501B401A30192010E94B9
:103C100036BFC62E372ECA01B901A30192010E94F8
:103C200036BFF62E772E222059F1C501B40120E8C7
:103C300031E541E050E00E9436BF69017F92FF927A
:103C4000CE0168E170E00E9471BF9F938F933F9314
:103C50002F938FE794E09F938F930F931F930E946E
:103C60002DBBEDB7FEB73A960FB6F894FEBF0FBE68
:103C7000EDBF88E0FAE0CF16D104C8F089E017C0A4
:103C8000209741F53F92CF927F936F9383E794E023
:103C90009F938F930F931F930E942DBB8DB79EB759
:103CA00008960FB6F8949EBF0FBE8DBF85E0DF91DA
:103CB000CF911F910F91FF90EF90DF90CF90BF9029
:103CC000AF909F908F907F906F905F904F903F90BC
:103CD0002F900895C436D105A8F47F936F93DF9297
:103CE000EF9287E694E09F938F930F931F930E9428
:103CF0002DBBEDB7FEB738960FB6F894FEBF0FBEDA
:103D0000EDBFD4CF7F936F93DF92EF928DE594E078
:103D10009F938F930F931F930E942DBB8DB79EB7D8
:103D200008960FB6F8949EBF0FBE8DBF86E0BFCF3A
:103D300080910C0490910D04009731F04AE050E01E
:103D400070E060E00C949CB860E070E0CB010895F6
:103D5000EFDF97FD0AC0ECDF6F3F7105810591052C
:103D600009F02CF4E5DF862F089580E008958FEFA9
:103D70000895CF93C62F2DD9882311F0CF91E8CF86
:103D80008C2FCF91089580910C0490910D04892B74
:103D900039F0DEDF91E0811101C090E0892F0895B4
:103DA00091E0FCCFCF93DF93C82FD62F12D9882371
:103DB00019F0DF91CF91E7CF8C2FBDD8811101C0D1
:103DC0008D2FDF91CF910895B3DFCB010895CF936D
:103DD000DF93EB01FED8882319F0DF91CF91F4CF68
:103DE000CE01DF91CF9108950F931F93CF938091D0
:103DF0000C0490910D040097E9F0FC018F01C19132
:103E00002C2F2F7D81F0C53411F0C536B9F7F8019C
:103E1000108270E060E00E9447B7F801C083CF9144
:103E20001F910F91089570E060E0CF911F910F9165
:103E30000C9447B760E070E0CB01F1CFCF92DF92F6
:103E4000EF92FF926A017B01C4D8882329F0FF908A
:103E5000EF90DF90CF90C8CFC701B601FF90EF90F1
:103E6000DF90CF9008958F929F92AF92BF92CF92A2
:103E7000DF92EF92FF920F931F93CF9386E6E82E87
:103E800084E0F82E0FE512E095EEC92E9CE0D92EC5
:103E9000C0E088E58C0F9DD8882309F475C0A4DFA5
:103EA0004B015C018C2F20D8882309F463C0F801F2
:103EB0002081318142815381C501B4010E9405C036
:103EC000F7016083718382839383CF5FF4E0EF0E09
:103ED000F11C0C5F1F4F84E0C80ED11CC330C9F623
:103EE00085E477D8882309F45AC07EDF6B017C0112
:103EF00083E00E947417882371F020916B02309147
:103F00006C0240916D0250916E02C701B6010E9491
:103F100005C06B017C01C0927204D0927304E092E0
:103F20007404F092750440E050E0BA0186E486DF44
:103F300020E030E0A9010E942BC218167CF454DF67
:103F400020E030E040E752E40E94E1C060932402A8
:103F5000709325028093260290932702CF911F91A0
:103F60000F91FF90EF90DF90CF90BF90AF909F9018
:103F70008F900895F6012081318142815381C501DE
:103F8000B4010E9404C09CCFF80180819181A2817C
:103F9000B381F70180839183A283B38396CF80910D
:103FA0006B0290916C02A0916D02B0916E028093B1
:103FB000720490937304A0937404B0937504B3CF08
:103FC0000F930FB70F9300916E000F930D7F009327
:103FD0006E0000916F000D7F00936F000F930BB781
:103FE0000F930CB70F921F922F933F934F935F93B2
:103FF0006F937F938F939F93AF93BF93EF93FF93B1
:104000001124F0D5FF91EF91BF91AF919F918F91C6
:104010007F916F915F914F913F912F911F900F90E2
:104020000CBF0F910BBF0F910260F89400936F00CB
:104030000F9100936E000F910FBF0F911895000024
:104040008091630580FF22C089988FEF8093C4041C
:104050008091630581FF1DC08F988FEF8093C50409
:104060008091630582FF18C080910B01827080935C
:1040700009018FEF8093C6048091630583FF14C00C
:10408000169A8FEF8093C70400000895899A81E003
:10409000DDCF8F9A81E0E2CF80910B018095827015
:1040A0008093090181E0E6CF169881E0EBCF809103
:1040B000C304877F8093C304129A81E0089580E04F
:1040C0000E943F1481E00E943F1482E00E943F144E
:1040D000EECF12988091C30488608093C304089542
:1040E000813079F0823079F05F9821E030E001C0D2
:1040F000220F8A95EAF78091C304822B8093C30430
:1041000008958A98F2CF90910801917090930601DA
:10411000ECCFCF93DF9380917A04811119C0C091C5
:104120002A02D0912B02219720E030E040E05FE3AB
:1041300060914D0570914E0580914F05909150050D
:104140000E9405C00E9449C121E06C177D070CF058
:1041500020E0822FDF91CF910895CF93DF932091BC
:104160008704222371F0EC010CDB9B01AC01688514
:1041700079858A859B850E9405C0688779878A87AB
:104180009B87DF91CF9108952F923F924F925F923C
:104190006F927F928F929F92AF92BF92CF92DF9257
:1041A000EF92FF920F931F93CF93DF93CDB7DEB7BC
:1041B0006C970FB6F894DEBF0FBECDBF8C015B01CC
:1041C0005A834983FC01EA5BFF4F208131814281A0
:1041D000538129873A874B875C87CA01B9010E94BE
:1041E00060BB6B017C01D5012D913D914D915C919E
:1041F0000E94C1BB0E94CBC02B013C01E981FA8126
:104200002081318142815381C701B6010E94C1BB27
:104210000E94CBC04B015C01C301B2010E944EC1A0
:10422000698B7A8B8B8B9C8B683771058105910527
:1042300040F428E730E040E050E0298B3A8B4B8B8C
:104240005C8BC501B4010E944EC16D877E878F874C
:10425000988B683771058105910540F448E750E077
:1042600060E070E04D875E876F87788BF801EE5ACB
:10427000FF4F4080518062807380C301B2010E9471
:1042800062BB69837A838B839C8369897A898B89F2
:104290009C890E9460BB6D8B7E8B8F8B988F20E0FA
:1042A00030E0A90169817A818B819C810E945CBB8D
:1042B000882309F4E1C1A7019601C701B6010E9454
:1042C000C1BB4B015C012D893E894F89588DCA01C4
:1042D000B9010E94C1BB9B01AC01C501B4010E94A0
:1042E00004C04B015C0129813A814B815C81CA0188
:1042F000B9010E9405C09B01AC01C501B4010E9437
:10430000E1C00E94CBC00E944EC16D837E838F832B
:10431000988766277727CB0164197509860997095D
:104320000E9462BB4B015C016D857E858F859889FB
:104330000E9460BB2B013C0120E030E0A901C501D7
:10434000B4010E945CBB882309F49AC1A3019201C5
:10435000C301B2010E94C1BB698F7A8F8B8F9C8F82
:10436000A7019601C701B6010E94C1BB9B01AC0128
:10437000698D7A8D8B8D9C8D0E9404C06B017C01B0
:10438000A5019401C501B4010E9405C09B01AC01C7
:10439000C701B6010E94E1C00E947AC1D80195967A
:1043A0008D909D90AD90BC909897750164012D8182
:1043B0003E814F815885C21AD30AE40AF50A0E9449
:1043C0004EC1C61AD70AE80AF90AF7FE8EC02D892F
:1043D0003E894F89588DCA01B9010E94C1BB6B014A
:1043E0007C0129813A814B815C81CA01B9010E941B
:1043F00005C069877A878B879C8720E030E0A90118
:1044000069817A818B819C810E945CBB882309F43D
:104410003BC1C501B4010E9460BB29853A854B852B
:104420005C850E94C1BBA70196010E9404C06D83F8
:104430007E838F839887A3019201C301B2010E94FA
:10444000C1BB9B01AC016D817E818F8198850E94EB
:1044500005C02B013C0120E030E040E850E46981D8
:104460007A818B819C810E94C1BB9B01AC01C301FD
:10447000B2010E94E1C00E94CBC02B013C0120E0B0
:1044800030E0A9010E942BC218161CF0412C512CBF
:104490003201C301B2010E944EC16D837E838F83BE
:1044A000988786169706A806B90620F48D829E8204
:1044B000AF82B8866D817E818F8198850E9460BBB6
:1044C00029853A854B855C850E94C1BBA701960171
:1044D0000E9405C00E9470C20E944EC169877A87FF
:1044E0008B879C87C12CD12C760169857A858B8539
:1044F0009C8529893A894B895C89621B730B840BE3
:10450000950B0E9460BB29813A814B815C810E949E
:10451000E1C020E034E244EF59E40E94C1BB0E94B4
:104520004EC14B015C0169857A858B859C852D8503
:104530003E854F855889621B730B840B950B0E9437
:1045400060BB29813A814B815C810E94E1C020E0FF
:1045500034E244EF59E40E94C1BB0E944EC12B01DA
:104560003C013FE683169104A104B10408F090C019
:10457000F401EE0FFF1FEE0FFF1FEF50FB4E859172
:104580009591A591B4918983292E3A2EBD8B4FE642
:10459000441651046104710408F083C0F201EE0F67
:1045A000FF1FEE0FFF1FEF50FB4E45915591659198
:1045B00074919A01CB014D815E816F817885D8011C
:1045C00099964D935D936D937C939C974C0D5D1DD7
:1045D0006E1D7F1DF80145A756A767A770ABE65B68
:1045E000FF4F49895A896B897C8940835183628353
:1045F0007383D5968D929D92AD92BC92D897F80117
:1046000041AE52AE63AE74AEFD96498140832182C5
:1046100032825D89538334962083318382839383EE
:1046200069857A858B859C85D1966D937D938D93D5
:104630009C93D4973D962D853E854F855889208340
:104640003183428353836C960FB6F894DEBF0FBE5E
:10465000CDBFDF91CF911F910F91FF90EF90DF9031
:10466000CF90BF90AF909F908F907F906F905F9012
:104670004F903F902F90089560E070E0CB0141CEC5
:1046800060E070E0CB0188CE60E070E0CB01F3CE5B
:10469000C501B4010E9469146983272E382E9D8BB1
:1046A00076CFC301B2010E9469149B0184CF90911F
:1046B0006F0081E091FD02C080E0089590916F004D
:1046C0009D7F90936F000895EFE6F0E08081826017
:1046D000808308958F929F92AF92BF92CF92DF9284
:1046E000EF92FF920F931F93CF93DF93182F84E0E5
:1046F000189FE0011124123008F046C0D8DF082FBF
:10470000D6DF80901A0590901B05A0901C05B090F4
:104710001D058111D9DFCBDFC0901E05D0901F058C
:10472000E0902005F09021058111CEDF0111CCDF52
:10473000113019F5C501B4016C197D098E099F0965
:104740000E9462BB20E030E040E05FE30E94C1BB1A
:10475000C65ED84F288139814A815B810E94C1BBE6
:10476000DF91CF911F910F91FF90EF90DF90CF904D
:10477000BF90AF909F908F900895C701B601680DCC
:10478000791D8A1D9B1DDCCF92DFFE01E65EFA4F8C
:10479000C080D180E280F380811196DFC701B6012D
:1047A0000E9462BBD5CFCF92DF92EF92FF92CF9360
:1047B000DF93C82F7CDF94E0C99FE0011124FE0144
:1047C000E25FFA4FC080D180E280F38081117CDF0C
:1047D000C65ED84FC701B6010E9462BB28813981ED
:1047E0004A815B810E94C1BBDF91CF91FF90EF9026
:1047F000DF90CF900895CF93DF93CDB7DEB72C979E
:104800000FB6F894DEBF0FBECDBF0E94AF984FDF4A
:104810009CE0EAE1F5E0DE01119601900D929A9597
:10482000E1F7811151DFCE0101960E9450AE2C9626
:104830000FB6F894DEBF0FBECDBFDF91CF910895C4
:104840002F923F924F925F926F927F928F929F92A0
:10485000AF92BF92CF92DF92EF92FF920F931F938E
:10486000CF93DF9300D0CDB7DEB780905F029090FA
:104870006002A0906102B09062024090630250908A
:1048800064026090650270906602C0906702D090EA
:104890006802E0906902F0906A020E9466150E9428
:1048A000B41509EB17E18EE292E09B838A838DEACF
:1048B000282E87E1382E198289810E947116F8010D
:1048C00085919591A591B491EA81FB818193919312
:1048D000A193B193FB83EA83F10185919591A59111
:1048E000B491EA81FB8180879187A287B387F981A0
:1048F000FF5FF9830C5F1F4F84E0280E311CF330FB
:10490000D9F60E94DB180E949E1BA50194016091BC
:104910005F027091600280916102909162020E9438
:104920005CBB81111CC0A301920160916302709174
:10493000640280916502909166020E945CBB8111C5
:104940000EC0209167023091680240916902509137
:104950006A02C701B6010E945CBB8823B1F00F90C8
:104960000F900F90DF91CF911F910F91FF90EF90DB
:10497000DF90CF90BF90AF909F908F907F906F907F
:104980005F904F903F902F9036CF0F900F900F90E9
:10499000DF91CF911F910F91FF90EF90DF90CF901B
:1049A000BF90AF909F908F907F906F905F904F904F
:1049B0003F902F900895CF93DF931F92CDB7DEB72E
:1049C000898360E0CE0101960E94501661E0CE011D
:1049D00001960E94501662E0CE0101960E94501688
:1049E00089810F90DF91CF9108958F929F92AF921E
:1049F000BF92CF92DF92EF92FF921F93CF93DF93FC
:104A0000CDB7DEB760970FB6F894DEBF0FBECDBF4F
:104A1000182F80E05FDE4B015C018092470490928A
:104A20004804A0924904B0924A0481E053DE6B012D
:104A30007C01C0924B04D0924C04E0924D04F09261
:104A40004E0482E047DE60934F04709350048093DD
:104A50005104909352041D861E861F86188A8982EF
:104A60009A82AB82BC82CD82DE82EF82F886698731
:104A70007A878B879C8783E02DDE6D877E878F8783
:104A8000988BCE01019675D81E3FD9F480E1FE01C6
:104A90003196AFE5B2E001900D928A95E1F760960C
:104AA0000FB6F894DEBF0FBECDBFDF91CF911F913F
:104AB000FF90EF90DF90CF90BF90AF909F908F903E
:104AC000089584E0189FF0011124DF01A15ABD4F21
:104AD00081E090E08C0F9D1FE80FF91F408151810C
:104AE000628173814D935D936D937C931397D7CFC0
:104AF0000C949D9980916205811105C08091640597
:104B0000882309F46EC080914604659B5AC0816079
:104B100080934604909103018091460490FF53C016
:104B200082608093460480914604639B4EC08860F7
:104B300080934604809146044A9B49C084608093D8
:104B400046048091FE0480FF10C08091630584FFBD
:104B50000CC08091460480FF08C08091FA068160F5
:104B60008093FA0680E00E9484AE8091FE0481FF6B
:104B700010C08091630585FD0CC08091460481FFC3
:104B800008C08091FA0682608093FA0681E00E9454
:104B900084AE8091FE0482FF24C08091630582FF71
:104BA00018C0809164058823E1F08091460483FF5A
:104BB00018C08091FA0688608093FA0682E00C940F
:104BC00084AE8E7FA5CF8D7FACCF877FB1CF8B7F1B
:104BD000B6CF8091460482FF04C08091FA068460BB
:104BE000EBCF08952F923F924F925F926F927F92F8
:104BF0008F929F92AF92BF92CF92DF92EF92FF92ED
:104C00000F931F93CF93DF93CDB7DEB762970FB6A5
:104C1000F894DEBF0FBECDBF8FEF9FEF909389005A
:104C2000809388002AE0298B312C212C7894809164
:104C3000070590910805A0910905B0910A05892BF7
:104C40008A2B8B2B09F0CDC180910D058823D1F0E3
:104C500080910B0590910C0510920D05892B91F018
:104C600010920C0510920B051092FE049091E90E23
:104C70008091EA0E981731F08091EA0E8F5F8F7065
:104C80008093EA0E80910B0590910C05892B09F415
:104C9000A8C14091030550910405609105057091EC
:104CA00006058091FF0490910005A0910105B09147
:104CB00002050091F50410E030E020E0841B950B24
:104CC000A60BB70B081719072A073B0710F4D901E1
:104CD000C8018A8B840F951FA61FB71F80930305F9
:104CE00090930405A0930505B0930605E1E0C090FC
:104CF000CC04D090CD04E090CE04F090CF0480910D
:104D0000DC049091DD04A091DE04B091DF04C80EB4
:104D1000D91EEA1EFB1EC092DC04D092DD04E09294
:104D2000DE04F092DF04F7FC33C04091C404042E8B
:104D3000000C550B660B770B80911A0590911B05A3
:104D4000A0911C05B0911D05840F951FA61FB71FCC
:104D500080931A0590931B05A0931C05B0931D0525
:104D60008091C8049091C904A091CA04B091CB0469
:104D7000B701A601481B590B6A0B7B0BDB01CA016B
:104D80008093DC049093DD04A093DE04B093DF04F1
:104D90000091D0041091D1042091D2043091D30419
:104DA0008091E0049091E104A091E204B091E304C9
:104DB000080F191F2A1F3B1F0093E0041093E10402
:104DC0002093E2043093E30437FD33C04091C504DF
:104DD000042E000C550B660B770B80911E059091ED
:104DE0001F05A0912005B0912105840F951FA61FD6
:104DF000B71F80931E0590931F05A0932005B093C5
:104E000021058091C8049091C904A091CA04B09171
:104E1000CB0428013901481A590A6A0A7B0AD301CE
:104E2000C2018093E0049093E104A093E204B09364
:104E3000E3044091D4045091D5046091D60470915C
:104E4000D7048091E4049091E504A091E604B09128
:104E5000E704480F591F6A1F7B1F4093E4045093D7
:104E6000E5046093E6047093E70477FD33C0809017
:104E7000C604082C000C9908AA08BB0880912205DA
:104E800090912305A0912405B0912505880D991DC9
:104E9000AA1DBB1D8093220590932305A093240592
:104EA000B09325058091C8049091C904A091CA04CB
:104EB000B091CB043A014B01681A790A8A0A9B0A1D
:104EC000D401C3018093E4049093E504A093E60425
:104ED000B093E7048090D8049090D904A090DA04AD
:104EE000B090DB048091E8049091E904A091EA0479
:104EF000B091EB04880D991DAA1DBB1D8093E80499
:104F00009093E904A093EA04B093EB04B7FD33C097
:104F10004090C704042C000C550866087708809060
:104F2000260590902705A0902805B0902905840CAF
:104F3000951CA61CB71C8092260590922705A0926E
:104F40002805B09229058090C8049090C904A090CB
:104F5000CA04B090CB042C013D01481859086A08D6
:104F60007B08530142018092E8049092E904A092E8
:104F7000EA04B092EB04E11104C0E0918400F091E6
:104F80008500F7FE889A37FF8E9A77FD06C0E0917C
:104F90000B01E095E870E0930901B7FF149AE091E6
:104FA0008400F0918500E0918400F0918500F7FE87
:104FB000889837FF8E9877FD05C020910B012870E7
:104FC00020930901B7FF14985A88552021F0809149
:104FD0008400909185002A8921502A8BE0E02111DC
:104FE00086CE8091070590910805A0910905B091A2
:104FF0000A05892B8A2B8B2B09F0A5C6E0910B059E
:10500000F0910C05309709F412C780910305909137
:105010000405A0910505B09106054091FF0450914B
:105020000005609101057091020584179507A60798
:10503000B70708F447C010920C0510920B051092A8
:10504000FE049091E90E8091EA0E981709F4EFC6DC
:105050008091EA0E8F5F8F708093EA0E00EDC02E74
:1050600007E0D02EE12CF12C80910B0590910C05DE
:10507000892B09F060C60E941B1690930C05809343
:105080000B05892B09F457C6E0910B05F0910C052F
:10509000808183FFFCC4CF0145960E94CBAE109265
:1050A0000C0510920B051092FE049091E90E809170
:1050B000EA0E981701F38091EA0E8F5F8F7080934C
:1050C000EA0ED9CF4091FA045091FB046091FC04A0
:1050D0007091FD04481759076A077B0708F40AC254
:1050E0004091F6045091F7046091F8047091F9042E
:1050F00085A996A9A7A9B0AD481759076A077B07E4
:1051000008F0D2C1411551056105710509F068C06B
:105110008090B1039090B203A090B303B090B40319
:1051200080ED91E2A1E0FC0105911591259134916A
:10513000081519052A053B0568F4B694A7949794B9
:105140008794AA0F04961CEE612E11E2712E681648
:10515000790649F7A093F50420E282169104A10490
:10516000B10428F4A0E28A2E912CA12CB12C30E2BB
:10517000831A9108A108B108811488E09806A10457
:10518000B10408F496C1A4E09A9EC0011124805392
:10519000924EFC01329625913491B82DEE27B39FA3
:1051A0008001B29F010D1E1F06940E1F1E1F1124A9
:1051B00030E020E0FC01C590D490F12CE12CC01A25
:1051C000D10AE20AF30A4C0D5D1D6E1D7F1D40934E
:1051D000F6045093F7046093F8047093F90444CFF5
:1051E00000E01981942F852E862FBB81AC81FD8133
:1051F000EE813F8128854A80E091AD03E99FA12D92
:10520000FF273091AE03399FA00DF11D1090AF0321
:10521000199EF00DE89DA00DF11D389DF00DE89F41
:10522000F00D4A2EBF2F4A9EE12D332722274F9E95
:10523000E00D311D201FBA9FE00D311D201FBF9FC3
:10524000300D211D432EB22F4A9E112D33272227C8
:105250004F9E100D311D201FBA9F100D311D201FB4
:10526000BF9F300D211D432EB22FEE279091B10329
:105270008090B2038091B3030090AC03002A09F43C
:1052800083C03091A803349DE119900B800A800BF4
:105290002091A903249DE0199109800A800B1091A7
:1052A000AA03149D90198108800B3B9FE019910976
:1052B000800A800B2B9F90198108800B1B9F801800
:1052C00081094A9E112D332722274F9E100D311D33
:1052D000201FBA9F100D311D201FBF9F300D211DB3
:1052E000432EB22F3091A403349DE10D901F801EF8
:1052F000801F2091A503249DE00D911D801E801F1D
:105300001091A603149D900D811C801F3B9FE00D02
:10531000911D801E801F2B9F900D811C801F1B9F45
:10532000800C811D4A9E112D332722274F9E100D80
:10533000311D201FBA9F100D311D201FBF9F300D42
:10534000211D432EB22F3091A003349DE119900B03
:10535000800A800B2091A103249DE0199109800A05
:10536000800B1091A203149D90198108800B3B9F24
:10537000E0199109800A800B2B9F90198108800BFE
:105380001B9F8018810982C03091A803349DE10DD4
:10539000901F801E801F2091A903249DE00D911D68
:1053A000801E801F1091AA03149D900D811C801FE8
:1053B0003B9FE00D911D801E801F2B9F900D811C37
:1053C000801F1B9F800C811D4A9E112D3327222791
:1053D0004F9E100D311D201FBA9F100D311D201F33
:1053E000BF9F300D211D432EB22F3091A403349D59
:1053F000E119900B800A800B2091A503249DE019F0
:105400009109800A800B1091A603149D90198108C0
:10541000800B3B9FE0199109800A800B2B9F90190C
:105420008108800B1B9F801881094A9E112D33270C
:1054300022274F9E100D311D201FBA9F100D311DC8
:10544000201FBF9F300D211D432EB22F3091A0038E
:10545000349DE10D901F801E801F2091A103249D8B
:10546000E00D911D801E801F1091A203149D900DD0
:10547000811C801F3B9FE00D911D801E801F2B9F74
:10548000900D811C801F1B9F800C811D11244A825E
:105490001983BB83AC83FD83EE833F832887982CDD
:1054A000892EB12CA82E3CCE81A892A8A3A8B4A87E
:1054B00037CED501C401B695A795979587958C7F72
:1054C0008053964EFC01C590D490FC0132962591F4
:1054D0003491F82DF770F29FC001F39F900D1124C5
:1054E000F3E096958795FA95E1F7C81AD90AF12C59
:1054F000E12C69CE4091F1045091F2046091F304E3
:105500007091F404481759076A077B0708F02BC20B
:105510008090EC049090ED04A090EE04B090EF0425
:105520008091F00481117CC0DF01AF5BBF4FED9033
:10553000FD900D911C9113971D962D913D914D91CC
:105540005C9161A972A983A994A90E94ED134424D6
:1055500043944092F004E0910B05F0910C0541A9B1
:1055600052A963A974A980ED91E2A1E0FC01059123
:10557000159125913491041715072607370768F40C
:105580007695679557954795AA0F04963CEE632E3E
:1055900031E2732E6816790649F7A093F50440327C
:1055A00051056105710520F440E250E060E070E0D3
:1055B0004052510961097109411528E052076105FE
:1055C000710508F4B0C134E0539FC0011124805329
:1055D000924EFC01329625913491AA27439FF00107
:1055E000429FE10DFA1F0694EA1FFA1F1124AF0132
:1055F00070E060E0FC01C590D490F12CE12CC41A5D
:10560000D50AE60AF70A8C0C9D1CAE1CBF1C8092C2
:10561000EC049092ED04A092EE04B092EF0424CD3D
:1056200081AD92ADA3ADB4AD88169906AA06BB06AE
:1056300008F072C181149104A104B10449F44091AD
:10564000B1035091B2036091B3037091B4038BCF57
:10565000A0E0F985982D492D8A2DEA857B856C85FA
:10566000BD855E853F8528895091AD03599F612D89
:10567000BB273091AE03399F600DB11D1090AF0371
:10568000199EB00D549F600DB11D349FB00D589FF1
:10569000B00DE62F7B2FE69F512D33272227EB9F5E
:1056A000500D311D2A1F769F500D311D2A1F7B9FE3
:1056B000300D211DE32F722FE69FF12D3327222776
:1056C000EB9FF00D311D2A1F769FF00D311D2A1F13
:1056D0007B9F300D211DE32F722F55279091B10331
:1056E0004091B2038091B3030090AC030A2A09F4FD
:1056F00083C03091A8033E9F51199A0B4A0B8A0B25
:105700002091A9032E9F501991094A0B8A0BF09101
:10571000AA03FE9F901941098A0B379F50199109DE
:105720004A0B8A0B279F901941098A0BF79F401952
:105730008109E69FF12D33272227EB9FF00D311DC4
:105740002A1F769FF00D311D2A1F7B9F300D211DD2
:10575000E32F722F3091A4033E9F510D9A1F4A1FD1
:105760008A1F2091A5032E9F500D911D4A1F8A1F4D
:10577000F091A603FE9F900D411D8A1F379F500D8B
:10578000911D4A1F8A1F279F900D411D8A1FF79F59
:10579000400D811DE69FF12D33272227EB9FF00D51
:1057A000311D2A1F769FF00D311D2A1F7B9F300D62
:1057B000211DE32F722F3091A0033E9F51199A0BA8
:1057C0004A0B8A0B2091A1032E9F501991094A0B75
:1057D0008A0BF091A203FE9F901941098A0B379F13
:1057E000501991094A0B8A0B279F901941098A0B7E
:1057F000F79F4019810982C03091A8033E9F510D47
:105800009A1F4A1F8A1F2091A9032E9F500D911D98
:105810004A1F8A1FF091AA03FE9F900D411D8A1F07
:10582000379F500D911D4A1F8A1F279F900D411DC4
:105830008A1FF79F400D811DE69FF12D33272227F8
:10584000EB9FF00D311D2A1F769FF00D311D2A1F91
:105850007B9F300D211DE32F722F3091A4033E9FBB
:1058600051199A0B4A0B8A0B2091A5032E9F5019B0
:1058700091094A0B8A0BF091A603FE9F90194109EA
:105880008A0B379F501991094A0B8A0B279F901951
:1058900041098A0BF79F40198109E69FF12D3327B3
:1058A0002227EB9FF00D311D2A1F769FF00D311D31
:1058B0002A1F7B9F300D211DE32F722F3091A003F3
:1058C0003E9F510D9A1F4A1F8A1F2091A1032E9FB0
:1058D000500D911D4A1F8A1FF091A203FE9F900D4B
:1058E000411D8A1F379F500D911D4A1F8A1F279FF8
:1058F000900D411D8A1FF79F400D811D1124F987CE
:10590000EA877B876C87BD875E873F87288B542F0C
:10591000492F70E0682F27CEE25BFF4F4081518115
:105920006281738120CEDB01CA01B695A795979558
:1059300087958C7F8053964EFC01C590D490FC01D6
:105940003296259134914770429FC001439F900D3C
:10595000112403E0969587950A95E1F7C81AD90AAC
:10596000F12CE12C50CE8091460290914702A091FB
:105970004802B0914902B7FF5FC0EA5BFF4FC080A9
:10598000D180E280F38080ED91E221E0FC0145913D
:105990005591659174914C155D056E057F0558F420
:1059A000F694E794D794C794220F04964CEE51E2F4
:1059B0004817590759F72093F50450E2C516D1044A
:1059C000E104F10428F4F0E2CF2ED12CE12CF12CEB
:1059D00060E2C61AD108E108F108C11478E0D706E0
:1059E000E104F10408F431C0A4E0DA9EC0011124FE
:1059F0008053924EFC01329625913491BC2D66273E
:105A0000B39FA001B29F410D561F0694461F561F1B
:105A1000112470E060E0FC0185919491B0E0A0E079
:105A2000841B950BA60BB70B8093460290934702FD
:105A3000A0934802B0934902C0904602D09047021A
:105A4000E0904802F09049020FCBD701C601B6950D
:105A5000A795979587958C7F8053964EFC0125914D
:105A60003491FC01329645915491FC2DF770F49FCE
:105A7000C001F59F900D1124E3E096958795EA9576
:105A8000E1F7281B390BC901B0E0A0E0CDCF458973
:105A900056896789708DC18CD28CE38CF48CDF01C0
:105AA000AB5BBF4F4C904A8A81E04C155D056E059B
:105AB0007F0509F098C180E0411551056105710528
:105AC00051F0242D2170942D9695917081E0291329
:105AD00080E0291388C1058D168D278D30A1011511
