:100000000C9411130C9451130C9451130C94511320
:100010000C9451130C9451130C9451130C945113D0
:100020000C9451130C94B29E0C94B29E0C94B29EFC
:100030000C9451130C9451130C9451130C945113B0
:100040000C9451130C94D6200C9451130C9451130E
:100050000C9451130C9419AB0C9451130C9427A3CA
:100060000C9451130C9478940C946E940C9451133A
:100070000C9451130C9451130C9451130C94511370
:100080000C9401330C9451130C9451130C94511390
:100090000C9451130C9451130C9451130C94511350
:1000A0000C9451130C9451130C94D3320C9451139F
:1000B0000C9451130C9451130C9451130C94511330
:1000C0000C9451130C9451130C9451130C94511320
:1000D0000C9451130C9451130C9451130C94511310
:1000E0000C945113084AD73B3BCE016E84BCBFFD34
:1000F000C12F3D6C74319ABD56833DDA3D00C77FF8
:1001000011BED9E4BB4C3E916BAAAABE0000008090
:100110003F05A84CCDB2D44EB93836A9020C50B91F
:10012000918688083CA6AAAA2ABE000000803F004B
:100130004E414E494E495459494E46CDCCCC3D0ACC
:10014000D7233C17B7D13877CC2B329595E6241FAF
:10015000B14F0A000020410000C84200401C462068
:10016000BCBE4CCA1B0E5AAEC59D74434F4D4D5577
:100170004E49434154494F4E0044525952554E0046
:100180004552524F525300494E464F004543484F47
:10019000005072696E7465722073746F707065645C
:1001A0002064756520746F206572726F72732E20E3
:1001B00046697820746865206572726F7220616E7E
:1001C0006420757365204D39393920746F2072654C
:1001D00073746172742E202854656D706572617439
:1001E0007572652069732072657365742E2053657E
:1001F000742069742061667465722072657374611D
:100200007274696E67290A004E6F20436865636BDC
:1002100073756D2077697468206C696E65206E75E2
:100220006D6265722C204C617374204C696E653A66
:100230002000636865636B73756D206D69736D6114
:100240007463682C204C617374204C696E653A208D
:10025000004C696E65204E756D6265722069732071
:100260006E6F74204C617374204C696E65204E75FE
:100270006D6265722B312C204C617374204C696E59
:10028000653A20004D3131300053657269616C2050
:10029000737461747573206D69736D617463680A3A
:1002A000002121204B494C4C20636175736564200B
:1002B000627920746F6F206D75636820696E616369
:1002C000746976652074696D65202D20637572727E
:1002D000656E7420636F6D6D616E643A20006275A7
:1002E00073793A2070617573656420666F72206956
:1002F0006E7075740A00627573793A207061757357
:10030000656420666F7220757365720A006275738A
:10031000793A2070726F63657373696E670A00655E
:1003200063686F3A004572726F723A004F4646003A
:100330004F4E0066616C73650074727565004269AA
:100340006C696E656172204C6576656C696E6720BC
:10035000477269643A0A00303D2E33323500313D30
:100360002E3138006D6178002F3331002F3331008A
:100370002F333100303D2E33323500313D2E3138B0
:10038000006D6178002F3331002F3331002F33316E
:1003900000303D2E33323500313D2E3138006D6155
:1003A00078002F3331002F3331002F333100303DAF
:1003B0002E33323500313D2E3138006D6178002FFB
:1003C0003331002F3331002F333100303D2E3332A3
:1003D0003500313D2E3138006D6178002F3331000A
:1003E0002F3331002F3331000920426164207265C0
:1003F00073706F6E7365210009204261642072651D
:1004000073706F6E7365210009204261642072650C
:1004100073706F6E736521000920426164207265FC
:1004200073706F6E736521000920426164207265EC
:1004300073706F6E736521004C4F570048494748F1
:10044000004F4B004572726F723A20416C6C200075
:1004500020636F6E6E656374696F6E2E2E2E2000A2
:1004600054657374696E6720004C4F5700484947C4
:1004700048004F4B004572726F723A20416C6C20FD
:100480000020636F6E6E656374696F6E2E2E2E2072
:100490000054657374696E6720004C4F57004849DB
:1004A0004748004F4B004572726F723A20416C6CA6
:1004B000200020636F6E6E656374696F6E2E2E2E42
:1004C000200054657374696E6720004C4F570048D4
:1004D000494748004F4B004572726F723A20416C99
:1004E0006C200020636F6E6E656374696F6E2E2ED4
:1004F0002E200054657374696E6720004C4F5700BE
:1005000048494748004F4B004572726F723A20418C
:100510006C6C200020636F6E6E656374696F6E2E65
:100520002E2E200054657374696E6720002E0A0019
:100530002F0050726F62696E67206D65736820705E
:100540006F696E742000202844525952554E29007C
:10055000473239204175746F20426564204C6576BE
:10056000656C696E67003F20284C2C522C462C424B
:1005700029206F7574206F6620626F756E64732E0C
:100580000A003F2856296572626F7365206C657694
:10059000656C20696D706C61757369626C6520288B
:1005A000302D34292E0A00426164205A2076616C75
:1005B00075650A004E6F2062696C696E6561722014
:1005C000677269640A0020440020204D32303020D8
:1005D000540020204D3230302053002028446973CD
:1005E00061626C6564293A0046696C616D656E7480
:1005F0002073657474696E67730020204D3230314A
:100600002058004D617820416363656C65726174A8
:10061000696F6E2028756E6974732F7332290020FC
:10062000204D3230332058004D6178206665656476
:1006300072617465732028756E6974732F73290055
:1006400020520020204D3230342050004163636539
:100650006C65726174696F6E2028756E6974732F92
:100660007332292028503C7072696E742D61636367
:10067000656C3E20523C726574726163742D6163D7
:1006800063656C3E20543C74726176656C2D6163C9
:1006900063656C3E2900204A00205400205300204E
:1006A000204D323035204200416476616E636564CE
:1006B0002028423C6D696E5F7365676D656E745F7F
:1006C00074696D655F75733E20533C6D696E5F663E
:1006D000656564726174653E20543C6D696E5F743B
:1006E000726176656C5F66656564726174653E20F3
:1006F0004A3C6A756E635F6465763E290020204D32
:1007000032313700546F6F6C2D6368616E67696EAC
:10071000670020204D323138205400486F74656ED8
:1007200064206F666673657473002044002049007E
:1007300020204D333031205000486F74656E6420A6
:10074000504944004452565F535441545553090094
:1007500050574D5F5343414C45090050574D434F4F
:100760004E460900434F4F4C434F4E460900434805
:100770004F50434F4E460900544849474809090025
:1007800054434F4F4C5448525309005450574D5402
:100790004852530900545354455009090054504FCE
:1007A000574552444F574E0900494F494E090900D9
:1007B000475354415409090049484F4C445F49523A
:1007C000554E090047434F4E46090900090044723F
:1007D00069766572207265676973746572733A0A27
:1007E00000733276736209007332767361090031E7
:1007F0003230430900313433430900313530430985
:10080000003135374309006F7409006F7470770940
:10081000007332676109007332676209006F6C61AF
:1008200009006F6C62090073747374090073675F69
:10083000726573756C740044525653544154555349
:1008400000755374657020636F756E740053746126
:100850006C6C6775617264207468727300202D730C
:100860007461727409006879737465726573697371
:100870000A202D656E640900626C616E6B207469DC
:100880006D65006F66662074696D650070776D2018
:1008900067726164206175746F0070776D206F6698
:1008A00066736574206175746F0070776D20736373
:1008B000616C65206175746F0070776D2073636182
:1008C0006C652073756D004F54207072657761728E
:1008D0006E005B6D6D2F735D090050574D2074687D
:1008E000726573682E0074737465700900696E74A4
:1008F00065727009006D73746570730900737465B7
:10090000616C746843686F70007673656E73650917
:100910000050574D207363616C6500435320616341
:100920007475616C00486F6C642063757272656EDB
:10093000740052756E2063757272656E74004D415D
:10094000582063757272656E7400524D5320637542
:100950007272656E74005365742063757272656E91
:100960007400456E61626C6564090041646472657F
:100970007373090009007370726561644379636C75
:100980006500737465616C746843686F70002064FF
:100990007269766572206D6F64653A0900737072D2
:1009A0006561644379636C6500737465616C746838
:1009B00043686F700020647269766572206D6F64A1
:1009C000653A09007370726561644379636C650010
:1009D000737465616C746843686F70002064726939
:1009E000766572206D6F64653A0900737072656197
:1009F000644379636C6500737465616C7468436803
:100A00006F700020647269766572206D6F64653A5C
:100A100009007370726561644379636C6500737477
:100A200065616C746843686F7000206472697665F4
:100A300072206D6F64653A0900202E6873747274B9
:100A40003A2000202E68656E643A20002063686FAB
:100A500070706572202E746F66663A2000202E68D2
:100A6000737472743A2000202E68656E643A200018
:100A70002063686F70706572202E746F66663A200E
:100A800000202E68737472743A2000202E68656E00
:100A9000643A20002063686F70706572202E746F56
:100AA00066663A2000202E68737472743A20002023
:100AB0002E68656E643A20002063686F70706572FE
:100AC000202E746F66663A2000202E68737472744C
:100AD0003A2000202E68656E643A20002063686F1B
:100AE00070706572202E746F66663A20003F532046
:100AF0006F7574206F662072616E67652028312ED5
:100B00002E38290A003F50206F7574206F662072BE
:100B1000616E676520282D332E2E3132290A003F61
:100B20004F206F7574206F662072616E6765202894
:100B3000312E2E3135290A003B200020496E766186
:100B40006C69642065787472756465722000473240
:100B50002F47332062616420706172616D65746536
:100B600072730A0047323800205A3A200020593A5E
:100B7000200042656420583A20004D65736820705B
:100B80006F696E74206F7574206F662072616E6776
:100B9000650A002569730025696D202569730025A4
:100BA00069682025696D2025697300256964202501
:100BB00069682025696D20256973002569792025DC
:100BC0006964202569682025696D202569730050B6
:100BD00072696E742074696D653A20006F6B006FE6
:100BE0006666008C018701800179016B01444542F2
:100BF00055473A004D3131322053687574646F7730
:100C00006E004D3131332053002F2F003F4A206FAB
:100C10007574206F662072616E67652028302E30F3
:100C20003120746F20302E33290A0020204D617846
:100C30003A2000200020204D696E3A2000203B2001
:100C40000020204D323131205300536F66742065EF
:100C50006E6473746F70730046523A0020466C6F76
:100C6000773A20003A200020536572766F200020EA
:100C70006F7574206F662072616E67650A00536538
:100C800072766F200050726F6265204F66667365E2
:100C900074205A0050726F6265204F6666736574E7
:100CA000205A00496E76616C6964206578747275AB
:100CB0006465720A0064697300656E0043290A0066
:100CC00061626C656420286D696E2074656D7020AA
:100CD00000436F6C6420657874727564657320617D
:100CE00072652000426564204C6576656C696E67AC
:100CF00020004661696C656420746F20656E6162D6
:100D00006C6520426564204C6576656C696E670A87
:100D100000496E76616C6964206D6573682E0A0007
:100D20004D34323120696E636F7272656374207066
:100D30006172616D657465722075736167650A0023
:100D40004D65736820706F696E74206F7574206FC5
:100D5000662072616E67650A00546F6F206661726B
:100D60002066726F6D207265666572656E636520C0
:100D7000706F696E740A00454550524F4D204F4BBD
:100D80000A00290A0020746F20003F5A206F7574F2
:100D9000206F662072616E6765202800290A002096
:100DA000746F20003F59206F7574206F6620726148
:100DB0006E676520282D00290A0020746F20003FEF
:100DC00058206F7574206F662072616E67652028E9
:100DD0002D00206472697665722063757272656E8B
:100DE000743A2000206472697665722063757272AD
:100DF000656E743A200020647269766572206375AE
:100E00007272656E743A2000206472697665722091
:100E100063757272656E743A20002064726976653B
:100E2000722063757272656E743A20006F6B0020D9
:100E3000204D323036205800486F6D65206F666651
:100E4000736574004361703A00434F4E4649475FF3
:100E50004558504F5254004D4541545041434B006A
:100E6000434F4F4C45525F54454D504552415455A8
:100E70005245004348414D4245525F54454D50450F
:100E800052415455524500424142595354455050E5
:100E9000494E470041524353004D4F54494F4E5F16
:100EA0004D4F44455300544845524D414C5F5052BC
:100EB0004F54454354494F4E00455854454E4445C0
:100EC000445F4D323000435553544F4D5F464952B5
:100ED0004D574152455F55504C4F4144004C464E92
:100EE0005F5752495445004C4F4E475F46494C4569
:100EF0004E414D45004155544F5245504F52545F5D
:100F000053445F5354415455530053445F5752491F
:100F100054450052455045415400534443415244C6
:100F20000050524F4D50545F535550504F52540043
:100F3000484F53545F414354494F4E5F434F4D4DCB
:100F4000414E445300454D455247454E43595F502D
:100F5000415253455200434153455F4C4947485421
:100F60005F4252494748544E45535300544F4747F8
:100F70004C455F4C494748545300534F46545741E2
:100F800052455F504F574552004255494C445F50BF
:100F9000455243454E54004C4556454C494E475FDB
:100FA00044415441005A5F50524F42450052554E01
:100FB0004F5554004155544F4C4556454C005052E6
:100FC000494E545F4A4F420050524F475245535387
:100FD000004155544F5245504F52545F54454D5067
:100FE000004155544F5245504F52545F504F53009B
:100FF000564F4C554D455452494300454550524F6C
:101000004D0042494E4152595F46494C455F54524A
:10101000414E534645520053455249414C5F584F4B
:101020004E5F584F4646004649524D574152455F24
:101030004E414D453A4D61726C696E20627567662E
:1010400069782D322E302E7820284F63742020337B
:1010500020323032322031373A30393A3530292097
:10106000534F555243455F434F44455F55524C3AA9
:101070006769746875622E636F6D2F4D61726C695C
:101080006E4669726D776172652F4D61726C696E23
:101090002050524F544F434F4C5F56455253494F87
:1010A0004E3A312E30204D414348494E455F545908
:1010B00050453A4A756C69612050726F20447561E1
:1010C0006C203234562041424C2077697468205499
:1010D0004D4332323039206F6E2055415254206DCD
:1010E0006F6465206F6E204D4B532047656E4C201A
:1010F00056322E312045585452554445525F434F85
:10110000554E543A3220555549443A636564653228
:101110006132662D343161322D343734382D3962E5
:1011200031322D6335356336326633363766660ABB
:1011300000203B0020204D3835312058005A2D50DA
:10114000726F6265204F66667365740020573A00BF
:1011500020573A0023646566696E65204445464120
:10116000554C545F004B6420004B6920004B7020AD
:1011700000504944204175746F74756E652066692E
:101180006E697368656421205075742074686520E9
:101190006C617374204B702C204B6920616E64204D
:1011A0004B6420636F6E7374616E74732066726F2C
:1011B0006D2062656C6F7720696E746F20436F6E6F
:1011C00066696775726174696F6E2E680A005049AE
:1011D00044204175746F74756E65206661696C6535
:1011E00064212074696D656F75740A00504944204C
:1011F0004175746F74756E65206661696C656421F4
:101200002054656D706572617475726520746F6FBE
:1012100020686967680A00204B643A2000204B6907
:101220003A2000204B703A200020436C61737369B0
:101230006320504944200A002054753A2000204B76
:10124000753A2000206D61783A2000206D696E3A71
:10125000200020643A200020626961733A20005027
:101260004944204175746F74756E652073746172A2
:10127000740A00504944204175746F74756E65207E
:101280006661696C6564212054656D706572617476
:1012900075726520746F6F20686967680A0050492D
:1012A00044204175746F74756E65206661696C6564
:1012B00064212042616420686561746572206964FC
:1012C0000A006F70656E00545249474745524544C5
:1012D000003A20007A5F70726F6265007A5F6D611C
:1012E0007800795F6D617800785F6D696E00526596
:1012F000706F7274696E6720656E6473746F7020AE
:101300007374617475730A000000B9430080C543AB
:101310000000C843000000000000000000000000C2
:1013200020746F6F206C6F6E6720657874727573B0
:10133000696F6E2070726576656E7465640A002050
:10134000636F6C6420657874727573696F6E20705A
:10135000726576656E7465640A00000020C20080C4
:10136000C5430000C8435761726E696E673A2048F2
:101370006F6D696E672042756D7020446976697380
:101380006F72203C20310A000202040000B94300C1
:1013900080C5430000C8430000A0400000A04000FA
:1013A0000000400000000100000001000080005526
:1013B0005555000000400033333300AAAA2A0049E3
:1013C00092240000002000C7711C0099991900D1D7
:1013D000451700555515003BB11300244912001163
:1013E000111100000010000F0F0F00E3380E004332
:1013F000790D00CCCC0C00C3300C00E8A20B0064CB
:10140000210B00AAAA0A00703D0A009DD8090042DB
:101410007B090092240900DCD308008888080010AA
:1014200042080000000800F0C10700878707007528
:10143000500700711C07003EEB0600A1BC060069C6
:1014400090060066660600703E06006118060017EA
:10145000F4050074D105005BB00500B29005006290
:101460007205005555050078390500B81E050005C0
:101470000505004EEC040087D40400A1BD040090D3
:10148000A7040049920400C17D0400EE690400C76E
:10149000560400444404005C320400082104004166
:1014A000100400000004003FF00300F8E0030026F1
:1014B000D20300C3C30300CCB503003AA803000A5B
:1014C0009B0300388E0300C08103009F750300D08A
:1014D000690300505E03001D53030034480300916C
:1014E0003D03003333030016290300381F03009720
:1014F000150300300C0300030303000BFA0200493C
:10150000F10200BAE802005CE002002DD802002DD2
:10151000D0020059C80200B0C0020031B90200DA9E
:10152000B10200AAAA0200A0A30200BC9C0200FA19
:101530009502005C8F0200DF880200828202004573
:101540007C02002776020027700200436A02007CBA
:10155000640200D05E02003F590200C8530200FF3F
:10156000FDFCFAF8F6F4F2F0EEECEAE9E7E5E3E187
:10157000E0DEDCDAD9D7D5D4D2D0CFCDCBCAC8C73C
:10158000C5C3C2C0BFBDBCBAB9B7B6B4B3B2B0AFC1
:10159000ADACAAA9A8A6A5A4A2A1A09E9D9C9A991B
:1015A000989795949392908F8E8D8B8A8988878651
:1015B00084838281807F7E7D7B7A7978777675746B
:1015C000737271706F6E6D6C6B6A69686766656463
:1015D000636261605F5E5D5C5B5A5958585756554F
:1015E0005453525150504F4E4D4C4B4A4A49484724
:1015F0004646454443424241403F3E3E3D3C3B3BE4
:101600003A39383837363535343332323130302F95
:101610002E2E2D2C2B2B2A29292827272625252439
:10162000232322212120201F1E1E1D1C1C1B1B1AD0
:10163000191918181716161515141313121211115B
:10164000100F0F0E0E0D0D0C0C0B0A0A09090808DD
:10165000070706060505040403030202010000DB78
:101660000FC93F45BCDA3F8FB30240FCF02740561C
:10167000946140FE4B9B4084A5D840E02318413440
:101680006A5641E859974164DBD5416E271742B449
:10169000B75542CE1A9742C8AED542B5885A43D400
:1016A0000684BFA65FA7BF7443E0BF10B11AC01C79
:1016B0002C58C0E8F697C0B849D6C04E4E17C12482
:1016C000D355C1802497C1A0B5D5C1121A17C24401
:1016D000AE55C2781797C26CACD5C267885AC32082
:1016E000746F6F206C6F6E672065787472757369A4
:1016F0006F6E2070726576656E7465640A00206393
:101700006F6C6420657874727573696F6E20707287
:101710006576656E7465640A00290A002062797432
:1017200065733B20637263200053657474696E6750
:10173000732053746F726564202800454550524FE2
:101740004D20496E697469616C697A65640A004864
:10175000617264636F6465642044656661756C746E
:101760002053657474696E6773204C6F616465649F
:101770000020286D6D2900203B204C6576656C6942
:101780006E67200020204D343230205300417574A4
:101790006F20426564204C6576656C696E67002039
:1017A000204D39303600205431204500205430205F
:1017B0004500537465707065722064726976657255
:1017C0002063757272656E740020204D35363920A5
:1017D000533100543120450054302045002058003A
:1017E000447269766572207374657070696E6720E3
:1017F0006D6F646500204A00202047323920572051
:10180000490020204D3134392043203B20556E695A
:10181000747320696E2043656C736975730A005494
:10182000656D706572617475726520556E6974734B
:10183000002020473231203B004C696E65617220E8
:10184000556E69747300454550524F4D2064617464
:101850006173697A65206572726F722E0A00290AB7
:10186000002062797465733B2063726320002073EB
:10187000746F7265642073657474696E6773207227
:101880006574726965766564202800202863616C40
:1018900063756C6174656429210A0020213D200074
:1018A000454550524F4D20435243206D69736D6141
:1018B000746368202D202873746F7265642920007A
:1018C0002053697A653A2000496E6465783A2000B1
:1018D00000004843000048430000A041000034429B
:1018E0000000C8420000C842F0F7FB4300000C4370
:1018F000DC050000DC0500003200000010270000BD
:10190000204D61726C696E3D563836290A00454596
:1019100050524F4D2076657273696F6E206D6973FA
:101920006D617463682028454550524F4D3D002439
:10193000F4D43050C38E20C2A24017828B70111293
:101940007A910D816CD90AA861E108C758660761D0
:101950005143061E4B5D05C145A7041A41110409F8
:101960003D9803713931034036DB0265339102D46F
:10197000305402802E1D02632CEE01752AC501B081
:1019800028A001102781018F2564012B244B01E041
:10199000223401AC211F018D200D01801FFC008429
:1019A0001EED00971DDF00B81CD200E61BC600200C
:1019B0001BBC00641AB200B219A8000A19A0006A80
:1019C000189900D117910040178B00B5168400318B
:1019D000167E00B31579003A157300C7146F0058CE
:1019E000146A00EE1366008813630025135E00C7B7
:1019F000125B006C12570015125400C11151007097
:101A0000114F0021114B00D61049008D10470046A0
:101A100010440002104200C00F4000800F3E004200
:101A20000F3C00060F3B00CB0E3800930E37005CD6
:101A30000E3500270E3400F30D3200C10D31009039
:101A40000D3000600D2E00320D2D00050D2C00D93B
:101A50000C2B00AE0C2900850C29005C0C270035EE
:101A60000C27000E0C2600E80B2400C40B2400A059
:101A70000B23007D0B23005A0B2100390B2100188A
:101A80000B2000F80A1F00D90A1E00BB0A1E009D89
:101A90000A1D00800A1D00630A1C00470A1B002C57
:101AA0000A1B00110A1A00F7091A00DD091900C4FF
:101AB000091900AB091900920917007B0918006386
:101AC0000917004C09160036091600200916000AED
:101AD000091500F5081500E0081400CC081400B83A
:101AE000081400A4081400900813007D0812006B6D
:101AF0000813005808120046081200340811002389
:101B00000811001208110001081100F0071000E090
:101B1000071000D0071000C0071000B0070F00A189
:101B200007100091070E0083070F0074070F006570
:101B3000070E0057070E0049070E003B070D002E49
:101B4000070E0020070D0013070D0006070D00F912
:101B5000060C00ED060D00E0060C00D4060C00C8D3
:101B6000060C00BC060C00B0060C00A4060B009985
:101B7000060C008D060B0082060B0077060B006C2E
:101B8000060B0061060A0057060B004C060A0042CD
:101B9000060A0038060A002E060A0024060A001A61
:101BA000060A001006090007060A00FD050900F4F0
:101BB000050900EB050900E2050900D9050900D077
:101BC000050900C7050900BE050900B5050800ADF7
:101BD000050800A50509009C050800940508008C6F
:101BE000050800840508007C050800740508006CE1
:101BF000050700650508005D050700560508004E4D
:101C000005070047050700400508003805070031B3
:101C10000507002A050700230507001C0506001616
:101C20000507000F0507000805060002050700FB71
:101C3000040600F5040700EE040600E8040600E2CE
:101C4000040700DB040600D5040600CF040600C923
:101C5000040600C3040600BD040600B7040600B174
:101C6000040500AC040600A6040600A00405009BC1
:101C700004060095040500900406008A040500850A
:101C8000040500800406007A040500750405007050
:101C90000405006B04050066040500610405005C92
:101CA00004050057040500520405004D04050048D2
:101CB000040500430405003E0404003A0405003511
:101CC000040500300404002C04050027040400234C
:101CD0000405001E0404001A040400160405001183
:101CE0000404000D040400090405000404040000B9
:101CF000040400FC030400F8030400F4030400F0EF
:101D0000030400EC030400E8030400E4030400E01F
:101D1000030400DC030400D8030400D4030400D04F
:101D2000030400CC030400C8030300C5030300241C
:101D3000F404D9201BC40C5C0E9804C4095F02652E
:101D4000077101F405F900FB04B30048048700C1E2
:101D50000369005803550003034500BE023A00849E
:101D600002310053022A002902250004022000E467
:101D7000011C00C8011900AF01170098011400846C
:101D8000011300710110006101100051010E0043A8
:101D9000010D0036010B002B010B0020010B00157B
:101DA0000109000C01090003010800FB000800F311
:101DB000000800EB000700E4000600DE000600D883
:101DC000000600D2000600CC000500C7000500C2D6
:101DD000000500BD000400B9000400B5000400B116
:101DE000000400AD000400A9000400A5000300A247
:101DF0000003009F0004009B00030098000300956F
:101E000000020093000300900003008D0002008B8D
:101E100000030088000200860002008400030081A5
:101E20000002007F0002007D0002007B00020079BA
:101E300000020077000100760002007400020072C8
:101E4000000100710002006F0002006D0001006CD3
:101E50000002006A000100690002006700010066DC
:101E600000010065000100640002006200010061E1
:101E7000000100600001005F0002005D0001005CE5
:101E80000001005B0001005A0001005900010058E8
:101E900000010057000100560001005500010054E8
:101EA00000010053000000530001005200010051E6
:101EB000000100500001004F0001004E0000004EE4
:101EC0000001004D0001004C0001004B0000004BE0
:101ED0000001004A000100490001004800000048DC
:101EE00000010047000100460000004600010045D7
:101EF00000000045000100440001004300000043D1
:101F000000010042000000420001004100000041C9
:101F1000000100400001003F0000003F0001003EC2
:101F20000000003E0001003D0000003D0001003CBB
:101F30000000003C0000003C0001003B0000003BB2
:101F40000001003A0000003A0001003900000039A9
:101F500000010038000000380000003800010037A0
:101F60000000003700010036000000360000003697
:101F7000000100350000003500000035000100348C
:101F80000000003400000034000100330000003382
:101F90000000003300010032000000320000003277
:101FA000000100310000003100000031000100306C
:101FB00000000030000000300001002F0000002F62
:101FC0000000002F0000002F0001002E0000002E56
:101FD0000000002E0001002D0000002D0000002D4B
:101FE0000000002D0001002C0000002C0000002C3F
:101FF0000000002C0001002B0000002B0000002B33
:102000000000002B0001002A0000002A0000002A26
:102010000000002A0001002900000029000000291A
:10202000000000290000002900010028000000280D
:102030000000002800000028000000280001002700
:1020400000000027000000270000002700000027F4
:1020500000010026000000260000002600000026E7
:1020600000000026000100250000002500000025DA
:1020700000000025000000250000002500010024CC
:1020800000000024000000240000002400000024C0
:1020900000010023000000230000002300000023B3
:1020A00000000023000000230000002300010022A4
:1020B0000000002200000022000000220000002298
:1020C000000000220001002100000021000000218A
:1020D000000000210000002100000021000000217C
:1020E000000100200000002000000020000000206F
:1020F0000000002000000020000000200000002060
:102100000001001F0000001F0000001F0000001F52
:102110000000001F0000001F0000001F0001001E43
:102120000000001E0000001E0000001E000000391C
:102130003000003325000087190000B00F0000DBDD
:10214000080000BD040000740200003F01000042CE
:102150003A0020436F756E7420413A004500626575
:1021600064002C2073797374656D2073746F7070C4
:10217000656421204865617465725F49443A2000B6
:1021800048656174696E67204661696C65640048E2
:10219000656174696E67206661696C656400100032
:1021A000600350012C0190012201D001180110029E
:1021B0000E0170020401E002FA006003F000000466
:1021C000E600B004DC00A005D200B006C80000089C
:1021D000BE00A009B400800BAA00D00DA000901092
:1021E0009600C0138C0070178200901B780010209E
:1021F0006E00C0246400E02D500080353C00A03A01
:102200002800A03D1400003F0000A03FECFF4572F5
:10221000723A204D415854454D50004D4158544557
:102220004D5020747269676765726564004572720B
:102230003A204D494E54454D50004D494E54454D60
:10224000502074726967676572656400202F0020F2
:1022500040002042403A0020403A00496E76616CCE
:1022600069642065787472756465720A00416374EC
:102270006976652045787472756465723A2000103D
:1022800000C90210012C014001220170011801B0A7
:10229000010E01F00104015002FA00B002F000301A
:1022A00003E600D003DC009004D2007005C800A053
:1022B00006BE000008B400B009AA00D00BA0006060
:1022C0000E960060118C000015820020197800C065
:1022D0001D6E00A0226400B0275A00902C50000010
:1022E000314600E0343C0010383200903A2800605B
:1022F0003C1E00A03D1400803E0A00203F0000204C
:1023000020506C616E6E65724275666665724279C8
:102310007465733A20002046726565204D656D6FC7
:1023200072793A200020436F6D70696C65643A20C1
:102330004F637420203320323032320A00204C6147
:10234000737420557064617465643A20323032329F
:102350002D30332D3134207C20417574686F723AF2
:102360002028467261636B74616C20576F726B73C7
:102370002C2064656661756C7420636F6E66696796
:10238000290A004D61726C696E2062756766697812
:102390002D322E302E780A0020536F6674776172CA
:1023A000652052657365740A002057617463686420
:1023B0006F672052657365740A002042726F776EF2
:1023C000206F75742052657365740A002045787417
:1023D00065726E616C2052657365740A00506F7788
:1023E000657255700A0073746172740A0020503A65
:1023F00000205A3A0020593A0020583A00656E648D
:1024000073746F7073206869743A200000002100B3
:10241000240027002A002D003000330001010000B5
:10242000040107010A0100000A0B02090C0D0E0845
:10243000070304010000000000000000000000008D
:10244000000000000000000000000000000000008C
:102450000000121110000000000000000000000049
:10246000000000000000000000000000000020004C
:102470002300260029002C002F003200000100005C
:1024800003010601090100002200250028002B009D
:102490002E003100340002010000050108010B018B
:1024A00005050505070508080808020202020A0AD0
:1024B00008080404040401010101010101010303EE
:1024C000030303030303040707070C0C0C0C0C0C99
:1024D0000C0C0202020206060606060606060B0B96
:1024E0000B0B0B0B0B0B01021020200808102040D7
:1024F00010204080020102010804020101020408C8
:102500001020408080402010080402018004020155
:10251000804020100804020108040201010204089E
:10252000102040800102040810204080486F6D692F
:102530006E67204661696C656400FF010150726F2F
:1025400062696E67204661696C65640A00205A3AC8
:10255000200020593A200042656420583A2000307B
:102560007800220A00556E6B6E6F776E20636F6D78
:102570006D616E643A202200204500205A002059E7
:102580000020204D3932205800537465707320703C
:10259000657220756E6974004572726F7220777271
:1025A0006974696E6720746F20454550524F4D2104
:1025B0000A00544845524D414C2052554E41574116
:1025C0005900546865726D616C2052756E61776157
:1025D0007900486F6D652025732573257320466942
:1025E0007273740020453A00205A3A0020593A008C
:1025F000583A006F6B0A00526573656E643A2000AA
:102600005072696E7465722068616C7465642E2006
:102610006B696C6C28292063616C6C6564210A000D
:1026200037B411241FBECFEFD1E2DEBFCDBF00E033
:102630000CBF84B780931F1114BE0FB6F894A895F1
:1026400080916000886180936000109260000FBEEE
:1026500013E0A0E0B2E0E2EFF2E901E00BBF02C05C
:1026600007900D92AC3DB107D9F721E1ACEDB3E095
:1026700001C01D92AF31B207E1F713E1C1E1D3E12F
:1026800000E006C021970109802FFE010E942FC69D
:10269000C031D10780E00807A9F70E9439B60C9431
:1026A00077C90C940000EF92FF920F931F93E09272
:1026B000E903F092EA030093EB031093EC036093B9
:1026C000ED037093EE038093EF039FEFFF27621BF0
:1026D000730B840B30F4809570956195790B890BA1
:1026E00099279093E803A6E06A9F0092DC03512D9E
:1026F000EE277A9F500DE11D8A9FE00D5093DD0378
:10270000E093DE03AFE06A9F0092E003512DEE27D5
:102710007A9F500DE11D8A9FE00D5093E103E093F5
:10272000E203AAE06A9F0092E403512DEE277A9F0C
:10273000500DE11D8A9FE00D5093E503E093E60301
:102740001F910F91FF90EF90089593E0980F21E073
:1027500030E002C0220F331F9A95E2F720953095A2
:102760009091210B29232093210B882321F0813084
:1027700021F081E00895129AFCCF479AFACF21E028
:1027800030E0082E02C0220F331F0A94E2F7209592
:1027900030959091210B29232093210B813051F00A
:1027A000823069F05F9A8091420D8E7F8093420D56
:1027B00081E008958A9A8091420D8D7FF7CF8091B4
:1027C000080180958170809306018091420D8B7F76
:1027D000EDCF9F92AF92BF92CF92DF92EF92FF9296
:1027E0000F931F93CF93DF9300D01F921F92CDB70B
:1027F000DEB7EFE5F5E10027BB27462F572FA82FBF
:10280000AA2341F4A52F542FB85FAA2319F4A52FAA
:102810005527B85FA03138F45295A295452F4F70D7
:10282000507FA42BBC5FA03428F4550FAA1F550F6E
:10283000AA1FBE5FA03818F4550FAA1FB395550FF5
:10284000AA1FEA0FF01F449151E0AA27B85079F16E
:10285000C0F0B0FF02C0440F551FB1FF04C0440FC9
:10286000551F440F551FB2FF06C052954295142FB5
:102870001F70407F512BB3FF1AC0A52F542F442740
:1028800016C0B195B0FF02C055954795B1FF04C081
:102890005595479555954795B2FF05C05295407F90
:1028A0004295452B5F70B3FF02C0452F5527DD24AD
:1028B000CC24BB24B2E0649FD018C108B00AB00B8E
:1028C000749FC018B108B00B849FB018B109659F00
:1028D000C018B108B00B759FB018B109859FB01929
:1028E0006A9FB018B1097A9FB0194D9DA12C992407
:1028F0003327992722275D9DA00C911C301F901F24
:10290000201FAD9D900C311D901F201F4C9DA00CD1
:10291000911C301F901F201F5C9D900C311D901F3B
:10292000201FAC9D300D911D201F4B9D900C311D23
:10293000901F201F5B9D300D911D201FAB9D900DA2
:10294000211D4B9F300D911D201F5B9F900D211D60
:10295000AB9F200DB1E0BB24CC24DD24639FD018B5
:10296000C108B00AB00B739FC018B108B00B839FA9
:10297000B018B109699FC018B108B00B799FB018A1
:10298000B109899FB019629FB018B109729FB0193F
:10299000D61AC70AB80A20F0B1E03B0F901F201FDB
:1029A0001124792F632F90E0822F0F900F900F90BA
:1029B0000F900F90DF91CF911F910F91FF90EF90AB
:1029C000DF90CF90BF90AF909F900895AF92BF924D
:1029D000CF92DF92EF92FF920F931F93CF93DF93EB
:1029E000C6E4DDE00AEA14E086E5A82E8DE0B82E04
:1029F000C12CD12C7601C3946991799189919991D7
:102A00000E94CFC1288939894A895B890E9430C2D6
:102A10000E94C9C7F80161937193819391938F01CB
:102A2000C616D706E806F90610F46B017C01AC1651
:102A3000BD0611F76FEF7FEFCB01A70196010E9452
:102A4000A5C52093BA043093BB044093BC045093B3
:102A5000BD04DF91CF911F910F91FF90EF90DF9018
:102A6000CF90BF90AF9008957F928F929F92AF9238
:102A7000BF92CF92DF92EF92FF920F931F93CF936B
:102A8000DF937090630AC2E9D4E096E2C92E92E027
:102A9000D92E2AE2E22E22E0F22E0BE51AE0772070
:102AA00009F45EC0F80180809180A280B38020E0AC
:102AB00030E0A901C501B4010E94CBC1882309F40B
:102AC0004FC020E030E040E05FE3C501B4010E9468
:102AD00030C29B01AC010E9430C22BED3FE049E4C3
:102AE00050E40E9430C29B01AC0160E070E080E8DD
:102AF0009FE30E945CC74B015C0189929992A99265
:102B0000B992F601619171916F01072E000C880B4B
:102B1000990B0E94D1C12AE037ED43E25CE30E94A9
:102B200030C2A50194010E9430C2F70161937193F4
:102B3000819391937F010C5F1F4FF4E0CA39DF0747
:102B400009F0ADCFDF91CF911F910F91FF90EF90E2
:102B5000DF90CF90BF90AF909F908F907F9008951F
:102B6000812C912C80E8A82E8FE3B82EC6CF8091BF
:102B7000101090911110891B8F7019F490E080E073
:102B8000089590910D10992351F0833030F48FEF18
:102B9000890F19F080930D10F1CF10920D108091D4
:102BA000111028E5829FC001112481539B4FFC0125
:102BB000208120FDE3CF209111102F5F2F702093F3
:102BC0000E103091111020910F10321304C020917B
:102BD0000E1020930F100895FC017081472F50E0D4
:102BE000062E02C0559547950A94E2F740FF14C09F
:102BF0004091750B50E0062E02C0559547950A94FA
:102C0000E2F740FF09C021E030E001C0220F6A95E1
:102C1000EAF72095272320830895CF93DF9324E0BC
:102C2000829FC0011124EC01C057D24FFC01E7552F
:102C3000F44F8A579B4FDC012D913D914D915C9152
:102C400060817181828193810E9480C668837983CB
:102C50008A839B83DF91CF91089580918204909124
:102C60008304A0918404B0918504809354029093CE
:102C70005502A0935602B093570280918004909120
:102C80008104909325028093240208958091540238
:102C900090915502A0915602B09157028093820400
:102CA00090938304A0938404B093850480912402BC
:102CB00090912502909381048093800484E690E0B3
:102CC00090932502809324020895CF93DF939091EF
:102CD000730491111BC0C0912202D091230221974D
:102CE00097E1899FF0011124E95BF44F20E030E087
:102CF00040E05FE364817581868197810E9480C690
:102D00000E94C4C721E06C177D070CF020E0822FE1
:102D1000DF91CF91089590E080E0089520913C04E8
:102D2000833021F425FD0CC024FD0CC030E0A90146
:102D300002C0559547958A95E2F7CA0181700895BA
:102D400081E0089580E008958091580484FD0BC0CF
:102D500080915A0487FD07C090915B04937081E0D5
:102D600019F480E0089581E008952FEB280F2A31AF
:102D700008F047C0E22FF0E0809158049091590488
:102D8000A0915A04B0915B0404C0B695A79597959D
:102D900087952A95D2F780FD02C081700895E25C84
:102DA000FB4FE081EE2341F18091440D9091450D60
:102DB000E80FF92FF11D808190ED980F9A3030F0D7
:102DC0008E3251F4818180538A3098F4F093390423
:102DD000E093380481E008958D3211F08B3249F48C
:102DE000818190ED980F9A3088F38E3211F48281B0
:102DF000EACFF0E0E0E0EACF109239041092380414
:102E0000E9CF80E00895B1DF882341F081E020918F
:102E1000380430913904232B09F480E00895FC0133
:102E2000DB0112962D913D914C91149722833383AF
:102E3000448315968C911597858316962D913D9117
:102E40004C91189726833783408719964D915D9151
:102E50006D917C911C9741875287638774871D967B
:102E60004D915D916D917C9150974587568767870D
:102E7000708B87EB93E09183808351968D919C9129
:102E80005297928B818B53964D915D916D917C9170
:102E90005697438B548B658B768B57968C915797AF
:102EA000878B58968D919C915997918F808F5A96C8
:102EB0008D919C915B97938F828F5C968D919C9165
:102EC0005D97958F848F5E964D915D916D917C910C
:102ED0009197468F578F60A371A392964D915D9104
:102EE0006D917C91959742A353A364A375A3969685
:102EF0004D915D916D917C91999746A357A360A7E1
:102F000071A79A968D919C919B9793A782A79C9667
:102F10008D919C919D9795A784A79E968D919C914C
:102F20009F9797A786A7D0968D919C91D19791ABAB
:102F300080ABD2968C9182AB08958F929F92AF9284
:102F4000BF92CF92DF92EF92FF92C090AC0AD090E6
:102F5000AD0AE090AE0AF090AF0A20E030E0A9019F
:102F6000C701B6010E94CBC18823E1F1A7019601F8
:102F700060E070E080E89FE30E945CC76B017C0129
:102F80008090B00A9090B10AA090B20AB090B30AB3
:102F900020E030E0A901C501B4010E94CBC1882323
:102FA00029F1A501940160E070E080E89FE30E94B0
:102FB0005CC7C0922704D0922804E0922904F092C2
:102FC0002A0460932B0470932C0480932D04909317
:102FD0002E04FF90EF90DF90CF90BF90AF909F9026
:102FE0008F900895C12CD12C7601CACF60E070E09B
:102FF000CB01DFCF2F923F924F925F926F927F92E1
:103000008F929F92AF92BF92CF92DF92EF92FF92F8
:103010000F931F93CF93DF93CDB7DEB72E970FB6E5
:10302000F894DEBF0FBECDBF8A83162F4983822E50
:10303000262F30E03A872987E4E08E9FC0011124D3
:103040009C878B87FC01E20FF31FEE0FFF1FEE0F33
:10305000FF1FEC59F54F60817181828193819B0143
:10306000AC010E942CC9882309F42EC19A81E98100
:103070009E0F882D810F24E0929FF0011124A985D5
:10308000BA85AE0FBF1FAA0FBB1FAA0FBB1FAC593B
:10309000B54FAC901196BC9011971296CC901297A8
:1030A0001396DC903981930F24E0929FA0011124A4
:1030B000A985BA85A40FB51FAA0FBB1FAA0FBB1FF6
:1030C000AC59B54FEC901196FC90119712960C915B
:1030D000129713961C91282F30E0AB85BC85A20F68
:1030E000B31FAA0FBB1FAA0FBB1FAC59B54F9C90B3
:1030F00011967C90119712966C90129713965C9093
:10310000880D90E0AB85BC85A80FB91FAA0FBB1F27
:10311000AA0FBB1FAC59B54F8C9011964C901197CC
:1031200012963C90129713962C90E20FF31FEE0F1D
:10313000FF1FEE0FFF1FEC59F54F308139832181BE
:103140002A8332813B8323812C83FA01E80FF91F04
:10315000EE0FFF1FEE0FFF1FEC59F54F30813D833F
:1031600081818E8392819F83238128879701A80183
:10317000B701C8010E942CC9882321F0E12CF12C51
:1031800000E010E09501A601B501C6010E942CC91E
:10319000882311F057016801282D342D432D522D1D
:1031A000682D742D832D922D0E942CC9882321F027
:1031B000812C412C312C212C292D372D462D552D9C
:1031C000692D772D862D952D0E942CC9882321F0FD
:1031D000982C742C632C522C2D813E814F81588564
:1031E0006D817E818F8198850E942CC9882321F072
:1031F0001D821E821F82188629813A814B815C8143
:1032000069817A818B819C810E942CC9882341F03D
:103210003D8139838E818A839F819B83E885EC83FE
:103220002B853C8589859A85280F391F220F331FEE
:10323000220F331F2C59354F3A8729879501A60154
:10324000B501C6010E9480C69701A8010E947FC6F1
:103250006B017C01292D372D462D552D692D772D9C
:10326000862D952D0E9480C6282D342D432D522D5C
:103270000E947FC69B01AC01C701B6010E9480C6B7
:103280006B017C0129813A814B815C8169817A8162
:103290008B819C810E9480C62D813E814F81588503
:1032A0000E947FC69B01AC01C701B6010E9480C687
:1032B00020E030E040E450E40E945CC7E985FA85F4
:1032C00060837183828393832E960FB6F894DEBF5A
:1032D0000FBECDBFDF91CF911F910F91FF90EF9067
:1032E000DF90CF90BF90AF909F908F907F906F9026
:1032F0005F904F903F902F900895882319F0813070
:1033000021F0089580E00C9451B347988091210BEF
:1033100080618093210B08954091B80A21E04227F3
:103320006CE070E00C948A9A4091B80A21E0422740
:1033300061E070E00C948A9A4091B80A21E042273B
:1033400061E070E00C948A9A4091B80A21E042272B
:1033500068E070E00C948A9A4091B80A21E0422714
:103360006CE070E00C948A9A4091B80A21E0422700
:1033700064E070E00C948A9A41E061E070E00C94A3
:103380008A9A4091B80A21E042270C948A9ABC019B
:1033900090E080E00C94D5986CE070E00C94D7A09D
:1033A00061E070E00C94D7A061E070E00C94D7A0CD
:1033B0006CE070E00C94D7A064E070E00C94D7A0AF
:1033C0000F931F93CF93DF930AE51DE0CFEBD4E07B
:1033D000F80121913191419151918F0160E070E0AC
:1033E00080E89FE30E945CC76993799389939993DE
:1033F000F4E0CF3CDF0761F70E94669ADF91CF913E
:103400001F910F91E3CA2F923F924F925F926F925A
:103410007F928F929F92AF92BF92CF92DF92EF9264
:10342000FF920F931F93CF93DF93CDB7DEB76C97C7
:103430000FB6F894DEBF0FBECDBF8C015B015A837F
:103440004983FC01E95BFF4F208131814281538137
:1034500029873A874B875C87CA01B9010E94CFC18F
:103460006B017C01D5012D913D914D915C910E94A4
:1034700030C20E9446C72B013C01E981FA812081BC
:10348000318142815381C701B6010E9430C20E943E
:1034900046C74B015C01C301B2010E94C9C7698BD9
:1034A0007A8B8B8B9C8B683771058105910540F475
:1034B00028E730E040E050E0298B3A8B4B8B5C8B67
:1034C000C501B4010E94C9C76D877E878F87988B1D
:1034D000683771058105910540F448E750E060E0E8
:1034E00070E04D875E876F87788BF801ED5AFF4F4C
:1034F0004080518062807380C301B2010E94D1C1BB
:1035000069837A838B839C8369897A898B899C8977
:103510000E94CFC16D8B7E8B8F8B988F20E030E027
:10352000A90169817A818B819C810E94CBC188230A
:1035300009F4E1C1A7019601C701B6010E9430C29A
:103540004B015C012D893E894F89588DCA01B90113
:103550000E9430C29B01AC01C501B4010E947FC62C
:103560004B015C0129813A814B815C81CA01B9011F
:103570000E9480C69B01AC01C501B4010E945CC7DA
:103580000E9446C70E94C9C76D837E838F83988738
:1035900066277727CB0164197509860997090E9468
:1035A000D1C14B015C016D857E858F8598890E9414
:1035B000CFC12B013C0120E030E0A901C501B401DD
:1035C0000E94CBC1882309F49AC1A3019201C301CF
:1035D000B2010E9430C2698F7A8F8B8F9C8FA701B6
:1035E0009601C701B6010E9430C29B01AC01698DF2
:1035F0007A8D8B8D9C8D0E947FC66B017C01A5010D
:103600009401C501B4010E9480C69B01AC01C701B1
:10361000B6010E945CC70E94F5C7D80195968D90AF
:103620009D90AD90BC909897750164012D813E816D
:103630004F815885C21AD30AE40AF50A0E94C9C705
:10364000C61AD70AE80AF90AF7FE8EC02D893E8904
:103650004F89588DCA01B9010E9430C26B017C01AB
:1036600029813A814B815C81CA01B9010E9480C6DF
:1036700069877A878B879C8720E030E0A901698180
:103680007A818B819C810E94CBC1882309F43BC144
:10369000C501B4010E94CFC129853A854B855C855F
:1036A0000E9430C2A70196010E947FC66D837E836F
:1036B0008F839887A3019201C301B2010E9430C297
:1036C0009B01AC016D817E818F8198850E9480C6AF
:1036D0002B013C0120E030E040E850E469817A8130
:1036E0008B819C810E9430C29B01AC01C301B2015D
:1036F0000E945CC70E9446C72B013C0120E030E0DD
:10370000A9010E94A6C818161CF0412C512C3201A8
:10371000C301B2010E94C9C76D837E838F839887DE
:1037200086169706A806B90620F48D829E82AF827F
:10373000B8866D817E818F8198850E94CFC1298551
:103740003A854B855C850E9430C2A70196010E9494
:1037500080C60E94EBC80E94C9C769877A878B8799
:103760009C87C12CD12C760169857A858B859C85B7
:1037700029893A894B895C89621B730B840B950BF1
:103780000E94CFC129813A814B815C810E945CC734
:1037900020E034E244EF59E40E9430C20E94C9C7DD
:1037A0004B015C0169857A858B859C852D853E85DD
:1037B0004F855889621B730B840B950B0E94CFC1F8
:1037C00029813A814B815C810E945CC720E034E210
:1037D00044EF59E40E9430C20E94C9C72B013C014A
:1037E0003FE683169104A104B10408F090C0F401EF
:1037F000EE0FFF1FEE0FFF1FED55FC4E85919591CB
:10380000A591B4918983292E3A2EBD8B4FE644169B
:1038100051046104710408F083C0F201EE0FFF1F30
:10382000EE0FFF1FED55FC4E45915591659174913A
:103830009A01CB014D815E816F817885D8019A967E
:103840004D935D936D937C939D974C0D5D1D6E1D07
:103850007F1DF80146A757A760AB71ABE55BFF4F33
:1038600049895A896B897C89408351836283738338
:10387000D6968D929D92AD92BC92D997F80142AEA8
:1038800053AE64AE75AEFE9649814083218232828A
:103890005D89538334962083318382839383698542
:1038A0007A858B859C85D2966D937D938D939C9321
:1038B000D5973D962D853E854F8558892083318348
:1038C000428353836C960FB6F894DEBF0FBECDBF14
:1038D000DF91CF911F910F91FF90EF90DF90CF90EC
:1038E000BF90AF909F908F907F906F905F904F9020
:1038F0003F902F90089560E070E0CB0141CE60E0F2
:1039000070E0CB0188CE60E070E0CB01F3CEC50162
:10391000B4010E94E9136983272E382E9D8B76CF40
:10392000C301B2010E94E9139B0184CF4F925F92C1
:103930006F927F928F929F92AF92BF92CF92DF92BF
:10394000EF92FF920F931F93CF93DF93EC0120919F
:10395000A40A3091A50A4091A60A5091A70A68814D
:1039600079818A819B810E947FC66B017C012091B5
:10397000A80A3091A90A4091AA0A5091AB0A6C8119
:103980007D818E819F810E947FC64B015C01A701D2
:10399000960160910302709104028091050290915A
:1039A00006020E94CBC1882309F450C0C0920302D2
:1039B000D0920402E0920502F092060220912704C0
:1039C000309128044091290450912A04C701B6017E
:1039D0000E9430C22B013C010E94F5C76B017C01A3
:1039E00020E030E0A9010E94CBC187FD70C020E03B
:1039F00030E040E050E4C701B6010E94A6C81816A6
:103A00002CF4C12CD12CE12CA0E4FA2EA7019601B4
:103A1000C301B2010E947FC660931F04709320040B
:103A20008093210490932204C701B6010E94C4C769
:103A300060931D04062E000C770B6F5F7F4F633081
:103A4000710514F063E070E060931B04D0910102F3
:103A5000C0911D04A50194016091070270910802B4
:103A60008091090290910A020E94CBC1811133C05A
:103A7000DC1381C0209103043091040440910504BB
:103A80005091060460911F047091200480912104DC
:103A9000909122040E9430C22091070430910804C2
:103AA0004091090450910A040E9480C6DF91CF9191
:103AB0001F910F91FF90EF90DF90CF90BF90AF904C
:103AC0009F908F907F906F905F904F900895C12C42
:103AD000D12C76019BCF8092070290920802A0928F
:103AE0000902B0920A0220912B0430912C044091DB
:103AF0002D0450912E04C501B4010E9430C24B0127
:103B00005C010E94F5C76B017C0120E030E0A90157
:103B10000E94CBC187FDF4C020E030E040E050E4DB
:103B2000C701B6010E94A6C818162CF4C12CD12CCE
:103B3000E12CF0E4FF2EA7019601C501B4010E941B
:103B40007FC660932304709324048093250490938C
:103B50002604C701B6010E94C4C760931E04062E46
:103B6000000C770B6F5F7F4F6330710514F063E0DB
:103B700070E060931C0400911E04DC1305C080916A
:103B80000202801709F471C080911D0490911E04F7
:103B90009093020280930102002E000C110B24E08E
:103BA000C202C0011124FC01E00FF11FEE0FFF1F44
:103BB000EE0FFF1FEC59F54F208131814281538177
:103BC00020931704309318044093190450931A0457
:103BD000C0911C040C2E000CDD0BFC01EC0FFD1F32
:103BE000EE0FFF1FEE0FFF1FEC59F54F6081718143
:103BF000828193810E947FC66093130470931404A2
:103C0000809315049093160480911B0424E0820293
:103C1000C0011124FC01E00FF11FEE0FFF1FEE0F9A
:103C2000FF1FEC59F54F2081318142815381209350
:103C30000F04309310044093110450931204C80FE2
:103C4000D91FCC0FDD1FCC0FDD1FCC59D54F68819C
:103C500079818A819B810E947FC660930B04709357
:103C60000C0480930D0490930E0480902304909094
:103C70002404A0902504B0902604209113043091D0
:103C800014044091150450911604C501B4010E941A
:103C900030C22091170430911804409119045091BA
:103CA0001A040E9480C66B017C01C0920704D09266
:103CB0000804E0920904F0920A0420910B04309168
:103CC0000C0440910D0450910E04C501B4010E94F2
:103CD00030C220910F043091100440911104509192
:103CE00012040E9480C6A70196010E947FC66093BD
:103CF0000304709304048093050490930604BACEE1
:103D0000C12CD12C760117CFCF93DF932091760B66
:103D1000222371F0EC010ADE9B01AC0168857985F4
:103D20008A859B850E947FC6688779878A879B875B
:103D3000DF91CF9108950F931F938091710481308B
:103D400019F50E9496A10091690410916A042091CE
:103D50006B0430916C04601B710B820B930B28EE8B
:103D600033E040E050E00E94A5C560916504709189
:103D700066048091670490916804620F731F841F2A
:103D8000951F1F910F91089560916D0470916E04BD
:103D900080916F0490917004D6CF809138049091F7
:103DA0003904009731F04AE050E070E060E00C9494
:103DB0000BBF60E070E0CB010895EFDF97FD0AC014
:103DC000ECDF6F3F71058105910509F02CF4E5DF0B
:103DD000862F089580E008958FEF0895CF93C62F22
:103DE00012D8882311F0CF91E8CF8C2FCF9108956E
:103DF0008091380490913904892B39F0DEDF91E00D
:103E0000811101C090E0892F089591E0FCCFCF93FC
:103E1000DF93C82FD62F0E940317882319F0DF9154
:103E2000CF91E6CF8C2F0E94B516811101C08D2F46
:103E3000DF91CF910895B1DFCB010895CF93DF9348
:103E4000EB010E940317882319F0DF91CF91F3CF84
:103E5000CE01DF91CF9108950F931F93CF9380915F
:103E60003804909139040097E9F0FC018F01C19169
:103E70002C2F2F7D81F0C53411F0C536B9F7F8012C
:103E8000108270E060E00E94B6BDF801C083CF915F
:103E90001F910F91089570E060E0CF911F910F91F5
:103EA0000C94B6BD60E070E0CB01F1CFCF92DF9211
:103EB000EF92FF926A017B010E940317882329F089
:103EC000FF90EF90DF90CF90C7CFC701B601FF9072
:103ED000EF90DF90CF9008958F929F92AF92BF9214
:103EE000CF92DF92EF92FF920F931F93CF9383E9CC
:103EF000E82E8BE0F82E0EE612E090E9C92E9DE048
:103F0000D92EC0E088E58C0F0E940317882309F49E
:103F100077C0A2DF4B015C018C2F0E948E16882394
:103F200009F464C0F8012081318142815381C501C7
:103F3000B4010E9480C6F7016083718382839383FA
:103F4000CF5FF4E0EF0EF11C0C5F1F4F84E0C80E52
:103F5000D11CC330B9F685E40E940317882309F405
:103F60005AC07ADF6B017C0183E00E948E168823A1
:103F700071F020917A0230917B0240917C02509145
:103F80007D02C701B6010E9480C66B017C01C09210
:103F90009F0BD092A00BE092A10BF092A20B40E0FD
:103FA00050E0BA0186E482DF20E030E0A9010E94FF
:103FB000A6C818167CF450DF20E030E040E752E459
:103FC0000E945CC76093540270935502809356021E
:103FD00090935702CF911F910F91FF90EF90DF9038
:103FE000CF90BF90AF909F908F900895F601208161
:103FF000318142815381C501B4010E947FC69BCFAC
:10400000F80180819181A281B381F701808391833E
:10401000A283B38395CF80917A0290917B02A09185
:104020007C02B0917D0280939F0B9093A00BA09394
:10403000A10BB093A20BB3CFCF92DF92EF92FF927E
:104040000F931F93CF93DF936B017A01EC01CC5058
:10405000DC4F28813CE0389F8001399F100D1124EE
:1040600027FF24C0FB011182108288818F5F888323
:1040700088819801280F311D87FD3A95C90120914B
:10408000FB0FF6012817190629F024F088818C30DF
:104090000CF43CC080819181049680349C4908F4E2
:1040A00075C0F60180819181049672C08881980163
:1040B000280F311D87FD3A95C9012091FB0F281764
:1040C000190699F294F28881A801480F511D87FDC5
:1040D0005A95FA01EE0FFF1FE40FF51FED54F04F54
:1040E000808187FFC2CF8881F801E80FF11D87FD2D
:1040F000FA95CF01EE0FFF1FE80FF91FED54F04FB7
:10410000808160E08F770E942E9FAFCF8081918168
:104110002881A801420F511D27FD5A959A01FA01E5
:10412000EE0FFF1FE20FF31FED54F04F218132819C
:10413000820F931FF7019183808388819801280F54
:10414000311D87FD3A95F901EE0FFF1FE20FF31FB6
:10415000ED54F04F808187FF20C08881080F111D2A
:1041600087FD1A95F801EE0FFF1FE00FF11FED54C8
:10417000F04F808161E08F77DF91CF911F910F9198
:10418000FF90EF90DF90CF900C942E9F80E49CE9FD
:10419000F701918380838FEF8883DF91CF911F9107
:1041A0000F91FF90EF90DF90CF9008950F930FB78E
:1041B0000F9300916E000F930D7F00936E0000919E
:1041C0006F000D7F00936F000F930BB70F930CB729
:1041D0000F921F922F933F934F935F936F937F9311
:1041E0008F939F93AF93BF93EF93FF93112440D48A
:1041F000FF91EF91BF91AF919F918F917F916F91BF
:104200005F914F913F912F911F900F900CBF0F9195
:104210000BBF0F910260F89400936F000F91009311
:104220006E000F910FBF0F91189500008091A60BA3
:1042300080FF27C0899A8FEF8093BA0A8091A60BDE
:1042400081FF22C08F9A8FEF8093BB0A8091A60BCB
:1042500082FF1DC080910B018095827080930901BF
:104260008FEF8093BC0A8091BE0A9091A60B93FFBA
:1042700017C0811113C016988FEF8093BD0A0000FC
:104280000895899881E0D8CF8F9881E0DDCF809123
:104290000B0182708093090181E0E3CF439AECCF58
:1042A000811103C0169A81E0E8CF4398FCCF80E0EB
:1042B0000E94A51381E00C94A51380E00E94BF1317
:1042C00081E00E94BF1382E00E94BF13F0CF8130D3
:1042D00079F0823079F05F9821E030E001C0220F60
:1042E0008A95EAF78091210B822B8093210B089508
:1042F0008A98F2CF90910801917090930601ECCFCB
:10430000CF93DF932091760B222371F0EC010EDB2B
:104310009B01AC01688579858A859B850E9480C652
:10432000688779878A879B87DF91CF9108959091DD
:104330006F0081E091FD02C080E0089590916F00D0
:104340009D7F90936F000895EFE6F0E0808182609A
:10435000808308958F929F92AF92BF92CF92DF9207
:10436000EF92FF920F931F93CF93DF93182F84E068
:10437000189FE0011124123008F046C0D8DF082F42
:10438000D6DF8090110B9090120BA090130BB09081
:10439000140B8111D9DFCBDFC090150BD090160B19
:1043A000E090170BF090180B8111CEDF0111CCDFDC
:1043B000113019F5C501B4016C197D098E099F09E9
:1043C0000E94D1C120E030E040E05FE30E9430C2B3
:1043D000C154DB4F288139814A815B810E9430C200
:1043E000DF91CF911F910F91FF90EF90DF90CF90D1
:1043F000BF90AF909F908F900895C701B601680D50
:10440000791D8A1D9B1DDCCF92DFFE01EF5EF44F0C
:10441000C080D180E280F380811196DFC701B601B0
:104420000E94D1C1D5CFCF92DF92EF92FF92CF936E
:10443000DF93C82F7CDF94E0C99FE0011124FE01C7
:10444000EB5FF44FC080D180E280F38081117CDF8C
:10445000C154DB4FC701B6010E94D1C12881398107
:104460004A815B810E9430C2DF91CF91FF90EF9033
:10447000DF90CF900895CF93DF93CDB7DEB72C9721
:104480000FB6F894DEBF0FBECDBF0E94B0994FDFCC
:104490009CE0E1E1FBE0DE01119601900D929A951E
:1044A000E1F7811151DFCE0101960E945FB32C9696
:1044B0000FB6F894DEBF0FBECDBFDF91CF91089548
:1044C000CF93DF931F92CDB7DEB7898360E0CE0133
:1044D00001960E94EC1561E0CE0101960E94EC1558
:1044E00062E0CE0101960E94EC1589810F90DF9168
:1044F000CF9108958F929F92AF92BF92CF92DF9209
:10450000EF92FF92CF93DF9320913A02222309F496
:104510008EC0EC018091750BE82E80FF2CC080903E
:104520003C0290903D02A0903E02B0903F02288154
:1045300039814A815B81C501B4010E94A6C8181661
:1045400024F488829982AA82BB828090480290904B
:104550004902A0904A02B0904B02288139814A81D9
:104560005B81C501B4010E94CBC187FF04C0888272
:104570009982AA82BB82E1FE2CC08090400290907A
:104580004102A0904202B09043022C813D814E81B5
:104590005F81C501B4010E94A6C8181624F48C825C
:1045A0009D82AE82BF8280904C0290904D02A0907E
:1045B0004E02B0904F022C813D814E815F81C5013A
:1045C000B4010E94CBC187FF04C08C829D82AE8261
:1045D000BF82E2FE2CC0C0904402D0904502E09021
:1045E0004602F0904702288539854A855B85C701D8
:1045F000B6010E94A6C8181624F4C886D986EA8691
:10460000FB86C0905002D0905102E0905202F09090
:104610005302288539854A855B85C701B6010E940A
:10462000CBC187FF04C0C886D986EA86FB86DF91A6
:10463000CF91FF90EF90DF90CF90BF90AF909F9081
:104640008F900895CF92DF92EF92FF920F931F9376
:10465000CF93DF93E82FF0E0EF01CC0FDD1FCC0FFD
:10466000DD1F461739F0823009F049C0C12CD12C2A
:10467000760117C08230D1F3A091400D8A2F90E0CF
:10468000DC01AA0FBB1FA80FB91FAE0FBF1FAA0FD7
:10469000BB1FAA0FBB1FA558B44FCD90DD90ED9066
:1046A000FC908F01000F111F000F111FF801EC5E2D
:1046B000FC4E2591359145915491C65CDD4FC70163
:1046C000B6010E9480C66A837B838C839D83F80138
:1046D000E85FFC4E2591359145915491C701B60193
:1046E0000E9480C66E877F87888B998BDF91CF91E0
:1046F0001F910F91FF90EF90DF90CF90089550E0C1
:10470000DA01AA0FBB1FA40FB51FAE0FBF1FAA0F60
:10471000BB1FAA0FBB1FA558B44F862F90E0BC014A
:10472000660F771F680F791FE60FF71FEE0FFF1F49
:10473000EE0FFF1FE558F44F2081318142815381F4
:104740006D917D918D919C910E947FC66B017C0142
:10475000C65CDD4FAC019B016A817B818C819D81B0
:104760000E9480C66A837B838C839D83A701960108
:104770006E857F8588899989B3CF4F925F926F92BA
:104780007F928F929F92AF92BF92CF92DF92EF92E1
:10479000FF92CF9340906E0250906F026090700233
:1047A000709071028090720290907302A0907402D7
:1047B000B0907502C0907602D0907702E0907802B7
:1047C000F09079020E94E6140E943415C0E08C2F0C
:1047D0000E940D1640E060E08C2F34DFCF5FC330C5
:1047E000B1F70E949D170E94E019A3019201609108
:1047F0006E0270916F0280917002909171020E941E
:10480000CBC181111CC0A50194016091720270910D
:10481000730280917402909175020E94CBC1811144
:104820000EC020917602309177024091780250912B
:104830007902C701B6010E94CBC1882371F0CF91E4
:10484000FF90EF90DF90CF90BF90AF909F908F90B0
:104850007F906F905F904F900ECECF91FF90EF9032
:10486000DF90CF90BF90AF909F908F907F906F9090
:104870005F904F9008958F929F92AF92BF92CF9288
:10488000DF92EF92FF921F93CF93DF93CDB7DEB706
:1048900060970FB6F894DEBF0FBECDBF182F80E033
:1048A00059DD4B015C018092740490927504A092D2
:1048B0007604B092770481E04DDD6B017C01C092FB
:1048C0007804D0927904E0927A04F0927B0482E03A
:1048D00041DD60937C0470937D0480937E0490930B
:1048E0007F041D861E861F86188A89829A82AB8263
:1048F000BC82CD82DE82EF82F88669877A878B87D9
:104900009C8783E027DD6D877E878F87988BCE011C
:104910000196FAD91E3FD9F480E1FE013196AEE648
:10492000B2E001900D928A95E1F760960FB6F89487
:10493000DEBF0FBECDBFDF91CF911F91FF90EF90F3
:10494000DF90CF90BF90AF909F908F90089584E0BC
:10495000189FF0011124DF01A259BD4F81E090E0C2
:104960008C0F9D1FE80FF91F408151816281738177
:104970004D935D936D937C931397D7CF0C94669A68
:104980008091A50B811105C08091A70B882309F4A4
:104990006EC080917204659B5AC0816080937204DE
:1049A000909103018091720490FF53C082608093C4
:1049B000720480917204639B4EC08860809372047D
:1049C000809172044A9B49C08460809372048091F4
:1049D000F50A80FF10C08091A60B85FF0CC0809166
:1049E000720480FF08C08091410D81608093410D69
:1049F00080E00E9493B38091F50A81FF10C08091FE
:104A0000A60B86FD0CC08091720481FF08C08091C6
:104A1000410D82608093410D81E00E9493B38091AB
:104A2000F50A82FF24C08091A60B82FF18C08091F6
:104A3000A70B8823E1F08091720483FF18C0809156
:104A4000410D88608093410D82E00C9493B38E7F7A
:104A5000A5CF8D7FACCF877FB1CF8B7FB6CF809135
:104A6000720482FF04C08091410D8460EBCF0895F1
:104A70002F923F924F925F926F927F928F929F926E
:104A8000AF92BF92CF92DF92EF92FF920F931F935C
:104A9000CF93DF93CDB7DEB762970FB6F894DEBF42
:104AA0000FBECDBF8FEF9FEF90938900809388005A
:104AB0002AE0298B312C212C78948091FE0A909148
:104AC000FF0AA091000BB091010B892B8A2B8B2B35
:104AD00009F0D7C18091040B8823D1F08091020B9B
:104AE0009091030B1092040B892B91F01092030B01
:104AF0001092020B1092F50A9091101080911110F3
:104B0000981731F0809111108F5F8F708093111082
:104B10008091020B9091030B892B09F4B2C1409153
:104B2000FA0A5091FB0A6091FC0A7091FD0A80918B
:104B3000F60A9091F70AA091F80AB091F90A00914B
:104B4000EC0A10E030E020E0841B950BA60BB70BBD
:104B5000081719072A073B0710F4D901C8018A8BE7
:104B6000840F951FA61FB71F8093FA0A9093FB0A24
:104B7000A093FC0AB093FD0AE1E0C090C30AD09074
:104B8000C40AE090C50AF090C60A8091D30A9091B9
:104B9000D40AA091D50AB091D60AC80ED91EEA1E31
:104BA000FB1EC092D30AD092D40AE092D50AF092AA
:104BB000D60AF7FC33C04091BA0A042E000C550BFC
:104BC000660B770B8091110B9091120BA091130B38
:104BD000B091140B840F951FA61FB71F8093110B64
:104BE0009093120BA093130BB093140B8091BF0AF8
:104BF0009091C00AA091C10AB091C20AB701A60162
:104C0000481B590B6A0B7B0BDB01CA018093D30A4B
:104C10009093D40AA093D50AB093D60A0091C70AFC
:104C20001091C80A2091C90A3091CA0A8091D70A06
:104C30009091D80AA091D90AB091DA0A080F191FE9
:104C40002A1F3B1F0093D70A1093D80A2093D90A32
:104C50003093DA0A37FD33C04091BB0A042E000CB2
:104C6000550B660B770B8091150B9091160BA0914D
:104C7000170BB091180B840F951FA61FB71F8093B9
:104C8000150B9093160BA093170BB093180B8091F4
:104C9000BF0A9091C00AA091C10AB091C20A28012E
:104CA0003901481A590A6A0A7B0AD301C201809362
:104CB000D70A9093D80AA093D90AB093DA0A409100
:104CC000CB0A5091CC0A6091CD0A7091CE0A8091A6
:104CD000DB0A9091DC0AA091DD0AB091DE0A480F50
:104CE000591F6A1F7B1F4093DB0A5093DC0A6093B5
:104CF000DD0A7093DE0A77FD33C08090BC0A082C71
:104D0000000C9908AA08BB088091190B90911A0B06
:104D1000A0911B0BB0911C0B880D991DAA1DBB1DEA
:104D20008093190B90931A0BA0931B0BB0931C0B41
:104D30008091BF0A9091C00AA091C10AB091C20AA5
:104D40003A014B01681A790A8A0A9B0AD401C30105
:104D50008093DB0A9093DC0AA093DD0AB093DE0A0D
:104D60008090CF0A9090D00AA090D10AB090D20A39
:104D70008091DF0A9091E00AA091E10AB091E20AE5
:104D8000880D991DAA1DBB1D8093DF0A9093E00A30
:104D9000A093E10AB093E20AB7FD33C04090BD0A88
:104DA000042C000C55086608770880901D0B909025
:104DB0001E0BA0901F0BB090200B840C951CA61C02
:104DC000B71C80921D0B90921E0BA0921F0BB092ED
:104DD000200B8090BF0A9090C00AA090C10AB090AA
:104DE000C20A2C013D01481859086A087B08530182
:104DF00042018092DF0A9092E00AA092E10AB0920A
:104E0000E20AE11104C0E0918400F0918500F7FE10
:104E1000889A37FF8E9A77FD06C0E0910B01E095E6
:104E2000E870E0930901B7FD05C0E091BE0AE11109
:104E300099C0149AE0918400F0918500E09184007B
:104E4000F0918500F7FE889837FF8E9877FD05C0B2
:104E500020910B01287020930901B7FD05C08091B6
:104E6000BE0A811181C014985A88552021F0809182
:104E70008400909185002A8921502A8BE0E021113D
:104E80007CCE8091FE0A9091FF0AA091000BB09118
:104E9000010B892B8A2B8B2B09F0B3C6E091020BF7
:104EA000F091030B309709F420C78091FA0A909192
:104EB000FB0AA091FC0AB091FD0A4091F60A5091BC
:104EC000F70A6091F80A7091F90A84179507A60706
:104ED000B70708F44BC01092030B1092020B10920C
:104EE000F50A9091101080911110981709F4FDC6E1
:104EF000809111108F5F8F708093111000EDC02E84
:104F000007E0D02EE12CF12C8091020B9091030B45
:104F1000892B09F06EC60E94B7159093030B8093FE
:104F2000020B892B09F465C6E091020BF091030B8B
:104F3000808183FF00C5CF0145960E94DAB31092AD
:104F4000030B1092020B1092F50A909110108091B1
:104F50001110981701F3809111108F5F8F7080935B
:104F60001110D9CF419A66CF41987ECF4091F10A76
:104F70005091F20A6091F30A7091F40A48175907A8
:104F80006A077B0708F40AC24091ED0A5091EE0AC5
:104F90006091EF0A7091F00A86A997A9A0ADB1AD12
:104FA000481759076A077B0708F0D2C14115510518
:104FB0006105710509F068C08090ED039090EE03E3
:104FC000A090EF03B090F0038FE291E2A1E0FC012A
:104FD0000591159125913491081519052A053B0570
:104FE00068F4B694A79497948794AA0F04961BE448
:104FF000612E11E2712E6816790649F7A093EC0A2A
:1050000020E282169104A104B10428F4A0E28A2EC1
:10501000912CA12CB12C30E2831A9108A108B1087F
:10502000811488E09806A104B10408F496C1A4E0B4
:105030009A9EC0011124815D924EFC013296259109
:105040003491B82DEE27B39F8001B29F010D1E1F32
:1050500006940E1F1E1F112430E020E0FC01C590B5
:10506000D490F12CE12CC01AD10AE20AF30A4C0DBB
:105070005D1D6E1D7F1D4093ED0A5093EE0A6093F7
:10508000EF0A7093F00A40CF00E01981942F852E2B
:10509000862FBB81AC81FD81EE813F8128854A80CE
:1050A000E091E903E99FA12DFF273091EA03399FA1
:1050B000A00DF11D1090EB03199EF00DE89DA00DC1
:1050C000F11D389DF00DE89FF00D4A2EBF2F4A9E2E
:1050D000E12D332722274F9EE00D311D201FBA9F5F
:1050E000E00D311D201FBF9F300D211D432EB22F1B
:1050F0004A9E112D332722274F9E100D311D201F50
:10510000BA9F100D311D201FBF9F300D211D432E52
:10511000B22FEE279091ED038090EE038091EF0384
:105120000090E803002A09F483C03091E403349D21
:10513000E119900B800A800B2091E503249DE01972
:105140009109800A800B1091E603149D9019810843
:10515000800B3B9FE0199109800A800B2B9F9019CF
:105160008108800B1B9F801881094A9E112D3327CF
:1051700022274F9E100D311D201FBA9F100D311D8B
:10518000201FBF9F300D211D432EB22F3091E00311
:10519000349DE10D901F801E801F2091E103249D0E
:1051A000E00D911D801E801F1091E203149D900D53
:1051B000811C801F3B9FE00D911D801E801F2B9F37
:1051C000900D811C801F1B9F800C811D4A9E112DFC
:1051D000332722274F9E100D311D201FBA9F100D1F
:1051E000311D201FBF9F300D211D432EB22F309146
:1051F000DC03349DE119900B800A800B2091DD03C4
:10520000249DE0199109800A800B1091DE03149D02
:1052100090198108800B3B9FE0199109800A800B4F
:105220002B9F90198108800B1B9F8018810982C0D9
:105230003091E403349DE10D901F801E801F20916A
:10524000E503249DE00D911D801E801F1091E60353
:10525000149D900D811C801F3B9FE00D911D801EB1
:10526000801F2B9F900D811C801F1B9F800C811D18
:105270004A9E112D332722274F9E100D311D201FCE
:10528000BA9F100D311D201FBF9F300D211D432ED1
:10529000B22F3091E003349DE119900B800A800B0E
:1052A0002091E103249DE0199109800A800B10915F
:1052B000E203149D90198108800B3B9FE01991092E
:1052C000800A800B2B9F90198108800B1B9F8018F0
:1052D00081094A9E112D332722274F9E100D311D23
:1052E000201FBA9F100D311D201FBF9F300D211DA3
:1052F000432EB22F3091DC03349DE10D901F801EB0
:10530000801F2091DD03249DE00D911D801E801FD4
:105310001091DE03149D900D811C801F3B9FE00DBA
:10532000911D801E801F2B9F900D811C801F1B9F35
:10533000800C811D11244A821983BB83AC83FD83B9
:10534000EE833F832887982C892EB12CA82E3CCE43
:1053500082A893A8A4A8B5A837CED501C401B69554
:10536000A795979587958C7F815D964EFC01C5909A
:10537000D490FC01329625913491F82DF770F29F6C
:10538000C001F39F900D1124F3E096958795FA954F
:10539000E1F7C81AD90AF12CE12C69CE4091E80A4C
:1053A0005091E90A6091EA0A7091EB0A481759078F
:1053B0006A077B0708F02BC28090E30A9090E40A0A
:1053C000A090E50AB090E60A8091E70A81117CC0BE
:1053D000DF01AE5BBF4FED90FD900D911C911397D7
:1053E0001D962D913D914D915C9162A973A984A95F
:1053F00095A90E945313442443944092E70AE091F4
:10540000020BF091030B42A953A964A975A98FE27D
:1054100091E2A1E0FC0105911591259134910417C9
:1054200015072607370768F47695679557954795CA
:10543000AA0F04963BE4632E31E2732E68167906B8
:1054400049F7A093EC0A403251056105710520F43B
:1054500040E250E060E070E040525109610971099A
:10546000411528E052076105710508F4B0C134E028
:10547000539FC0011124815D924EFC01329625910B
:105480003491AA27439FF001429FE10DFA1F069431
:10549000EA1FFA1F1124AF0170E060E0FC01C59023
:1054A000D490F12CE12CC41AD50AE60AF70A8C0C28
:1054B0009D1CAE1CBF1C8092E30A9092E40AA0924D
:1054C000E50AB092E60A20CD82AD93ADA4ADB5ADAC
:1054D00088169906AA06BB0608F072C181149104C9
:1054E000A104B10449F44091ED035091EE036091A1
:1054F000EF037091F0038BCFA0E0F985982D492D33
:105500008A2DEA857B856C85BD855E853F852889EA
:105510005091E903599F612DBB273091EA03399FD0
:10552000600DB11D1090EB03199EB00D549F600DDE
:10553000B11D349FB00D589FB00DE62F7B2FE69F15
:10554000512D33272227EB9F500D311D2A1F769FA7
:10555000500D311D2A1F7B9F300D211DE32F722F0F
:10556000E69FF12D33272227EB9FF00D311D2A1FD7
:10557000769FF00D311D2A1F7B9F300D211DE32FDB
:10558000722F55279091ED034091EE038091EF0328
:105590000090E8030A2A09F483C03091E4033E9F97
:1055A00051199A0B4A0B8A0B2091E5032E9F501933
:1055B00091094A0B8A0BF091E603FE9F901941096D
:1055C0008A0B379F501991094A0B8A0B279F901914
:1055D00041098A0BF79F40198109E69FF12D332776
:1055E0002227EB9FF00D311D2A1F769FF00D311DF4
:1055F0002A1F7B9F300D211DE32F722F3091E00376
:105600003E9F510D9A1F4A1F8A1F2091E1032E9F32
:10561000500D911D4A1F8A1FF091E203FE9F900DCD
:10562000411D8A1F379F500D911D4A1F8A1F279FBA
:10563000900D411D8A1FF79F400D811DE69FF12DA2
:1056400033272227EB9FF00D311D2A1F769FF00D87
:10565000311D2A1F7B9F300D211DE32F722F3091AA
:10566000DC033E9F51199A0B4A0B8A0B2091DD03F4
:105670002E9F501991094A0B8A0BF091DE03FE9F71
:10568000901941098A0B379F501991094A0B8A0BCF
:10569000279F901941098A0BF79F4019810982C001
:1056A0003091E4033E9F510D9A1F4A1F8A1F20919B
:1056B000E5032E9F500D911D4A1F8A1FF091E603AE
:1056C000FE9F900D411D8A1F379F500D911D4A1F4F
:1056D0008A1F279F900D411D8A1FF79F400D811D36
:1056E000E69FF12D33272227EB9FF00D311D2A1F56
:1056F000769FF00D311D2A1F7B9F300D211DE32F5A
:10570000722F3091E0033E9F51199A0B4A0B8A0B7E
:105710002091E1032E9F501991094A0B8A0BF091B9
:10572000E203FE9F901941098A0B379F5019910996
:105730004A0B8A0B279F901941098A0BF79F401942
:105740008109E69FF12D33272227EB9FF00D311DB4
:105750002A1F769FF00D311D2A1F7B9F300D211DC2
:10576000E32F722F3091DC033E9F510D9A1F4A1F89
:105770008A1F2091DD032E9F500D911D4A1F8A1F05
:10578000F091DE03FE9F900D411D8A1F379F500D43
:10579000911D4A1F8A1F279F900D411D8A1FF79F49
:1057A000400D811D1124F987EA877B876C87BD87AF
:1057B0005E873F87288B542F492F70E0682F27CEB4
:1057C000E15BFF4F408151816281738120CEDB011B
:1057D000CA01B695A795979587958C7F815D964E62
:1057E000FC01C590D490FC0132962591349147700C
:1057F000429FC001439F900D112403E09695879529
:105800000A95E1F7C81AD90AF12CE12C50CE809103
:10581000330290913402A0913502B0913602B7FF65
:105820005FC0E95BFF4FC080D180E280F3808FE2F0
:1058300091E221E0FC0145915591659174914C15DF
:105840005D056E057F0558F4F694E794D794C794E8
:10585000220F04964BE451E24817590759F7209359
:10586000EC0A50E2C516D104E104F10428F4F0E298
:10587000CF2ED12CE12CF12C60E2C61AD108E10820
:10588000F108C11478E0D706E104F10408F431C04E
:10589000A4E0DA9EC0011124815D924EFC01329693
:1058A00025913491BC2D6627B39FA001B29F410D75
:1058B000561F0694461F561F112470E060E0FC013D
:1058C00085919491B0E0A0E0841B950BA60BB70BDB
:1058D0008093330290933402A0933502B093360242
:1058E000C0903302D0903402E0903502F09036023E
:1058F0000BCBD701C601B695A795979587958C7F59
:10590000815D964EFC0125913491FC0132964591C2
:105910005491FC2DF770F49FC001F59F900D112458
:10592000E3E096958795EA95E1F7281B390BC901C5
:10593000B0E0A0E0CDCF458956896789708DC18CD4
:10594000D28CE38CF48CDF01AA5BBF4F4C904A8A67
:1059500081E04C155D056E057F0509F0A2C180E070
:10596000411551056105710551F0242D2170942DCB
:105970009695917081E0291380E0291392C1058DDD
:10598000168D278D30A1011511052105310509F06E
:1059900084608093F50A1092E30A1092E40A109250
:1059A000E50A1092E60A1092ED0A1092EE0A1092A1
:1059B000EF0A1092F00A85A196A1A7A1B0A5809345
:1059C000F60A9093F70AA093F80AB093F90A88248C
:1059D00099245401881A990AAA0ABB0A8092D30A08
:1059E0009092D40AA092D50AB092D60A8092D70A91
:1059F0009092D80AA092D90AB092DA0A8092DB0A71
:105A00009092DC0AA092DD0AB092DE0A81A092A0F8
:105A1000A3A0B4A0880C991CAA1CBB1C440F551F42
:105A2000661F771F4093C30A5093C40A6093C50A48
:105A30007093C60ACC0CDD1CEE1CFF1CC092C70A7A
:105A4000D092C80AE092C90AF092CA0A000F111F48
:105A5000221F331F0093CB0A1093CC0A2093CD0A48
:105A60003093CE0A8092CF0A9092D00AA092D10AA7
:105A7000B092D20A880F991FAA1FBB1F8093BF0A3A
:105A80009093C00AA093C10AB093C20A1092FA0A76
:105A90001092FB0A1092FC0A1092FD0A82A593A5AF
:105AA000A4A5B5A58093F10A9093F20AA093F30AF6
:105AB000B093F40A86A597A5A0A9B1A98093E80A96
:105AC0009093E90AA093EA0AB093EB0A81A5809328
:105AD000BE0A9091A60B5A88951104C0909132028B
